{
	"contracts/MatchContract.sol": {
		"MatchContract": {
			"abi": [
				{
					"anonymous": false,
					"inputs": [
						{
							"indexed": true,
							"internalType": "uint256",
							"name": "matchId",
							"type": "uint256"
						}
					],
					"name": "DisputeInitiated",
					"type": "event"
				},
				{
					"anonymous": false,
					"inputs": [
						{
							"indexed": true,
							"internalType": "uint256",
							"name": "matchId",
							"type": "uint256"
						},
						{
							"indexed": false,
							"internalType": "address",
							"name": "juror",
							"type": "address"
						},
						{
							"indexed": false,
							"internalType": "uint256",
							"name": "vote",
							"type": "uint256"
						}
					],
					"name": "JuryVoted",
					"type": "event"
				},
				{
					"anonymous": false,
					"inputs": [
						{
							"indexed": true,
							"internalType": "uint256",
							"name": "matchId",
							"type": "uint256"
						},
						{
							"indexed": false,
							"internalType": "address",
							"name": "player1",
							"type": "address"
						},
						{
							"indexed": false,
							"internalType": "address",
							"name": "player2",
							"type": "address"
						}
					],
					"name": "MatchCreated",
					"type": "event"
				},
				{
					"anonymous": false,
					"inputs": [
						{
							"indexed": true,
							"internalType": "uint256",
							"name": "matchId",
							"type": "uint256"
						},
						{
							"indexed": false,
							"internalType": "address",
							"name": "winner",
							"type": "address"
						}
					],
					"name": "MatchResolved",
					"type": "event"
				},
				{
					"anonymous": false,
					"inputs": [
						{
							"indexed": true,
							"internalType": "uint256",
							"name": "matchId",
							"type": "uint256"
						},
						{
							"indexed": false,
							"internalType": "address",
							"name": "player",
							"type": "address"
						}
					],
					"name": "ResultRevealed",
					"type": "event"
				},
				{
					"inputs": [],
					"name": "JURY_REWARD",
					"outputs": [
						{
							"internalType": "uint256",
							"name": "",
							"type": "uint256"
						}
					],
					"stateMutability": "view",
					"type": "function"
				},
				{
					"inputs": [],
					"name": "JURY_STAKE",
					"outputs": [
						{
							"internalType": "uint256",
							"name": "",
							"type": "uint256"
						}
					],
					"stateMutability": "view",
					"type": "function"
				},
				{
					"inputs": [],
					"name": "REP_JURY_VOTE",
					"outputs": [
						{
							"internalType": "int256",
							"name": "",
							"type": "int256"
						}
					],
					"stateMutability": "view",
					"type": "function"
				},
				{
					"inputs": [],
					"name": "REP_LIED",
					"outputs": [
						{
							"internalType": "int256",
							"name": "",
							"type": "int256"
						}
					],
					"stateMutability": "view",
					"type": "function"
				},
				{
					"inputs": [],
					"name": "REP_NO_REVEAL",
					"outputs": [
						{
							"internalType": "int256",
							"name": "",
							"type": "int256"
						}
					],
					"stateMutability": "view",
					"type": "function"
				},
				{
					"inputs": [],
					"name": "REP_TRUTHFUL",
					"outputs": [
						{
							"internalType": "int256",
							"name": "",
							"type": "int256"
						}
					],
					"stateMutability": "view",
					"type": "function"
				},
				{
					"inputs": [],
					"name": "REP_WIN",
					"outputs": [
						{
							"internalType": "int256",
							"name": "",
							"type": "int256"
						}
					],
					"stateMutability": "view",
					"type": "function"
				},
				{
					"inputs": [],
					"name": "REVEAL_PERIOD",
					"outputs": [
						{
							"internalType": "uint256",
							"name": "",
							"type": "uint256"
						}
					],
					"stateMutability": "view",
					"type": "function"
				},
				{
					"inputs": [
						{
							"internalType": "address",
							"name": "player",
							"type": "address"
						}
					],
					"name": "banCheater",
					"outputs": [],
					"stateMutability": "nonpayable",
					"type": "function"
				},
				{
					"inputs": [
						{
							"internalType": "uint256",
							"name": "matchId",
							"type": "uint256"
						},
						{
							"internalType": "bytes32",
							"name": "hashedCommitment",
							"type": "bytes32"
						}
					],
					"name": "commitResult",
					"outputs": [],
					"stateMutability": "nonpayable",
					"type": "function"
				},
				{
					"inputs": [
						{
							"internalType": "address",
							"name": "opponent",
							"type": "address"
						}
					],
					"name": "createMatch",
					"outputs": [],
					"stateMutability": "payable",
					"type": "function"
				},
				{
					"inputs": [
						{
							"internalType": "address",
							"name": "player",
							"type": "address"
						}
					],
					"name": "getStakeAmount",
					"outputs": [
						{
							"internalType": "uint256",
							"name": "",
							"type": "uint256"
						}
					],
					"stateMutability": "view",
					"type": "function"
				},
				{
					"inputs": [
						{
							"internalType": "uint256",
							"name": "matchId",
							"type": "uint256"
						}
					],
					"name": "joinJury",
					"outputs": [],
					"stateMutability": "payable",
					"type": "function"
				},
				{
					"inputs": [],
					"name": "matchCounter",
					"outputs": [
						{
							"internalType": "uint256",
							"name": "",
							"type": "uint256"
						}
					],
					"stateMutability": "view",
					"type": "function"
				},
				{
					"inputs": [
						{
							"internalType": "uint256",
							"name": "",
							"type": "uint256"
						}
					],
					"name": "matches",
					"outputs": [
						{
							"internalType": "address",
							"name": "player1",
							"type": "address"
						},
						{
							"internalType": "address",
							"name": "player2",
							"type": "address"
						},
						{
							"internalType": "bytes32",
							"name": "player1Commit",
							"type": "bytes32"
						},
						{
							"internalType": "bytes32",
							"name": "player2Commit",
							"type": "bytes32"
						},
						{
							"internalType": "string",
							"name": "player1Result",
							"type": "string"
						},
						{
							"internalType": "string",
							"name": "player2Result",
							"type": "string"
						},
						{
							"internalType": "bytes32",
							"name": "player1Salt",
							"type": "bytes32"
						},
						{
							"internalType": "bytes32",
							"name": "player2Salt",
							"type": "bytes32"
						},
						{
							"internalType": "enum MatchContract.MatchStatus",
							"name": "status",
							"type": "uint8"
						},
						{
							"internalType": "uint256",
							"name": "stakeAmount",
							"type": "uint256"
						},
						{
							"internalType": "uint256",
							"name": "revealDeadline",
							"type": "uint256"
						}
					],
					"stateMutability": "view",
					"type": "function"
				},
				{
					"inputs": [
						{
							"internalType": "address",
							"name": "",
							"type": "address"
						}
					],
					"name": "players",
					"outputs": [
						{
							"internalType": "int256",
							"name": "reputation",
							"type": "int256"
						},
						{
							"internalType": "uint256",
							"name": "totalMatches",
							"type": "uint256"
						},
						{
							"internalType": "bool",
							"name": "isBanned",
							"type": "bool"
						}
					],
					"stateMutability": "view",
					"type": "function"
				},
				{
					"inputs": [
						{
							"internalType": "uint256",
							"name": "matchId",
							"type": "uint256"
						},
						{
							"internalType": "bytes32",
							"name": "salt",
							"type": "bytes32"
						},
						{
							"internalType": "string",
							"name": "result",
							"type": "string"
						}
					],
					"name": "revealResult",
					"outputs": [],
					"stateMutability": "nonpayable",
					"type": "function"
				},
				{
					"inputs": [
						{
							"internalType": "uint256",
							"name": "matchId",
							"type": "uint256"
						},
						{
							"internalType": "uint256",
							"name": "vote",
							"type": "uint256"
						}
					],
					"name": "voteAsJuror",
					"outputs": [],
					"stateMutability": "nonpayable",
					"type": "function"
				}
			],
			"devdoc": {
				"kind": "dev",
				"methods": {},
				"version": 1
			},
			"evm": {
				"assembly": "    /* \"contracts/MatchContract.sol\":60:7780  contract MatchContract {... */\n  mstore(0x40, 0x80)\n  callvalue\n  dup1\n  iszero\n  tag_1\n  jumpi\n  0x00\n  dup1\n  revert\ntag_1:\n  pop\n  dataSize(sub_0)\n  dup1\n  dataOffset(sub_0)\n  0x00\n  codecopy\n  0x00\n  return\nstop\n\nsub_0: assembly {\n        /* \"contracts/MatchContract.sol\":60:7780  contract MatchContract {... */\n      mstore(0x40, 0x80)\n      jumpi(tag_1, lt(calldatasize, 0x04))\n      shr(0xe0, calldataload(0x00))\n      dup1\n      0x6be6258b\n      gt\n      tag_20\n      jumpi\n      dup1\n      0xc3529f31\n      gt\n      tag_21\n      jumpi\n      dup1\n      0xc3529f31\n      eq\n      tag_15\n      jumpi\n      dup1\n      0xc7825a0e\n      eq\n      tag_16\n      jumpi\n      dup1\n      0xe0aff415\n      eq\n      tag_17\n      jumpi\n      dup1\n      0xe2eb41ff\n      eq\n      tag_18\n      jumpi\n      dup1\n      0xfccac4ac\n      eq\n      tag_19\n      jumpi\n      jump(tag_1)\n    tag_21:\n      dup1\n      0x6be6258b\n      eq\n      tag_11\n      jumpi\n      dup1\n      0x72352776\n      eq\n      tag_12\n      jumpi\n      dup1\n      0x8b227ff4\n      eq\n      tag_13\n      jumpi\n      dup1\n      0xa4785d14\n      eq\n      tag_14\n      jumpi\n      jump(tag_1)\n    tag_20:\n      dup1\n      0x21036b8a\n      gt\n      tag_22\n      jumpi\n      dup1\n      0x21036b8a\n      eq\n      tag_6\n      jumpi\n      dup1\n      0x27a69176\n      eq\n      tag_7\n      jumpi\n      dup1\n      0x4768d4ef\n      eq\n      tag_8\n      jumpi\n      dup1\n      0x583262ab\n      eq\n      tag_9\n      jumpi\n      dup1\n      0x625535d1\n      eq\n      tag_10\n      jumpi\n      jump(tag_1)\n    tag_22:\n      dup1\n      0x01fd1951\n      eq\n      tag_2\n      jumpi\n      dup1\n      0x02edf4b4\n      eq\n      tag_3\n      jumpi\n      dup1\n      0x0ac2c4c3\n      eq\n      tag_4\n      jumpi\n      dup1\n      0x0c2eb403\n      eq\n      tag_5\n      jumpi\n    tag_1:\n      0x00\n      dup1\n      revert\n        /* \"contracts/MatchContract.sol\":1357:1384  uint256 public matchCounter */\n    tag_2:\n      callvalue\n      dup1\n      iszero\n      tag_23\n      jumpi\n      0x00\n      dup1\n      revert\n    tag_23:\n      pop\n      tag_24\n      tag_25\n      jump\t// in\n    tag_24:\n      mload(0x40)\n      tag_26\n      swap2\n      swap1\n      tag_27\n      jump\t// in\n    tag_26:\n      mload(0x40)\n      dup1\n      swap2\n      sub\n      swap1\n      return\n        /* \"contracts/MatchContract.sol\":1197:1237  int256 public constant REP_JURY_VOTE = 5 */\n    tag_3:\n      callvalue\n      dup1\n      iszero\n      tag_28\n      jumpi\n      0x00\n      dup1\n      revert\n    tag_28:\n      pop\n      tag_29\n      tag_30\n      jump\t// in\n    tag_29:\n      mload(0x40)\n      tag_31\n      swap2\n      swap1\n      tag_32\n      jump\t// in\n    tag_31:\n      mload(0x40)\n      dup1\n      swap2\n      sub\n      swap1\n      return\n        /* \"contracts/MatchContract.sol\":1057:1097  int256 public constant REP_TRUTHFUL = 10 */\n    tag_4:\n      callvalue\n      dup1\n      iszero\n      tag_33\n      jumpi\n      0x00\n      dup1\n      revert\n    tag_33:\n      pop\n      tag_34\n      tag_35\n      jump\t// in\n    tag_34:\n      mload(0x40)\n      tag_36\n      swap2\n      swap1\n      tag_32\n      jump\t// in\n    tag_36:\n      mload(0x40)\n      dup1\n      swap2\n      sub\n      swap1\n      return\n        /* \"contracts/MatchContract.sol\":7373:7602  function getStakeAmount(address player) public view returns (uint256) {... */\n    tag_5:\n      callvalue\n      dup1\n      iszero\n      tag_37\n      jumpi\n      0x00\n      dup1\n      revert\n    tag_37:\n      pop\n      tag_38\n      0x04\n      dup1\n      calldatasize\n      sub\n      dup2\n      add\n      swap1\n      tag_39\n      swap2\n      swap1\n      tag_40\n      jump\t// in\n    tag_39:\n      tag_41\n      jump\t// in\n    tag_38:\n      mload(0x40)\n      tag_42\n      swap2\n      swap1\n      tag_27\n      jump\t// in\n    tag_42:\n      mload(0x40)\n      dup1\n      swap2\n      sub\n      swap1\n      return\n        /* \"contracts/MatchContract.sol\":4647:5006  function joinJury(uint256 matchId) external payable {... */\n    tag_6:\n      tag_43\n      0x04\n      dup1\n      calldatasize\n      sub\n      dup2\n      add\n      swap1\n      tag_44\n      swap2\n      swap1\n      tag_45\n      jump\t// in\n    tag_44:\n      tag_46\n      jump\t// in\n    tag_43:\n      stop\n        /* \"contracts/MatchContract.sol\":822:868  uint256 public constant JURY_STAKE = 0.1 ether */\n    tag_7:\n      callvalue\n      dup1\n      iszero\n      tag_47\n      jumpi\n      0x00\n      dup1\n      revert\n    tag_47:\n      pop\n      tag_48\n      tag_49\n      jump\t// in\n    tag_48:\n      mload(0x40)\n      tag_50\n      swap2\n      swap1\n      tag_27\n      jump\t// in\n    tag_50:\n      mload(0x40)\n      dup1\n      swap2\n      sub\n      swap1\n      return\n        /* \"contracts/MatchContract.sol\":1262:1302  mapping(uint256 => Match) public matches */\n    tag_8:\n      callvalue\n      dup1\n      iszero\n      tag_51\n      jumpi\n      0x00\n      dup1\n      revert\n    tag_51:\n      pop\n      tag_52\n      0x04\n      dup1\n      calldatasize\n      sub\n      dup2\n      add\n      swap1\n      tag_53\n      swap2\n      swap1\n      tag_45\n      jump\t// in\n    tag_53:\n      tag_54\n      jump\t// in\n    tag_52:\n      mload(0x40)\n      tag_55\n      swap12\n      swap11\n      swap10\n      swap9\n      swap8\n      swap7\n      swap6\n      swap5\n      swap4\n      swap3\n      swap2\n      swap1\n      tag_56\n      jump\t// in\n    tag_55:\n      mload(0x40)\n      dup1\n      swap2\n      sub\n      swap1\n      return\n        /* \"contracts/MatchContract.sol\":2037:2690  function createMatch(address opponent) external payable {... */\n    tag_9:\n      tag_57\n      0x04\n      dup1\n      calldatasize\n      sub\n      dup2\n      add\n      swap1\n      tag_58\n      swap2\n      swap1\n      tag_40\n      jump\t// in\n    tag_58:\n      tag_59\n      jump\t// in\n    tag_57:\n      stop\n        /* \"contracts/MatchContract.sol\":5014:6108  function voteAsJuror(uint256 matchId, uint256 vote) external {... */\n    tag_10:\n      callvalue\n      dup1\n      iszero\n      tag_60\n      jumpi\n      0x00\n      dup1\n      revert\n    tag_60:\n      pop\n      tag_61\n      0x04\n      dup1\n      calldatasize\n      sub\n      dup2\n      add\n      swap1\n      tag_62\n      swap2\n      swap1\n      tag_63\n      jump\t// in\n    tag_62:\n      tag_64\n      jump\t// in\n    tag_61:\n      stop\n        /* \"contracts/MatchContract.sol\":875:923  uint256 public constant JURY_REWARD = 0.05 ether */\n    tag_11:\n      callvalue\n      dup1\n      iszero\n      tag_65\n      jumpi\n      0x00\n      dup1\n      revert\n    tag_65:\n      pop\n      tag_66\n      tag_67\n      jump\t// in\n    tag_66:\n      mload(0x40)\n      tag_68\n      swap2\n      swap1\n      tag_27\n      jump\t// in\n    tag_68:\n      mload(0x40)\n      dup1\n      swap2\n      sub\n      swap1\n      return\n        /* \"contracts/MatchContract.sol\":7610:7777  function banCheater(address player) external {... */\n    tag_12:\n      callvalue\n      dup1\n      iszero\n      tag_69\n      jumpi\n      0x00\n      dup1\n      revert\n    tag_69:\n      pop\n      tag_70\n      0x04\n      dup1\n      calldatasize\n      sub\n      dup2\n      add\n      swap1\n      tag_71\n      swap2\n      swap1\n      tag_40\n      jump\t// in\n    tag_71:\n      tag_72\n      jump\t// in\n    tag_70:\n      stop\n        /* \"contracts/MatchContract.sol\":1153:1190  int256 public constant REP_LIED = -50 */\n    tag_13:\n      callvalue\n      dup1\n      iszero\n      tag_73\n      jumpi\n      0x00\n      dup1\n      revert\n    tag_73:\n      pop\n      tag_74\n      tag_75\n      jump\t// in\n    tag_74:\n      mload(0x40)\n      tag_76\n      swap2\n      swap1\n      tag_32\n      jump\t// in\n    tag_76:\n      mload(0x40)\n      dup1\n      swap2\n      sub\n      swap1\n      return\n        /* \"contracts/MatchContract.sol\":1104:1146  int256 public constant REP_NO_REVEAL = -25 */\n    tag_14:\n      callvalue\n      dup1\n      iszero\n      tag_77\n      jumpi\n      0x00\n      dup1\n      revert\n    tag_77:\n      pop\n      tag_78\n      tag_79\n      jump\t// in\n    tag_78:\n      mload(0x40)\n      tag_80\n      swap2\n      swap1\n      tag_32\n      jump\t// in\n    tag_80:\n      mload(0x40)\n      dup1\n      swap2\n      sub\n      swap1\n      return\n        /* \"contracts/MatchContract.sol\":930:976  uint256 public constant REVEAL_PERIOD = 2 days */\n    tag_15:\n      callvalue\n      dup1\n      iszero\n      tag_81\n      jumpi\n      0x00\n      dup1\n      revert\n    tag_81:\n      pop\n      tag_82\n      tag_83\n      jump\t// in\n    tag_82:\n      mload(0x40)\n      tag_84\n      swap2\n      swap1\n      tag_27\n      jump\t// in\n    tag_84:\n      mload(0x40)\n      dup1\n      swap2\n      sub\n      swap1\n      return\n        /* \"contracts/MatchContract.sol\":2719:3309  function commitResult(uint256 matchId, bytes32 hashedCommitment) external onlyPlayers(matchId) {... */\n    tag_16:\n      callvalue\n      dup1\n      iszero\n      tag_85\n      jumpi\n      0x00\n      dup1\n      revert\n    tag_85:\n      pop\n      tag_86\n      0x04\n      dup1\n      calldatasize\n      sub\n      dup2\n      add\n      swap1\n      tag_87\n      swap2\n      swap1\n      tag_88\n      jump\t// in\n    tag_87:\n      tag_89\n      jump\t// in\n    tag_86:\n      stop\n        /* \"contracts/MatchContract.sol\":1015:1050  int256 public constant REP_WIN = 15 */\n    tag_17:\n      callvalue\n      dup1\n      iszero\n      tag_90\n      jumpi\n      0x00\n      dup1\n      revert\n    tag_90:\n      pop\n      tag_91\n      tag_92\n      jump\t// in\n    tag_91:\n      mload(0x40)\n      tag_93\n      swap2\n      swap1\n      tag_32\n      jump\t// in\n    tag_93:\n      mload(0x40)\n      dup1\n      swap2\n      sub\n      swap1\n      return\n        /* \"contracts/MatchContract.sol\":1309:1350  mapping(address => Player) public players */\n    tag_18:\n      callvalue\n      dup1\n      iszero\n      tag_94\n      jumpi\n      0x00\n      dup1\n      revert\n    tag_94:\n      pop\n      tag_95\n      0x04\n      dup1\n      calldatasize\n      sub\n      dup2\n      add\n      swap1\n      tag_96\n      swap2\n      swap1\n      tag_40\n      jump\t// in\n    tag_96:\n      tag_97\n      jump\t// in\n    tag_95:\n      mload(0x40)\n      tag_98\n      swap4\n      swap3\n      swap2\n      swap1\n      tag_99\n      jump\t// in\n    tag_98:\n      mload(0x40)\n      dup1\n      swap2\n      sub\n      swap1\n      return\n        /* \"contracts/MatchContract.sol\":3338:4619  function revealResult(uint256 matchId, bytes32 salt, string memory result) external onlyPlayers(matchId) {... */\n    tag_19:\n      callvalue\n      dup1\n      iszero\n      tag_100\n      jumpi\n      0x00\n      dup1\n      revert\n    tag_100:\n      pop\n      tag_101\n      0x04\n      dup1\n      calldatasize\n      sub\n      dup2\n      add\n      swap1\n      tag_102\n      swap2\n      swap1\n      tag_103\n      jump\t// in\n    tag_102:\n      tag_104\n      jump\t// in\n    tag_101:\n      stop\n        /* \"contracts/MatchContract.sol\":1357:1384  uint256 public matchCounter */\n    tag_25:\n      sload(0x02)\n      dup2\n      jump\t// out\n        /* \"contracts/MatchContract.sol\":1197:1237  int256 public constant REP_JURY_VOTE = 5 */\n    tag_30:\n        /* \"contracts/MatchContract.sol\":1236:1237  5 */\n      0x05\n        /* \"contracts/MatchContract.sol\":1197:1237  int256 public constant REP_JURY_VOTE = 5 */\n      dup2\n      jump\t// out\n        /* \"contracts/MatchContract.sol\":1057:1097  int256 public constant REP_TRUTHFUL = 10 */\n    tag_35:\n        /* \"contracts/MatchContract.sol\":1095:1097  10 */\n      0x0a\n        /* \"contracts/MatchContract.sol\":1057:1097  int256 public constant REP_TRUTHFUL = 10 */\n      dup2\n      jump\t// out\n        /* \"contracts/MatchContract.sol\":7373:7602  function getStakeAmount(address player) public view returns (uint256) {... */\n    tag_41:\n        /* \"contracts/MatchContract.sol\":7434:7441  uint256 */\n      0x00\n        /* \"contracts/MatchContract.sol\":7488:7490  50 */\n      0x32\n        /* \"contracts/MatchContract.sol\":7458:7465  players */\n      0x01\n        /* \"contracts/MatchContract.sol\":7458:7473  players[player] */\n      0x00\n        /* \"contracts/MatchContract.sol\":7466:7472  player */\n      dup5\n        /* \"contracts/MatchContract.sol\":7458:7473  players[player] */\n      0xffffffffffffffffffffffffffffffffffffffff\n      and\n      0xffffffffffffffffffffffffffffffffffffffff\n      and\n      dup2\n      mstore\n      0x20\n      add\n      swap1\n      dup2\n      mstore\n      0x20\n      add\n      0x00\n      keccak256\n        /* \"contracts/MatchContract.sol\":7458:7484  players[player].reputation */\n      0x00\n      add\n      sload\n        /* \"contracts/MatchContract.sol\":7458:7490  players[player].reputation >= 50 */\n      slt\n        /* \"contracts/MatchContract.sol\":7454:7508  if (players[player].reputation >= 50) return 0.5 ether */\n      tag_106\n      jumpi\n        /* \"contracts/MatchContract.sol\":7499:7508  0.5 ether */\n      0x06f05b59d3b20000\n        /* \"contracts/MatchContract.sol\":7492:7508  return 0.5 ether */\n      swap1\n      pop\n      jump(tag_105)\n        /* \"contracts/MatchContract.sol\":7454:7508  if (players[player].reputation >= 50) return 0.5 ether */\n    tag_106:\n        /* \"contracts/MatchContract.sol\":7552:7553  0 */\n      0x00\n        /* \"contracts/MatchContract.sol\":7523:7530  players */\n      0x01\n        /* \"contracts/MatchContract.sol\":7523:7538  players[player] */\n      0x00\n        /* \"contracts/MatchContract.sol\":7531:7537  player */\n      dup5\n        /* \"contracts/MatchContract.sol\":7523:7538  players[player] */\n      0xffffffffffffffffffffffffffffffffffffffff\n      and\n      0xffffffffffffffffffffffffffffffffffffffff\n      and\n      dup2\n      mstore\n      0x20\n      add\n      swap1\n      dup2\n      mstore\n      0x20\n      add\n      0x00\n      keccak256\n        /* \"contracts/MatchContract.sol\":7523:7549  players[player].reputation */\n      0x00\n      add\n      sload\n        /* \"contracts/MatchContract.sol\":7523:7553  players[player].reputation < 0 */\n      slt\n        /* \"contracts/MatchContract.sol\":7519:7569  if (players[player].reputation < 0) return 2 ether */\n      iszero\n      tag_107\n      jumpi\n        /* \"contracts/MatchContract.sol\":7562:7569  2 ether */\n      0x1bc16d674ec80000\n        /* \"contracts/MatchContract.sol\":7555:7569  return 2 ether */\n      swap1\n      pop\n      jump(tag_105)\n        /* \"contracts/MatchContract.sol\":7519:7569  if (players[player].reputation < 0) return 2 ether */\n    tag_107:\n        /* \"contracts/MatchContract.sol\":7587:7594  1 ether */\n      0x0de0b6b3a7640000\n        /* \"contracts/MatchContract.sol\":7580:7594  return 1 ether */\n      swap1\n      pop\n        /* \"contracts/MatchContract.sol\":7373:7602  function getStakeAmount(address player) public view returns (uint256) {... */\n    tag_105:\n      swap2\n      swap1\n      pop\n      jump\t// out\n        /* \"contracts/MatchContract.sol\":4647:5006  function joinJury(uint256 matchId) external payable {... */\n    tag_46:\n        /* \"contracts/MatchContract.sol\":4719:4726  players */\n      0x01\n        /* \"contracts/MatchContract.sol\":4719:4738  players[msg.sender] */\n      0x00\n        /* \"contracts/MatchContract.sol\":4727:4737  msg.sender */\n      caller\n        /* \"contracts/MatchContract.sol\":4719:4738  players[msg.sender] */\n      0xffffffffffffffffffffffffffffffffffffffff\n      and\n      0xffffffffffffffffffffffffffffffffffffffff\n      and\n      dup2\n      mstore\n      0x20\n      add\n      swap1\n      dup2\n      mstore\n      0x20\n      add\n      0x00\n      keccak256\n        /* \"contracts/MatchContract.sol\":4719:4747  players[msg.sender].isBanned */\n      0x02\n      add\n      0x00\n      swap1\n      sload\n      swap1\n      0x0100\n      exp\n      swap1\n      div\n      0xff\n      and\n        /* \"contracts/MatchContract.sol\":4718:4747  !players[msg.sender].isBanned */\n      iszero\n        /* \"contracts/MatchContract.sol\":4710:4766  require(!players[msg.sender].isBanned, \"You are banned\") */\n      tag_109\n      jumpi\n      mload(0x40)\n      0x08c379a000000000000000000000000000000000000000000000000000000000\n      dup2\n      mstore\n      0x04\n      add\n      tag_110\n      swap1\n      tag_111\n      jump\t// in\n    tag_110:\n      mload(0x40)\n      dup1\n      swap2\n      sub\n      swap1\n      revert\n    tag_109:\n        /* \"contracts/MatchContract.sol\":859:868  0.1 ether */\n      0x016345785d8a0000\n        /* \"contracts/MatchContract.sol\":4785:4794  msg.value */\n      callvalue\n        /* \"contracts/MatchContract.sol\":4785:4808  msg.value == JURY_STAKE */\n      eq\n        /* \"contracts/MatchContract.sol\":4777:4833  require(msg.value == JURY_STAKE, \"Incorrect jury stake\") */\n      tag_112\n      jumpi\n      mload(0x40)\n      0x08c379a000000000000000000000000000000000000000000000000000000000\n      dup2\n      mstore\n      0x04\n      add\n      tag_113\n      swap1\n      tag_114\n      jump\t// in\n    tag_113:\n      mload(0x40)\n      dup1\n      swap2\n      sub\n      swap1\n      revert\n    tag_112:\n        /* \"contracts/MatchContract.sol\":4854:4869  Match storage m */\n      0x00\n        /* \"contracts/MatchContract.sol\":4872:4879  matches */\n      dup1\n        /* \"contracts/MatchContract.sol\":4872:4888  matches[matchId] */\n      0x00\n        /* \"contracts/MatchContract.sol\":4880:4887  matchId */\n      dup4\n        /* \"contracts/MatchContract.sol\":4872:4888  matches[matchId] */\n      dup2\n      mstore\n      0x20\n      add\n      swap1\n      dup2\n      mstore\n      0x20\n      add\n      0x00\n      keccak256\n        /* \"contracts/MatchContract.sol\":4854:4888  Match storage m = matches[matchId] */\n      swap1\n      pop\n        /* \"contracts/MatchContract.sol\":4919:4938  MatchStatus.Dispute */\n      0x02\n        /* \"contracts/MatchContract.sol\":4907:4938  m.status == MatchStatus.Dispute */\n      0x03\n      dup2\n      gt\n      iszero\n      tag_115\n      jumpi\n      tag_116\n      tag_117\n      jump\t// in\n    tag_116:\n    tag_115:\n        /* \"contracts/MatchContract.sol\":4907:4908  m */\n      dup2\n        /* \"contracts/MatchContract.sol\":4907:4915  m.status */\n      0x08\n      add\n      0x00\n      swap1\n      sload\n      swap1\n      0x0100\n      exp\n      swap1\n      div\n      0xff\n      and\n        /* \"contracts/MatchContract.sol\":4907:4938  m.status == MatchStatus.Dispute */\n      0x03\n      dup2\n      gt\n      iszero\n      tag_118\n      jumpi\n      tag_119\n      tag_117\n      jump\t// in\n    tag_119:\n    tag_118:\n      eq\n        /* \"contracts/MatchContract.sol\":4899:4960  require(m.status == MatchStatus.Dispute, \"No active dispute\") */\n      tag_120\n      jumpi\n      mload(0x40)\n      0x08c379a000000000000000000000000000000000000000000000000000000000\n      dup2\n      mstore\n      0x04\n      add\n      tag_121\n      swap1\n      tag_122\n      jump\t// in\n    tag_121:\n      mload(0x40)\n      dup1\n      swap2\n      sub\n      swap1\n      revert\n    tag_120:\n        /* \"contracts/MatchContract.sol\":4971:4972  m */\n      dup1\n        /* \"contracts/MatchContract.sol\":4971:4981  m.juryPool */\n      0x0a\n      add\n        /* \"contracts/MatchContract.sol\":4987:4997  msg.sender */\n      caller\n        /* \"contracts/MatchContract.sol\":4971:4998  m.juryPool.push(msg.sender) */\n      swap1\n      dup1\n      0x01\n      dup2\n      sload\n      add\n      dup1\n      dup3\n      sstore\n      dup1\n      swap2\n      pop\n      pop\n      0x01\n      swap1\n      sub\n      swap1\n      0x00\n      mstore\n      keccak256(0x00, 0x20)\n      add\n      0x00\n      swap1\n      swap2\n      swap1\n      swap2\n      swap1\n      swap2\n      0x0100\n      exp\n      dup2\n      sload\n      dup2\n      0xffffffffffffffffffffffffffffffffffffffff\n      mul\n      not\n      and\n      swap1\n      dup4\n      0xffffffffffffffffffffffffffffffffffffffff\n      and\n      mul\n      or\n      swap1\n      sstore\n      pop\n        /* \"contracts/MatchContract.sol\":4699:5006  {... */\n      pop\n        /* \"contracts/MatchContract.sol\":4647:5006  function joinJury(uint256 matchId) external payable {... */\n      pop\n      jump\t// out\n        /* \"contracts/MatchContract.sol\":822:868  uint256 public constant JURY_STAKE = 0.1 ether */\n    tag_49:\n        /* \"contracts/MatchContract.sol\":859:868  0.1 ether */\n      0x016345785d8a0000\n        /* \"contracts/MatchContract.sol\":822:868  uint256 public constant JURY_STAKE = 0.1 ether */\n      dup2\n      jump\t// out\n        /* \"contracts/MatchContract.sol\":1262:1302  mapping(uint256 => Match) public matches */\n    tag_54:\n      mstore(0x20, 0x00)\n      dup1\n      0x00\n      mstore\n      keccak256(0x00, 0x40)\n      0x00\n      swap2\n      pop\n      swap1\n      pop\n      dup1\n      0x00\n      add\n      0x00\n      swap1\n      sload\n      swap1\n      0x0100\n      exp\n      swap1\n      div\n      0xffffffffffffffffffffffffffffffffffffffff\n      and\n      swap1\n      dup1\n      0x01\n      add\n      0x00\n      swap1\n      sload\n      swap1\n      0x0100\n      exp\n      swap1\n      div\n      0xffffffffffffffffffffffffffffffffffffffff\n      and\n      swap1\n      dup1\n      0x02\n      add\n      sload\n      swap1\n      dup1\n      0x03\n      add\n      sload\n      swap1\n      dup1\n      0x04\n      add\n      dup1\n      sload\n      tag_124\n      swap1\n      tag_125\n      jump\t// in\n    tag_124:\n      dup1\n      0x1f\n      add\n      0x20\n      dup1\n      swap2\n      div\n      mul\n      0x20\n      add\n      mload(0x40)\n      swap1\n      dup2\n      add\n      0x40\n      mstore\n      dup1\n      swap3\n      swap2\n      swap1\n      dup2\n      dup2\n      mstore\n      0x20\n      add\n      dup3\n      dup1\n      sload\n      tag_126\n      swap1\n      tag_125\n      jump\t// in\n    tag_126:\n      dup1\n      iszero\n      tag_127\n      jumpi\n      dup1\n      0x1f\n      lt\n      tag_128\n      jumpi\n      0x0100\n      dup1\n      dup4\n      sload\n      div\n      mul\n      dup4\n      mstore\n      swap2\n      0x20\n      add\n      swap2\n      jump(tag_127)\n    tag_128:\n      dup3\n      add\n      swap2\n      swap1\n      0x00\n      mstore\n      keccak256(0x00, 0x20)\n      swap1\n    tag_129:\n      dup2\n      sload\n      dup2\n      mstore\n      swap1\n      0x01\n      add\n      swap1\n      0x20\n      add\n      dup1\n      dup4\n      gt\n      tag_129\n      jumpi\n      dup3\n      swap1\n      sub\n      0x1f\n      and\n      dup3\n      add\n      swap2\n    tag_127:\n      pop\n      pop\n      pop\n      pop\n      pop\n      swap1\n      dup1\n      0x05\n      add\n      dup1\n      sload\n      tag_130\n      swap1\n      tag_125\n      jump\t// in\n    tag_130:\n      dup1\n      0x1f\n      add\n      0x20\n      dup1\n      swap2\n      div\n      mul\n      0x20\n      add\n      mload(0x40)\n      swap1\n      dup2\n      add\n      0x40\n      mstore\n      dup1\n      swap3\n      swap2\n      swap1\n      dup2\n      dup2\n      mstore\n      0x20\n      add\n      dup3\n      dup1\n      sload\n      tag_131\n      swap1\n      tag_125\n      jump\t// in\n    tag_131:\n      dup1\n      iszero\n      tag_132\n      jumpi\n      dup1\n      0x1f\n      lt\n      tag_133\n      jumpi\n      0x0100\n      dup1\n      dup4\n      sload\n      div\n      mul\n      dup4\n      mstore\n      swap2\n      0x20\n      add\n      swap2\n      jump(tag_132)\n    tag_133:\n      dup3\n      add\n      swap2\n      swap1\n      0x00\n      mstore\n      keccak256(0x00, 0x20)\n      swap1\n    tag_134:\n      dup2\n      sload\n      dup2\n      mstore\n      swap1\n      0x01\n      add\n      swap1\n      0x20\n      add\n      dup1\n      dup4\n      gt\n      tag_134\n      jumpi\n      dup3\n      swap1\n      sub\n      0x1f\n      and\n      dup3\n      add\n      swap2\n    tag_132:\n      pop\n      pop\n      pop\n      pop\n      pop\n      swap1\n      dup1\n      0x06\n      add\n      sload\n      swap1\n      dup1\n      0x07\n      add\n      sload\n      swap1\n      dup1\n      0x08\n      add\n      0x00\n      swap1\n      sload\n      swap1\n      0x0100\n      exp\n      swap1\n      div\n      0xff\n      and\n      swap1\n      dup1\n      0x09\n      add\n      sload\n      swap1\n      dup1\n      0x0c\n      add\n      sload\n      swap1\n      pop\n      dup12\n      jump\t// out\n        /* \"contracts/MatchContract.sol\":2037:2690  function createMatch(address opponent) external payable {... */\n    tag_59:\n        /* \"contracts/MatchContract.sol\":2113:2120  players */\n      0x01\n        /* \"contracts/MatchContract.sol\":2113:2132  players[msg.sender] */\n      0x00\n        /* \"contracts/MatchContract.sol\":2121:2131  msg.sender */\n      caller\n        /* \"contracts/MatchContract.sol\":2113:2132  players[msg.sender] */\n      0xffffffffffffffffffffffffffffffffffffffff\n      and\n      0xffffffffffffffffffffffffffffffffffffffff\n      and\n      dup2\n      mstore\n      0x20\n      add\n      swap1\n      dup2\n      mstore\n      0x20\n      add\n      0x00\n      keccak256\n        /* \"contracts/MatchContract.sol\":2113:2141  players[msg.sender].isBanned */\n      0x02\n      add\n      0x00\n      swap1\n      sload\n      swap1\n      0x0100\n      exp\n      swap1\n      div\n      0xff\n      and\n        /* \"contracts/MatchContract.sol\":2112:2141  !players[msg.sender].isBanned */\n      iszero\n        /* \"contracts/MatchContract.sol\":2104:2160  require(!players[msg.sender].isBanned, \"You are banned\") */\n      tag_136\n      jumpi\n      mload(0x40)\n      0x08c379a000000000000000000000000000000000000000000000000000000000\n      dup2\n      mstore\n      0x04\n      add\n      tag_137\n      swap1\n      tag_111\n      jump\t// in\n    tag_137:\n      mload(0x40)\n      dup1\n      swap2\n      sub\n      swap1\n      revert\n    tag_136:\n        /* \"contracts/MatchContract.sol\":2180:2187  players */\n      0x01\n        /* \"contracts/MatchContract.sol\":2180:2197  players[opponent] */\n      0x00\n        /* \"contracts/MatchContract.sol\":2188:2196  opponent */\n      dup3\n        /* \"contracts/MatchContract.sol\":2180:2197  players[opponent] */\n      0xffffffffffffffffffffffffffffffffffffffff\n      and\n      0xffffffffffffffffffffffffffffffffffffffff\n      and\n      dup2\n      mstore\n      0x20\n      add\n      swap1\n      dup2\n      mstore\n      0x20\n      add\n      0x00\n      keccak256\n        /* \"contracts/MatchContract.sol\":2180:2206  players[opponent].isBanned */\n      0x02\n      add\n      0x00\n      swap1\n      sload\n      swap1\n      0x0100\n      exp\n      swap1\n      div\n      0xff\n      and\n        /* \"contracts/MatchContract.sol\":2179:2206  !players[opponent].isBanned */\n      iszero\n        /* \"contracts/MatchContract.sol\":2171:2229  require(!players[opponent].isBanned, \"Opponent is banned\") */\n      tag_138\n      jumpi\n      mload(0x40)\n      0x08c379a000000000000000000000000000000000000000000000000000000000\n      dup2\n      mstore\n      0x04\n      add\n      tag_139\n      swap1\n      tag_140\n      jump\t// in\n    tag_139:\n      mload(0x40)\n      dup1\n      swap2\n      sub\n      swap1\n      revert\n    tag_138:\n        /* \"contracts/MatchContract.sol\":2250:2263  uint256 stake */\n      0x00\n        /* \"contracts/MatchContract.sol\":2266:2292  getStakeAmount(msg.sender) */\n      tag_141\n        /* \"contracts/MatchContract.sol\":2281:2291  msg.sender */\n      caller\n        /* \"contracts/MatchContract.sol\":2266:2280  getStakeAmount */\n      tag_41\n        /* \"contracts/MatchContract.sol\":2266:2292  getStakeAmount(msg.sender) */\n      jump\t// in\n    tag_141:\n        /* \"contracts/MatchContract.sol\":2250:2292  uint256 stake = getStakeAmount(msg.sender) */\n      swap1\n      pop\n        /* \"contracts/MatchContract.sol\":2324:2329  stake */\n      dup1\n        /* \"contracts/MatchContract.sol\":2311:2320  msg.value */\n      callvalue\n        /* \"contracts/MatchContract.sol\":2311:2329  msg.value == stake */\n      eq\n        /* \"contracts/MatchContract.sol\":2303:2356  require(msg.value == stake, \"Incorrect stake amount\") */\n      tag_142\n      jumpi\n      mload(0x40)\n      0x08c379a000000000000000000000000000000000000000000000000000000000\n      dup2\n      mstore\n      0x04\n      add\n      tag_143\n      swap1\n      tag_144\n      jump\t// in\n    tag_143:\n      mload(0x40)\n      dup1\n      swap2\n      sub\n      swap1\n      revert\n    tag_142:\n        /* \"contracts/MatchContract.sol\":2369:2384  uint256 matchId */\n      0x00\n        /* \"contracts/MatchContract.sol\":2387:2399  matchCounter */\n      0x02\n      0x00\n        /* \"contracts/MatchContract.sol\":2387:2401  matchCounter++ */\n      dup2\n      sload\n      dup1\n      swap3\n      swap2\n      swap1\n      tag_145\n      swap1\n      tag_146\n      jump\t// in\n    tag_145:\n      swap2\n      swap1\n      pop\n      sstore\n        /* \"contracts/MatchContract.sol\":2369:2401  uint256 matchId = matchCounter++ */\n      swap1\n      pop\n        /* \"contracts/MatchContract.sol\":2412:2427  Match storage m */\n      0x00\n        /* \"contracts/MatchContract.sol\":2430:2437  matches */\n      dup1\n        /* \"contracts/MatchContract.sol\":2430:2446  matches[matchId] */\n      0x00\n        /* \"contracts/MatchContract.sol\":2438:2445  matchId */\n      dup4\n        /* \"contracts/MatchContract.sol\":2430:2446  matches[matchId] */\n      dup2\n      mstore\n      0x20\n      add\n      swap1\n      dup2\n      mstore\n      0x20\n      add\n      0x00\n      keccak256\n        /* \"contracts/MatchContract.sol\":2412:2446  Match storage m = matches[matchId] */\n      swap1\n      pop\n        /* \"contracts/MatchContract.sol\":2479:2489  msg.sender */\n      caller\n        /* \"contracts/MatchContract.sol\":2467:2468  m */\n      dup2\n        /* \"contracts/MatchContract.sol\":2467:2476  m.player1 */\n      0x00\n      add\n      0x00\n        /* \"contracts/MatchContract.sol\":2467:2489  m.player1 = msg.sender */\n      0x0100\n      exp\n      dup2\n      sload\n      dup2\n      0xffffffffffffffffffffffffffffffffffffffff\n      mul\n      not\n      and\n      swap1\n      dup4\n      0xffffffffffffffffffffffffffffffffffffffff\n      and\n      mul\n      or\n      swap1\n      sstore\n      pop\n        /* \"contracts/MatchContract.sol\":2512:2520  opponent */\n      dup4\n        /* \"contracts/MatchContract.sol\":2500:2501  m */\n      dup2\n        /* \"contracts/MatchContract.sol\":2500:2509  m.player2 */\n      0x01\n      add\n      0x00\n        /* \"contracts/MatchContract.sol\":2500:2520  m.player2 = opponent */\n      0x0100\n      exp\n      dup2\n      sload\n      dup2\n      0xffffffffffffffffffffffffffffffffffffffff\n      mul\n      not\n      and\n      swap1\n      dup4\n      0xffffffffffffffffffffffffffffffffffffffff\n      and\n      mul\n      or\n      swap1\n      sstore\n      pop\n        /* \"contracts/MatchContract.sol\":2547:2552  stake */\n      dup3\n        /* \"contracts/MatchContract.sol\":2531:2532  m */\n      dup2\n        /* \"contracts/MatchContract.sol\":2531:2544  m.stakeAmount */\n      0x09\n      add\n        /* \"contracts/MatchContract.sol\":2531:2552  m.stakeAmount = stake */\n      dup2\n      swap1\n      sstore\n      pop\n        /* \"contracts/MatchContract.sol\":970:976  2 days */\n      0x02a300\n        /* \"contracts/MatchContract.sol\":2582:2597  block.timestamp */\n      timestamp\n        /* \"contracts/MatchContract.sol\":2582:2613  block.timestamp + REVEAL_PERIOD */\n      tag_147\n      swap2\n      swap1\n      tag_148\n      jump\t// in\n    tag_147:\n        /* \"contracts/MatchContract.sol\":2563:2564  m */\n      dup2\n        /* \"contracts/MatchContract.sol\":2563:2579  m.revealDeadline */\n      0x0c\n      add\n        /* \"contracts/MatchContract.sol\":2563:2613  m.revealDeadline = block.timestamp + REVEAL_PERIOD */\n      dup2\n      swap1\n      sstore\n      pop\n        /* \"contracts/MatchContract.sol\":2652:2659  matchId */\n      dup2\n        /* \"contracts/MatchContract.sol\":2639:2682  MatchCreated(matchId, msg.sender, opponent) */\n      0xe08af3491ff5da4a802782054d74abe364c01b6983872e2e93e728330b03a450\n        /* \"contracts/MatchContract.sol\":2661:2671  msg.sender */\n      caller\n        /* \"contracts/MatchContract.sol\":2673:2681  opponent */\n      dup7\n        /* \"contracts/MatchContract.sol\":2639:2682  MatchCreated(matchId, msg.sender, opponent) */\n      mload(0x40)\n      tag_149\n      swap3\n      swap2\n      swap1\n      tag_150\n      jump\t// in\n    tag_149:\n      mload(0x40)\n      dup1\n      swap2\n      sub\n      swap1\n      log2\n        /* \"contracts/MatchContract.sol\":2093:2690  {... */\n      pop\n      pop\n      pop\n        /* \"contracts/MatchContract.sol\":2037:2690  function createMatch(address opponent) external payable {... */\n      pop\n      jump\t// out\n        /* \"contracts/MatchContract.sol\":5014:6108  function voteAsJuror(uint256 matchId, uint256 vote) external {... */\n    tag_64:\n        /* \"contracts/MatchContract.sol\":5086:5101  Match storage m */\n      0x00\n        /* \"contracts/MatchContract.sol\":5104:5111  matches */\n      dup1\n        /* \"contracts/MatchContract.sol\":5104:5120  matches[matchId] */\n      0x00\n        /* \"contracts/MatchContract.sol\":5112:5119  matchId */\n      dup5\n        /* \"contracts/MatchContract.sol\":5104:5120  matches[matchId] */\n      dup2\n      mstore\n      0x20\n      add\n      swap1\n      dup2\n      mstore\n      0x20\n      add\n      0x00\n      keccak256\n        /* \"contracts/MatchContract.sol\":5086:5120  Match storage m = matches[matchId] */\n      swap1\n      pop\n        /* \"contracts/MatchContract.sol\":5151:5170  MatchStatus.Dispute */\n      0x02\n        /* \"contracts/MatchContract.sol\":5139:5170  m.status == MatchStatus.Dispute */\n      0x03\n      dup2\n      gt\n      iszero\n      tag_152\n      jumpi\n      tag_153\n      tag_117\n      jump\t// in\n    tag_153:\n    tag_152:\n        /* \"contracts/MatchContract.sol\":5139:5140  m */\n      dup2\n        /* \"contracts/MatchContract.sol\":5139:5147  m.status */\n      0x08\n      add\n      0x00\n      swap1\n      sload\n      swap1\n      0x0100\n      exp\n      swap1\n      div\n      0xff\n      and\n        /* \"contracts/MatchContract.sol\":5139:5170  m.status == MatchStatus.Dispute */\n      0x03\n      dup2\n      gt\n      iszero\n      tag_154\n      jumpi\n      tag_155\n      tag_117\n      jump\t// in\n    tag_155:\n    tag_154:\n      eq\n        /* \"contracts/MatchContract.sol\":5131:5192  require(m.status == MatchStatus.Dispute, \"No active dispute\") */\n      tag_156\n      jumpi\n      mload(0x40)\n      0x08c379a000000000000000000000000000000000000000000000000000000000\n      dup2\n      mstore\n      0x04\n      add\n      tag_157\n      swap1\n      tag_122\n      jump\t// in\n    tag_157:\n      mload(0x40)\n      dup1\n      swap2\n      sub\n      swap1\n      revert\n    tag_156:\n        /* \"contracts/MatchContract.sol\":5213:5225  bool isJuror */\n      0x00\n        /* \"contracts/MatchContract.sol\":5249:5255  uint i */\n      dup1\n        /* \"contracts/MatchContract.sol\":5244:5421  for (uint i = 0; i < m.juryPool.length; i++) {... */\n    tag_158:\n        /* \"contracts/MatchContract.sol\":5265:5266  m */\n      dup3\n        /* \"contracts/MatchContract.sol\":5265:5275  m.juryPool */\n      0x0a\n      add\n        /* \"contracts/MatchContract.sol\":5265:5282  m.juryPool.length */\n      dup1\n      sload\n      swap1\n      pop\n        /* \"contracts/MatchContract.sol\":5261:5262  i */\n      dup2\n        /* \"contracts/MatchContract.sol\":5261:5282  i < m.juryPool.length */\n      lt\n        /* \"contracts/MatchContract.sol\":5244:5421  for (uint i = 0; i < m.juryPool.length; i++) {... */\n      iszero\n      tag_159\n      jumpi\n        /* \"contracts/MatchContract.sol\":5325:5335  msg.sender */\n      caller\n        /* \"contracts/MatchContract.sol\":5308:5335  m.juryPool[i] == msg.sender */\n      0xffffffffffffffffffffffffffffffffffffffff\n      and\n        /* \"contracts/MatchContract.sol\":5308:5309  m */\n      dup4\n        /* \"contracts/MatchContract.sol\":5308:5318  m.juryPool */\n      0x0a\n      add\n        /* \"contracts/MatchContract.sol\":5319:5320  i */\n      dup3\n        /* \"contracts/MatchContract.sol\":5308:5321  m.juryPool[i] */\n      dup2\n      sload\n      dup2\n      lt\n      tag_161\n      jumpi\n      tag_162\n      tag_163\n      jump\t// in\n    tag_162:\n    tag_161:\n      swap1\n      0x00\n      mstore\n      keccak256(0x00, 0x20)\n      add\n      0x00\n      swap1\n      sload\n      swap1\n      0x0100\n      exp\n      swap1\n      div\n      0xffffffffffffffffffffffffffffffffffffffff\n      and\n        /* \"contracts/MatchContract.sol\":5308:5335  m.juryPool[i] == msg.sender */\n      0xffffffffffffffffffffffffffffffffffffffff\n      and\n      sub\n        /* \"contracts/MatchContract.sol\":5304:5410  if (m.juryPool[i] == msg.sender) {... */\n      tag_165\n      jumpi\n        /* \"contracts/MatchContract.sol\":5366:5370  true */\n      0x01\n        /* \"contracts/MatchContract.sol\":5356:5370  isJuror = true */\n      swap2\n      pop\n        /* \"contracts/MatchContract.sol\":5389:5394  break */\n      jump(tag_159)\n        /* \"contracts/MatchContract.sol\":5304:5410  if (m.juryPool[i] == msg.sender) {... */\n    tag_165:\n        /* \"contracts/MatchContract.sol\":5284:5287  i++ */\n      dup1\n      dup1\n      0x01\n      add\n      swap2\n      pop\n      pop\n        /* \"contracts/MatchContract.sol\":5244:5421  for (uint i = 0; i < m.juryPool.length; i++) {... */\n      jump(tag_158)\n    tag_159:\n      pop\n        /* \"contracts/MatchContract.sol\":5439:5446  isJuror */\n      dup1\n        /* \"contracts/MatchContract.sol\":5431:5462  require(isJuror, \"Not a juror\") */\n      tag_166\n      jumpi\n      mload(0x40)\n      0x08c379a000000000000000000000000000000000000000000000000000000000\n      dup2\n      mstore\n      0x04\n      add\n      tag_167\n      swap1\n      tag_168\n      jump\t// in\n    tag_167:\n      mload(0x40)\n      dup1\n      swap2\n      sub\n      swap1\n      revert\n    tag_166:\n        /* \"contracts/MatchContract.sol\":5509:5513  vote */\n      dup3\n        /* \"contracts/MatchContract.sol\":5483:5484  m */\n      dup3\n        /* \"contracts/MatchContract.sol\":5483:5494  m.juryVotes */\n      0x0b\n      add\n        /* \"contracts/MatchContract.sol\":5483:5506  m.juryVotes[msg.sender] */\n      0x00\n        /* \"contracts/MatchContract.sol\":5495:5505  msg.sender */\n      caller\n        /* \"contracts/MatchContract.sol\":5483:5506  m.juryVotes[msg.sender] */\n      0xffffffffffffffffffffffffffffffffffffffff\n      and\n      0xffffffffffffffffffffffffffffffffffffffff\n      and\n      dup2\n      mstore\n      0x20\n      add\n      swap1\n      dup2\n      mstore\n      0x20\n      add\n      0x00\n      keccak256\n        /* \"contracts/MatchContract.sol\":5483:5513  m.juryVotes[msg.sender] = vote */\n      dup2\n      swap1\n      sstore\n      pop\n        /* \"contracts/MatchContract.sol\":5539:5546  matchId */\n      dup4\n        /* \"contracts/MatchContract.sol\":5529:5565  JuryVoted(matchId, msg.sender, vote) */\n      0x8cab1d01be6cfa783358f659a7ebfec9dd91e231a955872bf9a389b324110068\n        /* \"contracts/MatchContract.sol\":5548:5558  msg.sender */\n      caller\n        /* \"contracts/MatchContract.sol\":5560:5564  vote */\n      dup6\n        /* \"contracts/MatchContract.sol\":5529:5565  JuryVoted(matchId, msg.sender, vote) */\n      mload(0x40)\n      tag_169\n      swap3\n      swap2\n      swap1\n      tag_170\n      jump\t// in\n    tag_169:\n      mload(0x40)\n      dup1\n      swap2\n      sub\n      swap1\n      log2\n        /* \"contracts/MatchContract.sol\":5655:5656  3 */\n      0x03\n        /* \"contracts/MatchContract.sol\":5634:5635  m */\n      dup3\n        /* \"contracts/MatchContract.sol\":5634:5644  m.juryPool */\n      0x0a\n      add\n        /* \"contracts/MatchContract.sol\":5634:5651  m.juryPool.length */\n      dup1\n      sload\n      swap1\n      pop\n        /* \"contracts/MatchContract.sol\":5634:5656  m.juryPool.length >= 3 */\n      lt\n        /* \"contracts/MatchContract.sol\":5630:6101  if (m.juryPool.length >= 3) { // Minimum 3 jurors... */\n      tag_171\n      jumpi\n        /* \"contracts/MatchContract.sol\":5693:5713  uint256 player1Votes */\n      0x00\n        /* \"contracts/MatchContract.sol\":5728:5748  uint256 player2Votes */\n      dup1\n        /* \"contracts/MatchContract.sol\":5782:5788  uint i */\n      0x00\n        /* \"contracts/MatchContract.sol\":5777:5946  for (uint i = 0; i < m.juryPool.length; i++) {... */\n    tag_172:\n        /* \"contracts/MatchContract.sol\":5798:5799  m */\n      dup5\n        /* \"contracts/MatchContract.sol\":5798:5808  m.juryPool */\n      0x0a\n      add\n        /* \"contracts/MatchContract.sol\":5798:5815  m.juryPool.length */\n      dup1\n      sload\n      swap1\n      pop\n        /* \"contracts/MatchContract.sol\":5794:5795  i */\n      dup2\n        /* \"contracts/MatchContract.sol\":5794:5815  i < m.juryPool.length */\n      lt\n        /* \"contracts/MatchContract.sol\":5777:5946  for (uint i = 0; i < m.juryPool.length; i++) {... */\n      iszero\n      tag_173\n      jumpi\n        /* \"contracts/MatchContract.sol\":5875:5876  1 */\n      0x01\n        /* \"contracts/MatchContract.sol\":5845:5846  m */\n      dup6\n        /* \"contracts/MatchContract.sol\":5845:5856  m.juryVotes */\n      0x0b\n      add\n        /* \"contracts/MatchContract.sol\":5845:5871  m.juryVotes[m.juryPool[i]] */\n      0x00\n        /* \"contracts/MatchContract.sol\":5857:5858  m */\n      dup8\n        /* \"contracts/MatchContract.sol\":5857:5867  m.juryPool */\n      0x0a\n      add\n        /* \"contracts/MatchContract.sol\":5868:5869  i */\n      dup5\n        /* \"contracts/MatchContract.sol\":5857:5870  m.juryPool[i] */\n      dup2\n      sload\n      dup2\n      lt\n      tag_175\n      jumpi\n      tag_176\n      tag_163\n      jump\t// in\n    tag_176:\n    tag_175:\n      swap1\n      0x00\n      mstore\n      keccak256(0x00, 0x20)\n      add\n      0x00\n      swap1\n      sload\n      swap1\n      0x0100\n      exp\n      swap1\n      div\n      0xffffffffffffffffffffffffffffffffffffffff\n      and\n        /* \"contracts/MatchContract.sol\":5845:5871  m.juryVotes[m.juryPool[i]] */\n      0xffffffffffffffffffffffffffffffffffffffff\n      and\n      0xffffffffffffffffffffffffffffffffffffffff\n      and\n      dup2\n      mstore\n      0x20\n      add\n      swap1\n      dup2\n      mstore\n      0x20\n      add\n      0x00\n      keccak256\n      sload\n        /* \"contracts/MatchContract.sol\":5845:5876  m.juryVotes[m.juryPool[i]] == 1 */\n      sub\n        /* \"contracts/MatchContract.sol\":5841:5930  if (m.juryVotes[m.juryPool[i]] == 1) player1Votes++;... */\n      tag_178\n      jumpi\n        /* \"contracts/MatchContract.sol\":5878:5892  player1Votes++ */\n      dup3\n      dup1\n      tag_179\n      swap1\n      tag_146\n      jump\t// in\n    tag_179:\n      swap4\n      pop\n      pop\n        /* \"contracts/MatchContract.sol\":5841:5930  if (m.juryVotes[m.juryPool[i]] == 1) player1Votes++;... */\n      jump(tag_180)\n    tag_178:\n        /* \"contracts/MatchContract.sol\":5916:5930  player2Votes++ */\n      dup2\n      dup1\n      tag_181\n      swap1\n      tag_146\n      jump\t// in\n    tag_181:\n      swap3\n      pop\n      pop\n        /* \"contracts/MatchContract.sol\":5841:5930  if (m.juryVotes[m.juryPool[i]] == 1) player1Votes++;... */\n    tag_180:\n        /* \"contracts/MatchContract.sol\":5817:5820  i++ */\n      dup1\n      dup1\n      0x01\n      add\n      swap2\n      pop\n      pop\n        /* \"contracts/MatchContract.sol\":5777:5946  for (uint i = 0; i < m.juryPool.length; i++) {... */\n      jump(tag_172)\n    tag_173:\n      pop\n        /* \"contracts/MatchContract.sol\":5974:5988  address winner */\n      0x00\n        /* \"contracts/MatchContract.sol\":6006:6018  player2Votes */\n      dup2\n        /* \"contracts/MatchContract.sol\":5991:6003  player1Votes */\n      dup4\n        /* \"contracts/MatchContract.sol\":5991:6018  player1Votes > player2Votes */\n      gt\n        /* \"contracts/MatchContract.sol\":5991:6042  player1Votes > player2Votes ? m.player1 : m.player2 */\n      tag_182\n      jumpi\n        /* \"contracts/MatchContract.sol\":6033:6034  m */\n      dup5\n        /* \"contracts/MatchContract.sol\":6033:6042  m.player2 */\n      0x01\n      add\n      0x00\n      swap1\n      sload\n      swap1\n      0x0100\n      exp\n      swap1\n      div\n      0xffffffffffffffffffffffffffffffffffffffff\n      and\n        /* \"contracts/MatchContract.sol\":5991:6042  player1Votes > player2Votes ? m.player1 : m.player2 */\n      jump(tag_183)\n    tag_182:\n        /* \"contracts/MatchContract.sol\":6021:6022  m */\n      dup5\n        /* \"contracts/MatchContract.sol\":6021:6030  m.player1 */\n      0x00\n      add\n      0x00\n      swap1\n      sload\n      swap1\n      0x0100\n      exp\n      swap1\n      div\n      0xffffffffffffffffffffffffffffffffffffffff\n      and\n        /* \"contracts/MatchContract.sol\":5991:6042  player1Votes > player2Votes ? m.player1 : m.player2 */\n    tag_183:\n        /* \"contracts/MatchContract.sol\":5974:6042  address winner = player1Votes > player2Votes ? m.player1 : m.player2 */\n      swap1\n      pop\n        /* \"contracts/MatchContract.sol\":6057:6089  _resolveDispute(matchId, winner) */\n      tag_184\n        /* \"contracts/MatchContract.sol\":6073:6080  matchId */\n      dup8\n        /* \"contracts/MatchContract.sol\":6082:6088  winner */\n      dup3\n        /* \"contracts/MatchContract.sol\":6057:6072  _resolveDispute */\n      tag_185\n        /* \"contracts/MatchContract.sol\":6057:6089  _resolveDispute(matchId, winner) */\n      jump\t// in\n    tag_184:\n        /* \"contracts/MatchContract.sol\":5658:6101  { // Minimum 3 jurors... */\n      pop\n      pop\n      pop\n        /* \"contracts/MatchContract.sol\":5630:6101  if (m.juryPool.length >= 3) { // Minimum 3 jurors... */\n    tag_171:\n        /* \"contracts/MatchContract.sol\":5075:6108  {... */\n      pop\n      pop\n        /* \"contracts/MatchContract.sol\":5014:6108  function voteAsJuror(uint256 matchId, uint256 vote) external {... */\n      pop\n      pop\n      jump\t// out\n        /* \"contracts/MatchContract.sol\":875:923  uint256 public constant JURY_REWARD = 0.05 ether */\n    tag_67:\n        /* \"contracts/MatchContract.sol\":913:923  0.05 ether */\n      0xb1a2bc2ec50000\n        /* \"contracts/MatchContract.sol\":875:923  uint256 public constant JURY_REWARD = 0.05 ether */\n      dup2\n      jump\t// out\n        /* \"contracts/MatchContract.sol\":7610:7777  function banCheater(address player) external {... */\n    tag_72:\n        /* \"contracts/MatchContract.sol\":7704:7708  -100 */\n      0xffffffffffffffffffffffffffffffffffffffffffffffffffffffffffffff9c\n        /* \"contracts/MatchContract.sol\":7674:7681  players */\n      0x01\n        /* \"contracts/MatchContract.sol\":7674:7689  players[player] */\n      0x00\n        /* \"contracts/MatchContract.sol\":7682:7688  player */\n      dup4\n        /* \"contracts/MatchContract.sol\":7674:7689  players[player] */\n      0xffffffffffffffffffffffffffffffffffffffff\n      and\n      0xffffffffffffffffffffffffffffffffffffffff\n      and\n      dup2\n      mstore\n      0x20\n      add\n      swap1\n      dup2\n      mstore\n      0x20\n      add\n      0x00\n      keccak256\n        /* \"contracts/MatchContract.sol\":7674:7700  players[player].reputation */\n      0x00\n      add\n      sload\n        /* \"contracts/MatchContract.sol\":7674:7708  players[player].reputation <= -100 */\n      sgt\n      iszero\n        /* \"contracts/MatchContract.sol\":7666:7727  require(players[player].reputation <= -100, \"Not ban-worthy\") */\n      tag_187\n      jumpi\n      mload(0x40)\n      0x08c379a000000000000000000000000000000000000000000000000000000000\n      dup2\n      mstore\n      0x04\n      add\n      tag_188\n      swap1\n      tag_189\n      jump\t// in\n    tag_188:\n      mload(0x40)\n      dup1\n      swap2\n      sub\n      swap1\n      revert\n    tag_187:\n        /* \"contracts/MatchContract.sol\":7765:7769  true */\n      0x01\n        /* \"contracts/MatchContract.sol\":7738:7745  players */\n      dup1\n        /* \"contracts/MatchContract.sol\":7738:7753  players[player] */\n      0x00\n        /* \"contracts/MatchContract.sol\":7746:7752  player */\n      dup4\n        /* \"contracts/MatchContract.sol\":7738:7753  players[player] */\n      0xffffffffffffffffffffffffffffffffffffffff\n      and\n      0xffffffffffffffffffffffffffffffffffffffff\n      and\n      dup2\n      mstore\n      0x20\n      add\n      swap1\n      dup2\n      mstore\n      0x20\n      add\n      0x00\n      keccak256\n        /* \"contracts/MatchContract.sol\":7738:7762  players[player].isBanned */\n      0x02\n      add\n      0x00\n        /* \"contracts/MatchContract.sol\":7738:7769  players[player].isBanned = true */\n      0x0100\n      exp\n      dup2\n      sload\n      dup2\n      0xff\n      mul\n      not\n      and\n      swap1\n      dup4\n      iszero\n      iszero\n      mul\n      or\n      swap1\n      sstore\n      pop\n        /* \"contracts/MatchContract.sol\":7610:7777  function banCheater(address player) external {... */\n      pop\n      jump\t// out\n        /* \"contracts/MatchContract.sol\":1153:1190  int256 public constant REP_LIED = -50 */\n    tag_75:\n        /* \"contracts/MatchContract.sol\":1187:1190  -50 */\n      0xffffffffffffffffffffffffffffffffffffffffffffffffffffffffffffffce\n        /* \"contracts/MatchContract.sol\":1153:1190  int256 public constant REP_LIED = -50 */\n      dup2\n      jump\t// out\n        /* \"contracts/MatchContract.sol\":1104:1146  int256 public constant REP_NO_REVEAL = -25 */\n    tag_79:\n        /* \"contracts/MatchContract.sol\":1143:1146  -25 */\n      0xffffffffffffffffffffffffffffffffffffffffffffffffffffffffffffffe7\n        /* \"contracts/MatchContract.sol\":1104:1146  int256 public constant REP_NO_REVEAL = -25 */\n      dup2\n      jump\t// out\n        /* \"contracts/MatchContract.sol\":930:976  uint256 public constant REVEAL_PERIOD = 2 days */\n    tag_83:\n        /* \"contracts/MatchContract.sol\":970:976  2 days */\n      0x02a300\n        /* \"contracts/MatchContract.sol\":930:976  uint256 public constant REVEAL_PERIOD = 2 days */\n      dup2\n      jump\t// out\n        /* \"contracts/MatchContract.sol\":2719:3309  function commitResult(uint256 matchId, bytes32 hashedCommitment) external onlyPlayers(matchId) {... */\n    tag_89:\n        /* \"contracts/MatchContract.sol\":2805:2812  matchId */\n      dup2\n        /* \"contracts/MatchContract.sol\":1866:1873  matches */\n      0x00\n        /* \"contracts/MatchContract.sol\":1866:1882  matches[matchId] */\n      dup1\n        /* \"contracts/MatchContract.sol\":1874:1881  matchId */\n      dup3\n        /* \"contracts/MatchContract.sol\":1866:1882  matches[matchId] */\n      dup2\n      mstore\n      0x20\n      add\n      swap1\n      dup2\n      mstore\n      0x20\n      add\n      0x00\n      keccak256\n        /* \"contracts/MatchContract.sol\":1866:1890  matches[matchId].player1 */\n      0x00\n      add\n      0x00\n      swap1\n      sload\n      swap1\n      0x0100\n      exp\n      swap1\n      div\n      0xffffffffffffffffffffffffffffffffffffffff\n      and\n        /* \"contracts/MatchContract.sol\":1852:1890  msg.sender == matches[matchId].player1 */\n      0xffffffffffffffffffffffffffffffffffffffff\n      and\n        /* \"contracts/MatchContract.sol\":1852:1862  msg.sender */\n      caller\n        /* \"contracts/MatchContract.sol\":1852:1890  msg.sender == matches[matchId].player1 */\n      0xffffffffffffffffffffffffffffffffffffffff\n      and\n      eq\n        /* \"contracts/MatchContract.sol\":1852:1946  msg.sender == matches[matchId].player1 || ... */\n      dup1\n      tag_191\n      jumpi\n      pop\n        /* \"contracts/MatchContract.sol\":1922:1929  matches */\n      0x00\n        /* \"contracts/MatchContract.sol\":1922:1938  matches[matchId] */\n      dup1\n        /* \"contracts/MatchContract.sol\":1930:1937  matchId */\n      dup3\n        /* \"contracts/MatchContract.sol\":1922:1938  matches[matchId] */\n      dup2\n      mstore\n      0x20\n      add\n      swap1\n      dup2\n      mstore\n      0x20\n      add\n      0x00\n      keccak256\n        /* \"contracts/MatchContract.sol\":1922:1946  matches[matchId].player2 */\n      0x01\n      add\n      0x00\n      swap1\n      sload\n      swap1\n      0x0100\n      exp\n      swap1\n      div\n      0xffffffffffffffffffffffffffffffffffffffff\n      and\n        /* \"contracts/MatchContract.sol\":1908:1946  msg.sender == matches[matchId].player2 */\n      0xffffffffffffffffffffffffffffffffffffffff\n      and\n        /* \"contracts/MatchContract.sol\":1908:1918  msg.sender */\n      caller\n        /* \"contracts/MatchContract.sol\":1908:1946  msg.sender == matches[matchId].player2 */\n      0xffffffffffffffffffffffffffffffffffffffff\n      and\n      eq\n        /* \"contracts/MatchContract.sol\":1852:1946  msg.sender == matches[matchId].player1 || ... */\n    tag_191:\n        /* \"contracts/MatchContract.sol\":1830:1986  require(... */\n      tag_192\n      jumpi\n      mload(0x40)\n      0x08c379a000000000000000000000000000000000000000000000000000000000\n      dup2\n      mstore\n      0x04\n      add\n      tag_193\n      swap1\n      tag_194\n      jump\t// in\n    tag_193:\n      mload(0x40)\n      dup1\n      swap2\n      sub\n      swap1\n      revert\n    tag_192:\n        /* \"contracts/MatchContract.sol\":2825:2840  Match storage m */\n      0x00\n        /* \"contracts/MatchContract.sol\":2843:2850  matches */\n      dup1\n        /* \"contracts/MatchContract.sol\":2843:2859  matches[matchId] */\n      0x00\n        /* \"contracts/MatchContract.sol\":2851:2858  matchId */\n      dup6\n        /* \"contracts/MatchContract.sol\":2843:2859  matches[matchId] */\n      dup2\n      mstore\n      0x20\n      add\n      swap1\n      dup2\n      mstore\n      0x20\n      add\n      0x00\n      keccak256\n        /* \"contracts/MatchContract.sol\":2825:2859  Match storage m = matches[matchId] */\n      swap1\n      pop\n        /* \"contracts/MatchContract.sol\":2890:2908  MatchStatus.Commit */\n      0x00\n        /* \"contracts/MatchContract.sol\":2878:2908  m.status == MatchStatus.Commit */\n      0x03\n      dup2\n      gt\n      iszero\n      tag_196\n      jumpi\n      tag_197\n      tag_117\n      jump\t// in\n    tag_197:\n    tag_196:\n        /* \"contracts/MatchContract.sol\":2878:2879  m */\n      dup2\n        /* \"contracts/MatchContract.sol\":2878:2886  m.status */\n      0x08\n      add\n      0x00\n      swap1\n      sload\n      swap1\n      0x0100\n      exp\n      swap1\n      div\n      0xff\n      and\n        /* \"contracts/MatchContract.sol\":2878:2908  m.status == MatchStatus.Commit */\n      0x03\n      dup2\n      gt\n      iszero\n      tag_198\n      jumpi\n      tag_199\n      tag_117\n      jump\t// in\n    tag_199:\n    tag_198:\n      eq\n        /* \"contracts/MatchContract.sol\":2870:2932  require(m.status == MatchStatus.Commit, \"Not in commit phase\") */\n      tag_200\n      jumpi\n      mload(0x40)\n      0x08c379a000000000000000000000000000000000000000000000000000000000\n      dup2\n      mstore\n      0x04\n      add\n      tag_201\n      swap1\n      tag_202\n      jump\t// in\n    tag_201:\n      mload(0x40)\n      dup1\n      swap2\n      sub\n      swap1\n      revert\n    tag_200:\n        /* \"contracts/MatchContract.sol\":2971:2972  m */\n      dup1\n        /* \"contracts/MatchContract.sol\":2971:2980  m.player1 */\n      0x00\n      add\n      0x00\n      swap1\n      sload\n      swap1\n      0x0100\n      exp\n      swap1\n      div\n      0xffffffffffffffffffffffffffffffffffffffff\n      and\n        /* \"contracts/MatchContract.sol\":2957:2980  msg.sender == m.player1 */\n      0xffffffffffffffffffffffffffffffffffffffff\n      and\n        /* \"contracts/MatchContract.sol\":2957:2967  msg.sender */\n      caller\n        /* \"contracts/MatchContract.sol\":2957:2980  msg.sender == m.player1 */\n      0xffffffffffffffffffffffffffffffffffffffff\n      and\n      sub\n        /* \"contracts/MatchContract.sol\":2953:3110  if (msg.sender == m.player1) {... */\n      tag_203\n      jumpi\n        /* \"contracts/MatchContract.sol\":3015:3031  hashedCommitment */\n      dup3\n        /* \"contracts/MatchContract.sol\":2997:2998  m */\n      dup2\n        /* \"contracts/MatchContract.sol\":2997:3012  m.player1Commit */\n      0x02\n      add\n        /* \"contracts/MatchContract.sol\":2997:3031  m.player1Commit = hashedCommitment */\n      dup2\n      swap1\n      sstore\n      pop\n        /* \"contracts/MatchContract.sol\":2953:3110  if (msg.sender == m.player1) {... */\n      jump(tag_204)\n    tag_203:\n        /* \"contracts/MatchContract.sol\":3082:3098  hashedCommitment */\n      dup3\n        /* \"contracts/MatchContract.sol\":3064:3065  m */\n      dup2\n        /* \"contracts/MatchContract.sol\":3064:3079  m.player2Commit */\n      0x03\n      add\n        /* \"contracts/MatchContract.sol\":3064:3098  m.player2Commit = hashedCommitment */\n      dup2\n      swap1\n      sstore\n      pop\n        /* \"contracts/MatchContract.sol\":2953:3110  if (msg.sender == m.player1) {... */\n    tag_204:\n        /* \"contracts/MatchContract.sol\":3209:3210  0 */\n      0x00\n        /* \"contracts/MatchContract.sol\":3201:3211  bytes32(0) */\n      dup1\n      shl\n        /* \"contracts/MatchContract.sol\":3182:3183  m */\n      dup2\n        /* \"contracts/MatchContract.sol\":3182:3197  m.player1Commit */\n      0x02\n      add\n      sload\n        /* \"contracts/MatchContract.sol\":3182:3211  m.player1Commit != bytes32(0) */\n      eq\n      iszero\n        /* \"contracts/MatchContract.sol\":3182:3244  m.player1Commit != bytes32(0) && m.player2Commit != bytes32(0) */\n      dup1\n      iszero\n      tag_205\n      jumpi\n      pop\n        /* \"contracts/MatchContract.sol\":3242:3243  0 */\n      0x00\n        /* \"contracts/MatchContract.sol\":3234:3244  bytes32(0) */\n      dup1\n      shl\n        /* \"contracts/MatchContract.sol\":3215:3216  m */\n      dup2\n        /* \"contracts/MatchContract.sol\":3215:3230  m.player2Commit */\n      0x03\n      add\n      sload\n        /* \"contracts/MatchContract.sol\":3215:3244  m.player2Commit != bytes32(0) */\n      eq\n      iszero\n        /* \"contracts/MatchContract.sol\":3182:3244  m.player1Commit != bytes32(0) && m.player2Commit != bytes32(0) */\n    tag_205:\n        /* \"contracts/MatchContract.sol\":3178:3302  if (m.player1Commit != bytes32(0) && m.player2Commit != bytes32(0)) {... */\n      iszero\n      tag_206\n      jumpi\n        /* \"contracts/MatchContract.sol\":3272:3290  MatchStatus.Reveal */\n      0x01\n        /* \"contracts/MatchContract.sol\":3261:3262  m */\n      dup2\n        /* \"contracts/MatchContract.sol\":3261:3269  m.status */\n      0x08\n      add\n      0x00\n        /* \"contracts/MatchContract.sol\":3261:3290  m.status = MatchStatus.Reveal */\n      0x0100\n      exp\n      dup2\n      sload\n      dup2\n      0xff\n      mul\n      not\n      and\n      swap1\n      dup4\n      0x03\n      dup2\n      gt\n      iszero\n      tag_207\n      jumpi\n      tag_208\n      tag_117\n      jump\t// in\n    tag_208:\n    tag_207:\n      mul\n      or\n      swap1\n      sstore\n      pop\n        /* \"contracts/MatchContract.sol\":3178:3302  if (m.player1Commit != bytes32(0) && m.player2Commit != bytes32(0)) {... */\n    tag_206:\n        /* \"contracts/MatchContract.sol\":2814:3309  {... */\n      pop\n        /* \"contracts/MatchContract.sol\":2719:3309  function commitResult(uint256 matchId, bytes32 hashedCommitment) external onlyPlayers(matchId) {... */\n      pop\n      pop\n      pop\n      jump\t// out\n        /* \"contracts/MatchContract.sol\":1015:1050  int256 public constant REP_WIN = 15 */\n    tag_92:\n        /* \"contracts/MatchContract.sol\":1048:1050  15 */\n      0x0f\n        /* \"contracts/MatchContract.sol\":1015:1050  int256 public constant REP_WIN = 15 */\n      dup2\n      jump\t// out\n        /* \"contracts/MatchContract.sol\":1309:1350  mapping(address => Player) public players */\n    tag_97:\n      mstore(0x20, 0x01)\n      dup1\n      0x00\n      mstore\n      keccak256(0x00, 0x40)\n      0x00\n      swap2\n      pop\n      swap1\n      pop\n      dup1\n      0x00\n      add\n      sload\n      swap1\n      dup1\n      0x01\n      add\n      sload\n      swap1\n      dup1\n      0x02\n      add\n      0x00\n      swap1\n      sload\n      swap1\n      0x0100\n      exp\n      swap1\n      div\n      0xff\n      and\n      swap1\n      pop\n      dup4\n      jump\t// out\n        /* \"contracts/MatchContract.sol\":3338:4619  function revealResult(uint256 matchId, bytes32 salt, string memory result) external onlyPlayers(matchId) {... */\n    tag_104:\n        /* \"contracts/MatchContract.sol\":3434:3441  matchId */\n      dup3\n        /* \"contracts/MatchContract.sol\":1866:1873  matches */\n      0x00\n        /* \"contracts/MatchContract.sol\":1866:1882  matches[matchId] */\n      dup1\n        /* \"contracts/MatchContract.sol\":1874:1881  matchId */\n      dup3\n        /* \"contracts/MatchContract.sol\":1866:1882  matches[matchId] */\n      dup2\n      mstore\n      0x20\n      add\n      swap1\n      dup2\n      mstore\n      0x20\n      add\n      0x00\n      keccak256\n        /* \"contracts/MatchContract.sol\":1866:1890  matches[matchId].player1 */\n      0x00\n      add\n      0x00\n      swap1\n      sload\n      swap1\n      0x0100\n      exp\n      swap1\n      div\n      0xffffffffffffffffffffffffffffffffffffffff\n      and\n        /* \"contracts/MatchContract.sol\":1852:1890  msg.sender == matches[matchId].player1 */\n      0xffffffffffffffffffffffffffffffffffffffff\n      and\n        /* \"contracts/MatchContract.sol\":1852:1862  msg.sender */\n      caller\n        /* \"contracts/MatchContract.sol\":1852:1890  msg.sender == matches[matchId].player1 */\n      0xffffffffffffffffffffffffffffffffffffffff\n      and\n      eq\n        /* \"contracts/MatchContract.sol\":1852:1946  msg.sender == matches[matchId].player1 || ... */\n      dup1\n      tag_210\n      jumpi\n      pop\n        /* \"contracts/MatchContract.sol\":1922:1929  matches */\n      0x00\n        /* \"contracts/MatchContract.sol\":1922:1938  matches[matchId] */\n      dup1\n        /* \"contracts/MatchContract.sol\":1930:1937  matchId */\n      dup3\n        /* \"contracts/MatchContract.sol\":1922:1938  matches[matchId] */\n      dup2\n      mstore\n      0x20\n      add\n      swap1\n      dup2\n      mstore\n      0x20\n      add\n      0x00\n      keccak256\n        /* \"contracts/MatchContract.sol\":1922:1946  matches[matchId].player2 */\n      0x01\n      add\n      0x00\n      swap1\n      sload\n      swap1\n      0x0100\n      exp\n      swap1\n      div\n      0xffffffffffffffffffffffffffffffffffffffff\n      and\n        /* \"contracts/MatchContract.sol\":1908:1946  msg.sender == matches[matchId].player2 */\n      0xffffffffffffffffffffffffffffffffffffffff\n      and\n        /* \"contracts/MatchContract.sol\":1908:1918  msg.sender */\n      caller\n        /* \"contracts/MatchContract.sol\":1908:1946  msg.sender == matches[matchId].player2 */\n      0xffffffffffffffffffffffffffffffffffffffff\n      and\n      eq\n        /* \"contracts/MatchContract.sol\":1852:1946  msg.sender == matches[matchId].player1 || ... */\n    tag_210:\n        /* \"contracts/MatchContract.sol\":1830:1986  require(... */\n      tag_211\n      jumpi\n      mload(0x40)\n      0x08c379a000000000000000000000000000000000000000000000000000000000\n      dup2\n      mstore\n      0x04\n      add\n      tag_212\n      swap1\n      tag_194\n      jump\t// in\n    tag_212:\n      mload(0x40)\n      dup1\n      swap2\n      sub\n      swap1\n      revert\n    tag_211:\n        /* \"contracts/MatchContract.sol\":3454:3469  Match storage m */\n      0x00\n        /* \"contracts/MatchContract.sol\":3472:3479  matches */\n      dup1\n        /* \"contracts/MatchContract.sol\":3472:3488  matches[matchId] */\n      0x00\n        /* \"contracts/MatchContract.sol\":3480:3487  matchId */\n      dup7\n        /* \"contracts/MatchContract.sol\":3472:3488  matches[matchId] */\n      dup2\n      mstore\n      0x20\n      add\n      swap1\n      dup2\n      mstore\n      0x20\n      add\n      0x00\n      keccak256\n        /* \"contracts/MatchContract.sol\":3454:3488  Match storage m = matches[matchId] */\n      swap1\n      pop\n        /* \"contracts/MatchContract.sol\":3519:3537  MatchStatus.Reveal */\n      0x01\n        /* \"contracts/MatchContract.sol\":3507:3537  m.status == MatchStatus.Reveal */\n      0x03\n      dup2\n      gt\n      iszero\n      tag_214\n      jumpi\n      tag_215\n      tag_117\n      jump\t// in\n    tag_215:\n    tag_214:\n        /* \"contracts/MatchContract.sol\":3507:3508  m */\n      dup2\n        /* \"contracts/MatchContract.sol\":3507:3515  m.status */\n      0x08\n      add\n      0x00\n      swap1\n      sload\n      swap1\n      0x0100\n      exp\n      swap1\n      div\n      0xff\n      and\n        /* \"contracts/MatchContract.sol\":3507:3537  m.status == MatchStatus.Reveal */\n      0x03\n      dup2\n      gt\n      iszero\n      tag_216\n      jumpi\n      tag_217\n      tag_117\n      jump\t// in\n    tag_217:\n    tag_216:\n      eq\n        /* \"contracts/MatchContract.sol\":3499:3561  require(m.status == MatchStatus.Reveal, \"Not in reveal phase\") */\n      tag_218\n      jumpi\n      mload(0x40)\n      0x08c379a000000000000000000000000000000000000000000000000000000000\n      dup2\n      mstore\n      0x04\n      add\n      tag_219\n      swap1\n      tag_220\n      jump\t// in\n    tag_219:\n      mload(0x40)\n      dup1\n      swap2\n      sub\n      swap1\n      revert\n    tag_218:\n        /* \"contracts/MatchContract.sol\":3599:3600  m */\n      dup1\n        /* \"contracts/MatchContract.sol\":3599:3615  m.revealDeadline */\n      0x0c\n      add\n      sload\n        /* \"contracts/MatchContract.sol\":3580:3595  block.timestamp */\n      timestamp\n        /* \"contracts/MatchContract.sol\":3580:3615  block.timestamp <= m.revealDeadline */\n      gt\n      iszero\n        /* \"contracts/MatchContract.sol\":3572:3641  require(block.timestamp <= m.revealDeadline, \"Reveal period expired\") */\n      tag_221\n      jumpi\n      mload(0x40)\n      0x08c379a000000000000000000000000000000000000000000000000000000000\n      dup2\n      mstore\n      0x04\n      add\n      tag_222\n      swap1\n      tag_223\n      jump\t// in\n    tag_222:\n      mload(0x40)\n      dup1\n      swap2\n      sub\n      swap1\n      revert\n    tag_221:\n        /* \"contracts/MatchContract.sol\":3662:3680  bytes32 commitment */\n      0x00\n        /* \"contracts/MatchContract.sol\":3728:3732  salt */\n      dup5\n        /* \"contracts/MatchContract.sol\":3693:3733  abi.encodePacked(\"I_report_truth\", salt) */\n      add(0x20, mload(0x40))\n      tag_224\n      swap2\n      swap1\n      tag_225\n      jump\t// in\n    tag_224:\n      mload(0x40)\n      0x20\n      dup2\n      dup4\n      sub\n      sub\n      dup2\n      mstore\n      swap1\n      0x40\n      mstore\n        /* \"contracts/MatchContract.sol\":3683:3734  keccak256(abi.encodePacked(\"I_report_truth\", salt)) */\n      dup1\n      mload\n      swap1\n      0x20\n      add\n      keccak256\n        /* \"contracts/MatchContract.sol\":3662:3734  bytes32 commitment = keccak256(abi.encodePacked(\"I_report_truth\", salt)) */\n      swap1\n      pop\n        /* \"contracts/MatchContract.sol\":3773:3774  m */\n      dup2\n        /* \"contracts/MatchContract.sol\":3773:3782  m.player1 */\n      0x00\n      add\n      0x00\n      swap1\n      sload\n      swap1\n      0x0100\n      exp\n      swap1\n      div\n      0xffffffffffffffffffffffffffffffffffffffff\n      and\n        /* \"contracts/MatchContract.sol\":3759:3782  msg.sender == m.player1 */\n      0xffffffffffffffffffffffffffffffffffffffff\n      and\n        /* \"contracts/MatchContract.sol\":3759:3769  msg.sender */\n      caller\n        /* \"contracts/MatchContract.sol\":3759:3782  msg.sender == m.player1 */\n      0xffffffffffffffffffffffffffffffffffffffff\n      and\n      sub\n        /* \"contracts/MatchContract.sol\":3755:4104  if (msg.sender == m.player1) {... */\n      tag_226\n      jumpi\n        /* \"contracts/MatchContract.sol\":3821:3822  m */\n      dup2\n        /* \"contracts/MatchContract.sol\":3821:3836  m.player1Commit */\n      0x02\n      add\n      sload\n        /* \"contracts/MatchContract.sol\":3807:3817  commitment */\n      dup2\n        /* \"contracts/MatchContract.sol\":3807:3836  commitment == m.player1Commit */\n      eq\n        /* \"contracts/MatchContract.sol\":3799:3855  require(commitment == m.player1Commit, \"Invalid reveal\") */\n      tag_227\n      jumpi\n      mload(0x40)\n      0x08c379a000000000000000000000000000000000000000000000000000000000\n      dup2\n      mstore\n      0x04\n      add\n      tag_228\n      swap1\n      tag_229\n      jump\t// in\n    tag_228:\n      mload(0x40)\n      dup1\n      swap2\n      sub\n      swap1\n      revert\n    tag_227:\n        /* \"contracts/MatchContract.sol\":3888:3894  result */\n      dup4\n        /* \"contracts/MatchContract.sol\":3870:3871  m */\n      dup3\n        /* \"contracts/MatchContract.sol\":3870:3885  m.player1Result */\n      0x04\n      add\n        /* \"contracts/MatchContract.sol\":3870:3894  m.player1Result = result */\n      swap1\n      dup2\n      tag_230\n      swap2\n      swap1\n      tag_231\n      jump\t// in\n    tag_230:\n      pop\n        /* \"contracts/MatchContract.sol\":3925:3929  salt */\n      dup5\n        /* \"contracts/MatchContract.sol\":3909:3910  m */\n      dup3\n        /* \"contracts/MatchContract.sol\":3909:3922  m.player1Salt */\n      0x06\n      add\n        /* \"contracts/MatchContract.sol\":3909:3929  m.player1Salt = salt */\n      dup2\n      swap1\n      sstore\n      pop\n        /* \"contracts/MatchContract.sol\":3755:4104  if (msg.sender == m.player1) {... */\n      jump(tag_232)\n    tag_226:\n        /* \"contracts/MatchContract.sol\":3984:3985  m */\n      dup2\n        /* \"contracts/MatchContract.sol\":3984:3999  m.player2Commit */\n      0x03\n      add\n      sload\n        /* \"contracts/MatchContract.sol\":3970:3980  commitment */\n      dup2\n        /* \"contracts/MatchContract.sol\":3970:3999  commitment == m.player2Commit */\n      eq\n        /* \"contracts/MatchContract.sol\":3962:4018  require(commitment == m.player2Commit, \"Invalid reveal\") */\n      tag_233\n      jumpi\n      mload(0x40)\n      0x08c379a000000000000000000000000000000000000000000000000000000000\n      dup2\n      mstore\n      0x04\n      add\n      tag_234\n      swap1\n      tag_229\n      jump\t// in\n    tag_234:\n      mload(0x40)\n      dup1\n      swap2\n      sub\n      swap1\n      revert\n    tag_233:\n        /* \"contracts/MatchContract.sol\":4051:4057  result */\n      dup4\n        /* \"contracts/MatchContract.sol\":4033:4034  m */\n      dup3\n        /* \"contracts/MatchContract.sol\":4033:4048  m.player2Result */\n      0x05\n      add\n        /* \"contracts/MatchContract.sol\":4033:4057  m.player2Result = result */\n      swap1\n      dup2\n      tag_235\n      swap2\n      swap1\n      tag_231\n      jump\t// in\n    tag_235:\n      pop\n        /* \"contracts/MatchContract.sol\":4088:4092  salt */\n      dup5\n        /* \"contracts/MatchContract.sol\":4072:4073  m */\n      dup3\n        /* \"contracts/MatchContract.sol\":4072:4085  m.player2Salt */\n      0x07\n      add\n        /* \"contracts/MatchContract.sol\":4072:4092  m.player2Salt = salt */\n      dup2\n      swap1\n      sstore\n      pop\n        /* \"contracts/MatchContract.sol\":3755:4104  if (msg.sender == m.player1) {... */\n    tag_232:\n        /* \"contracts/MatchContract.sol\":4144:4151  matchId */\n      dup6\n        /* \"contracts/MatchContract.sol\":4129:4164  ResultRevealed(matchId, msg.sender) */\n      0x493474653ea5446b10d9bd9aed1854de71a1af7e2eea8fc3065ef63fbefda9e2\n        /* \"contracts/MatchContract.sol\":4153:4163  msg.sender */\n      caller\n        /* \"contracts/MatchContract.sol\":4129:4164  ResultRevealed(matchId, msg.sender) */\n      mload(0x40)\n      tag_236\n      swap2\n      swap1\n      tag_237\n      jump\t// in\n    tag_236:\n      mload(0x40)\n      dup1\n      swap2\n      sub\n      swap1\n      log2\n        /* \"contracts/MatchContract.sol\":4249:4250  0 */\n      0x00\n        /* \"contracts/MatchContract.sol\":4241:4251  bytes32(0) */\n      dup1\n      shl\n        /* \"contracts/MatchContract.sol\":4224:4225  m */\n      dup3\n        /* \"contracts/MatchContract.sol\":4224:4237  m.player1Salt */\n      0x06\n      add\n      sload\n        /* \"contracts/MatchContract.sol\":4224:4251  m.player1Salt != bytes32(0) */\n      eq\n      iszero\n        /* \"contracts/MatchContract.sol\":4224:4282  m.player1Salt != bytes32(0) && m.player2Salt != bytes32(0) */\n      dup1\n      iszero\n      tag_238\n      jumpi\n      pop\n        /* \"contracts/MatchContract.sol\":4280:4281  0 */\n      0x00\n        /* \"contracts/MatchContract.sol\":4272:4282  bytes32(0) */\n      dup1\n      shl\n        /* \"contracts/MatchContract.sol\":4255:4256  m */\n      dup3\n        /* \"contracts/MatchContract.sol\":4255:4268  m.player2Salt */\n      0x07\n      add\n      sload\n        /* \"contracts/MatchContract.sol\":4255:4282  m.player2Salt != bytes32(0) */\n      eq\n      iszero\n        /* \"contracts/MatchContract.sol\":4224:4282  m.player1Salt != bytes32(0) && m.player2Salt != bytes32(0) */\n    tag_238:\n        /* \"contracts/MatchContract.sol\":4220:4612  if (m.player1Salt != bytes32(0) && m.player2Salt != bytes32(0)) {... */\n      iszero\n      tag_239\n      jumpi\n        /* \"contracts/MatchContract.sol\":4378:4379  m */\n      dup2\n        /* \"contracts/MatchContract.sol\":4378:4393  m.player2Result */\n      0x05\n      add\n        /* \"contracts/MatchContract.sol\":4361:4394  abi.encodePacked(m.player2Result) */\n      add(0x20, mload(0x40))\n      tag_240\n      swap2\n      swap1\n      tag_241\n      jump\t// in\n    tag_240:\n      mload(0x40)\n      0x20\n      dup2\n      dup4\n      sub\n      sub\n      dup2\n      mstore\n      swap1\n      0x40\n      mstore\n        /* \"contracts/MatchContract.sol\":4351:4395  keccak256(abi.encodePacked(m.player2Result)) */\n      dup1\n      mload\n      swap1\n      0x20\n      add\n      keccak256\n        /* \"contracts/MatchContract.sol\":4330:4331  m */\n      dup3\n        /* \"contracts/MatchContract.sol\":4330:4345  m.player1Result */\n      0x04\n      add\n        /* \"contracts/MatchContract.sol\":4313:4346  abi.encodePacked(m.player1Result) */\n      add(0x20, mload(0x40))\n      tag_242\n      swap2\n      swap1\n      tag_241\n      jump\t// in\n    tag_242:\n      mload(0x40)\n      0x20\n      dup2\n      dup4\n      sub\n      sub\n      dup2\n      mstore\n      swap1\n      0x40\n      mstore\n        /* \"contracts/MatchContract.sol\":4303:4347  keccak256(abi.encodePacked(m.player1Result)) */\n      dup1\n      mload\n      swap1\n      0x20\n      add\n      keccak256\n        /* \"contracts/MatchContract.sol\":4303:4395  keccak256(abi.encodePacked(m.player1Result)) == keccak256(abi.encodePacked(m.player2Result)) */\n      sub\n        /* \"contracts/MatchContract.sol\":4299:4601  if (keccak256(abi.encodePacked(m.player1Result)) == keccak256(abi.encodePacked(m.player2Result))) {... */\n      tag_243\n      jumpi\n        /* \"contracts/MatchContract.sol\":4416:4450  _resolveMatch(matchId, msg.sender) */\n      tag_244\n        /* \"contracts/MatchContract.sol\":4430:4437  matchId */\n      dup7\n        /* \"contracts/MatchContract.sol\":4439:4449  msg.sender */\n      caller\n        /* \"contracts/MatchContract.sol\":4416:4429  _resolveMatch */\n      tag_245\n        /* \"contracts/MatchContract.sol\":4416:4450  _resolveMatch(matchId, msg.sender) */\n      jump\t// in\n    tag_244:\n        /* \"contracts/MatchContract.sol\":4299:4601  if (keccak256(abi.encodePacked(m.player1Result)) == keccak256(abi.encodePacked(m.player2Result))) {... */\n      jump(tag_246)\n    tag_243:\n        /* \"contracts/MatchContract.sol\":4517:4536  MatchStatus.Dispute */\n      0x02\n        /* \"contracts/MatchContract.sol\":4506:4507  m */\n      dup3\n        /* \"contracts/MatchContract.sol\":4506:4514  m.status */\n      0x08\n      add\n      0x00\n        /* \"contracts/MatchContract.sol\":4506:4536  m.status = MatchStatus.Dispute */\n      0x0100\n      exp\n      dup2\n      sload\n      dup2\n      0xff\n      mul\n      not\n      and\n      swap1\n      dup4\n      0x03\n      dup2\n      gt\n      iszero\n      tag_247\n      jumpi\n      tag_248\n      tag_117\n      jump\t// in\n    tag_248:\n    tag_247:\n      mul\n      or\n      swap1\n      sstore\n      pop\n        /* \"contracts/MatchContract.sol\":4577:4584  matchId */\n      dup6\n        /* \"contracts/MatchContract.sol\":4560:4585  DisputeInitiated(matchId) */\n      0x116f6b179359db1a58a963fc783ee184e7844aba306a3c2ce02de3d7391d17c3\n      mload(0x40)\n      mload(0x40)\n      dup1\n      swap2\n      sub\n      swap1\n      log2\n        /* \"contracts/MatchContract.sol\":4299:4601  if (keccak256(abi.encodePacked(m.player1Result)) == keccak256(abi.encodePacked(m.player2Result))) {... */\n    tag_246:\n        /* \"contracts/MatchContract.sol\":4220:4612  if (m.player1Salt != bytes32(0) && m.player2Salt != bytes32(0)) {... */\n    tag_239:\n        /* \"contracts/MatchContract.sol\":3443:4619  {... */\n      pop\n      pop\n        /* \"contracts/MatchContract.sol\":3338:4619  function revealResult(uint256 matchId, bytes32 salt, string memory result) external onlyPlayers(matchId) {... */\n      pop\n      pop\n      pop\n      pop\n      jump\t// out\n        /* \"contracts/MatchContract.sol\":6630:7336  function _resolveDispute(uint256 matchId, address winner) private {... */\n    tag_185:\n        /* \"contracts/MatchContract.sol\":6707:6722  Match storage m */\n      0x00\n        /* \"contracts/MatchContract.sol\":6725:6732  matches */\n      dup1\n        /* \"contracts/MatchContract.sol\":6725:6741  matches[matchId] */\n      0x00\n        /* \"contracts/MatchContract.sol\":6733:6740  matchId */\n      dup5\n        /* \"contracts/MatchContract.sol\":6725:6741  matches[matchId] */\n      dup2\n      mstore\n      0x20\n      add\n      swap1\n      dup2\n      mstore\n      0x20\n      add\n      0x00\n      keccak256\n        /* \"contracts/MatchContract.sol\":6707:6741  Match storage m = matches[matchId] */\n      swap1\n      pop\n        /* \"contracts/MatchContract.sol\":6763:6784  MatchStatus.Completed */\n      0x03\n        /* \"contracts/MatchContract.sol\":6752:6753  m */\n      dup2\n        /* \"contracts/MatchContract.sol\":6752:6760  m.status */\n      0x08\n      add\n      0x00\n        /* \"contracts/MatchContract.sol\":6752:6784  m.status = MatchStatus.Completed */\n      0x0100\n      exp\n      dup2\n      sload\n      dup2\n      0xff\n      mul\n      not\n      and\n      swap1\n      dup4\n      0x03\n      dup2\n      gt\n      iszero\n      tag_250\n      jumpi\n      tag_251\n      tag_117\n      jump\t// in\n    tag_251:\n    tag_250:\n      mul\n      or\n      swap1\n      sstore\n      pop\n        /* \"contracts/MatchContract.sol\":6831:6843  address liar */\n      0x00\n        /* \"contracts/MatchContract.sol\":6856:6857  m */\n      dup2\n        /* \"contracts/MatchContract.sol\":6856:6865  m.player1 */\n      0x00\n      add\n      0x00\n      swap1\n      sload\n      swap1\n      0x0100\n      exp\n      swap1\n      div\n      0xffffffffffffffffffffffffffffffffffffffff\n      and\n        /* \"contracts/MatchContract.sol\":6846:6865  winner == m.player1 */\n      0xffffffffffffffffffffffffffffffffffffffff\n      and\n        /* \"contracts/MatchContract.sol\":6846:6852  winner */\n      dup4\n        /* \"contracts/MatchContract.sol\":6846:6865  winner == m.player1 */\n      0xffffffffffffffffffffffffffffffffffffffff\n      and\n      eq\n        /* \"contracts/MatchContract.sol\":6846:6889  winner == m.player1 ? m.player2 : m.player1 */\n      tag_252\n      jumpi\n        /* \"contracts/MatchContract.sol\":6880:6881  m */\n      dup2\n        /* \"contracts/MatchContract.sol\":6880:6889  m.player1 */\n      0x00\n      add\n      0x00\n      swap1\n      sload\n      swap1\n      0x0100\n      exp\n      swap1\n      div\n      0xffffffffffffffffffffffffffffffffffffffff\n      and\n        /* \"contracts/MatchContract.sol\":6846:6889  winner == m.player1 ? m.player2 : m.player1 */\n      jump(tag_253)\n    tag_252:\n        /* \"contracts/MatchContract.sol\":6868:6869  m */\n      dup2\n        /* \"contracts/MatchContract.sol\":6868:6877  m.player2 */\n      0x01\n      add\n      0x00\n      swap1\n      sload\n      swap1\n      0x0100\n      exp\n      swap1\n      div\n      0xffffffffffffffffffffffffffffffffffffffff\n      and\n        /* \"contracts/MatchContract.sol\":6846:6889  winner == m.player1 ? m.player2 : m.player1 */\n    tag_253:\n        /* \"contracts/MatchContract.sol\":6831:6889  address liar = winner == m.player1 ? m.player2 : m.player1 */\n      swap1\n      pop\n        /* \"contracts/MatchContract.sol\":1187:1190  -50 */\n      0xffffffffffffffffffffffffffffffffffffffffffffffffffffffffffffffce\n        /* \"contracts/MatchContract.sol\":6900:6907  players */\n      0x01\n        /* \"contracts/MatchContract.sol\":6900:6913  players[liar] */\n      0x00\n        /* \"contracts/MatchContract.sol\":6908:6912  liar */\n      dup4\n        /* \"contracts/MatchContract.sol\":6900:6913  players[liar] */\n      0xffffffffffffffffffffffffffffffffffffffff\n      and\n      0xffffffffffffffffffffffffffffffffffffffff\n      and\n      dup2\n      mstore\n      0x20\n      add\n      swap1\n      dup2\n      mstore\n      0x20\n      add\n      0x00\n      keccak256\n        /* \"contracts/MatchContract.sol\":6900:6924  players[liar].reputation */\n      0x00\n      add\n      0x00\n        /* \"contracts/MatchContract.sol\":6900:6936  players[liar].reputation += REP_LIED */\n      dup3\n      dup3\n      sload\n      tag_254\n      swap2\n      swap1\n      tag_255\n      jump\t// in\n    tag_254:\n      swap3\n      pop\n      pop\n      dup2\n      swap1\n      sstore\n      pop\n        /* \"contracts/MatchContract.sol\":6988:6994  uint i */\n      0x00\n        /* \"contracts/MatchContract.sol\":6983:7164  for (uint i = 0; i < m.juryPool.length; i++) {... */\n    tag_256:\n        /* \"contracts/MatchContract.sol\":7004:7005  m */\n      dup3\n        /* \"contracts/MatchContract.sol\":7004:7014  m.juryPool */\n      0x0a\n      add\n        /* \"contracts/MatchContract.sol\":7004:7021  m.juryPool.length */\n      dup1\n      sload\n      swap1\n      pop\n        /* \"contracts/MatchContract.sol\":7000:7001  i */\n      dup2\n        /* \"contracts/MatchContract.sol\":7000:7021  i < m.juryPool.length */\n      lt\n        /* \"contracts/MatchContract.sol\":6983:7164  for (uint i = 0; i < m.juryPool.length; i++) {... */\n      iszero\n      tag_257\n      jumpi\n        /* \"contracts/MatchContract.sol\":7051:7052  m */\n      dup3\n        /* \"contracts/MatchContract.sol\":7051:7061  m.juryPool */\n      0x0a\n      add\n        /* \"contracts/MatchContract.sol\":7062:7063  i */\n      dup2\n        /* \"contracts/MatchContract.sol\":7051:7064  m.juryPool[i] */\n      dup2\n      sload\n      dup2\n      lt\n      tag_259\n      jumpi\n      tag_260\n      tag_163\n      jump\t// in\n    tag_260:\n    tag_259:\n      swap1\n      0x00\n      mstore\n      keccak256(0x00, 0x20)\n      add\n      0x00\n      swap1\n      sload\n      swap1\n      0x0100\n      exp\n      swap1\n      div\n      0xffffffffffffffffffffffffffffffffffffffff\n      and\n        /* \"contracts/MatchContract.sol\":7043:7074  payable(m.juryPool[i]).transfer */\n      0xffffffffffffffffffffffffffffffffffffffff\n      and\n        /* \"contracts/MatchContract.sol\":7043:7087  payable(m.juryPool[i]).transfer(JURY_REWARD) */\n      0x08fc\n        /* \"contracts/MatchContract.sol\":913:923  0.05 ether */\n      0xb1a2bc2ec50000\n        /* \"contracts/MatchContract.sol\":7043:7087  payable(m.juryPool[i]).transfer(JURY_REWARD) */\n      swap1\n      dup2\n      iszero\n      mul\n      swap1\n      mload(0x40)\n      0x00\n      mload(0x40)\n      dup1\n      dup4\n      sub\n      dup2\n      dup6\n      dup9\n      dup9\n      call\n      swap4\n      pop\n      pop\n      pop\n      pop\n      iszero\n      dup1\n      iszero\n      tag_263\n      jumpi\n      returndatasize\n      0x00\n      dup1\n      returndatacopy\n      revert(0x00, returndatasize)\n    tag_263:\n      pop\n        /* \"contracts/MatchContract.sol\":1236:1237  5 */\n      0x05\n        /* \"contracts/MatchContract.sol\":7102:7109  players */\n      0x01\n        /* \"contracts/MatchContract.sol\":7102:7124  players[m.juryPool[i]] */\n      0x00\n        /* \"contracts/MatchContract.sol\":7110:7111  m */\n      dup6\n        /* \"contracts/MatchContract.sol\":7110:7120  m.juryPool */\n      0x0a\n      add\n        /* \"contracts/MatchContract.sol\":7121:7122  i */\n      dup5\n        /* \"contracts/MatchContract.sol\":7110:7123  m.juryPool[i] */\n      dup2\n      sload\n      dup2\n      lt\n      tag_264\n      jumpi\n      tag_265\n      tag_163\n      jump\t// in\n    tag_265:\n    tag_264:\n      swap1\n      0x00\n      mstore\n      keccak256(0x00, 0x20)\n      add\n      0x00\n      swap1\n      sload\n      swap1\n      0x0100\n      exp\n      swap1\n      div\n      0xffffffffffffffffffffffffffffffffffffffff\n      and\n        /* \"contracts/MatchContract.sol\":7102:7124  players[m.juryPool[i]] */\n      0xffffffffffffffffffffffffffffffffffffffff\n      and\n      0xffffffffffffffffffffffffffffffffffffffff\n      and\n      dup2\n      mstore\n      0x20\n      add\n      swap1\n      dup2\n      mstore\n      0x20\n      add\n      0x00\n      keccak256\n        /* \"contracts/MatchContract.sol\":7102:7135  players[m.juryPool[i]].reputation */\n      0x00\n      add\n      0x00\n        /* \"contracts/MatchContract.sol\":7102:7152  players[m.juryPool[i]].reputation += REP_JURY_VOTE */\n      dup3\n      dup3\n      sload\n      tag_267\n      swap2\n      swap1\n      tag_255\n      jump\t// in\n    tag_267:\n      swap3\n      pop\n      pop\n      dup2\n      swap1\n      sstore\n      pop\n        /* \"contracts/MatchContract.sol\":7023:7026  i++ */\n      dup1\n      dup1\n      0x01\n      add\n      swap2\n      pop\n      pop\n        /* \"contracts/MatchContract.sol\":6983:7164  for (uint i = 0; i < m.juryPool.length; i++) {... */\n      jump(tag_256)\n    tag_257:\n      pop\n        /* \"contracts/MatchContract.sol\":7211:7217  winner */\n      dup3\n        /* \"contracts/MatchContract.sol\":7203:7227  payable(winner).transfer */\n      0xffffffffffffffffffffffffffffffffffffffff\n      and\n        /* \"contracts/MatchContract.sol\":7203:7282  payable(winner).transfer(m.stakeAmount * 2 - (JURY_REWARD * m.juryPool.length)) */\n      0x08fc\n        /* \"contracts/MatchContract.sol\":7263:7264  m */\n      dup4\n        /* \"contracts/MatchContract.sol\":7263:7273  m.juryPool */\n      0x0a\n      add\n        /* \"contracts/MatchContract.sol\":7263:7280  m.juryPool.length */\n      dup1\n      sload\n      swap1\n      pop\n        /* \"contracts/MatchContract.sol\":913:923  0.05 ether */\n      0xb1a2bc2ec50000\n        /* \"contracts/MatchContract.sol\":7249:7280  JURY_REWARD * m.juryPool.length */\n      tag_268\n      swap2\n      swap1\n      tag_269\n      jump\t// in\n    tag_268:\n        /* \"contracts/MatchContract.sol\":7244:7245  2 */\n      0x02\n        /* \"contracts/MatchContract.sol\":7228:7229  m */\n      dup6\n        /* \"contracts/MatchContract.sol\":7228:7241  m.stakeAmount */\n      0x09\n      add\n      sload\n        /* \"contracts/MatchContract.sol\":7228:7245  m.stakeAmount * 2 */\n      tag_270\n      swap2\n      swap1\n      tag_269\n      jump\t// in\n    tag_270:\n        /* \"contracts/MatchContract.sol\":7228:7281  m.stakeAmount * 2 - (JURY_REWARD * m.juryPool.length) */\n      tag_271\n      swap2\n      swap1\n      tag_272\n      jump\t// in\n    tag_271:\n        /* \"contracts/MatchContract.sol\":7203:7282  payable(winner).transfer(m.stakeAmount * 2 - (JURY_REWARD * m.juryPool.length)) */\n      swap1\n      dup2\n      iszero\n      mul\n      swap1\n      mload(0x40)\n      0x00\n      mload(0x40)\n      dup1\n      dup4\n      sub\n      dup2\n      dup6\n      dup9\n      dup9\n      call\n      swap4\n      pop\n      pop\n      pop\n      pop\n      iszero\n      dup1\n      iszero\n      tag_274\n      jumpi\n      returndatasize\n      0x00\n      dup1\n      returndatacopy\n      revert(0x00, returndatasize)\n    tag_274:\n      pop\n        /* \"contracts/MatchContract.sol\":7312:7319  matchId */\n      dup4\n        /* \"contracts/MatchContract.sol\":7298:7328  MatchResolved(matchId, winner) */\n      0x1c560e9f349cd346794f9d534fb852628d58cc7a726d0adb57820fae0a50cd47\n        /* \"contracts/MatchContract.sol\":7321:7327  winner */\n      dup5\n        /* \"contracts/MatchContract.sol\":7298:7328  MatchResolved(matchId, winner) */\n      mload(0x40)\n      tag_275\n      swap2\n      swap1\n      tag_237\n      jump\t// in\n    tag_275:\n      mload(0x40)\n      dup1\n      swap2\n      sub\n      swap1\n      log2\n        /* \"contracts/MatchContract.sol\":6696:7336  {... */\n      pop\n      pop\n        /* \"contracts/MatchContract.sol\":6630:7336  function _resolveDispute(uint256 matchId, address winner) private {... */\n      pop\n      pop\n      jump\t// out\n        /* \"contracts/MatchContract.sol\":6154:6622  function _resolveMatch(uint256 matchId, address winner) private {... */\n    tag_245:\n        /* \"contracts/MatchContract.sol\":6229:6244  Match storage m */\n      0x00\n        /* \"contracts/MatchContract.sol\":6247:6254  matches */\n      dup1\n        /* \"contracts/MatchContract.sol\":6247:6263  matches[matchId] */\n      0x00\n        /* \"contracts/MatchContract.sol\":6255:6262  matchId */\n      dup5\n        /* \"contracts/MatchContract.sol\":6247:6263  matches[matchId] */\n      dup2\n      mstore\n      0x20\n      add\n      swap1\n      dup2\n      mstore\n      0x20\n      add\n      0x00\n      keccak256\n        /* \"contracts/MatchContract.sol\":6229:6263  Match storage m = matches[matchId] */\n      swap1\n      pop\n        /* \"contracts/MatchContract.sol\":6285:6306  MatchStatus.Completed */\n      0x03\n        /* \"contracts/MatchContract.sol\":6274:6275  m */\n      dup2\n        /* \"contracts/MatchContract.sol\":6274:6282  m.status */\n      0x08\n      add\n      0x00\n        /* \"contracts/MatchContract.sol\":6274:6306  m.status = MatchStatus.Completed */\n      0x0100\n      exp\n      dup2\n      sload\n      dup2\n      0xff\n      mul\n      not\n      and\n      swap1\n      dup4\n      0x03\n      dup2\n      gt\n      iszero\n      tag_277\n      jumpi\n      tag_278\n      tag_117\n      jump\t// in\n    tag_278:\n    tag_277:\n      mul\n      or\n      swap1\n      sstore\n      pop\n        /* \"contracts/MatchContract.sol\":1048:1050  15 */\n      0x0f\n        /* \"contracts/MatchContract.sol\":6358:6365  players */\n      0x01\n        /* \"contracts/MatchContract.sol\":6358:6373  players[winner] */\n      0x00\n        /* \"contracts/MatchContract.sol\":6366:6372  winner */\n      dup5\n        /* \"contracts/MatchContract.sol\":6358:6373  players[winner] */\n      0xffffffffffffffffffffffffffffffffffffffff\n      and\n      0xffffffffffffffffffffffffffffffffffffffff\n      and\n      dup2\n      mstore\n      0x20\n      add\n      swap1\n      dup2\n      mstore\n      0x20\n      add\n      0x00\n      keccak256\n        /* \"contracts/MatchContract.sol\":6358:6384  players[winner].reputation */\n      0x00\n      add\n      0x00\n        /* \"contracts/MatchContract.sol\":6358:6395  players[winner].reputation += REP_WIN */\n      dup3\n      dup3\n      sload\n      tag_279\n      swap2\n      swap1\n      tag_255\n      jump\t// in\n    tag_279:\n      swap3\n      pop\n      pop\n      dup2\n      swap1\n      sstore\n      pop\n        /* \"contracts/MatchContract.sol\":1095:1097  10 */\n      0x0a\n        /* \"contracts/MatchContract.sol\":6406:6413  players */\n      0x01\n        /* \"contracts/MatchContract.sol\":6406:6458  players[winner == m.player1 ? m.player2 : m.player1] */\n      0x00\n        /* \"contracts/MatchContract.sol\":6424:6425  m */\n      dup4\n        /* \"contracts/MatchContract.sol\":6424:6433  m.player1 */\n      0x00\n      add\n      0x00\n      swap1\n      sload\n      swap1\n      0x0100\n      exp\n      swap1\n      div\n      0xffffffffffffffffffffffffffffffffffffffff\n      and\n        /* \"contracts/MatchContract.sol\":6414:6433  winner == m.player1 */\n      0xffffffffffffffffffffffffffffffffffffffff\n      and\n        /* \"contracts/MatchContract.sol\":6414:6420  winner */\n      dup6\n        /* \"contracts/MatchContract.sol\":6414:6433  winner == m.player1 */\n      0xffffffffffffffffffffffffffffffffffffffff\n      and\n      eq\n        /* \"contracts/MatchContract.sol\":6414:6457  winner == m.player1 ? m.player2 : m.player1 */\n      tag_280\n      jumpi\n        /* \"contracts/MatchContract.sol\":6448:6449  m */\n      dup4\n        /* \"contracts/MatchContract.sol\":6448:6457  m.player1 */\n      0x00\n      add\n      0x00\n      swap1\n      sload\n      swap1\n      0x0100\n      exp\n      swap1\n      div\n      0xffffffffffffffffffffffffffffffffffffffff\n      and\n        /* \"contracts/MatchContract.sol\":6414:6457  winner == m.player1 ? m.player2 : m.player1 */\n      jump(tag_281)\n    tag_280:\n        /* \"contracts/MatchContract.sol\":6436:6437  m */\n      dup4\n        /* \"contracts/MatchContract.sol\":6436:6445  m.player2 */\n      0x01\n      add\n      0x00\n      swap1\n      sload\n      swap1\n      0x0100\n      exp\n      swap1\n      div\n      0xffffffffffffffffffffffffffffffffffffffff\n      and\n        /* \"contracts/MatchContract.sol\":6414:6457  winner == m.player1 ? m.player2 : m.player1 */\n    tag_281:\n        /* \"contracts/MatchContract.sol\":6406:6458  players[winner == m.player1 ? m.player2 : m.player1] */\n      0xffffffffffffffffffffffffffffffffffffffff\n      and\n      0xffffffffffffffffffffffffffffffffffffffff\n      and\n      dup2\n      mstore\n      0x20\n      add\n      swap1\n      dup2\n      mstore\n      0x20\n      add\n      0x00\n      keccak256\n        /* \"contracts/MatchContract.sol\":6406:6469  players[winner == m.player1 ? m.player2 : m.player1].reputation */\n      0x00\n      add\n      0x00\n        /* \"contracts/MatchContract.sol\":6406:6485  players[winner == m.player1 ? m.player2 : m.player1].reputation += REP_TRUTHFUL */\n      dup3\n      dup3\n      sload\n      tag_282\n      swap2\n      swap1\n      tag_255\n      jump\t// in\n    tag_282:\n      swap3\n      pop\n      pop\n      dup2\n      swap1\n      sstore\n      pop\n        /* \"contracts/MatchContract.sol\":6533:6539  winner */\n      dup2\n        /* \"contracts/MatchContract.sol\":6525:6549  payable(winner).transfer */\n      0xffffffffffffffffffffffffffffffffffffffff\n      and\n        /* \"contracts/MatchContract.sol\":6525:6568  payable(winner).transfer(m.stakeAmount * 2) */\n      0x08fc\n        /* \"contracts/MatchContract.sol\":6566:6567  2 */\n      0x02\n        /* \"contracts/MatchContract.sol\":6550:6551  m */\n      dup4\n        /* \"contracts/MatchContract.sol\":6550:6563  m.stakeAmount */\n      0x09\n      add\n      sload\n        /* \"contracts/MatchContract.sol\":6550:6567  m.stakeAmount * 2 */\n      tag_283\n      swap2\n      swap1\n      tag_269\n      jump\t// in\n    tag_283:\n        /* \"contracts/MatchContract.sol\":6525:6568  payable(winner).transfer(m.stakeAmount * 2) */\n      swap1\n      dup2\n      iszero\n      mul\n      swap1\n      mload(0x40)\n      0x00\n      mload(0x40)\n      dup1\n      dup4\n      sub\n      dup2\n      dup6\n      dup9\n      dup9\n      call\n      swap4\n      pop\n      pop\n      pop\n      pop\n      iszero\n      dup1\n      iszero\n      tag_285\n      jumpi\n      returndatasize\n      0x00\n      dup1\n      returndatacopy\n      revert(0x00, returndatasize)\n    tag_285:\n      pop\n        /* \"contracts/MatchContract.sol\":6598:6605  matchId */\n      dup3\n        /* \"contracts/MatchContract.sol\":6584:6614  MatchResolved(matchId, winner) */\n      0x1c560e9f349cd346794f9d534fb852628d58cc7a726d0adb57820fae0a50cd47\n        /* \"contracts/MatchContract.sol\":6607:6613  winner */\n      dup4\n        /* \"contracts/MatchContract.sol\":6584:6614  MatchResolved(matchId, winner) */\n      mload(0x40)\n      tag_286\n      swap2\n      swap1\n      tag_237\n      jump\t// in\n    tag_286:\n      mload(0x40)\n      dup1\n      swap2\n      sub\n      swap1\n      log2\n        /* \"contracts/MatchContract.sol\":6218:6622  {... */\n      pop\n        /* \"contracts/MatchContract.sol\":6154:6622  function _resolveMatch(uint256 matchId, address winner) private {... */\n      pop\n      pop\n      jump\t// out\n        /* \"#utility.yul\":7:84   */\n    tag_287:\n        /* \"#utility.yul\":44:51   */\n      0x00\n        /* \"#utility.yul\":73:78   */\n      dup2\n        /* \"#utility.yul\":62:78   */\n      swap1\n      pop\n        /* \"#utility.yul\":7:84   */\n      swap2\n      swap1\n      pop\n      jump\t// out\n        /* \"#utility.yul\":90:208   */\n    tag_288:\n        /* \"#utility.yul\":177:201   */\n      tag_375\n        /* \"#utility.yul\":195:200   */\n      dup2\n        /* \"#utility.yul\":177:201   */\n      tag_287\n      jump\t// in\n    tag_375:\n        /* \"#utility.yul\":172:175   */\n      dup3\n        /* \"#utility.yul\":165:202   */\n      mstore\n        /* \"#utility.yul\":90:208   */\n      pop\n      pop\n      jump\t// out\n        /* \"#utility.yul\":214:436   */\n    tag_27:\n        /* \"#utility.yul\":307:311   */\n      0x00\n        /* \"#utility.yul\":345:347   */\n      0x20\n        /* \"#utility.yul\":334:343   */\n      dup3\n        /* \"#utility.yul\":330:348   */\n      add\n        /* \"#utility.yul\":322:348   */\n      swap1\n      pop\n        /* \"#utility.yul\":358:429   */\n      tag_377\n        /* \"#utility.yul\":426:427   */\n      0x00\n        /* \"#utility.yul\":415:424   */\n      dup4\n        /* \"#utility.yul\":411:428   */\n      add\n        /* \"#utility.yul\":402:408   */\n      dup5\n        /* \"#utility.yul\":358:429   */\n      tag_288\n      jump\t// in\n    tag_377:\n        /* \"#utility.yul\":214:436   */\n      swap3\n      swap2\n      pop\n      pop\n      jump\t// out\n        /* \"#utility.yul\":442:518   */\n    tag_289:\n        /* \"#utility.yul\":478:485   */\n      0x00\n        /* \"#utility.yul\":507:512   */\n      dup2\n        /* \"#utility.yul\":496:512   */\n      swap1\n      pop\n        /* \"#utility.yul\":442:518   */\n      swap2\n      swap1\n      pop\n      jump\t// out\n        /* \"#utility.yul\":524:639   */\n    tag_290:\n        /* \"#utility.yul\":609:632   */\n      tag_380\n        /* \"#utility.yul\":626:631   */\n      dup2\n        /* \"#utility.yul\":609:632   */\n      tag_289\n      jump\t// in\n    tag_380:\n        /* \"#utility.yul\":604:607   */\n      dup3\n        /* \"#utility.yul\":597:633   */\n      mstore\n        /* \"#utility.yul\":524:639   */\n      pop\n      pop\n      jump\t// out\n        /* \"#utility.yul\":645:863   */\n    tag_32:\n        /* \"#utility.yul\":736:740   */\n      0x00\n        /* \"#utility.yul\":774:776   */\n      0x20\n        /* \"#utility.yul\":763:772   */\n      dup3\n        /* \"#utility.yul\":759:777   */\n      add\n        /* \"#utility.yul\":751:777   */\n      swap1\n      pop\n        /* \"#utility.yul\":787:856   */\n      tag_382\n        /* \"#utility.yul\":853:854   */\n      0x00\n        /* \"#utility.yul\":842:851   */\n      dup4\n        /* \"#utility.yul\":838:855   */\n      add\n        /* \"#utility.yul\":829:835   */\n      dup5\n        /* \"#utility.yul\":787:856   */\n      tag_290\n      jump\t// in\n    tag_382:\n        /* \"#utility.yul\":645:863   */\n      swap3\n      swap2\n      pop\n      pop\n      jump\t// out\n        /* \"#utility.yul\":869:944   */\n    tag_291:\n        /* \"#utility.yul\":902:908   */\n      0x00\n        /* \"#utility.yul\":935:937   */\n      0x40\n        /* \"#utility.yul\":929:938   */\n      mload\n        /* \"#utility.yul\":919:938   */\n      swap1\n      pop\n        /* \"#utility.yul\":869:944   */\n      swap1\n      jump\t// out\n        /* \"#utility.yul\":950:1067   */\n    tag_292:\n        /* \"#utility.yul\":1059:1060   */\n      0x00\n        /* \"#utility.yul\":1056:1057   */\n      dup1\n        /* \"#utility.yul\":1049:1061   */\n      revert\n        /* \"#utility.yul\":1073:1190   */\n    tag_293:\n        /* \"#utility.yul\":1182:1183   */\n      0x00\n        /* \"#utility.yul\":1179:1180   */\n      dup1\n        /* \"#utility.yul\":1172:1184   */\n      revert\n        /* \"#utility.yul\":1196:1322   */\n    tag_294:\n        /* \"#utility.yul\":1233:1240   */\n      0x00\n        /* \"#utility.yul\":1273:1315   */\n      0xffffffffffffffffffffffffffffffffffffffff\n        /* \"#utility.yul\":1266:1271   */\n      dup3\n        /* \"#utility.yul\":1262:1316   */\n      and\n        /* \"#utility.yul\":1251:1316   */\n      swap1\n      pop\n        /* \"#utility.yul\":1196:1322   */\n      swap2\n      swap1\n      pop\n      jump\t// out\n        /* \"#utility.yul\":1328:1424   */\n    tag_295:\n        /* \"#utility.yul\":1365:1372   */\n      0x00\n        /* \"#utility.yul\":1394:1418   */\n      tag_388\n        /* \"#utility.yul\":1412:1417   */\n      dup3\n        /* \"#utility.yul\":1394:1418   */\n      tag_294\n      jump\t// in\n    tag_388:\n        /* \"#utility.yul\":1383:1418   */\n      swap1\n      pop\n        /* \"#utility.yul\":1328:1424   */\n      swap2\n      swap1\n      pop\n      jump\t// out\n        /* \"#utility.yul\":1430:1552   */\n    tag_296:\n        /* \"#utility.yul\":1503:1527   */\n      tag_390\n        /* \"#utility.yul\":1521:1526   */\n      dup2\n        /* \"#utility.yul\":1503:1527   */\n      tag_295\n      jump\t// in\n    tag_390:\n        /* \"#utility.yul\":1496:1501   */\n      dup2\n        /* \"#utility.yul\":1493:1528   */\n      eq\n        /* \"#utility.yul\":1483:1546   */\n      tag_391\n      jumpi\n        /* \"#utility.yul\":1542:1543   */\n      0x00\n        /* \"#utility.yul\":1539:1540   */\n      dup1\n        /* \"#utility.yul\":1532:1544   */\n      revert\n        /* \"#utility.yul\":1483:1546   */\n    tag_391:\n        /* \"#utility.yul\":1430:1552   */\n      pop\n      jump\t// out\n        /* \"#utility.yul\":1558:1697   */\n    tag_297:\n        /* \"#utility.yul\":1604:1609   */\n      0x00\n        /* \"#utility.yul\":1642:1648   */\n      dup2\n        /* \"#utility.yul\":1629:1649   */\n      calldataload\n        /* \"#utility.yul\":1620:1649   */\n      swap1\n      pop\n        /* \"#utility.yul\":1658:1691   */\n      tag_393\n        /* \"#utility.yul\":1685:1690   */\n      dup2\n        /* \"#utility.yul\":1658:1691   */\n      tag_296\n      jump\t// in\n    tag_393:\n        /* \"#utility.yul\":1558:1697   */\n      swap3\n      swap2\n      pop\n      pop\n      jump\t// out\n        /* \"#utility.yul\":1703:2032   */\n    tag_40:\n        /* \"#utility.yul\":1762:1768   */\n      0x00\n        /* \"#utility.yul\":1811:1813   */\n      0x20\n        /* \"#utility.yul\":1799:1808   */\n      dup3\n        /* \"#utility.yul\":1790:1797   */\n      dup5\n        /* \"#utility.yul\":1786:1809   */\n      sub\n        /* \"#utility.yul\":1782:1814   */\n      slt\n        /* \"#utility.yul\":1779:1898   */\n      iszero\n      tag_395\n      jumpi\n        /* \"#utility.yul\":1817:1896   */\n      tag_396\n      tag_292\n      jump\t// in\n    tag_396:\n        /* \"#utility.yul\":1779:1898   */\n    tag_395:\n        /* \"#utility.yul\":1937:1938   */\n      0x00\n        /* \"#utility.yul\":1962:2015   */\n      tag_397\n        /* \"#utility.yul\":2007:2014   */\n      dup5\n        /* \"#utility.yul\":1998:2004   */\n      dup3\n        /* \"#utility.yul\":1987:1996   */\n      dup6\n        /* \"#utility.yul\":1983:2005   */\n      add\n        /* \"#utility.yul\":1962:2015   */\n      tag_297\n      jump\t// in\n    tag_397:\n        /* \"#utility.yul\":1952:2015   */\n      swap2\n      pop\n        /* \"#utility.yul\":1908:2025   */\n      pop\n        /* \"#utility.yul\":1703:2032   */\n      swap3\n      swap2\n      pop\n      pop\n      jump\t// out\n        /* \"#utility.yul\":2038:2160   */\n    tag_298:\n        /* \"#utility.yul\":2111:2135   */\n      tag_399\n        /* \"#utility.yul\":2129:2134   */\n      dup2\n        /* \"#utility.yul\":2111:2135   */\n      tag_287\n      jump\t// in\n    tag_399:\n        /* \"#utility.yul\":2104:2109   */\n      dup2\n        /* \"#utility.yul\":2101:2136   */\n      eq\n        /* \"#utility.yul\":2091:2154   */\n      tag_400\n      jumpi\n        /* \"#utility.yul\":2150:2151   */\n      0x00\n        /* \"#utility.yul\":2147:2148   */\n      dup1\n        /* \"#utility.yul\":2140:2152   */\n      revert\n        /* \"#utility.yul\":2091:2154   */\n    tag_400:\n        /* \"#utility.yul\":2038:2160   */\n      pop\n      jump\t// out\n        /* \"#utility.yul\":2166:2305   */\n    tag_299:\n        /* \"#utility.yul\":2212:2217   */\n      0x00\n        /* \"#utility.yul\":2250:2256   */\n      dup2\n        /* \"#utility.yul\":2237:2257   */\n      calldataload\n        /* \"#utility.yul\":2228:2257   */\n      swap1\n      pop\n        /* \"#utility.yul\":2266:2299   */\n      tag_402\n        /* \"#utility.yul\":2293:2298   */\n      dup2\n        /* \"#utility.yul\":2266:2299   */\n      tag_298\n      jump\t// in\n    tag_402:\n        /* \"#utility.yul\":2166:2305   */\n      swap3\n      swap2\n      pop\n      pop\n      jump\t// out\n        /* \"#utility.yul\":2311:2640   */\n    tag_45:\n        /* \"#utility.yul\":2370:2376   */\n      0x00\n        /* \"#utility.yul\":2419:2421   */\n      0x20\n        /* \"#utility.yul\":2407:2416   */\n      dup3\n        /* \"#utility.yul\":2398:2405   */\n      dup5\n        /* \"#utility.yul\":2394:2417   */\n      sub\n        /* \"#utility.yul\":2390:2422   */\n      slt\n        /* \"#utility.yul\":2387:2506   */\n      iszero\n      tag_404\n      jumpi\n        /* \"#utility.yul\":2425:2504   */\n      tag_405\n      tag_292\n      jump\t// in\n    tag_405:\n        /* \"#utility.yul\":2387:2506   */\n    tag_404:\n        /* \"#utility.yul\":2545:2546   */\n      0x00\n        /* \"#utility.yul\":2570:2623   */\n      tag_406\n        /* \"#utility.yul\":2615:2622   */\n      dup5\n        /* \"#utility.yul\":2606:2612   */\n      dup3\n        /* \"#utility.yul\":2595:2604   */\n      dup6\n        /* \"#utility.yul\":2591:2613   */\n      add\n        /* \"#utility.yul\":2570:2623   */\n      tag_299\n      jump\t// in\n    tag_406:\n        /* \"#utility.yul\":2560:2623   */\n      swap2\n      pop\n        /* \"#utility.yul\":2516:2633   */\n      pop\n        /* \"#utility.yul\":2311:2640   */\n      swap3\n      swap2\n      pop\n      pop\n      jump\t// out\n        /* \"#utility.yul\":2646:2764   */\n    tag_300:\n        /* \"#utility.yul\":2733:2757   */\n      tag_408\n        /* \"#utility.yul\":2751:2756   */\n      dup2\n        /* \"#utility.yul\":2733:2757   */\n      tag_295\n      jump\t// in\n    tag_408:\n        /* \"#utility.yul\":2728:2731   */\n      dup3\n        /* \"#utility.yul\":2721:2758   */\n      mstore\n        /* \"#utility.yul\":2646:2764   */\n      pop\n      pop\n      jump\t// out\n        /* \"#utility.yul\":2770:2847   */\n    tag_301:\n        /* \"#utility.yul\":2807:2814   */\n      0x00\n        /* \"#utility.yul\":2836:2841   */\n      dup2\n        /* \"#utility.yul\":2825:2841   */\n      swap1\n      pop\n        /* \"#utility.yul\":2770:2847   */\n      swap2\n      swap1\n      pop\n      jump\t// out\n        /* \"#utility.yul\":2853:2971   */\n    tag_302:\n        /* \"#utility.yul\":2940:2964   */\n      tag_411\n        /* \"#utility.yul\":2958:2963   */\n      dup2\n        /* \"#utility.yul\":2940:2964   */\n      tag_301\n      jump\t// in\n    tag_411:\n        /* \"#utility.yul\":2935:2938   */\n      dup3\n        /* \"#utility.yul\":2928:2965   */\n      mstore\n        /* \"#utility.yul\":2853:2971   */\n      pop\n      pop\n      jump\t// out\n        /* \"#utility.yul\":2977:3076   */\n    tag_303:\n        /* \"#utility.yul\":3029:3035   */\n      0x00\n        /* \"#utility.yul\":3063:3068   */\n      dup2\n        /* \"#utility.yul\":3057:3069   */\n      mload\n        /* \"#utility.yul\":3047:3069   */\n      swap1\n      pop\n        /* \"#utility.yul\":2977:3076   */\n      swap2\n      swap1\n      pop\n      jump\t// out\n        /* \"#utility.yul\":3082:3251   */\n    tag_304:\n        /* \"#utility.yul\":3166:3177   */\n      0x00\n        /* \"#utility.yul\":3200:3206   */\n      dup3\n        /* \"#utility.yul\":3195:3198   */\n      dup3\n        /* \"#utility.yul\":3188:3207   */\n      mstore\n        /* \"#utility.yul\":3240:3244   */\n      0x20\n        /* \"#utility.yul\":3235:3238   */\n      dup3\n        /* \"#utility.yul\":3231:3245   */\n      add\n        /* \"#utility.yul\":3216:3245   */\n      swap1\n      pop\n        /* \"#utility.yul\":3082:3251   */\n      swap3\n      swap2\n      pop\n      pop\n      jump\t// out\n        /* \"#utility.yul\":3257:3396   */\n    tag_305:\n        /* \"#utility.yul\":3346:3352   */\n      dup3\n        /* \"#utility.yul\":3341:3344   */\n      dup2\n        /* \"#utility.yul\":3336:3339   */\n      dup4\n        /* \"#utility.yul\":3330:3353   */\n      mcopy\n        /* \"#utility.yul\":3387:3388   */\n      0x00\n        /* \"#utility.yul\":3378:3384   */\n      dup4\n        /* \"#utility.yul\":3373:3376   */\n      dup4\n        /* \"#utility.yul\":3369:3385   */\n      add\n        /* \"#utility.yul\":3362:3389   */\n      mstore\n        /* \"#utility.yul\":3257:3396   */\n      pop\n      pop\n      pop\n      jump\t// out\n        /* \"#utility.yul\":3402:3504   */\n    tag_306:\n        /* \"#utility.yul\":3443:3449   */\n      0x00\n        /* \"#utility.yul\":3494:3496   */\n      0x1f\n        /* \"#utility.yul\":3490:3497   */\n      not\n        /* \"#utility.yul\":3485:3487   */\n      0x1f\n        /* \"#utility.yul\":3478:3483   */\n      dup4\n        /* \"#utility.yul\":3474:3488   */\n      add\n        /* \"#utility.yul\":3470:3498   */\n      and\n        /* \"#utility.yul\":3460:3498   */\n      swap1\n      pop\n        /* \"#utility.yul\":3402:3504   */\n      swap2\n      swap1\n      pop\n      jump\t// out\n        /* \"#utility.yul\":3510:3887   */\n    tag_307:\n        /* \"#utility.yul\":3598:3601   */\n      0x00\n        /* \"#utility.yul\":3626:3665   */\n      tag_417\n        /* \"#utility.yul\":3659:3664   */\n      dup3\n        /* \"#utility.yul\":3626:3665   */\n      tag_303\n      jump\t// in\n    tag_417:\n        /* \"#utility.yul\":3681:3752   */\n      tag_418\n        /* \"#utility.yul\":3745:3751   */\n      dup2\n        /* \"#utility.yul\":3740:3743   */\n      dup6\n        /* \"#utility.yul\":3681:3752   */\n      tag_304\n      jump\t// in\n    tag_418:\n        /* \"#utility.yul\":3674:3752   */\n      swap4\n      pop\n        /* \"#utility.yul\":3761:3826   */\n      tag_419\n        /* \"#utility.yul\":3819:3825   */\n      dup2\n        /* \"#utility.yul\":3814:3817   */\n      dup6\n        /* \"#utility.yul\":3807:3811   */\n      0x20\n        /* \"#utility.yul\":3800:3805   */\n      dup7\n        /* \"#utility.yul\":3796:3812   */\n      add\n        /* \"#utility.yul\":3761:3826   */\n      tag_305\n      jump\t// in\n    tag_419:\n        /* \"#utility.yul\":3851:3880   */\n      tag_420\n        /* \"#utility.yul\":3873:3879   */\n      dup2\n        /* \"#utility.yul\":3851:3880   */\n      tag_306\n      jump\t// in\n    tag_420:\n        /* \"#utility.yul\":3846:3849   */\n      dup5\n        /* \"#utility.yul\":3842:3881   */\n      add\n        /* \"#utility.yul\":3835:3881   */\n      swap2\n      pop\n        /* \"#utility.yul\":3602:3887   */\n      pop\n        /* \"#utility.yul\":3510:3887   */\n      swap3\n      swap2\n      pop\n      pop\n      jump\t// out\n        /* \"#utility.yul\":3893:4073   */\n    tag_117:\n        /* \"#utility.yul\":3941:4018   */\n      0x4e487b7100000000000000000000000000000000000000000000000000000000\n        /* \"#utility.yul\":3938:3939   */\n      0x00\n        /* \"#utility.yul\":3931:4019   */\n      mstore\n        /* \"#utility.yul\":4038:4042   */\n      0x21\n        /* \"#utility.yul\":4035:4036   */\n      0x04\n        /* \"#utility.yul\":4028:4043   */\n      mstore\n        /* \"#utility.yul\":4062:4066   */\n      0x24\n        /* \"#utility.yul\":4059:4060   */\n      0x00\n        /* \"#utility.yul\":4052:4067   */\n      revert\n        /* \"#utility.yul\":4079:4197   */\n    tag_308:\n        /* \"#utility.yul\":4165:4166   */\n      0x04\n        /* \"#utility.yul\":4158:4163   */\n      dup2\n        /* \"#utility.yul\":4155:4167   */\n      lt\n        /* \"#utility.yul\":4145:4191   */\n      tag_423\n      jumpi\n        /* \"#utility.yul\":4171:4189   */\n      tag_424\n      tag_117\n      jump\t// in\n    tag_424:\n        /* \"#utility.yul\":4145:4191   */\n    tag_423:\n        /* \"#utility.yul\":4079:4197   */\n      pop\n      jump\t// out\n        /* \"#utility.yul\":4203:4340   */\n    tag_309:\n        /* \"#utility.yul\":4253:4260   */\n      0x00\n        /* \"#utility.yul\":4282:4287   */\n      dup2\n        /* \"#utility.yul\":4271:4287   */\n      swap1\n      pop\n        /* \"#utility.yul\":4288:4334   */\n      tag_426\n        /* \"#utility.yul\":4328:4333   */\n      dup3\n        /* \"#utility.yul\":4288:4334   */\n      tag_308\n      jump\t// in\n    tag_426:\n        /* \"#utility.yul\":4203:4340   */\n      swap2\n      swap1\n      pop\n      jump\t// out\n        /* \"#utility.yul\":4346:4483   */\n    tag_310:\n        /* \"#utility.yul\":4407:4416   */\n      0x00\n        /* \"#utility.yul\":4440:4477   */\n      tag_428\n        /* \"#utility.yul\":4471:4476   */\n      dup3\n        /* \"#utility.yul\":4440:4477   */\n      tag_309\n      jump\t// in\n    tag_428:\n        /* \"#utility.yul\":4427:4477   */\n      swap1\n      pop\n        /* \"#utility.yul\":4346:4483   */\n      swap2\n      swap1\n      pop\n      jump\t// out\n        /* \"#utility.yul\":4489:4642   */\n    tag_311:\n        /* \"#utility.yul\":4587:4635   */\n      tag_430\n        /* \"#utility.yul\":4629:4634   */\n      dup2\n        /* \"#utility.yul\":4587:4635   */\n      tag_310\n      jump\t// in\n    tag_430:\n        /* \"#utility.yul\":4582:4585   */\n      dup3\n        /* \"#utility.yul\":4575:4636   */\n      mstore\n        /* \"#utility.yul\":4489:4642   */\n      pop\n      pop\n      jump\t// out\n        /* \"#utility.yul\":4648:6184   */\n    tag_56:\n        /* \"#utility.yul\":5073:5077   */\n      0x00\n        /* \"#utility.yul\":5111:5114   */\n      0x0160\n        /* \"#utility.yul\":5100:5109   */\n      dup3\n        /* \"#utility.yul\":5096:5115   */\n      add\n        /* \"#utility.yul\":5088:5115   */\n      swap1\n      pop\n        /* \"#utility.yul\":5125:5196   */\n      tag_432\n        /* \"#utility.yul\":5193:5194   */\n      0x00\n        /* \"#utility.yul\":5182:5191   */\n      dup4\n        /* \"#utility.yul\":5178:5195   */\n      add\n        /* \"#utility.yul\":5169:5175   */\n      dup15\n        /* \"#utility.yul\":5125:5196   */\n      tag_300\n      jump\t// in\n    tag_432:\n        /* \"#utility.yul\":5206:5278   */\n      tag_433\n        /* \"#utility.yul\":5274:5276   */\n      0x20\n        /* \"#utility.yul\":5263:5272   */\n      dup4\n        /* \"#utility.yul\":5259:5277   */\n      add\n        /* \"#utility.yul\":5250:5256   */\n      dup14\n        /* \"#utility.yul\":5206:5278   */\n      tag_300\n      jump\t// in\n    tag_433:\n        /* \"#utility.yul\":5288:5360   */\n      tag_434\n        /* \"#utility.yul\":5356:5358   */\n      0x40\n        /* \"#utility.yul\":5345:5354   */\n      dup4\n        /* \"#utility.yul\":5341:5359   */\n      add\n        /* \"#utility.yul\":5332:5338   */\n      dup13\n        /* \"#utility.yul\":5288:5360   */\n      tag_302\n      jump\t// in\n    tag_434:\n        /* \"#utility.yul\":5370:5442   */\n      tag_435\n        /* \"#utility.yul\":5438:5440   */\n      0x60\n        /* \"#utility.yul\":5427:5436   */\n      dup4\n        /* \"#utility.yul\":5423:5441   */\n      add\n        /* \"#utility.yul\":5414:5420   */\n      dup12\n        /* \"#utility.yul\":5370:5442   */\n      tag_302\n      jump\t// in\n    tag_435:\n        /* \"#utility.yul\":5490:5499   */\n      dup2\n        /* \"#utility.yul\":5484:5488   */\n      dup2\n        /* \"#utility.yul\":5480:5500   */\n      sub\n        /* \"#utility.yul\":5474:5477   */\n      0x80\n        /* \"#utility.yul\":5463:5472   */\n      dup4\n        /* \"#utility.yul\":5459:5478   */\n      add\n        /* \"#utility.yul\":5452:5501   */\n      mstore\n        /* \"#utility.yul\":5518:5596   */\n      tag_436\n        /* \"#utility.yul\":5591:5595   */\n      dup2\n        /* \"#utility.yul\":5582:5588   */\n      dup11\n        /* \"#utility.yul\":5518:5596   */\n      tag_307\n      jump\t// in\n    tag_436:\n        /* \"#utility.yul\":5510:5596   */\n      swap1\n      pop\n        /* \"#utility.yul\":5644:5653   */\n      dup2\n        /* \"#utility.yul\":5638:5642   */\n      dup2\n        /* \"#utility.yul\":5634:5654   */\n      sub\n        /* \"#utility.yul\":5628:5631   */\n      0xa0\n        /* \"#utility.yul\":5617:5626   */\n      dup4\n        /* \"#utility.yul\":5613:5632   */\n      add\n        /* \"#utility.yul\":5606:5655   */\n      mstore\n        /* \"#utility.yul\":5672:5750   */\n      tag_437\n        /* \"#utility.yul\":5745:5749   */\n      dup2\n        /* \"#utility.yul\":5736:5742   */\n      dup10\n        /* \"#utility.yul\":5672:5750   */\n      tag_307\n      jump\t// in\n    tag_437:\n        /* \"#utility.yul\":5664:5750   */\n      swap1\n      pop\n        /* \"#utility.yul\":5760:5833   */\n      tag_438\n        /* \"#utility.yul\":5828:5831   */\n      0xc0\n        /* \"#utility.yul\":5817:5826   */\n      dup4\n        /* \"#utility.yul\":5813:5832   */\n      add\n        /* \"#utility.yul\":5804:5810   */\n      dup9\n        /* \"#utility.yul\":5760:5833   */\n      tag_302\n      jump\t// in\n    tag_438:\n        /* \"#utility.yul\":5843:5916   */\n      tag_439\n        /* \"#utility.yul\":5911:5914   */\n      0xe0\n        /* \"#utility.yul\":5900:5909   */\n      dup4\n        /* \"#utility.yul\":5896:5915   */\n      add\n        /* \"#utility.yul\":5887:5893   */\n      dup8\n        /* \"#utility.yul\":5843:5916   */\n      tag_302\n      jump\t// in\n    tag_439:\n        /* \"#utility.yul\":5926:6010   */\n      tag_440\n        /* \"#utility.yul\":6005:6008   */\n      0x0100\n        /* \"#utility.yul\":5994:6003   */\n      dup4\n        /* \"#utility.yul\":5990:6009   */\n      add\n        /* \"#utility.yul\":5981:5987   */\n      dup7\n        /* \"#utility.yul\":5926:6010   */\n      tag_311\n      jump\t// in\n    tag_440:\n        /* \"#utility.yul\":6020:6093   */\n      tag_441\n        /* \"#utility.yul\":6088:6091   */\n      0x0120\n        /* \"#utility.yul\":6077:6086   */\n      dup4\n        /* \"#utility.yul\":6073:6092   */\n      add\n        /* \"#utility.yul\":6064:6070   */\n      dup6\n        /* \"#utility.yul\":6020:6093   */\n      tag_288\n      jump\t// in\n    tag_441:\n        /* \"#utility.yul\":6103:6177   */\n      tag_442\n        /* \"#utility.yul\":6172:6175   */\n      0x0140\n        /* \"#utility.yul\":6161:6170   */\n      dup4\n        /* \"#utility.yul\":6157:6176   */\n      add\n        /* \"#utility.yul\":6147:6154   */\n      dup5\n        /* \"#utility.yul\":6103:6177   */\n      tag_288\n      jump\t// in\n    tag_442:\n        /* \"#utility.yul\":4648:6184   */\n      swap13\n      swap12\n      pop\n      pop\n      pop\n      pop\n      pop\n      pop\n      pop\n      pop\n      pop\n      pop\n      pop\n      pop\n      jump\t// out\n        /* \"#utility.yul\":6190:6664   */\n    tag_63:\n        /* \"#utility.yul\":6258:6264   */\n      0x00\n        /* \"#utility.yul\":6266:6272   */\n      dup1\n        /* \"#utility.yul\":6315:6317   */\n      0x40\n        /* \"#utility.yul\":6303:6312   */\n      dup4\n        /* \"#utility.yul\":6294:6301   */\n      dup6\n        /* \"#utility.yul\":6290:6313   */\n      sub\n        /* \"#utility.yul\":6286:6318   */\n      slt\n        /* \"#utility.yul\":6283:6402   */\n      iszero\n      tag_444\n      jumpi\n        /* \"#utility.yul\":6321:6400   */\n      tag_445\n      tag_292\n      jump\t// in\n    tag_445:\n        /* \"#utility.yul\":6283:6402   */\n    tag_444:\n        /* \"#utility.yul\":6441:6442   */\n      0x00\n        /* \"#utility.yul\":6466:6519   */\n      tag_446\n        /* \"#utility.yul\":6511:6518   */\n      dup6\n        /* \"#utility.yul\":6502:6508   */\n      dup3\n        /* \"#utility.yul\":6491:6500   */\n      dup7\n        /* \"#utility.yul\":6487:6509   */\n      add\n        /* \"#utility.yul\":6466:6519   */\n      tag_299\n      jump\t// in\n    tag_446:\n        /* \"#utility.yul\":6456:6519   */\n      swap3\n      pop\n        /* \"#utility.yul\":6412:6529   */\n      pop\n        /* \"#utility.yul\":6568:6570   */\n      0x20\n        /* \"#utility.yul\":6594:6647   */\n      tag_447\n        /* \"#utility.yul\":6639:6646   */\n      dup6\n        /* \"#utility.yul\":6630:6636   */\n      dup3\n        /* \"#utility.yul\":6619:6628   */\n      dup7\n        /* \"#utility.yul\":6615:6637   */\n      add\n        /* \"#utility.yul\":6594:6647   */\n      tag_299\n      jump\t// in\n    tag_447:\n        /* \"#utility.yul\":6584:6647   */\n      swap2\n      pop\n        /* \"#utility.yul\":6539:6657   */\n      pop\n        /* \"#utility.yul\":6190:6664   */\n      swap3\n      pop\n      swap3\n      swap1\n      pop\n      jump\t// out\n        /* \"#utility.yul\":6670:6792   */\n    tag_312:\n        /* \"#utility.yul\":6743:6767   */\n      tag_449\n        /* \"#utility.yul\":6761:6766   */\n      dup2\n        /* \"#utility.yul\":6743:6767   */\n      tag_301\n      jump\t// in\n    tag_449:\n        /* \"#utility.yul\":6736:6741   */\n      dup2\n        /* \"#utility.yul\":6733:6768   */\n      eq\n        /* \"#utility.yul\":6723:6786   */\n      tag_450\n      jumpi\n        /* \"#utility.yul\":6782:6783   */\n      0x00\n        /* \"#utility.yul\":6779:6780   */\n      dup1\n        /* \"#utility.yul\":6772:6784   */\n      revert\n        /* \"#utility.yul\":6723:6786   */\n    tag_450:\n        /* \"#utility.yul\":6670:6792   */\n      pop\n      jump\t// out\n        /* \"#utility.yul\":6798:6937   */\n    tag_313:\n        /* \"#utility.yul\":6844:6849   */\n      0x00\n        /* \"#utility.yul\":6882:6888   */\n      dup2\n        /* \"#utility.yul\":6869:6889   */\n      calldataload\n        /* \"#utility.yul\":6860:6889   */\n      swap1\n      pop\n        /* \"#utility.yul\":6898:6931   */\n      tag_452\n        /* \"#utility.yul\":6925:6930   */\n      dup2\n        /* \"#utility.yul\":6898:6931   */\n      tag_312\n      jump\t// in\n    tag_452:\n        /* \"#utility.yul\":6798:6937   */\n      swap3\n      swap2\n      pop\n      pop\n      jump\t// out\n        /* \"#utility.yul\":6943:7417   */\n    tag_88:\n        /* \"#utility.yul\":7011:7017   */\n      0x00\n        /* \"#utility.yul\":7019:7025   */\n      dup1\n        /* \"#utility.yul\":7068:7070   */\n      0x40\n        /* \"#utility.yul\":7056:7065   */\n      dup4\n        /* \"#utility.yul\":7047:7054   */\n      dup6\n        /* \"#utility.yul\":7043:7066   */\n      sub\n        /* \"#utility.yul\":7039:7071   */\n      slt\n        /* \"#utility.yul\":7036:7155   */\n      iszero\n      tag_454\n      jumpi\n        /* \"#utility.yul\":7074:7153   */\n      tag_455\n      tag_292\n      jump\t// in\n    tag_455:\n        /* \"#utility.yul\":7036:7155   */\n    tag_454:\n        /* \"#utility.yul\":7194:7195   */\n      0x00\n        /* \"#utility.yul\":7219:7272   */\n      tag_456\n        /* \"#utility.yul\":7264:7271   */\n      dup6\n        /* \"#utility.yul\":7255:7261   */\n      dup3\n        /* \"#utility.yul\":7244:7253   */\n      dup7\n        /* \"#utility.yul\":7240:7262   */\n      add\n        /* \"#utility.yul\":7219:7272   */\n      tag_299\n      jump\t// in\n    tag_456:\n        /* \"#utility.yul\":7209:7272   */\n      swap3\n      pop\n        /* \"#utility.yul\":7165:7282   */\n      pop\n        /* \"#utility.yul\":7321:7323   */\n      0x20\n        /* \"#utility.yul\":7347:7400   */\n      tag_457\n        /* \"#utility.yul\":7392:7399   */\n      dup6\n        /* \"#utility.yul\":7383:7389   */\n      dup3\n        /* \"#utility.yul\":7372:7381   */\n      dup7\n        /* \"#utility.yul\":7368:7390   */\n      add\n        /* \"#utility.yul\":7347:7400   */\n      tag_313\n      jump\t// in\n    tag_457:\n        /* \"#utility.yul\":7337:7400   */\n      swap2\n      pop\n        /* \"#utility.yul\":7292:7410   */\n      pop\n        /* \"#utility.yul\":6943:7417   */\n      swap3\n      pop\n      swap3\n      swap1\n      pop\n      jump\t// out\n        /* \"#utility.yul\":7423:7513   */\n    tag_314:\n        /* \"#utility.yul\":7457:7464   */\n      0x00\n        /* \"#utility.yul\":7500:7505   */\n      dup2\n        /* \"#utility.yul\":7493:7506   */\n      iszero\n        /* \"#utility.yul\":7486:7507   */\n      iszero\n        /* \"#utility.yul\":7475:7507   */\n      swap1\n      pop\n        /* \"#utility.yul\":7423:7513   */\n      swap2\n      swap1\n      pop\n      jump\t// out\n        /* \"#utility.yul\":7519:7628   */\n    tag_315:\n        /* \"#utility.yul\":7600:7621   */\n      tag_460\n        /* \"#utility.yul\":7615:7620   */\n      dup2\n        /* \"#utility.yul\":7600:7621   */\n      tag_314\n      jump\t// in\n    tag_460:\n        /* \"#utility.yul\":7595:7598   */\n      dup3\n        /* \"#utility.yul\":7588:7622   */\n      mstore\n        /* \"#utility.yul\":7519:7628   */\n      pop\n      pop\n      jump\t// out\n        /* \"#utility.yul\":7634:8060   */\n    tag_99:\n        /* \"#utility.yul\":7775:7779   */\n      0x00\n        /* \"#utility.yul\":7813:7815   */\n      0x60\n        /* \"#utility.yul\":7802:7811   */\n      dup3\n        /* \"#utility.yul\":7798:7816   */\n      add\n        /* \"#utility.yul\":7790:7816   */\n      swap1\n      pop\n        /* \"#utility.yul\":7826:7895   */\n      tag_462\n        /* \"#utility.yul\":7892:7893   */\n      0x00\n        /* \"#utility.yul\":7881:7890   */\n      dup4\n        /* \"#utility.yul\":7877:7894   */\n      add\n        /* \"#utility.yul\":7868:7874   */\n      dup7\n        /* \"#utility.yul\":7826:7895   */\n      tag_290\n      jump\t// in\n    tag_462:\n        /* \"#utility.yul\":7905:7977   */\n      tag_463\n        /* \"#utility.yul\":7973:7975   */\n      0x20\n        /* \"#utility.yul\":7962:7971   */\n      dup4\n        /* \"#utility.yul\":7958:7976   */\n      add\n        /* \"#utility.yul\":7949:7955   */\n      dup6\n        /* \"#utility.yul\":7905:7977   */\n      tag_288\n      jump\t// in\n    tag_463:\n        /* \"#utility.yul\":7987:8053   */\n      tag_464\n        /* \"#utility.yul\":8049:8051   */\n      0x40\n        /* \"#utility.yul\":8038:8047   */\n      dup4\n        /* \"#utility.yul\":8034:8052   */\n      add\n        /* \"#utility.yul\":8025:8031   */\n      dup5\n        /* \"#utility.yul\":7987:8053   */\n      tag_315\n      jump\t// in\n    tag_464:\n        /* \"#utility.yul\":7634:8060   */\n      swap5\n      swap4\n      pop\n      pop\n      pop\n      pop\n      jump\t// out\n        /* \"#utility.yul\":8066:8183   */\n    tag_316:\n        /* \"#utility.yul\":8175:8176   */\n      0x00\n        /* \"#utility.yul\":8172:8173   */\n      dup1\n        /* \"#utility.yul\":8165:8177   */\n      revert\n        /* \"#utility.yul\":8189:8306   */\n    tag_317:\n        /* \"#utility.yul\":8298:8299   */\n      0x00\n        /* \"#utility.yul\":8295:8296   */\n      dup1\n        /* \"#utility.yul\":8288:8300   */\n      revert\n        /* \"#utility.yul\":8312:8492   */\n    tag_318:\n        /* \"#utility.yul\":8360:8437   */\n      0x4e487b7100000000000000000000000000000000000000000000000000000000\n        /* \"#utility.yul\":8357:8358   */\n      0x00\n        /* \"#utility.yul\":8350:8438   */\n      mstore\n        /* \"#utility.yul\":8457:8461   */\n      0x41\n        /* \"#utility.yul\":8454:8455   */\n      0x04\n        /* \"#utility.yul\":8447:8462   */\n      mstore\n        /* \"#utility.yul\":8481:8485   */\n      0x24\n        /* \"#utility.yul\":8478:8479   */\n      0x00\n        /* \"#utility.yul\":8471:8486   */\n      revert\n        /* \"#utility.yul\":8498:8779   */\n    tag_319:\n        /* \"#utility.yul\":8581:8608   */\n      tag_469\n        /* \"#utility.yul\":8603:8607   */\n      dup3\n        /* \"#utility.yul\":8581:8608   */\n      tag_306\n      jump\t// in\n    tag_469:\n        /* \"#utility.yul\":8573:8579   */\n      dup2\n        /* \"#utility.yul\":8569:8609   */\n      add\n        /* \"#utility.yul\":8711:8717   */\n      dup2\n        /* \"#utility.yul\":8699:8709   */\n      dup2\n        /* \"#utility.yul\":8696:8718   */\n      lt\n        /* \"#utility.yul\":8675:8693   */\n      0xffffffffffffffff\n        /* \"#utility.yul\":8663:8673   */\n      dup3\n        /* \"#utility.yul\":8660:8694   */\n      gt\n        /* \"#utility.yul\":8657:8719   */\n      or\n        /* \"#utility.yul\":8654:8742   */\n      iszero\n      tag_470\n      jumpi\n        /* \"#utility.yul\":8722:8740   */\n      tag_471\n      tag_318\n      jump\t// in\n    tag_471:\n        /* \"#utility.yul\":8654:8742   */\n    tag_470:\n        /* \"#utility.yul\":8762:8772   */\n      dup1\n        /* \"#utility.yul\":8758:8760   */\n      0x40\n        /* \"#utility.yul\":8751:8773   */\n      mstore\n        /* \"#utility.yul\":8541:8779   */\n      pop\n        /* \"#utility.yul\":8498:8779   */\n      pop\n      pop\n      jump\t// out\n        /* \"#utility.yul\":8785:8914   */\n    tag_320:\n        /* \"#utility.yul\":8819:8825   */\n      0x00\n        /* \"#utility.yul\":8846:8866   */\n      tag_473\n      tag_291\n      jump\t// in\n    tag_473:\n        /* \"#utility.yul\":8836:8866   */\n      swap1\n      pop\n        /* \"#utility.yul\":8875:8908   */\n      tag_474\n        /* \"#utility.yul\":8903:8907   */\n      dup3\n        /* \"#utility.yul\":8895:8901   */\n      dup3\n        /* \"#utility.yul\":8875:8908   */\n      tag_319\n      jump\t// in\n    tag_474:\n        /* \"#utility.yul\":8785:8914   */\n      swap2\n      swap1\n      pop\n      jump\t// out\n        /* \"#utility.yul\":8920:9228   */\n    tag_321:\n        /* \"#utility.yul\":8982:8986   */\n      0x00\n        /* \"#utility.yul\":9072:9090   */\n      0xffffffffffffffff\n        /* \"#utility.yul\":9064:9070   */\n      dup3\n        /* \"#utility.yul\":9061:9091   */\n      gt\n        /* \"#utility.yul\":9058:9114   */\n      iszero\n      tag_476\n      jumpi\n        /* \"#utility.yul\":9094:9112   */\n      tag_477\n      tag_318\n      jump\t// in\n    tag_477:\n        /* \"#utility.yul\":9058:9114   */\n    tag_476:\n        /* \"#utility.yul\":9132:9161   */\n      tag_478\n        /* \"#utility.yul\":9154:9160   */\n      dup3\n        /* \"#utility.yul\":9132:9161   */\n      tag_306\n      jump\t// in\n    tag_478:\n        /* \"#utility.yul\":9124:9161   */\n      swap1\n      pop\n        /* \"#utility.yul\":9216:9220   */\n      0x20\n        /* \"#utility.yul\":9210:9214   */\n      dup2\n        /* \"#utility.yul\":9206:9221   */\n      add\n        /* \"#utility.yul\":9198:9221   */\n      swap1\n      pop\n        /* \"#utility.yul\":8920:9228   */\n      swap2\n      swap1\n      pop\n      jump\t// out\n        /* \"#utility.yul\":9234:9382   */\n    tag_322:\n        /* \"#utility.yul\":9332:9338   */\n      dup3\n        /* \"#utility.yul\":9327:9330   */\n      dup2\n        /* \"#utility.yul\":9322:9325   */\n      dup4\n        /* \"#utility.yul\":9309:9339   */\n      calldatacopy\n        /* \"#utility.yul\":9373:9374   */\n      0x00\n        /* \"#utility.yul\":9364:9370   */\n      dup4\n        /* \"#utility.yul\":9359:9362   */\n      dup4\n        /* \"#utility.yul\":9355:9371   */\n      add\n        /* \"#utility.yul\":9348:9375   */\n      mstore\n        /* \"#utility.yul\":9234:9382   */\n      pop\n      pop\n      pop\n      jump\t// out\n        /* \"#utility.yul\":9388:9813   */\n    tag_323:\n        /* \"#utility.yul\":9466:9471   */\n      0x00\n        /* \"#utility.yul\":9491:9557   */\n      tag_481\n        /* \"#utility.yul\":9507:9556   */\n      tag_482\n        /* \"#utility.yul\":9549:9555   */\n      dup5\n        /* \"#utility.yul\":9507:9556   */\n      tag_321\n      jump\t// in\n    tag_482:\n        /* \"#utility.yul\":9491:9557   */\n      tag_320\n      jump\t// in\n    tag_481:\n        /* \"#utility.yul\":9482:9557   */\n      swap1\n      pop\n        /* \"#utility.yul\":9580:9586   */\n      dup3\n        /* \"#utility.yul\":9573:9578   */\n      dup2\n        /* \"#utility.yul\":9566:9587   */\n      mstore\n        /* \"#utility.yul\":9618:9622   */\n      0x20\n        /* \"#utility.yul\":9611:9616   */\n      dup2\n        /* \"#utility.yul\":9607:9623   */\n      add\n        /* \"#utility.yul\":9656:9659   */\n      dup5\n        /* \"#utility.yul\":9647:9653   */\n      dup5\n        /* \"#utility.yul\":9642:9645   */\n      dup5\n        /* \"#utility.yul\":9638:9654   */\n      add\n        /* \"#utility.yul\":9635:9660   */\n      gt\n        /* \"#utility.yul\":9632:9744   */\n      iszero\n      tag_483\n      jumpi\n        /* \"#utility.yul\":9663:9742   */\n      tag_484\n      tag_317\n      jump\t// in\n    tag_484:\n        /* \"#utility.yul\":9632:9744   */\n    tag_483:\n        /* \"#utility.yul\":9753:9807   */\n      tag_485\n        /* \"#utility.yul\":9800:9806   */\n      dup5\n        /* \"#utility.yul\":9795:9798   */\n      dup3\n        /* \"#utility.yul\":9790:9793   */\n      dup6\n        /* \"#utility.yul\":9753:9807   */\n      tag_322\n      jump\t// in\n    tag_485:\n        /* \"#utility.yul\":9472:9813   */\n      pop\n        /* \"#utility.yul\":9388:9813   */\n      swap4\n      swap3\n      pop\n      pop\n      pop\n      jump\t// out\n        /* \"#utility.yul\":9833:10173   */\n    tag_324:\n        /* \"#utility.yul\":9889:9894   */\n      0x00\n        /* \"#utility.yul\":9938:9941   */\n      dup3\n        /* \"#utility.yul\":9931:9935   */\n      0x1f\n        /* \"#utility.yul\":9923:9929   */\n      dup4\n        /* \"#utility.yul\":9919:9936   */\n      add\n        /* \"#utility.yul\":9915:9942   */\n      slt\n        /* \"#utility.yul\":9905:10027   */\n      tag_487\n      jumpi\n        /* \"#utility.yul\":9946:10025   */\n      tag_488\n      tag_316\n      jump\t// in\n    tag_488:\n        /* \"#utility.yul\":9905:10027   */\n    tag_487:\n        /* \"#utility.yul\":10063:10069   */\n      dup2\n        /* \"#utility.yul\":10050:10070   */\n      calldataload\n        /* \"#utility.yul\":10088:10167   */\n      tag_489\n        /* \"#utility.yul\":10163:10166   */\n      dup5\n        /* \"#utility.yul\":10155:10161   */\n      dup3\n        /* \"#utility.yul\":10148:10152   */\n      0x20\n        /* \"#utility.yul\":10140:10146   */\n      dup7\n        /* \"#utility.yul\":10136:10153   */\n      add\n        /* \"#utility.yul\":10088:10167   */\n      tag_323\n      jump\t// in\n    tag_489:\n        /* \"#utility.yul\":10079:10167   */\n      swap2\n      pop\n        /* \"#utility.yul\":9895:10173   */\n      pop\n        /* \"#utility.yul\":9833:10173   */\n      swap3\n      swap2\n      pop\n      pop\n      jump\t// out\n        /* \"#utility.yul\":10179:10978   */\n    tag_103:\n        /* \"#utility.yul\":10266:10272   */\n      0x00\n        /* \"#utility.yul\":10274:10280   */\n      dup1\n        /* \"#utility.yul\":10282:10288   */\n      0x00\n        /* \"#utility.yul\":10331:10333   */\n      0x60\n        /* \"#utility.yul\":10319:10328   */\n      dup5\n        /* \"#utility.yul\":10310:10317   */\n      dup7\n        /* \"#utility.yul\":10306:10329   */\n      sub\n        /* \"#utility.yul\":10302:10334   */\n      slt\n        /* \"#utility.yul\":10299:10418   */\n      iszero\n      tag_491\n      jumpi\n        /* \"#utility.yul\":10337:10416   */\n      tag_492\n      tag_292\n      jump\t// in\n    tag_492:\n        /* \"#utility.yul\":10299:10418   */\n    tag_491:\n        /* \"#utility.yul\":10457:10458   */\n      0x00\n        /* \"#utility.yul\":10482:10535   */\n      tag_493\n        /* \"#utility.yul\":10527:10534   */\n      dup7\n        /* \"#utility.yul\":10518:10524   */\n      dup3\n        /* \"#utility.yul\":10507:10516   */\n      dup8\n        /* \"#utility.yul\":10503:10525   */\n      add\n        /* \"#utility.yul\":10482:10535   */\n      tag_299\n      jump\t// in\n    tag_493:\n        /* \"#utility.yul\":10472:10535   */\n      swap4\n      pop\n        /* \"#utility.yul\":10428:10545   */\n      pop\n        /* \"#utility.yul\":10584:10586   */\n      0x20\n        /* \"#utility.yul\":10610:10663   */\n      tag_494\n        /* \"#utility.yul\":10655:10662   */\n      dup7\n        /* \"#utility.yul\":10646:10652   */\n      dup3\n        /* \"#utility.yul\":10635:10644   */\n      dup8\n        /* \"#utility.yul\":10631:10653   */\n      add\n        /* \"#utility.yul\":10610:10663   */\n      tag_313\n      jump\t// in\n    tag_494:\n        /* \"#utility.yul\":10600:10663   */\n      swap3\n      pop\n        /* \"#utility.yul\":10555:10673   */\n      pop\n        /* \"#utility.yul\":10740:10742   */\n      0x40\n        /* \"#utility.yul\":10729:10738   */\n      dup5\n        /* \"#utility.yul\":10725:10743   */\n      add\n        /* \"#utility.yul\":10712:10744   */\n      calldataload\n        /* \"#utility.yul\":10771:10789   */\n      0xffffffffffffffff\n        /* \"#utility.yul\":10763:10769   */\n      dup2\n        /* \"#utility.yul\":10760:10790   */\n      gt\n        /* \"#utility.yul\":10757:10874   */\n      iszero\n      tag_495\n      jumpi\n        /* \"#utility.yul\":10793:10872   */\n      tag_496\n      tag_293\n      jump\t// in\n    tag_496:\n        /* \"#utility.yul\":10757:10874   */\n    tag_495:\n        /* \"#utility.yul\":10898:10961   */\n      tag_497\n        /* \"#utility.yul\":10953:10960   */\n      dup7\n        /* \"#utility.yul\":10944:10950   */\n      dup3\n        /* \"#utility.yul\":10933:10942   */\n      dup8\n        /* \"#utility.yul\":10929:10951   */\n      add\n        /* \"#utility.yul\":10898:10961   */\n      tag_324\n      jump\t// in\n    tag_497:\n        /* \"#utility.yul\":10888:10961   */\n      swap2\n      pop\n        /* \"#utility.yul\":10683:10971   */\n      pop\n        /* \"#utility.yul\":10179:10978   */\n      swap3\n      pop\n      swap3\n      pop\n      swap3\n      jump\t// out\n        /* \"#utility.yul\":10984:11148   */\n    tag_325:\n        /* \"#utility.yul\":11124:11140   */\n      0x596f75206172652062616e6e6564000000000000000000000000000000000000\n        /* \"#utility.yul\":11120:11121   */\n      0x00\n        /* \"#utility.yul\":11112:11118   */\n      dup3\n        /* \"#utility.yul\":11108:11122   */\n      add\n        /* \"#utility.yul\":11101:11141   */\n      mstore\n        /* \"#utility.yul\":10984:11148   */\n      pop\n      jump\t// out\n        /* \"#utility.yul\":11154:11520   */\n    tag_326:\n        /* \"#utility.yul\":11296:11299   */\n      0x00\n        /* \"#utility.yul\":11317:11384   */\n      tag_500\n        /* \"#utility.yul\":11381:11383   */\n      0x0e\n        /* \"#utility.yul\":11376:11379   */\n      dup4\n        /* \"#utility.yul\":11317:11384   */\n      tag_304\n      jump\t// in\n    tag_500:\n        /* \"#utility.yul\":11310:11384   */\n      swap2\n      pop\n        /* \"#utility.yul\":11393:11486   */\n      tag_501\n        /* \"#utility.yul\":11482:11485   */\n      dup3\n        /* \"#utility.yul\":11393:11486   */\n      tag_325\n      jump\t// in\n    tag_501:\n        /* \"#utility.yul\":11511:11513   */\n      0x20\n        /* \"#utility.yul\":11506:11509   */\n      dup3\n        /* \"#utility.yul\":11502:11514   */\n      add\n        /* \"#utility.yul\":11495:11514   */\n      swap1\n      pop\n        /* \"#utility.yul\":11154:11520   */\n      swap2\n      swap1\n      pop\n      jump\t// out\n        /* \"#utility.yul\":11526:11945   */\n    tag_111:\n        /* \"#utility.yul\":11692:11696   */\n      0x00\n        /* \"#utility.yul\":11730:11732   */\n      0x20\n        /* \"#utility.yul\":11719:11728   */\n      dup3\n        /* \"#utility.yul\":11715:11733   */\n      add\n        /* \"#utility.yul\":11707:11733   */\n      swap1\n      pop\n        /* \"#utility.yul\":11779:11788   */\n      dup2\n        /* \"#utility.yul\":11773:11777   */\n      dup2\n        /* \"#utility.yul\":11769:11789   */\n      sub\n        /* \"#utility.yul\":11765:11766   */\n      0x00\n        /* \"#utility.yul\":11754:11763   */\n      dup4\n        /* \"#utility.yul\":11750:11767   */\n      add\n        /* \"#utility.yul\":11743:11790   */\n      mstore\n        /* \"#utility.yul\":11807:11938   */\n      tag_503\n        /* \"#utility.yul\":11933:11937   */\n      dup2\n        /* \"#utility.yul\":11807:11938   */\n      tag_326\n      jump\t// in\n    tag_503:\n        /* \"#utility.yul\":11799:11938   */\n      swap1\n      pop\n        /* \"#utility.yul\":11526:11945   */\n      swap2\n      swap1\n      pop\n      jump\t// out\n        /* \"#utility.yul\":11951:12121   */\n    tag_327:\n        /* \"#utility.yul\":12091:12113   */\n      0x496e636f7272656374206a757279207374616b65000000000000000000000000\n        /* \"#utility.yul\":12087:12088   */\n      0x00\n        /* \"#utility.yul\":12079:12085   */\n      dup3\n        /* \"#utility.yul\":12075:12089   */\n      add\n        /* \"#utility.yul\":12068:12114   */\n      mstore\n        /* \"#utility.yul\":11951:12121   */\n      pop\n      jump\t// out\n        /* \"#utility.yul\":12127:12493   */\n    tag_328:\n        /* \"#utility.yul\":12269:12272   */\n      0x00\n        /* \"#utility.yul\":12290:12357   */\n      tag_506\n        /* \"#utility.yul\":12354:12356   */\n      0x14\n        /* \"#utility.yul\":12349:12352   */\n      dup4\n        /* \"#utility.yul\":12290:12357   */\n      tag_304\n      jump\t// in\n    tag_506:\n        /* \"#utility.yul\":12283:12357   */\n      swap2\n      pop\n        /* \"#utility.yul\":12366:12459   */\n      tag_507\n        /* \"#utility.yul\":12455:12458   */\n      dup3\n        /* \"#utility.yul\":12366:12459   */\n      tag_327\n      jump\t// in\n    tag_507:\n        /* \"#utility.yul\":12484:12486   */\n      0x20\n        /* \"#utility.yul\":12479:12482   */\n      dup3\n        /* \"#utility.yul\":12475:12487   */\n      add\n        /* \"#utility.yul\":12468:12487   */\n      swap1\n      pop\n        /* \"#utility.yul\":12127:12493   */\n      swap2\n      swap1\n      pop\n      jump\t// out\n        /* \"#utility.yul\":12499:12918   */\n    tag_114:\n        /* \"#utility.yul\":12665:12669   */\n      0x00\n        /* \"#utility.yul\":12703:12705   */\n      0x20\n        /* \"#utility.yul\":12692:12701   */\n      dup3\n        /* \"#utility.yul\":12688:12706   */\n      add\n        /* \"#utility.yul\":12680:12706   */\n      swap1\n      pop\n        /* \"#utility.yul\":12752:12761   */\n      dup2\n        /* \"#utility.yul\":12746:12750   */\n      dup2\n        /* \"#utility.yul\":12742:12762   */\n      sub\n        /* \"#utility.yul\":12738:12739   */\n      0x00\n        /* \"#utility.yul\":12727:12736   */\n      dup4\n        /* \"#utility.yul\":12723:12740   */\n      add\n        /* \"#utility.yul\":12716:12763   */\n      mstore\n        /* \"#utility.yul\":12780:12911   */\n      tag_509\n        /* \"#utility.yul\":12906:12910   */\n      dup2\n        /* \"#utility.yul\":12780:12911   */\n      tag_328\n      jump\t// in\n    tag_509:\n        /* \"#utility.yul\":12772:12911   */\n      swap1\n      pop\n        /* \"#utility.yul\":12499:12918   */\n      swap2\n      swap1\n      pop\n      jump\t// out\n        /* \"#utility.yul\":12924:13091   */\n    tag_329:\n        /* \"#utility.yul\":13064:13083   */\n      0x4e6f206163746976652064697370757465000000000000000000000000000000\n        /* \"#utility.yul\":13060:13061   */\n      0x00\n        /* \"#utility.yul\":13052:13058   */\n      dup3\n        /* \"#utility.yul\":13048:13062   */\n      add\n        /* \"#utility.yul\":13041:13084   */\n      mstore\n        /* \"#utility.yul\":12924:13091   */\n      pop\n      jump\t// out\n        /* \"#utility.yul\":13097:13463   */\n    tag_330:\n        /* \"#utility.yul\":13239:13242   */\n      0x00\n        /* \"#utility.yul\":13260:13327   */\n      tag_512\n        /* \"#utility.yul\":13324:13326   */\n      0x11\n        /* \"#utility.yul\":13319:13322   */\n      dup4\n        /* \"#utility.yul\":13260:13327   */\n      tag_304\n      jump\t// in\n    tag_512:\n        /* \"#utility.yul\":13253:13327   */\n      swap2\n      pop\n        /* \"#utility.yul\":13336:13429   */\n      tag_513\n        /* \"#utility.yul\":13425:13428   */\n      dup3\n        /* \"#utility.yul\":13336:13429   */\n      tag_329\n      jump\t// in\n    tag_513:\n        /* \"#utility.yul\":13454:13456   */\n      0x20\n        /* \"#utility.yul\":13449:13452   */\n      dup3\n        /* \"#utility.yul\":13445:13457   */\n      add\n        /* \"#utility.yul\":13438:13457   */\n      swap1\n      pop\n        /* \"#utility.yul\":13097:13463   */\n      swap2\n      swap1\n      pop\n      jump\t// out\n        /* \"#utility.yul\":13469:13888   */\n    tag_122:\n        /* \"#utility.yul\":13635:13639   */\n      0x00\n        /* \"#utility.yul\":13673:13675   */\n      0x20\n        /* \"#utility.yul\":13662:13671   */\n      dup3\n        /* \"#utility.yul\":13658:13676   */\n      add\n        /* \"#utility.yul\":13650:13676   */\n      swap1\n      pop\n        /* \"#utility.yul\":13722:13731   */\n      dup2\n        /* \"#utility.yul\":13716:13720   */\n      dup2\n        /* \"#utility.yul\":13712:13732   */\n      sub\n        /* \"#utility.yul\":13708:13709   */\n      0x00\n        /* \"#utility.yul\":13697:13706   */\n      dup4\n        /* \"#utility.yul\":13693:13710   */\n      add\n        /* \"#utility.yul\":13686:13733   */\n      mstore\n        /* \"#utility.yul\":13750:13881   */\n      tag_515\n        /* \"#utility.yul\":13876:13880   */\n      dup2\n        /* \"#utility.yul\":13750:13881   */\n      tag_330\n      jump\t// in\n    tag_515:\n        /* \"#utility.yul\":13742:13881   */\n      swap1\n      pop\n        /* \"#utility.yul\":13469:13888   */\n      swap2\n      swap1\n      pop\n      jump\t// out\n        /* \"#utility.yul\":13894:14074   */\n    tag_331:\n        /* \"#utility.yul\":13942:14019   */\n      0x4e487b7100000000000000000000000000000000000000000000000000000000\n        /* \"#utility.yul\":13939:13940   */\n      0x00\n        /* \"#utility.yul\":13932:14020   */\n      mstore\n        /* \"#utility.yul\":14039:14043   */\n      0x22\n        /* \"#utility.yul\":14036:14037   */\n      0x04\n        /* \"#utility.yul\":14029:14044   */\n      mstore\n        /* \"#utility.yul\":14063:14067   */\n      0x24\n        /* \"#utility.yul\":14060:14061   */\n      0x00\n        /* \"#utility.yul\":14053:14068   */\n      revert\n        /* \"#utility.yul\":14080:14400   */\n    tag_125:\n        /* \"#utility.yul\":14124:14130   */\n      0x00\n        /* \"#utility.yul\":14161:14162   */\n      0x02\n        /* \"#utility.yul\":14155:14159   */\n      dup3\n        /* \"#utility.yul\":14151:14163   */\n      div\n        /* \"#utility.yul\":14141:14163   */\n      swap1\n      pop\n        /* \"#utility.yul\":14208:14209   */\n      0x01\n        /* \"#utility.yul\":14202:14206   */\n      dup3\n        /* \"#utility.yul\":14198:14210   */\n      and\n        /* \"#utility.yul\":14229:14247   */\n      dup1\n        /* \"#utility.yul\":14219:14300   */\n      tag_518\n      jumpi\n        /* \"#utility.yul\":14285:14289   */\n      0x7f\n        /* \"#utility.yul\":14277:14283   */\n      dup3\n        /* \"#utility.yul\":14273:14290   */\n      and\n        /* \"#utility.yul\":14263:14290   */\n      swap2\n      pop\n        /* \"#utility.yul\":14219:14300   */\n    tag_518:\n        /* \"#utility.yul\":14347:14349   */\n      0x20\n        /* \"#utility.yul\":14339:14345   */\n      dup3\n        /* \"#utility.yul\":14336:14350   */\n      lt\n        /* \"#utility.yul\":14316:14334   */\n      dup2\n        /* \"#utility.yul\":14313:14351   */\n      sub\n        /* \"#utility.yul\":14310:14394   */\n      tag_519\n      jumpi\n        /* \"#utility.yul\":14366:14384   */\n      tag_520\n      tag_331\n      jump\t// in\n    tag_520:\n        /* \"#utility.yul\":14310:14394   */\n    tag_519:\n        /* \"#utility.yul\":14131:14400   */\n      pop\n        /* \"#utility.yul\":14080:14400   */\n      swap2\n      swap1\n      pop\n      jump\t// out\n        /* \"#utility.yul\":14406:14574   */\n    tag_332:\n        /* \"#utility.yul\":14546:14566   */\n      0x4f70706f6e656e742069732062616e6e65640000000000000000000000000000\n        /* \"#utility.yul\":14542:14543   */\n      0x00\n        /* \"#utility.yul\":14534:14540   */\n      dup3\n        /* \"#utility.yul\":14530:14544   */\n      add\n        /* \"#utility.yul\":14523:14567   */\n      mstore\n        /* \"#utility.yul\":14406:14574   */\n      pop\n      jump\t// out\n        /* \"#utility.yul\":14580:14946   */\n    tag_333:\n        /* \"#utility.yul\":14722:14725   */\n      0x00\n        /* \"#utility.yul\":14743:14810   */\n      tag_523\n        /* \"#utility.yul\":14807:14809   */\n      0x12\n        /* \"#utility.yul\":14802:14805   */\n      dup4\n        /* \"#utility.yul\":14743:14810   */\n      tag_304\n      jump\t// in\n    tag_523:\n        /* \"#utility.yul\":14736:14810   */\n      swap2\n      pop\n        /* \"#utility.yul\":14819:14912   */\n      tag_524\n        /* \"#utility.yul\":14908:14911   */\n      dup3\n        /* \"#utility.yul\":14819:14912   */\n      tag_332\n      jump\t// in\n    tag_524:\n        /* \"#utility.yul\":14937:14939   */\n      0x20\n        /* \"#utility.yul\":14932:14935   */\n      dup3\n        /* \"#utility.yul\":14928:14940   */\n      add\n        /* \"#utility.yul\":14921:14940   */\n      swap1\n      pop\n        /* \"#utility.yul\":14580:14946   */\n      swap2\n      swap1\n      pop\n      jump\t// out\n        /* \"#utility.yul\":14952:15371   */\n    tag_140:\n        /* \"#utility.yul\":15118:15122   */\n      0x00\n        /* \"#utility.yul\":15156:15158   */\n      0x20\n        /* \"#utility.yul\":15145:15154   */\n      dup3\n        /* \"#utility.yul\":15141:15159   */\n      add\n        /* \"#utility.yul\":15133:15159   */\n      swap1\n      pop\n        /* \"#utility.yul\":15205:15214   */\n      dup2\n        /* \"#utility.yul\":15199:15203   */\n      dup2\n        /* \"#utility.yul\":15195:15215   */\n      sub\n        /* \"#utility.yul\":15191:15192   */\n      0x00\n        /* \"#utility.yul\":15180:15189   */\n      dup4\n        /* \"#utility.yul\":15176:15193   */\n      add\n        /* \"#utility.yul\":15169:15216   */\n      mstore\n        /* \"#utility.yul\":15233:15364   */\n      tag_526\n        /* \"#utility.yul\":15359:15363   */\n      dup2\n        /* \"#utility.yul\":15233:15364   */\n      tag_333\n      jump\t// in\n    tag_526:\n        /* \"#utility.yul\":15225:15364   */\n      swap1\n      pop\n        /* \"#utility.yul\":14952:15371   */\n      swap2\n      swap1\n      pop\n      jump\t// out\n        /* \"#utility.yul\":15377:15549   */\n    tag_334:\n        /* \"#utility.yul\":15517:15541   */\n      0x496e636f7272656374207374616b6520616d6f756e7400000000000000000000\n        /* \"#utility.yul\":15513:15514   */\n      0x00\n        /* \"#utility.yul\":15505:15511   */\n      dup3\n        /* \"#utility.yul\":15501:15515   */\n      add\n        /* \"#utility.yul\":15494:15542   */\n      mstore\n        /* \"#utility.yul\":15377:15549   */\n      pop\n      jump\t// out\n        /* \"#utility.yul\":15555:15921   */\n    tag_335:\n        /* \"#utility.yul\":15697:15700   */\n      0x00\n        /* \"#utility.yul\":15718:15785   */\n      tag_529\n        /* \"#utility.yul\":15782:15784   */\n      0x16\n        /* \"#utility.yul\":15777:15780   */\n      dup4\n        /* \"#utility.yul\":15718:15785   */\n      tag_304\n      jump\t// in\n    tag_529:\n        /* \"#utility.yul\":15711:15785   */\n      swap2\n      pop\n        /* \"#utility.yul\":15794:15887   */\n      tag_530\n        /* \"#utility.yul\":15883:15886   */\n      dup3\n        /* \"#utility.yul\":15794:15887   */\n      tag_334\n      jump\t// in\n    tag_530:\n        /* \"#utility.yul\":15912:15914   */\n      0x20\n        /* \"#utility.yul\":15907:15910   */\n      dup3\n        /* \"#utility.yul\":15903:15915   */\n      add\n        /* \"#utility.yul\":15896:15915   */\n      swap1\n      pop\n        /* \"#utility.yul\":15555:15921   */\n      swap2\n      swap1\n      pop\n      jump\t// out\n        /* \"#utility.yul\":15927:16346   */\n    tag_144:\n        /* \"#utility.yul\":16093:16097   */\n      0x00\n        /* \"#utility.yul\":16131:16133   */\n      0x20\n        /* \"#utility.yul\":16120:16129   */\n      dup3\n        /* \"#utility.yul\":16116:16134   */\n      add\n        /* \"#utility.yul\":16108:16134   */\n      swap1\n      pop\n        /* \"#utility.yul\":16180:16189   */\n      dup2\n        /* \"#utility.yul\":16174:16178   */\n      dup2\n        /* \"#utility.yul\":16170:16190   */\n      sub\n        /* \"#utility.yul\":16166:16167   */\n      0x00\n        /* \"#utility.yul\":16155:16164   */\n      dup4\n        /* \"#utility.yul\":16151:16168   */\n      add\n        /* \"#utility.yul\":16144:16191   */\n      mstore\n        /* \"#utility.yul\":16208:16339   */\n      tag_532\n        /* \"#utility.yul\":16334:16338   */\n      dup2\n        /* \"#utility.yul\":16208:16339   */\n      tag_335\n      jump\t// in\n    tag_532:\n        /* \"#utility.yul\":16200:16339   */\n      swap1\n      pop\n        /* \"#utility.yul\":15927:16346   */\n      swap2\n      swap1\n      pop\n      jump\t// out\n        /* \"#utility.yul\":16352:16532   */\n    tag_336:\n        /* \"#utility.yul\":16400:16477   */\n      0x4e487b7100000000000000000000000000000000000000000000000000000000\n        /* \"#utility.yul\":16397:16398   */\n      0x00\n        /* \"#utility.yul\":16390:16478   */\n      mstore\n        /* \"#utility.yul\":16497:16501   */\n      0x11\n        /* \"#utility.yul\":16494:16495   */\n      0x04\n        /* \"#utility.yul\":16487:16502   */\n      mstore\n        /* \"#utility.yul\":16521:16525   */\n      0x24\n        /* \"#utility.yul\":16518:16519   */\n      0x00\n        /* \"#utility.yul\":16511:16526   */\n      revert\n        /* \"#utility.yul\":16538:16771   */\n    tag_146:\n        /* \"#utility.yul\":16577:16580   */\n      0x00\n        /* \"#utility.yul\":16600:16624   */\n      tag_535\n        /* \"#utility.yul\":16618:16623   */\n      dup3\n        /* \"#utility.yul\":16600:16624   */\n      tag_287\n      jump\t// in\n    tag_535:\n        /* \"#utility.yul\":16591:16624   */\n      swap2\n      pop\n        /* \"#utility.yul\":16646:16712   */\n      0xffffffffffffffffffffffffffffffffffffffffffffffffffffffffffffffff\n        /* \"#utility.yul\":16639:16644   */\n      dup3\n        /* \"#utility.yul\":16636:16713   */\n      sub\n        /* \"#utility.yul\":16633:16736   */\n      tag_536\n      jumpi\n        /* \"#utility.yul\":16716:16734   */\n      tag_537\n      tag_336\n      jump\t// in\n    tag_537:\n        /* \"#utility.yul\":16633:16736   */\n    tag_536:\n        /* \"#utility.yul\":16763:16764   */\n      0x01\n        /* \"#utility.yul\":16756:16761   */\n      dup3\n        /* \"#utility.yul\":16752:16765   */\n      add\n        /* \"#utility.yul\":16745:16765   */\n      swap1\n      pop\n        /* \"#utility.yul\":16538:16771   */\n      swap2\n      swap1\n      pop\n      jump\t// out\n        /* \"#utility.yul\":16777:16968   */\n    tag_148:\n        /* \"#utility.yul\":16817:16820   */\n      0x00\n        /* \"#utility.yul\":16836:16856   */\n      tag_539\n        /* \"#utility.yul\":16854:16855   */\n      dup3\n        /* \"#utility.yul\":16836:16856   */\n      tag_287\n      jump\t// in\n    tag_539:\n        /* \"#utility.yul\":16831:16856   */\n      swap2\n      pop\n        /* \"#utility.yul\":16870:16890   */\n      tag_540\n        /* \"#utility.yul\":16888:16889   */\n      dup4\n        /* \"#utility.yul\":16870:16890   */\n      tag_287\n      jump\t// in\n    tag_540:\n        /* \"#utility.yul\":16865:16890   */\n      swap3\n      pop\n        /* \"#utility.yul\":16913:16914   */\n      dup3\n        /* \"#utility.yul\":16910:16911   */\n      dup3\n        /* \"#utility.yul\":16906:16915   */\n      add\n        /* \"#utility.yul\":16899:16915   */\n      swap1\n      pop\n        /* \"#utility.yul\":16934:16937   */\n      dup1\n        /* \"#utility.yul\":16931:16932   */\n      dup3\n        /* \"#utility.yul\":16928:16938   */\n      gt\n        /* \"#utility.yul\":16925:16961   */\n      iszero\n      tag_541\n      jumpi\n        /* \"#utility.yul\":16941:16959   */\n      tag_542\n      tag_336\n      jump\t// in\n    tag_542:\n        /* \"#utility.yul\":16925:16961   */\n    tag_541:\n        /* \"#utility.yul\":16777:16968   */\n      swap3\n      swap2\n      pop\n      pop\n      jump\t// out\n        /* \"#utility.yul\":16974:17306   */\n    tag_150:\n        /* \"#utility.yul\":17095:17099   */\n      0x00\n        /* \"#utility.yul\":17133:17135   */\n      0x40\n        /* \"#utility.yul\":17122:17131   */\n      dup3\n        /* \"#utility.yul\":17118:17136   */\n      add\n        /* \"#utility.yul\":17110:17136   */\n      swap1\n      pop\n        /* \"#utility.yul\":17146:17217   */\n      tag_544\n        /* \"#utility.yul\":17214:17215   */\n      0x00\n        /* \"#utility.yul\":17203:17212   */\n      dup4\n        /* \"#utility.yul\":17199:17216   */\n      add\n        /* \"#utility.yul\":17190:17196   */\n      dup6\n        /* \"#utility.yul\":17146:17217   */\n      tag_300\n      jump\t// in\n    tag_544:\n        /* \"#utility.yul\":17227:17299   */\n      tag_545\n        /* \"#utility.yul\":17295:17297   */\n      0x20\n        /* \"#utility.yul\":17284:17293   */\n      dup4\n        /* \"#utility.yul\":17280:17298   */\n      add\n        /* \"#utility.yul\":17271:17277   */\n      dup5\n        /* \"#utility.yul\":17227:17299   */\n      tag_300\n      jump\t// in\n    tag_545:\n        /* \"#utility.yul\":16974:17306   */\n      swap4\n      swap3\n      pop\n      pop\n      pop\n      jump\t// out\n        /* \"#utility.yul\":17312:17492   */\n    tag_163:\n        /* \"#utility.yul\":17360:17437   */\n      0x4e487b7100000000000000000000000000000000000000000000000000000000\n        /* \"#utility.yul\":17357:17358   */\n      0x00\n        /* \"#utility.yul\":17350:17438   */\n      mstore\n        /* \"#utility.yul\":17457:17461   */\n      0x32\n        /* \"#utility.yul\":17454:17455   */\n      0x04\n        /* \"#utility.yul\":17447:17462   */\n      mstore\n        /* \"#utility.yul\":17481:17485   */\n      0x24\n        /* \"#utility.yul\":17478:17479   */\n      0x00\n        /* \"#utility.yul\":17471:17486   */\n      revert\n        /* \"#utility.yul\":17498:17659   */\n    tag_337:\n        /* \"#utility.yul\":17638:17651   */\n      0x4e6f742061206a75726f72000000000000000000000000000000000000000000\n        /* \"#utility.yul\":17634:17635   */\n      0x00\n        /* \"#utility.yul\":17626:17632   */\n      dup3\n        /* \"#utility.yul\":17622:17636   */\n      add\n        /* \"#utility.yul\":17615:17652   */\n      mstore\n        /* \"#utility.yul\":17498:17659   */\n      pop\n      jump\t// out\n        /* \"#utility.yul\":17665:18031   */\n    tag_338:\n        /* \"#utility.yul\":17807:17810   */\n      0x00\n        /* \"#utility.yul\":17828:17895   */\n      tag_549\n        /* \"#utility.yul\":17892:17894   */\n      0x0b\n        /* \"#utility.yul\":17887:17890   */\n      dup4\n        /* \"#utility.yul\":17828:17895   */\n      tag_304\n      jump\t// in\n    tag_549:\n        /* \"#utility.yul\":17821:17895   */\n      swap2\n      pop\n        /* \"#utility.yul\":17904:17997   */\n      tag_550\n        /* \"#utility.yul\":17993:17996   */\n      dup3\n        /* \"#utility.yul\":17904:17997   */\n      tag_337\n      jump\t// in\n    tag_550:\n        /* \"#utility.yul\":18022:18024   */\n      0x20\n        /* \"#utility.yul\":18017:18020   */\n      dup3\n        /* \"#utility.yul\":18013:18025   */\n      add\n        /* \"#utility.yul\":18006:18025   */\n      swap1\n      pop\n        /* \"#utility.yul\":17665:18031   */\n      swap2\n      swap1\n      pop\n      jump\t// out\n        /* \"#utility.yul\":18037:18456   */\n    tag_168:\n        /* \"#utility.yul\":18203:18207   */\n      0x00\n        /* \"#utility.yul\":18241:18243   */\n      0x20\n        /* \"#utility.yul\":18230:18239   */\n      dup3\n        /* \"#utility.yul\":18226:18244   */\n      add\n        /* \"#utility.yul\":18218:18244   */\n      swap1\n      pop\n        /* \"#utility.yul\":18290:18299   */\n      dup2\n        /* \"#utility.yul\":18284:18288   */\n      dup2\n        /* \"#utility.yul\":18280:18300   */\n      sub\n        /* \"#utility.yul\":18276:18277   */\n      0x00\n        /* \"#utility.yul\":18265:18274   */\n      dup4\n        /* \"#utility.yul\":18261:18278   */\n      add\n        /* \"#utility.yul\":18254:18301   */\n      mstore\n        /* \"#utility.yul\":18318:18449   */\n      tag_552\n        /* \"#utility.yul\":18444:18448   */\n      dup2\n        /* \"#utility.yul\":18318:18449   */\n      tag_338\n      jump\t// in\n    tag_552:\n        /* \"#utility.yul\":18310:18449   */\n      swap1\n      pop\n        /* \"#utility.yul\":18037:18456   */\n      swap2\n      swap1\n      pop\n      jump\t// out\n        /* \"#utility.yul\":18462:18794   */\n    tag_170:\n        /* \"#utility.yul\":18583:18587   */\n      0x00\n        /* \"#utility.yul\":18621:18623   */\n      0x40\n        /* \"#utility.yul\":18610:18619   */\n      dup3\n        /* \"#utility.yul\":18606:18624   */\n      add\n        /* \"#utility.yul\":18598:18624   */\n      swap1\n      pop\n        /* \"#utility.yul\":18634:18705   */\n      tag_554\n        /* \"#utility.yul\":18702:18703   */\n      0x00\n        /* \"#utility.yul\":18691:18700   */\n      dup4\n        /* \"#utility.yul\":18687:18704   */\n      add\n        /* \"#utility.yul\":18678:18684   */\n      dup6\n        /* \"#utility.yul\":18634:18705   */\n      tag_300\n      jump\t// in\n    tag_554:\n        /* \"#utility.yul\":18715:18787   */\n      tag_555\n        /* \"#utility.yul\":18783:18785   */\n      0x20\n        /* \"#utility.yul\":18772:18781   */\n      dup4\n        /* \"#utility.yul\":18768:18786   */\n      add\n        /* \"#utility.yul\":18759:18765   */\n      dup5\n        /* \"#utility.yul\":18715:18787   */\n      tag_288\n      jump\t// in\n    tag_555:\n        /* \"#utility.yul\":18462:18794   */\n      swap4\n      swap3\n      pop\n      pop\n      pop\n      jump\t// out\n        /* \"#utility.yul\":18800:18964   */\n    tag_339:\n        /* \"#utility.yul\":18940:18956   */\n      0x4e6f742062616e2d776f72746879000000000000000000000000000000000000\n        /* \"#utility.yul\":18936:18937   */\n      0x00\n        /* \"#utility.yul\":18928:18934   */\n      dup3\n        /* \"#utility.yul\":18924:18938   */\n      add\n        /* \"#utility.yul\":18917:18957   */\n      mstore\n        /* \"#utility.yul\":18800:18964   */\n      pop\n      jump\t// out\n        /* \"#utility.yul\":18970:19336   */\n    tag_340:\n        /* \"#utility.yul\":19112:19115   */\n      0x00\n        /* \"#utility.yul\":19133:19200   */\n      tag_558\n        /* \"#utility.yul\":19197:19199   */\n      0x0e\n        /* \"#utility.yul\":19192:19195   */\n      dup4\n        /* \"#utility.yul\":19133:19200   */\n      tag_304\n      jump\t// in\n    tag_558:\n        /* \"#utility.yul\":19126:19200   */\n      swap2\n      pop\n        /* \"#utility.yul\":19209:19302   */\n      tag_559\n        /* \"#utility.yul\":19298:19301   */\n      dup3\n        /* \"#utility.yul\":19209:19302   */\n      tag_339\n      jump\t// in\n    tag_559:\n        /* \"#utility.yul\":19327:19329   */\n      0x20\n        /* \"#utility.yul\":19322:19325   */\n      dup3\n        /* \"#utility.yul\":19318:19330   */\n      add\n        /* \"#utility.yul\":19311:19330   */\n      swap1\n      pop\n        /* \"#utility.yul\":18970:19336   */\n      swap2\n      swap1\n      pop\n      jump\t// out\n        /* \"#utility.yul\":19342:19761   */\n    tag_189:\n        /* \"#utility.yul\":19508:19512   */\n      0x00\n        /* \"#utility.yul\":19546:19548   */\n      0x20\n        /* \"#utility.yul\":19535:19544   */\n      dup3\n        /* \"#utility.yul\":19531:19549   */\n      add\n        /* \"#utility.yul\":19523:19549   */\n      swap1\n      pop\n        /* \"#utility.yul\":19595:19604   */\n      dup2\n        /* \"#utility.yul\":19589:19593   */\n      dup2\n        /* \"#utility.yul\":19585:19605   */\n      sub\n        /* \"#utility.yul\":19581:19582   */\n      0x00\n        /* \"#utility.yul\":19570:19579   */\n      dup4\n        /* \"#utility.yul\":19566:19583   */\n      add\n        /* \"#utility.yul\":19559:19606   */\n      mstore\n        /* \"#utility.yul\":19623:19754   */\n      tag_561\n        /* \"#utility.yul\":19749:19753   */\n      dup2\n        /* \"#utility.yul\":19623:19754   */\n      tag_340\n      jump\t// in\n    tag_561:\n        /* \"#utility.yul\":19615:19754   */\n      swap1\n      pop\n        /* \"#utility.yul\":19342:19761   */\n      swap2\n      swap1\n      pop\n      jump\t// out\n        /* \"#utility.yul\":19767:19929   */\n    tag_341:\n        /* \"#utility.yul\":19907:19921   */\n      0x4e6f74206120706c617965720000000000000000000000000000000000000000\n        /* \"#utility.yul\":19903:19904   */\n      0x00\n        /* \"#utility.yul\":19895:19901   */\n      dup3\n        /* \"#utility.yul\":19891:19905   */\n      add\n        /* \"#utility.yul\":19884:19922   */\n      mstore\n        /* \"#utility.yul\":19767:19929   */\n      pop\n      jump\t// out\n        /* \"#utility.yul\":19935:20301   */\n    tag_342:\n        /* \"#utility.yul\":20077:20080   */\n      0x00\n        /* \"#utility.yul\":20098:20165   */\n      tag_564\n        /* \"#utility.yul\":20162:20164   */\n      0x0c\n        /* \"#utility.yul\":20157:20160   */\n      dup4\n        /* \"#utility.yul\":20098:20165   */\n      tag_304\n      jump\t// in\n    tag_564:\n        /* \"#utility.yul\":20091:20165   */\n      swap2\n      pop\n        /* \"#utility.yul\":20174:20267   */\n      tag_565\n        /* \"#utility.yul\":20263:20266   */\n      dup3\n        /* \"#utility.yul\":20174:20267   */\n      tag_341\n      jump\t// in\n    tag_565:\n        /* \"#utility.yul\":20292:20294   */\n      0x20\n        /* \"#utility.yul\":20287:20290   */\n      dup3\n        /* \"#utility.yul\":20283:20295   */\n      add\n        /* \"#utility.yul\":20276:20295   */\n      swap1\n      pop\n        /* \"#utility.yul\":19935:20301   */\n      swap2\n      swap1\n      pop\n      jump\t// out\n        /* \"#utility.yul\":20307:20726   */\n    tag_194:\n        /* \"#utility.yul\":20473:20477   */\n      0x00\n        /* \"#utility.yul\":20511:20513   */\n      0x20\n        /* \"#utility.yul\":20500:20509   */\n      dup3\n        /* \"#utility.yul\":20496:20514   */\n      add\n        /* \"#utility.yul\":20488:20514   */\n      swap1\n      pop\n        /* \"#utility.yul\":20560:20569   */\n      dup2\n        /* \"#utility.yul\":20554:20558   */\n      dup2\n        /* \"#utility.yul\":20550:20570   */\n      sub\n        /* \"#utility.yul\":20546:20547   */\n      0x00\n        /* \"#utility.yul\":20535:20544   */\n      dup4\n        /* \"#utility.yul\":20531:20548   */\n      add\n        /* \"#utility.yul\":20524:20571   */\n      mstore\n        /* \"#utility.yul\":20588:20719   */\n      tag_567\n        /* \"#utility.yul\":20714:20718   */\n      dup2\n        /* \"#utility.yul\":20588:20719   */\n      tag_342\n      jump\t// in\n    tag_567:\n        /* \"#utility.yul\":20580:20719   */\n      swap1\n      pop\n        /* \"#utility.yul\":20307:20726   */\n      swap2\n      swap1\n      pop\n      jump\t// out\n        /* \"#utility.yul\":20732:20901   */\n    tag_343:\n        /* \"#utility.yul\":20872:20893   */\n      0x4e6f7420696e20636f6d6d697420706861736500000000000000000000000000\n        /* \"#utility.yul\":20868:20869   */\n      0x00\n        /* \"#utility.yul\":20860:20866   */\n      dup3\n        /* \"#utility.yul\":20856:20870   */\n      add\n        /* \"#utility.yul\":20849:20894   */\n      mstore\n        /* \"#utility.yul\":20732:20901   */\n      pop\n      jump\t// out\n        /* \"#utility.yul\":20907:21273   */\n    tag_344:\n        /* \"#utility.yul\":21049:21052   */\n      0x00\n        /* \"#utility.yul\":21070:21137   */\n      tag_570\n        /* \"#utility.yul\":21134:21136   */\n      0x13\n        /* \"#utility.yul\":21129:21132   */\n      dup4\n        /* \"#utility.yul\":21070:21137   */\n      tag_304\n      jump\t// in\n    tag_570:\n        /* \"#utility.yul\":21063:21137   */\n      swap2\n      pop\n        /* \"#utility.yul\":21146:21239   */\n      tag_571\n        /* \"#utility.yul\":21235:21238   */\n      dup3\n        /* \"#utility.yul\":21146:21239   */\n      tag_343\n      jump\t// in\n    tag_571:\n        /* \"#utility.yul\":21264:21266   */\n      0x20\n        /* \"#utility.yul\":21259:21262   */\n      dup3\n        /* \"#utility.yul\":21255:21267   */\n      add\n        /* \"#utility.yul\":21248:21267   */\n      swap1\n      pop\n        /* \"#utility.yul\":20907:21273   */\n      swap2\n      swap1\n      pop\n      jump\t// out\n        /* \"#utility.yul\":21279:21698   */\n    tag_202:\n        /* \"#utility.yul\":21445:21449   */\n      0x00\n        /* \"#utility.yul\":21483:21485   */\n      0x20\n        /* \"#utility.yul\":21472:21481   */\n      dup3\n        /* \"#utility.yul\":21468:21486   */\n      add\n        /* \"#utility.yul\":21460:21486   */\n      swap1\n      pop\n        /* \"#utility.yul\":21532:21541   */\n      dup2\n        /* \"#utility.yul\":21526:21530   */\n      dup2\n        /* \"#utility.yul\":21522:21542   */\n      sub\n        /* \"#utility.yul\":21518:21519   */\n      0x00\n        /* \"#utility.yul\":21507:21516   */\n      dup4\n        /* \"#utility.yul\":21503:21520   */\n      add\n        /* \"#utility.yul\":21496:21543   */\n      mstore\n        /* \"#utility.yul\":21560:21691   */\n      tag_573\n        /* \"#utility.yul\":21686:21690   */\n      dup2\n        /* \"#utility.yul\":21560:21691   */\n      tag_344\n      jump\t// in\n    tag_573:\n        /* \"#utility.yul\":21552:21691   */\n      swap1\n      pop\n        /* \"#utility.yul\":21279:21698   */\n      swap2\n      swap1\n      pop\n      jump\t// out\n        /* \"#utility.yul\":21704:21873   */\n    tag_345:\n        /* \"#utility.yul\":21844:21865   */\n      0x4e6f7420696e2072657665616c20706861736500000000000000000000000000\n        /* \"#utility.yul\":21840:21841   */\n      0x00\n        /* \"#utility.yul\":21832:21838   */\n      dup3\n        /* \"#utility.yul\":21828:21842   */\n      add\n        /* \"#utility.yul\":21821:21866   */\n      mstore\n        /* \"#utility.yul\":21704:21873   */\n      pop\n      jump\t// out\n        /* \"#utility.yul\":21879:22245   */\n    tag_346:\n        /* \"#utility.yul\":22021:22024   */\n      0x00\n        /* \"#utility.yul\":22042:22109   */\n      tag_576\n        /* \"#utility.yul\":22106:22108   */\n      0x13\n        /* \"#utility.yul\":22101:22104   */\n      dup4\n        /* \"#utility.yul\":22042:22109   */\n      tag_304\n      jump\t// in\n    tag_576:\n        /* \"#utility.yul\":22035:22109   */\n      swap2\n      pop\n        /* \"#utility.yul\":22118:22211   */\n      tag_577\n        /* \"#utility.yul\":22207:22210   */\n      dup3\n        /* \"#utility.yul\":22118:22211   */\n      tag_345\n      jump\t// in\n    tag_577:\n        /* \"#utility.yul\":22236:22238   */\n      0x20\n        /* \"#utility.yul\":22231:22234   */\n      dup3\n        /* \"#utility.yul\":22227:22239   */\n      add\n        /* \"#utility.yul\":22220:22239   */\n      swap1\n      pop\n        /* \"#utility.yul\":21879:22245   */\n      swap2\n      swap1\n      pop\n      jump\t// out\n        /* \"#utility.yul\":22251:22670   */\n    tag_220:\n        /* \"#utility.yul\":22417:22421   */\n      0x00\n        /* \"#utility.yul\":22455:22457   */\n      0x20\n        /* \"#utility.yul\":22444:22453   */\n      dup3\n        /* \"#utility.yul\":22440:22458   */\n      add\n        /* \"#utility.yul\":22432:22458   */\n      swap1\n      pop\n        /* \"#utility.yul\":22504:22513   */\n      dup2\n        /* \"#utility.yul\":22498:22502   */\n      dup2\n        /* \"#utility.yul\":22494:22514   */\n      sub\n        /* \"#utility.yul\":22490:22491   */\n      0x00\n        /* \"#utility.yul\":22479:22488   */\n      dup4\n        /* \"#utility.yul\":22475:22492   */\n      add\n        /* \"#utility.yul\":22468:22515   */\n      mstore\n        /* \"#utility.yul\":22532:22663   */\n      tag_579\n        /* \"#utility.yul\":22658:22662   */\n      dup2\n        /* \"#utility.yul\":22532:22663   */\n      tag_346\n      jump\t// in\n    tag_579:\n        /* \"#utility.yul\":22524:22663   */\n      swap1\n      pop\n        /* \"#utility.yul\":22251:22670   */\n      swap2\n      swap1\n      pop\n      jump\t// out\n        /* \"#utility.yul\":22676:22847   */\n    tag_347:\n        /* \"#utility.yul\":22816:22839   */\n      0x52657665616c20706572696f6420657870697265640000000000000000000000\n        /* \"#utility.yul\":22812:22813   */\n      0x00\n        /* \"#utility.yul\":22804:22810   */\n      dup3\n        /* \"#utility.yul\":22800:22814   */\n      add\n        /* \"#utility.yul\":22793:22840   */\n      mstore\n        /* \"#utility.yul\":22676:22847   */\n      pop\n      jump\t// out\n        /* \"#utility.yul\":22853:23219   */\n    tag_348:\n        /* \"#utility.yul\":22995:22998   */\n      0x00\n        /* \"#utility.yul\":23016:23083   */\n      tag_582\n        /* \"#utility.yul\":23080:23082   */\n      0x15\n        /* \"#utility.yul\":23075:23078   */\n      dup4\n        /* \"#utility.yul\":23016:23083   */\n      tag_304\n      jump\t// in\n    tag_582:\n        /* \"#utility.yul\":23009:23083   */\n      swap2\n      pop\n        /* \"#utility.yul\":23092:23185   */\n      tag_583\n        /* \"#utility.yul\":23181:23184   */\n      dup3\n        /* \"#utility.yul\":23092:23185   */\n      tag_347\n      jump\t// in\n    tag_583:\n        /* \"#utility.yul\":23210:23212   */\n      0x20\n        /* \"#utility.yul\":23205:23208   */\n      dup3\n        /* \"#utility.yul\":23201:23213   */\n      add\n        /* \"#utility.yul\":23194:23213   */\n      swap1\n      pop\n        /* \"#utility.yul\":22853:23219   */\n      swap2\n      swap1\n      pop\n      jump\t// out\n        /* \"#utility.yul\":23225:23644   */\n    tag_223:\n        /* \"#utility.yul\":23391:23395   */\n      0x00\n        /* \"#utility.yul\":23429:23431   */\n      0x20\n        /* \"#utility.yul\":23418:23427   */\n      dup3\n        /* \"#utility.yul\":23414:23432   */\n      add\n        /* \"#utility.yul\":23406:23432   */\n      swap1\n      pop\n        /* \"#utility.yul\":23478:23487   */\n      dup2\n        /* \"#utility.yul\":23472:23476   */\n      dup2\n        /* \"#utility.yul\":23468:23488   */\n      sub\n        /* \"#utility.yul\":23464:23465   */\n      0x00\n        /* \"#utility.yul\":23453:23462   */\n      dup4\n        /* \"#utility.yul\":23449:23466   */\n      add\n        /* \"#utility.yul\":23442:23489   */\n      mstore\n        /* \"#utility.yul\":23506:23637   */\n      tag_585\n        /* \"#utility.yul\":23632:23636   */\n      dup2\n        /* \"#utility.yul\":23506:23637   */\n      tag_348\n      jump\t// in\n    tag_585:\n        /* \"#utility.yul\":23498:23637   */\n      swap1\n      pop\n        /* \"#utility.yul\":23225:23644   */\n      swap2\n      swap1\n      pop\n      jump\t// out\n        /* \"#utility.yul\":23650:23798   */\n    tag_349:\n        /* \"#utility.yul\":23752:23763   */\n      0x00\n        /* \"#utility.yul\":23789:23792   */\n      dup2\n        /* \"#utility.yul\":23774:23792   */\n      swap1\n      pop\n        /* \"#utility.yul\":23650:23798   */\n      swap3\n      swap2\n      pop\n      pop\n      jump\t// out\n        /* \"#utility.yul\":23804:23968   */\n    tag_350:\n        /* \"#utility.yul\":23944:23960   */\n      0x495f7265706f72745f7472757468000000000000000000000000000000000000\n        /* \"#utility.yul\":23940:23941   */\n      0x00\n        /* \"#utility.yul\":23932:23938   */\n      dup3\n        /* \"#utility.yul\":23928:23942   */\n      add\n        /* \"#utility.yul\":23921:23961   */\n      mstore\n        /* \"#utility.yul\":23804:23968   */\n      pop\n      jump\t// out\n        /* \"#utility.yul\":23974:24376   */\n    tag_351:\n        /* \"#utility.yul\":24134:24137   */\n      0x00\n        /* \"#utility.yul\":24155:24240   */\n      tag_589\n        /* \"#utility.yul\":24237:24239   */\n      0x0e\n        /* \"#utility.yul\":24232:24235   */\n      dup4\n        /* \"#utility.yul\":24155:24240   */\n      tag_349\n      jump\t// in\n    tag_589:\n        /* \"#utility.yul\":24148:24240   */\n      swap2\n      pop\n        /* \"#utility.yul\":24249:24342   */\n      tag_590\n        /* \"#utility.yul\":24338:24341   */\n      dup3\n        /* \"#utility.yul\":24249:24342   */\n      tag_350\n      jump\t// in\n    tag_590:\n        /* \"#utility.yul\":24367:24369   */\n      0x0e\n        /* \"#utility.yul\":24362:24365   */\n      dup3\n        /* \"#utility.yul\":24358:24370   */\n      add\n        /* \"#utility.yul\":24351:24370   */\n      swap1\n      pop\n        /* \"#utility.yul\":23974:24376   */\n      swap2\n      swap1\n      pop\n      jump\t// out\n        /* \"#utility.yul\":24382:24461   */\n    tag_352:\n        /* \"#utility.yul\":24421:24428   */\n      0x00\n        /* \"#utility.yul\":24450:24455   */\n      dup2\n        /* \"#utility.yul\":24439:24455   */\n      swap1\n      pop\n        /* \"#utility.yul\":24382:24461   */\n      swap2\n      swap1\n      pop\n      jump\t// out\n        /* \"#utility.yul\":24467:24624   */\n    tag_353:\n        /* \"#utility.yul\":24572:24617   */\n      tag_593\n        /* \"#utility.yul\":24592:24616   */\n      tag_594\n        /* \"#utility.yul\":24610:24615   */\n      dup3\n        /* \"#utility.yul\":24592:24616   */\n      tag_301\n      jump\t// in\n    tag_594:\n        /* \"#utility.yul\":24572:24617   */\n      tag_352\n      jump\t// in\n    tag_593:\n        /* \"#utility.yul\":24567:24570   */\n      dup3\n        /* \"#utility.yul\":24560:24618   */\n      mstore\n        /* \"#utility.yul\":24467:24624   */\n      pop\n      pop\n      jump\t// out\n        /* \"#utility.yul\":24630:25152   */\n    tag_225:\n        /* \"#utility.yul\":24843:24846   */\n      0x00\n        /* \"#utility.yul\":24865:25013   */\n      tag_596\n        /* \"#utility.yul\":25009:25012   */\n      dup3\n        /* \"#utility.yul\":24865:25013   */\n      tag_351\n      jump\t// in\n    tag_596:\n        /* \"#utility.yul\":24858:25013   */\n      swap2\n      pop\n        /* \"#utility.yul\":25023:25098   */\n      tag_597\n        /* \"#utility.yul\":25094:25097   */\n      dup3\n        /* \"#utility.yul\":25085:25091   */\n      dup5\n        /* \"#utility.yul\":25023:25098   */\n      tag_353\n      jump\t// in\n    tag_597:\n        /* \"#utility.yul\":25123:25125   */\n      0x20\n        /* \"#utility.yul\":25118:25121   */\n      dup3\n        /* \"#utility.yul\":25114:25126   */\n      add\n        /* \"#utility.yul\":25107:25126   */\n      swap2\n      pop\n        /* \"#utility.yul\":25143:25146   */\n      dup2\n        /* \"#utility.yul\":25136:25146   */\n      swap1\n      pop\n        /* \"#utility.yul\":24630:25152   */\n      swap3\n      swap2\n      pop\n      pop\n      jump\t// out\n        /* \"#utility.yul\":25158:25322   */\n    tag_354:\n        /* \"#utility.yul\":25298:25314   */\n      0x496e76616c69642072657665616c000000000000000000000000000000000000\n        /* \"#utility.yul\":25294:25295   */\n      0x00\n        /* \"#utility.yul\":25286:25292   */\n      dup3\n        /* \"#utility.yul\":25282:25296   */\n      add\n        /* \"#utility.yul\":25275:25315   */\n      mstore\n        /* \"#utility.yul\":25158:25322   */\n      pop\n      jump\t// out\n        /* \"#utility.yul\":25328:25694   */\n    tag_355:\n        /* \"#utility.yul\":25470:25473   */\n      0x00\n        /* \"#utility.yul\":25491:25558   */\n      tag_600\n        /* \"#utility.yul\":25555:25557   */\n      0x0e\n        /* \"#utility.yul\":25550:25553   */\n      dup4\n        /* \"#utility.yul\":25491:25558   */\n      tag_304\n      jump\t// in\n    tag_600:\n        /* \"#utility.yul\":25484:25558   */\n      swap2\n      pop\n        /* \"#utility.yul\":25567:25660   */\n      tag_601\n        /* \"#utility.yul\":25656:25659   */\n      dup3\n        /* \"#utility.yul\":25567:25660   */\n      tag_354\n      jump\t// in\n    tag_601:\n        /* \"#utility.yul\":25685:25687   */\n      0x20\n        /* \"#utility.yul\":25680:25683   */\n      dup3\n        /* \"#utility.yul\":25676:25688   */\n      add\n        /* \"#utility.yul\":25669:25688   */\n      swap1\n      pop\n        /* \"#utility.yul\":25328:25694   */\n      swap2\n      swap1\n      pop\n      jump\t// out\n        /* \"#utility.yul\":25700:26119   */\n    tag_229:\n        /* \"#utility.yul\":25866:25870   */\n      0x00\n        /* \"#utility.yul\":25904:25906   */\n      0x20\n        /* \"#utility.yul\":25893:25902   */\n      dup3\n        /* \"#utility.yul\":25889:25907   */\n      add\n        /* \"#utility.yul\":25881:25907   */\n      swap1\n      pop\n        /* \"#utility.yul\":25953:25962   */\n      dup2\n        /* \"#utility.yul\":25947:25951   */\n      dup2\n        /* \"#utility.yul\":25943:25963   */\n      sub\n        /* \"#utility.yul\":25939:25940   */\n      0x00\n        /* \"#utility.yul\":25928:25937   */\n      dup4\n        /* \"#utility.yul\":25924:25941   */\n      add\n        /* \"#utility.yul\":25917:25964   */\n      mstore\n        /* \"#utility.yul\":25981:26112   */\n      tag_603\n        /* \"#utility.yul\":26107:26111   */\n      dup2\n        /* \"#utility.yul\":25981:26112   */\n      tag_355\n      jump\t// in\n    tag_603:\n        /* \"#utility.yul\":25973:26112   */\n      swap1\n      pop\n        /* \"#utility.yul\":25700:26119   */\n      swap2\n      swap1\n      pop\n      jump\t// out\n        /* \"#utility.yul\":26125:26266   */\n    tag_356:\n        /* \"#utility.yul\":26174:26178   */\n      0x00\n        /* \"#utility.yul\":26197:26200   */\n      dup2\n        /* \"#utility.yul\":26189:26200   */\n      swap1\n      pop\n        /* \"#utility.yul\":26220:26223   */\n      dup2\n        /* \"#utility.yul\":26217:26218   */\n      0x00\n        /* \"#utility.yul\":26210:26224   */\n      mstore\n        /* \"#utility.yul\":26254:26258   */\n      0x20\n        /* \"#utility.yul\":26251:26252   */\n      0x00\n        /* \"#utility.yul\":26241:26259   */\n      keccak256\n        /* \"#utility.yul\":26233:26259   */\n      swap1\n      pop\n        /* \"#utility.yul\":26125:26266   */\n      swap2\n      swap1\n      pop\n      jump\t// out\n        /* \"#utility.yul\":26272:26365   */\n    tag_357:\n        /* \"#utility.yul\":26309:26315   */\n      0x00\n        /* \"#utility.yul\":26356:26358   */\n      0x20\n        /* \"#utility.yul\":26351:26353   */\n      0x1f\n        /* \"#utility.yul\":26344:26349   */\n      dup4\n        /* \"#utility.yul\":26340:26354   */\n      add\n        /* \"#utility.yul\":26336:26359   */\n      div\n        /* \"#utility.yul\":26326:26359   */\n      swap1\n      pop\n        /* \"#utility.yul\":26272:26365   */\n      swap2\n      swap1\n      pop\n      jump\t// out\n        /* \"#utility.yul\":26371:26478   */\n    tag_358:\n        /* \"#utility.yul\":26415:26423   */\n      0x00\n        /* \"#utility.yul\":26465:26470   */\n      dup3\n        /* \"#utility.yul\":26459:26463   */\n      dup3\n        /* \"#utility.yul\":26455:26471   */\n      shl\n        /* \"#utility.yul\":26434:26471   */\n      swap1\n      pop\n        /* \"#utility.yul\":26371:26478   */\n      swap3\n      swap2\n      pop\n      pop\n      jump\t// out\n        /* \"#utility.yul\":26484:26877   */\n    tag_359:\n        /* \"#utility.yul\":26553:26559   */\n      0x00\n        /* \"#utility.yul\":26603:26604   */\n      0x08\n        /* \"#utility.yul\":26591:26601   */\n      dup4\n        /* \"#utility.yul\":26587:26605   */\n      mul\n        /* \"#utility.yul\":26626:26723   */\n      tag_608\n        /* \"#utility.yul\":26656:26722   */\n      0xffffffffffffffffffffffffffffffffffffffffffffffffffffffffffffffff\n        /* \"#utility.yul\":26645:26654   */\n      dup3\n        /* \"#utility.yul\":26626:26723   */\n      tag_358\n      jump\t// in\n    tag_608:\n        /* \"#utility.yul\":26744:26783   */\n      tag_609\n        /* \"#utility.yul\":26774:26782   */\n      dup7\n        /* \"#utility.yul\":26763:26772   */\n      dup4\n        /* \"#utility.yul\":26744:26783   */\n      tag_358\n      jump\t// in\n    tag_609:\n        /* \"#utility.yul\":26732:26783   */\n      swap6\n      pop\n        /* \"#utility.yul\":26816:26820   */\n      dup1\n        /* \"#utility.yul\":26812:26821   */\n      not\n        /* \"#utility.yul\":26805:26810   */\n      dup5\n        /* \"#utility.yul\":26801:26822   */\n      and\n        /* \"#utility.yul\":26792:26822   */\n      swap4\n      pop\n        /* \"#utility.yul\":26865:26869   */\n      dup1\n        /* \"#utility.yul\":26855:26863   */\n      dup7\n        /* \"#utility.yul\":26851:26870   */\n      and\n        /* \"#utility.yul\":26844:26849   */\n      dup5\n        /* \"#utility.yul\":26841:26871   */\n      or\n        /* \"#utility.yul\":26831:26871   */\n      swap3\n      pop\n        /* \"#utility.yul\":26560:26877   */\n      pop\n      pop\n        /* \"#utility.yul\":26484:26877   */\n      swap4\n      swap3\n      pop\n      pop\n      pop\n      jump\t// out\n        /* \"#utility.yul\":26883:26943   */\n    tag_360:\n        /* \"#utility.yul\":26911:26914   */\n      0x00\n        /* \"#utility.yul\":26932:26937   */\n      dup2\n        /* \"#utility.yul\":26925:26937   */\n      swap1\n      pop\n        /* \"#utility.yul\":26883:26943   */\n      swap2\n      swap1\n      pop\n      jump\t// out\n        /* \"#utility.yul\":26949:27091   */\n    tag_361:\n        /* \"#utility.yul\":26999:27008   */\n      0x00\n        /* \"#utility.yul\":27032:27085   */\n      tag_612\n        /* \"#utility.yul\":27050:27084   */\n      tag_613\n        /* \"#utility.yul\":27059:27083   */\n      tag_614\n        /* \"#utility.yul\":27077:27082   */\n      dup5\n        /* \"#utility.yul\":27059:27083   */\n      tag_287\n      jump\t// in\n    tag_614:\n        /* \"#utility.yul\":27050:27084   */\n      tag_360\n      jump\t// in\n    tag_613:\n        /* \"#utility.yul\":27032:27085   */\n      tag_287\n      jump\t// in\n    tag_612:\n        /* \"#utility.yul\":27019:27085   */\n      swap1\n      pop\n        /* \"#utility.yul\":26949:27091   */\n      swap2\n      swap1\n      pop\n      jump\t// out\n        /* \"#utility.yul\":27097:27172   */\n    tag_362:\n        /* \"#utility.yul\":27140:27143   */\n      0x00\n        /* \"#utility.yul\":27161:27166   */\n      dup2\n        /* \"#utility.yul\":27154:27166   */\n      swap1\n      pop\n        /* \"#utility.yul\":27097:27172   */\n      swap2\n      swap1\n      pop\n      jump\t// out\n        /* \"#utility.yul\":27178:27447   */\n    tag_363:\n        /* \"#utility.yul\":27288:27327   */\n      tag_617\n        /* \"#utility.yul\":27319:27326   */\n      dup4\n        /* \"#utility.yul\":27288:27327   */\n      tag_361\n      jump\t// in\n    tag_617:\n        /* \"#utility.yul\":27349:27440   */\n      tag_618\n        /* \"#utility.yul\":27398:27439   */\n      tag_619\n        /* \"#utility.yul\":27422:27438   */\n      dup3\n        /* \"#utility.yul\":27398:27439   */\n      tag_362\n      jump\t// in\n    tag_619:\n        /* \"#utility.yul\":27390:27396   */\n      dup5\n        /* \"#utility.yul\":27383:27387   */\n      dup5\n        /* \"#utility.yul\":27377:27388   */\n      sload\n        /* \"#utility.yul\":27349:27440   */\n      tag_359\n      jump\t// in\n    tag_618:\n        /* \"#utility.yul\":27343:27347   */\n      dup3\n        /* \"#utility.yul\":27336:27441   */\n      sstore\n        /* \"#utility.yul\":27254:27447   */\n      pop\n        /* \"#utility.yul\":27178:27447   */\n      pop\n      pop\n      pop\n      jump\t// out\n        /* \"#utility.yul\":27453:27526   */\n    tag_364:\n        /* \"#utility.yul\":27498:27501   */\n      0x00\n        /* \"#utility.yul\":27453:27526   */\n      swap1\n      jump\t// out\n        /* \"#utility.yul\":27532:27721   */\n    tag_365:\n        /* \"#utility.yul\":27609:27641   */\n      tag_622\n      tag_364\n      jump\t// in\n    tag_622:\n        /* \"#utility.yul\":27650:27715   */\n      tag_623\n        /* \"#utility.yul\":27708:27714   */\n      dup2\n        /* \"#utility.yul\":27700:27706   */\n      dup5\n        /* \"#utility.yul\":27694:27698   */\n      dup5\n        /* \"#utility.yul\":27650:27715   */\n      tag_363\n      jump\t// in\n    tag_623:\n        /* \"#utility.yul\":27585:27721   */\n      pop\n        /* \"#utility.yul\":27532:27721   */\n      pop\n      pop\n      jump\t// out\n        /* \"#utility.yul\":27727:27913   */\n    tag_366:\n        /* \"#utility.yul\":27787:27907   */\n    tag_625:\n        /* \"#utility.yul\":27804:27807   */\n      dup2\n        /* \"#utility.yul\":27797:27802   */\n      dup2\n        /* \"#utility.yul\":27794:27808   */\n      lt\n        /* \"#utility.yul\":27787:27907   */\n      iszero\n      tag_627\n      jumpi\n        /* \"#utility.yul\":27858:27897   */\n      tag_628\n        /* \"#utility.yul\":27895:27896   */\n      0x00\n        /* \"#utility.yul\":27888:27893   */\n      dup3\n        /* \"#utility.yul\":27858:27897   */\n      tag_365\n      jump\t// in\n    tag_628:\n        /* \"#utility.yul\":27831:27832   */\n      0x01\n        /* \"#utility.yul\":27824:27829   */\n      dup2\n        /* \"#utility.yul\":27820:27833   */\n      add\n        /* \"#utility.yul\":27811:27833   */\n      swap1\n      pop\n        /* \"#utility.yul\":27787:27907   */\n      jump(tag_625)\n    tag_627:\n        /* \"#utility.yul\":27727:27913   */\n      pop\n      pop\n      jump\t// out\n        /* \"#utility.yul\":27919:28462   */\n    tag_367:\n        /* \"#utility.yul\":28020:28022   */\n      0x1f\n        /* \"#utility.yul\":28015:28018   */\n      dup3\n        /* \"#utility.yul\":28012:28023   */\n      gt\n        /* \"#utility.yul\":28009:28455   */\n      iszero\n      tag_630\n      jumpi\n        /* \"#utility.yul\":28054:28092   */\n      tag_631\n        /* \"#utility.yul\":28086:28091   */\n      dup2\n        /* \"#utility.yul\":28054:28092   */\n      tag_356\n      jump\t// in\n    tag_631:\n        /* \"#utility.yul\":28138:28167   */\n      tag_632\n        /* \"#utility.yul\":28156:28166   */\n      dup5\n        /* \"#utility.yul\":28138:28167   */\n      tag_357\n      jump\t// in\n    tag_632:\n        /* \"#utility.yul\":28128:28136   */\n      dup2\n        /* \"#utility.yul\":28124:28168   */\n      add\n        /* \"#utility.yul\":28321:28323   */\n      0x20\n        /* \"#utility.yul\":28309:28319   */\n      dup6\n        /* \"#utility.yul\":28306:28324   */\n      lt\n        /* \"#utility.yul\":28303:28352   */\n      iszero\n      tag_633\n      jumpi\n        /* \"#utility.yul\":28342:28350   */\n      dup2\n        /* \"#utility.yul\":28327:28350   */\n      swap1\n      pop\n        /* \"#utility.yul\":28303:28352   */\n    tag_633:\n        /* \"#utility.yul\":28365:28445   */\n      tag_634\n        /* \"#utility.yul\":28421:28443   */\n      tag_635\n        /* \"#utility.yul\":28439:28442   */\n      dup6\n        /* \"#utility.yul\":28421:28443   */\n      tag_357\n      jump\t// in\n    tag_635:\n        /* \"#utility.yul\":28411:28419   */\n      dup4\n        /* \"#utility.yul\":28407:28444   */\n      add\n        /* \"#utility.yul\":28394:28405   */\n      dup3\n        /* \"#utility.yul\":28365:28445   */\n      tag_366\n      jump\t// in\n    tag_634:\n        /* \"#utility.yul\":28024:28455   */\n      pop\n      pop\n        /* \"#utility.yul\":28009:28455   */\n    tag_630:\n        /* \"#utility.yul\":27919:28462   */\n      pop\n      pop\n      pop\n      jump\t// out\n        /* \"#utility.yul\":28468:28585   */\n    tag_368:\n        /* \"#utility.yul\":28522:28530   */\n      0x00\n        /* \"#utility.yul\":28572:28577   */\n      dup3\n        /* \"#utility.yul\":28566:28570   */\n      dup3\n        /* \"#utility.yul\":28562:28578   */\n      shr\n        /* \"#utility.yul\":28541:28578   */\n      swap1\n      pop\n        /* \"#utility.yul\":28468:28585   */\n      swap3\n      swap2\n      pop\n      pop\n      jump\t// out\n        /* \"#utility.yul\":28591:28760   */\n    tag_369:\n        /* \"#utility.yul\":28635:28641   */\n      0x00\n        /* \"#utility.yul\":28668:28719   */\n      tag_638\n        /* \"#utility.yul\":28716:28717   */\n      0x00\n        /* \"#utility.yul\":28712:28718   */\n      not\n        /* \"#utility.yul\":28704:28709   */\n      dup5\n        /* \"#utility.yul\":28701:28702   */\n      0x08\n        /* \"#utility.yul\":28697:28710   */\n      mul\n        /* \"#utility.yul\":28668:28719   */\n      tag_368\n      jump\t// in\n    tag_638:\n        /* \"#utility.yul\":28664:28720   */\n      not\n        /* \"#utility.yul\":28749:28753   */\n      dup1\n        /* \"#utility.yul\":28743:28747   */\n      dup4\n        /* \"#utility.yul\":28739:28754   */\n      and\n        /* \"#utility.yul\":28729:28754   */\n      swap2\n      pop\n        /* \"#utility.yul\":28642:28760   */\n      pop\n        /* \"#utility.yul\":28591:28760   */\n      swap3\n      swap2\n      pop\n      pop\n      jump\t// out\n        /* \"#utility.yul\":28765:29060   */\n    tag_370:\n        /* \"#utility.yul\":28841:28845   */\n      0x00\n        /* \"#utility.yul\":28987:29016   */\n      tag_640\n        /* \"#utility.yul\":29012:29015   */\n      dup4\n        /* \"#utility.yul\":29006:29010   */\n      dup4\n        /* \"#utility.yul\":28987:29016   */\n      tag_369\n      jump\t// in\n    tag_640:\n        /* \"#utility.yul\":28979:29016   */\n      swap2\n      pop\n        /* \"#utility.yul\":29049:29052   */\n      dup3\n        /* \"#utility.yul\":29046:29047   */\n      0x02\n        /* \"#utility.yul\":29042:29053   */\n      mul\n        /* \"#utility.yul\":29036:29040   */\n      dup3\n        /* \"#utility.yul\":29033:29054   */\n      or\n        /* \"#utility.yul\":29025:29054   */\n      swap1\n      pop\n        /* \"#utility.yul\":28765:29060   */\n      swap3\n      swap2\n      pop\n      pop\n      jump\t// out\n        /* \"#utility.yul\":29065:30460   */\n    tag_231:\n        /* \"#utility.yul\":29182:29219   */\n      tag_642\n        /* \"#utility.yul\":29215:29218   */\n      dup3\n        /* \"#utility.yul\":29182:29219   */\n      tag_303\n      jump\t// in\n    tag_642:\n        /* \"#utility.yul\":29284:29302   */\n      0xffffffffffffffff\n        /* \"#utility.yul\":29276:29282   */\n      dup2\n        /* \"#utility.yul\":29273:29303   */\n      gt\n        /* \"#utility.yul\":29270:29326   */\n      iszero\n      tag_643\n      jumpi\n        /* \"#utility.yul\":29306:29324   */\n      tag_644\n      tag_318\n      jump\t// in\n    tag_644:\n        /* \"#utility.yul\":29270:29326   */\n    tag_643:\n        /* \"#utility.yul\":29350:29388   */\n      tag_645\n        /* \"#utility.yul\":29382:29386   */\n      dup3\n        /* \"#utility.yul\":29376:29387   */\n      sload\n        /* \"#utility.yul\":29350:29388   */\n      tag_125\n      jump\t// in\n    tag_645:\n        /* \"#utility.yul\":29435:29502   */\n      tag_646\n        /* \"#utility.yul\":29495:29501   */\n      dup3\n        /* \"#utility.yul\":29487:29493   */\n      dup3\n        /* \"#utility.yul\":29481:29485   */\n      dup6\n        /* \"#utility.yul\":29435:29502   */\n      tag_367\n      jump\t// in\n    tag_646:\n        /* \"#utility.yul\":29529:29530   */\n      0x00\n        /* \"#utility.yul\":29553:29557   */\n      0x20\n        /* \"#utility.yul\":29540:29557   */\n      swap1\n      pop\n        /* \"#utility.yul\":29585:29587   */\n      0x1f\n        /* \"#utility.yul\":29577:29583   */\n      dup4\n        /* \"#utility.yul\":29574:29588   */\n      gt\n        /* \"#utility.yul\":29602:29603   */\n      0x01\n        /* \"#utility.yul\":29597:30215   */\n      dup2\n      eq\n      tag_648\n      jumpi\n        /* \"#utility.yul\":30259:30260   */\n      0x00\n        /* \"#utility.yul\":30276:30282   */\n      dup5\n        /* \"#utility.yul\":30273:30350   */\n      iszero\n      tag_649\n      jumpi\n        /* \"#utility.yul\":30325:30334   */\n      dup3\n        /* \"#utility.yul\":30320:30323   */\n      dup8\n        /* \"#utility.yul\":30316:30335   */\n      add\n        /* \"#utility.yul\":30310:30336   */\n      mload\n        /* \"#utility.yul\":30301:30336   */\n      swap1\n      pop\n        /* \"#utility.yul\":30273:30350   */\n    tag_649:\n        /* \"#utility.yul\":30376:30443   */\n      tag_650\n        /* \"#utility.yul\":30436:30442   */\n      dup6\n        /* \"#utility.yul\":30429:30434   */\n      dup3\n        /* \"#utility.yul\":30376:30443   */\n      tag_370\n      jump\t// in\n    tag_650:\n        /* \"#utility.yul\":30370:30374   */\n      dup7\n        /* \"#utility.yul\":30363:30444   */\n      sstore\n        /* \"#utility.yul\":30232:30454   */\n      pop\n        /* \"#utility.yul\":29567:30454   */\n      jump(tag_647)\n        /* \"#utility.yul\":29597:30215   */\n    tag_648:\n        /* \"#utility.yul\":29649:29653   */\n      0x1f\n        /* \"#utility.yul\":29645:29654   */\n      not\n        /* \"#utility.yul\":29637:29643   */\n      dup5\n        /* \"#utility.yul\":29633:29655   */\n      and\n        /* \"#utility.yul\":29683:29720   */\n      tag_651\n        /* \"#utility.yul\":29715:29719   */\n      dup7\n        /* \"#utility.yul\":29683:29720   */\n      tag_356\n      jump\t// in\n    tag_651:\n        /* \"#utility.yul\":29742:29743   */\n      0x00\n        /* \"#utility.yul\":29756:29964   */\n    tag_652:\n        /* \"#utility.yul\":29770:29777   */\n      dup3\n        /* \"#utility.yul\":29767:29768   */\n      dup2\n        /* \"#utility.yul\":29764:29778   */\n      lt\n        /* \"#utility.yul\":29756:29964   */\n      iszero\n      tag_654\n      jumpi\n        /* \"#utility.yul\":29849:29858   */\n      dup5\n        /* \"#utility.yul\":29844:29847   */\n      dup10\n        /* \"#utility.yul\":29840:29859   */\n      add\n        /* \"#utility.yul\":29834:29860   */\n      mload\n        /* \"#utility.yul\":29826:29832   */\n      dup3\n        /* \"#utility.yul\":29819:29861   */\n      sstore\n        /* \"#utility.yul\":29900:29901   */\n      0x01\n        /* \"#utility.yul\":29892:29898   */\n      dup3\n        /* \"#utility.yul\":29888:29902   */\n      add\n        /* \"#utility.yul\":29878:29902   */\n      swap2\n      pop\n        /* \"#utility.yul\":29947:29949   */\n      0x20\n        /* \"#utility.yul\":29936:29945   */\n      dup6\n        /* \"#utility.yul\":29932:29950   */\n      add\n        /* \"#utility.yul\":29919:29950   */\n      swap5\n      pop\n        /* \"#utility.yul\":29793:29797   */\n      0x20\n        /* \"#utility.yul\":29790:29791   */\n      dup2\n        /* \"#utility.yul\":29786:29798   */\n      add\n        /* \"#utility.yul\":29781:29798   */\n      swap1\n      pop\n        /* \"#utility.yul\":29756:29964   */\n      jump(tag_652)\n    tag_654:\n        /* \"#utility.yul\":29992:29998   */\n      dup7\n        /* \"#utility.yul\":29983:29990   */\n      dup4\n        /* \"#utility.yul\":29980:29999   */\n      lt\n        /* \"#utility.yul\":29977:30156   */\n      iszero\n      tag_655\n      jumpi\n        /* \"#utility.yul\":30050:30059   */\n      dup5\n        /* \"#utility.yul\":30045:30048   */\n      dup10\n        /* \"#utility.yul\":30041:30060   */\n      add\n        /* \"#utility.yul\":30035:30061   */\n      mload\n        /* \"#utility.yul\":30093:30141   */\n      tag_656\n        /* \"#utility.yul\":30135:30139   */\n      0x1f\n        /* \"#utility.yul\":30127:30133   */\n      dup10\n        /* \"#utility.yul\":30123:30140   */\n      and\n        /* \"#utility.yul\":30112:30121   */\n      dup3\n        /* \"#utility.yul\":30093:30141   */\n      tag_369\n      jump\t// in\n    tag_656:\n        /* \"#utility.yul\":30085:30091   */\n      dup4\n        /* \"#utility.yul\":30078:30142   */\n      sstore\n        /* \"#utility.yul\":30000:30156   */\n      pop\n        /* \"#utility.yul\":29977:30156   */\n    tag_655:\n        /* \"#utility.yul\":30202:30203   */\n      0x01\n        /* \"#utility.yul\":30198:30199   */\n      0x02\n        /* \"#utility.yul\":30190:30196   */\n      dup9\n        /* \"#utility.yul\":30186:30200   */\n      mul\n        /* \"#utility.yul\":30182:30204   */\n      add\n        /* \"#utility.yul\":30176:30180   */\n      dup9\n        /* \"#utility.yul\":30169:30205   */\n      sstore\n        /* \"#utility.yul\":29604:30215   */\n      pop\n      pop\n      pop\n        /* \"#utility.yul\":29567:30454   */\n    tag_647:\n      pop\n        /* \"#utility.yul\":29157:30460   */\n      pop\n      pop\n      pop\n        /* \"#utility.yul\":29065:30460   */\n      pop\n      pop\n      jump\t// out\n        /* \"#utility.yul\":30466:30688   */\n    tag_237:\n        /* \"#utility.yul\":30559:30563   */\n      0x00\n        /* \"#utility.yul\":30597:30599   */\n      0x20\n        /* \"#utility.yul\":30586:30595   */\n      dup3\n        /* \"#utility.yul\":30582:30600   */\n      add\n        /* \"#utility.yul\":30574:30600   */\n      swap1\n      pop\n        /* \"#utility.yul\":30610:30681   */\n      tag_658\n        /* \"#utility.yul\":30678:30679   */\n      0x00\n        /* \"#utility.yul\":30667:30676   */\n      dup4\n        /* \"#utility.yul\":30663:30680   */\n      add\n        /* \"#utility.yul\":30654:30660   */\n      dup5\n        /* \"#utility.yul\":30610:30681   */\n      tag_300\n      jump\t// in\n    tag_658:\n        /* \"#utility.yul\":30466:30688   */\n      swap3\n      swap2\n      pop\n      pop\n      jump\t// out\n        /* \"#utility.yul\":30718:31592   */\n    tag_371:\n        /* \"#utility.yul\":30821:30824   */\n      0x00\n        /* \"#utility.yul\":30858:30863   */\n      dup2\n        /* \"#utility.yul\":30852:30864   */\n      sload\n        /* \"#utility.yul\":30887:30923   */\n      tag_660\n        /* \"#utility.yul\":30913:30922   */\n      dup2\n        /* \"#utility.yul\":30887:30923   */\n      tag_125\n      jump\t// in\n    tag_660:\n        /* \"#utility.yul\":30939:31028   */\n      tag_661\n        /* \"#utility.yul\":31021:31027   */\n      dup2\n        /* \"#utility.yul\":31016:31019   */\n      dup7\n        /* \"#utility.yul\":30939:31028   */\n      tag_349\n      jump\t// in\n    tag_661:\n        /* \"#utility.yul\":30932:31028   */\n      swap5\n      pop\n        /* \"#utility.yul\":31059:31060   */\n      0x01\n        /* \"#utility.yul\":31048:31057   */\n      dup3\n        /* \"#utility.yul\":31044:31061   */\n      and\n        /* \"#utility.yul\":31075:31076   */\n      0x00\n        /* \"#utility.yul\":31070:31236   */\n      dup2\n      eq\n      tag_663\n      jumpi\n        /* \"#utility.yul\":31250:31251   */\n      0x01\n        /* \"#utility.yul\":31245:31586   */\n      dup2\n      eq\n      tag_664\n      jumpi\n        /* \"#utility.yul\":31037:31586   */\n      jump(tag_662)\n        /* \"#utility.yul\":31070:31236   */\n    tag_663:\n        /* \"#utility.yul\":31154:31158   */\n      0xff\n        /* \"#utility.yul\":31150:31159   */\n      not\n        /* \"#utility.yul\":31139:31148   */\n      dup4\n        /* \"#utility.yul\":31135:31160   */\n      and\n        /* \"#utility.yul\":31130:31133   */\n      dup7\n        /* \"#utility.yul\":31123:31161   */\n      mstore\n        /* \"#utility.yul\":31216:31222   */\n      dup2\n        /* \"#utility.yul\":31209:31223   */\n      iszero\n        /* \"#utility.yul\":31202:31224   */\n      iszero\n        /* \"#utility.yul\":31194:31200   */\n      dup3\n        /* \"#utility.yul\":31190:31225   */\n      mul\n        /* \"#utility.yul\":31185:31188   */\n      dup7\n        /* \"#utility.yul\":31181:31226   */\n      add\n        /* \"#utility.yul\":31174:31226   */\n      swap4\n      pop\n        /* \"#utility.yul\":31070:31236   */\n      jump(tag_662)\n        /* \"#utility.yul\":31245:31586   */\n    tag_664:\n        /* \"#utility.yul\":31312:31350   */\n      tag_665\n        /* \"#utility.yul\":31344:31349   */\n      dup6\n        /* \"#utility.yul\":31312:31350   */\n      tag_356\n      jump\t// in\n    tag_665:\n        /* \"#utility.yul\":31372:31373   */\n      0x00\n        /* \"#utility.yul\":31386:31540   */\n    tag_666:\n        /* \"#utility.yul\":31400:31406   */\n      dup4\n        /* \"#utility.yul\":31397:31398   */\n      dup2\n        /* \"#utility.yul\":31394:31407   */\n      lt\n        /* \"#utility.yul\":31386:31540   */\n      iszero\n      tag_668\n      jumpi\n        /* \"#utility.yul\":31474:31481   */\n      dup2\n        /* \"#utility.yul\":31468:31482   */\n      sload\n        /* \"#utility.yul\":31464:31465   */\n      dup2\n        /* \"#utility.yul\":31459:31462   */\n      dup10\n        /* \"#utility.yul\":31455:31466   */\n      add\n        /* \"#utility.yul\":31448:31483   */\n      mstore\n        /* \"#utility.yul\":31524:31525   */\n      0x01\n        /* \"#utility.yul\":31515:31522   */\n      dup3\n        /* \"#utility.yul\":31511:31526   */\n      add\n        /* \"#utility.yul\":31500:31526   */\n      swap2\n      pop\n        /* \"#utility.yul\":31422:31426   */\n      0x20\n        /* \"#utility.yul\":31419:31420   */\n      dup2\n        /* \"#utility.yul\":31415:31427   */\n      add\n        /* \"#utility.yul\":31410:31427   */\n      swap1\n      pop\n        /* \"#utility.yul\":31386:31540   */\n      jump(tag_666)\n    tag_668:\n        /* \"#utility.yul\":31569:31575   */\n      dup4\n        /* \"#utility.yul\":31564:31567   */\n      dup9\n        /* \"#utility.yul\":31560:31576   */\n      add\n        /* \"#utility.yul\":31553:31576   */\n      swap6\n      pop\n        /* \"#utility.yul\":31252:31586   */\n      pop\n      pop\n        /* \"#utility.yul\":31037:31586   */\n    tag_662:\n      pop\n        /* \"#utility.yul\":30825:31592   */\n      pop\n      pop\n        /* \"#utility.yul\":30718:31592   */\n      swap3\n      swap2\n      pop\n      pop\n      jump\t// out\n        /* \"#utility.yul\":31598:31867   */\n    tag_241:\n        /* \"#utility.yul\":31727:31730   */\n      0x00\n        /* \"#utility.yul\":31749:31841   */\n      tag_670\n        /* \"#utility.yul\":31837:31840   */\n      dup3\n        /* \"#utility.yul\":31828:31834   */\n      dup5\n        /* \"#utility.yul\":31749:31841   */\n      tag_371\n      jump\t// in\n    tag_670:\n        /* \"#utility.yul\":31742:31841   */\n      swap2\n      pop\n        /* \"#utility.yul\":31858:31861   */\n      dup2\n        /* \"#utility.yul\":31851:31861   */\n      swap1\n      pop\n        /* \"#utility.yul\":31598:31867   */\n      swap3\n      swap2\n      pop\n      pop\n      jump\t// out\n        /* \"#utility.yul\":31873:32248   */\n    tag_255:\n        /* \"#utility.yul\":31912:31915   */\n      0x00\n        /* \"#utility.yul\":31931:31950   */\n      tag_672\n        /* \"#utility.yul\":31948:31949   */\n      dup3\n        /* \"#utility.yul\":31931:31950   */\n      tag_289\n      jump\t// in\n    tag_672:\n        /* \"#utility.yul\":31926:31950   */\n      swap2\n      pop\n        /* \"#utility.yul\":31964:31983   */\n      tag_673\n        /* \"#utility.yul\":31981:31982   */\n      dup4\n        /* \"#utility.yul\":31964:31983   */\n      tag_289\n      jump\t// in\n    tag_673:\n        /* \"#utility.yul\":31959:31983   */\n      swap3\n      pop\n        /* \"#utility.yul\":32006:32007   */\n      dup3\n        /* \"#utility.yul\":32003:32004   */\n      dup3\n        /* \"#utility.yul\":31999:32008   */\n      add\n        /* \"#utility.yul\":31992:32008   */\n      swap1\n      pop\n        /* \"#utility.yul\":32204:32205   */\n      dup3\n        /* \"#utility.yul\":32199:32202   */\n      dup2\n        /* \"#utility.yul\":32195:32206   */\n      slt\n        /* \"#utility.yul\":32188:32207   */\n      iszero\n        /* \"#utility.yul\":32184:32185   */\n      0x00\n        /* \"#utility.yul\":32181:32182   */\n      dup4\n        /* \"#utility.yul\":32177:32186   */\n      slt\n        /* \"#utility.yul\":32173:32208   */\n      and\n        /* \"#utility.yul\":32156:32157   */\n      dup4\n        /* \"#utility.yul\":32151:32154   */\n      dup3\n        /* \"#utility.yul\":32147:32158   */\n      slt\n        /* \"#utility.yul\":32142:32143   */\n      0x00\n        /* \"#utility.yul\":32139:32140   */\n      dup5\n        /* \"#utility.yul\":32135:32144   */\n      slt\n        /* \"#utility.yul\":32128:32145   */\n      iszero\n        /* \"#utility.yul\":32124:32159   */\n      and\n        /* \"#utility.yul\":32108:32218   */\n      or\n        /* \"#utility.yul\":32105:32241   */\n      iszero\n      tag_674\n      jumpi\n        /* \"#utility.yul\":32221:32239   */\n      tag_675\n      tag_336\n      jump\t// in\n    tag_675:\n        /* \"#utility.yul\":32105:32241   */\n    tag_674:\n        /* \"#utility.yul\":31873:32248   */\n      swap3\n      swap2\n      pop\n      pop\n      jump\t// out\n        /* \"#utility.yul\":32254:32664   */\n    tag_269:\n        /* \"#utility.yul\":32294:32301   */\n      0x00\n        /* \"#utility.yul\":32317:32337   */\n      tag_677\n        /* \"#utility.yul\":32335:32336   */\n      dup3\n        /* \"#utility.yul\":32317:32337   */\n      tag_287\n      jump\t// in\n    tag_677:\n        /* \"#utility.yul\":32312:32337   */\n      swap2\n      pop\n        /* \"#utility.yul\":32351:32371   */\n      tag_678\n        /* \"#utility.yul\":32369:32370   */\n      dup4\n        /* \"#utility.yul\":32351:32371   */\n      tag_287\n      jump\t// in\n    tag_678:\n        /* \"#utility.yul\":32346:32371   */\n      swap3\n      pop\n        /* \"#utility.yul\":32406:32407   */\n      dup3\n        /* \"#utility.yul\":32403:32404   */\n      dup3\n        /* \"#utility.yul\":32399:32408   */\n      mul\n        /* \"#utility.yul\":32428:32458   */\n      tag_679\n        /* \"#utility.yul\":32446:32457   */\n      dup2\n        /* \"#utility.yul\":32428:32458   */\n      tag_287\n      jump\t// in\n    tag_679:\n        /* \"#utility.yul\":32417:32458   */\n      swap2\n      pop\n        /* \"#utility.yul\":32607:32608   */\n      dup3\n        /* \"#utility.yul\":32598:32605   */\n      dup3\n        /* \"#utility.yul\":32594:32609   */\n      div\n        /* \"#utility.yul\":32591:32592   */\n      dup5\n        /* \"#utility.yul\":32588:32610   */\n      eq\n        /* \"#utility.yul\":32568:32569   */\n      dup4\n        /* \"#utility.yul\":32561:32570   */\n      iszero\n        /* \"#utility.yul\":32541:32624   */\n      or\n        /* \"#utility.yul\":32518:32657   */\n      tag_680\n      jumpi\n        /* \"#utility.yul\":32637:32655   */\n      tag_681\n      tag_336\n      jump\t// in\n    tag_681:\n        /* \"#utility.yul\":32518:32657   */\n    tag_680:\n        /* \"#utility.yul\":32302:32664   */\n      pop\n        /* \"#utility.yul\":32254:32664   */\n      swap3\n      swap2\n      pop\n      pop\n      jump\t// out\n        /* \"#utility.yul\":32670:32864   */\n    tag_272:\n        /* \"#utility.yul\":32710:32714   */\n      0x00\n        /* \"#utility.yul\":32730:32750   */\n      tag_683\n        /* \"#utility.yul\":32748:32749   */\n      dup3\n        /* \"#utility.yul\":32730:32750   */\n      tag_287\n      jump\t// in\n    tag_683:\n        /* \"#utility.yul\":32725:32750   */\n      swap2\n      pop\n        /* \"#utility.yul\":32764:32784   */\n      tag_684\n        /* \"#utility.yul\":32782:32783   */\n      dup4\n        /* \"#utility.yul\":32764:32784   */\n      tag_287\n      jump\t// in\n    tag_684:\n        /* \"#utility.yul\":32759:32784   */\n      swap3\n      pop\n        /* \"#utility.yul\":32808:32809   */\n      dup3\n        /* \"#utility.yul\":32805:32806   */\n      dup3\n        /* \"#utility.yul\":32801:32810   */\n      sub\n        /* \"#utility.yul\":32793:32810   */\n      swap1\n      pop\n        /* \"#utility.yul\":32832:32833   */\n      dup2\n        /* \"#utility.yul\":32826:32830   */\n      dup2\n        /* \"#utility.yul\":32823:32834   */\n      gt\n        /* \"#utility.yul\":32820:32857   */\n      iszero\n      tag_685\n      jumpi\n        /* \"#utility.yul\":32837:32855   */\n      tag_686\n      tag_336\n      jump\t// in\n    tag_686:\n        /* \"#utility.yul\":32820:32857   */\n    tag_685:\n        /* \"#utility.yul\":32670:32864   */\n      swap3\n      swap2\n      pop\n      pop\n      jump\t// out\n\n    auxdata: 0xa2646970667358221220bd21ebd690d8c31689c3e7a114b8da83ed12e526b5850dd5d3ef2d3ad56b549664736f6c634300081a0033\n}\n",
				"bytecode": {
					"linkReferences": {},
					"object": "6080604052348015600e575f80fd5b50612c278061001c5f395ff3fe608060405260043610610108575f3560e01c80636be6258b11610094578063c3529f3111610063578063c3529f311461033c578063c7825a0e14610366578063e0aff4151461038e578063e2eb41ff146103b8578063fccac4ac146103f657610108565b80636be6258b1461029657806372352776146102c05780638b227ff4146102e8578063a4785d141461031257610108565b806321036b8a116100db57806321036b8a146101c657806327a69176146101e25780634768d4ef1461020c578063583262ab14610252578063625535d11461026e57610108565b806301fd19511461010c57806302edf4b4146101365780630ac2c4c3146101605780630c2eb4031461018a575b5f80fd5b348015610117575f80fd5b5061012061041e565b60405161012d9190611ba6565b60405180910390f35b348015610141575f80fd5b5061014a610424565b6040516101579190611bd7565b60405180910390f35b34801561016b575f80fd5b50610174610429565b6040516101819190611bd7565b60405180910390f35b348015610195575f80fd5b506101b060048036038101906101ab9190611c5b565b61042e565b6040516101bd9190611ba6565b60405180910390f35b6101e060048036038101906101db9190611cb0565b6104ee565b005b3480156101ed575f80fd5b506101f66106b5565b6040516102039190611ba6565b60405180910390f35b348015610217575f80fd5b50610232600480360381019061022d9190611cb0565b6106c1565b6040516102499b9a99989796959493929190611de5565b60405180910390f35b61026c60048036038101906102679190611c5b565b61086c565b005b348015610279575f80fd5b50610294600480360381019061028f9190611e9c565b610ae3565b005b3480156102a1575f80fd5b506102aa610e05565b6040516102b79190611ba6565b60405180910390f35b3480156102cb575f80fd5b506102e660048036038101906102e19190611c5b565b610e10565b005b3480156102f3575f80fd5b506102fc610f0c565b6040516103099190611bd7565b60405180910390f35b34801561031d575f80fd5b50610326610f30565b6040516103339190611bd7565b60405180910390f35b348015610347575f80fd5b50610350610f54565b60405161035d9190611ba6565b60405180910390f35b348015610371575f80fd5b5061038c60048036038101906103879190611f04565b610f5b565b005b348015610399575f80fd5b506103a26111ad565b6040516103af9190611bd7565b60405180910390f35b3480156103c3575f80fd5b506103de60048036038101906103d99190611c5b565b6111b2565b6040516103ed93929190611f5c565b60405180910390f35b348015610401575f80fd5b5061041c600480360381019061041791906120bd565b6111e4565b005b60025481565b600581565b600a81565b5f603260015f8473ffffffffffffffffffffffffffffffffffffffff1673ffffffffffffffffffffffffffffffffffffffff1681526020019081526020015f205f015412610486576706f05b59d3b2000090506104e9565b5f60015f8473ffffffffffffffffffffffffffffffffffffffff1673ffffffffffffffffffffffffffffffffffffffff1681526020019081526020015f205f015412156104dd57671bc16d674ec8000090506104e9565b670de0b6b3a764000090505b919050565b60015f3373ffffffffffffffffffffffffffffffffffffffff1673ffffffffffffffffffffffffffffffffffffffff1681526020019081526020015f206002015f9054906101000a900460ff161561057b576040517f08c379a000000000000000000000000000000000000000000000000000000000815260040161057290612173565b60405180910390fd5b67016345785d8a000034146105c5576040517f08c379a00000000000000000000000000000000000000000000000000000000081526004016105bc906121db565b60405180910390fd5b5f805f8381526020019081526020015f209050600260038111156105ec576105eb611d72565b5b816008015f9054906101000a900460ff16600381111561060f5761060e611d72565b5b1461064f576040517f08c379a000000000000000000000000000000000000000000000000000000000815260040161064690612243565b60405180910390fd5b80600a0133908060018154018082558091505060019003905f5260205f20015f9091909190916101000a81548173ffffffffffffffffffffffffffffffffffffffff021916908373ffffffffffffffffffffffffffffffffffffffff1602179055505050565b67016345785d8a000081565b5f602052805f5260405f205f91509050805f015f9054906101000a900473ffffffffffffffffffffffffffffffffffffffff1690806001015f9054906101000a900473ffffffffffffffffffffffffffffffffffffffff16908060020154908060030154908060040180546107359061228e565b80601f01602080910402602001604051908101604052809291908181526020018280546107619061228e565b80156107ac5780601f10610783576101008083540402835291602001916107ac565b820191905f5260205f20905b81548152906001019060200180831161078f57829003601f168201915b5050505050908060050180546107c19061228e565b80601f01602080910402602001604051908101604052809291908181526020018280546107ed9061228e565b80156108385780601f1061080f57610100808354040283529160200191610838565b820191905f5260205f20905b81548152906001019060200180831161081b57829003601f168201915b505050505090806006015490806007015490806008015f9054906101000a900460ff169080600901549080600c015490508b565b60015f3373ffffffffffffffffffffffffffffffffffffffff1673ffffffffffffffffffffffffffffffffffffffff1681526020019081526020015f206002015f9054906101000a900460ff16156108f9576040517f08c379a00000000000000000000000000000000000000000000000000000000081526004016108f090612173565b60405180910390fd5b60015f8273ffffffffffffffffffffffffffffffffffffffff1673ffffffffffffffffffffffffffffffffffffffff1681526020019081526020015f206002015f9054906101000a900460ff1615610986576040517f08c379a000000000000000000000000000000000000000000000000000000000815260040161097d90612308565b60405180910390fd5b5f6109903361042e565b90508034146109d4576040517f08c379a00000000000000000000000000000000000000000000000000000000081526004016109cb90612370565b60405180910390fd5b5f60025f8154809291906109e7906123bb565b9190505590505f805f8381526020019081526020015f20905033815f015f6101000a81548173ffffffffffffffffffffffffffffffffffffffff021916908373ffffffffffffffffffffffffffffffffffffffff16021790555083816001015f6101000a81548173ffffffffffffffffffffffffffffffffffffffff021916908373ffffffffffffffffffffffffffffffffffffffff1602179055508281600901819055506202a30042610a9b9190612402565b81600c0181905550817fe08af3491ff5da4a802782054d74abe364c01b6983872e2e93e728330b03a4503386604051610ad5929190612435565b60405180910390a250505050565b5f805f8481526020019081526020015f20905060026003811115610b0a57610b09611d72565b5b816008015f9054906101000a900460ff166003811115610b2d57610b2c611d72565b5b14610b6d576040517f08c379a0000000000000000000000000000000000000000000000000000000008152600401610b6490612243565b60405180910390fd5b5f805b82600a0180549050811015610c05573373ffffffffffffffffffffffffffffffffffffffff1683600a018281548110610bac57610bab61245c565b5b905f5260205f20015f9054906101000a900473ffffffffffffffffffffffffffffffffffffffff1673ffffffffffffffffffffffffffffffffffffffff1603610bf85760019150610c05565b8080600101915050610b70565b5080610c46576040517f08c379a0000000000000000000000000000000000000000000000000000000008152600401610c3d906124d3565b60405180910390fd5b8282600b015f3373ffffffffffffffffffffffffffffffffffffffff1673ffffffffffffffffffffffffffffffffffffffff1681526020019081526020015f2081905550837f8cab1d01be6cfa783358f659a7ebfec9dd91e231a955872bf9a389b3241100683385604051610cbc9291906124f1565b60405180910390a2600382600a018054905010610dff575f805f5b84600a0180549050811015610d9957600185600b015f87600a018481548110610d0357610d0261245c565b5b905f5260205f20015f9054906101000a900473ffffffffffffffffffffffffffffffffffffffff1673ffffffffffffffffffffffffffffffffffffffff1673ffffffffffffffffffffffffffffffffffffffff1681526020019081526020015f205403610d7d578280610d75906123bb565b935050610d8c565b8180610d88906123bb565b9250505b8080600101915050610cd7565b505f818311610dcb57846001015f9054906101000a900473ffffffffffffffffffffffffffffffffffffffff16610def565b845f015f9054906101000a900473ffffffffffffffffffffffffffffffffffffffff165b9050610dfb8782611628565b5050505b50505050565b66b1a2bc2ec5000081565b7fffffffffffffffffffffffffffffffffffffffffffffffffffffffffffffff9c60015f8373ffffffffffffffffffffffffffffffffffffffff1673ffffffffffffffffffffffffffffffffffffffff1681526020019081526020015f205f01541315610eb2576040517f08c379a0000000000000000000000000000000000000000000000000000000008152600401610ea990612562565b60405180910390fd5b6001805f8373ffffffffffffffffffffffffffffffffffffffff1673ffffffffffffffffffffffffffffffffffffffff1681526020019081526020015f206002015f6101000a81548160ff02191690831515021790555050565b7fffffffffffffffffffffffffffffffffffffffffffffffffffffffffffffffce81565b7fffffffffffffffffffffffffffffffffffffffffffffffffffffffffffffffe781565b6202a30081565b815f808281526020019081526020015f205f015f9054906101000a900473ffffffffffffffffffffffffffffffffffffffff1673ffffffffffffffffffffffffffffffffffffffff163373ffffffffffffffffffffffffffffffffffffffff16148061102457505f808281526020019081526020015f206001015f9054906101000a900473ffffffffffffffffffffffffffffffffffffffff1673ffffffffffffffffffffffffffffffffffffffff163373ffffffffffffffffffffffffffffffffffffffff16145b611063576040517f08c379a000000000000000000000000000000000000000000000000000000000815260040161105a906125ca565b60405180910390fd5b5f805f8581526020019081526020015f2090505f600381111561108957611088611d72565b5b816008015f9054906101000a900460ff1660038111156110ac576110ab611d72565b5b146110ec576040517f08c379a00000000000000000000000000000000000000000000000000000000081526004016110e390612632565b60405180910390fd5b805f015f9054906101000a900473ffffffffffffffffffffffffffffffffffffffff1673ffffffffffffffffffffffffffffffffffffffff163373ffffffffffffffffffffffffffffffffffffffff160361114f57828160020181905550611159565b8281600301819055505b5f801b81600201541415801561117557505f801b816003015414155b156111a7576001816008015f6101000a81548160ff021916908360038111156111a1576111a0611d72565b5b02179055505b50505050565b600f81565b6001602052805f5260405f205f91509050805f015490806001015490806002015f9054906101000a900460ff16905083565b825f808281526020019081526020015f205f015f9054906101000a900473ffffffffffffffffffffffffffffffffffffffff1673ffffffffffffffffffffffffffffffffffffffff163373ffffffffffffffffffffffffffffffffffffffff1614806112ad57505f808281526020019081526020015f206001015f9054906101000a900473ffffffffffffffffffffffffffffffffffffffff1673ffffffffffffffffffffffffffffffffffffffff163373ffffffffffffffffffffffffffffffffffffffff16145b6112ec576040517f08c379a00000000000000000000000000000000000000000000000000000000081526004016112e3906125ca565b60405180910390fd5b5f805f8681526020019081526020015f2090506001600381111561131357611312611d72565b5b816008015f9054906101000a900460ff16600381111561133657611335611d72565b5b14611376576040517f08c379a000000000000000000000000000000000000000000000000000000000815260040161136d9061269a565b60405180910390fd5b80600c01544211156113bd576040517f08c379a00000000000000000000000000000000000000000000000000000000081526004016113b490612702565b60405180910390fd5b5f846040516020016113cf9190612794565b604051602081830303815290604052805190602001209050815f015f9054906101000a900473ffffffffffffffffffffffffffffffffffffffff1673ffffffffffffffffffffffffffffffffffffffff163373ffffffffffffffffffffffffffffffffffffffff16036114a25781600201548114611482576040517f08c379a000000000000000000000000000000000000000000000000000000000815260040161147990612803565b60405180910390fd5b8382600401908161149391906129be565b50848260060181905550611504565b816003015481146114e8576040517f08c379a00000000000000000000000000000000000000000000000000000000081526004016114df90612803565b60405180910390fd5b838260050190816114f991906129be565b508482600701819055505b857f493474653ea5446b10d9bd9aed1854de71a1af7e2eea8fc3065ef63fbefda9e2336040516115349190612a8d565b60405180910390a25f801b82600601541415801561155857505f801b826007015414155b1561162057816005016040516020016115719190612b26565b604051602081830303815290604052805190602001208260040160405160200161159b9190612b26565b60405160208183030381529060405280519060200120036115c5576115c08633611971565b61161f565b6002826008015f6101000a81548160ff021916908360038111156115ec576115eb611d72565b5b0217905550857f116f6b179359db1a58a963fc783ee184e7844aba306a3c2ce02de3d7391d17c360405160405180910390a25b5b505050505050565b5f805f8481526020019081526020015f2090506003816008015f6101000a81548160ff0219169083600381111561166257611661611d72565b5b02179055505f815f015f9054906101000a900473ffffffffffffffffffffffffffffffffffffffff1673ffffffffffffffffffffffffffffffffffffffff168373ffffffffffffffffffffffffffffffffffffffff16146116e557815f015f9054906101000a900473ffffffffffffffffffffffffffffffffffffffff1661170a565b816001015f9054906101000a900473ffffffffffffffffffffffffffffffffffffffff165b90507fffffffffffffffffffffffffffffffffffffffffffffffffffffffffffffffce60015f8373ffffffffffffffffffffffffffffffffffffffff1673ffffffffffffffffffffffffffffffffffffffff1681526020019081526020015f205f015f82825461177a9190612b3c565b925050819055505f5b82600a01805490508110156118ba5782600a0181815481106117a8576117a761245c565b5b905f5260205f20015f9054906101000a900473ffffffffffffffffffffffffffffffffffffffff1673ffffffffffffffffffffffffffffffffffffffff166108fc66b1a2bc2ec5000090811502906040515f60405180830381858888f19350505050158015611819573d5f803e3d5ffd5b50600560015f85600a0184815481106118355761183461245c565b5b905f5260205f20015f9054906101000a900473ffffffffffffffffffffffffffffffffffffffff1673ffffffffffffffffffffffffffffffffffffffff1673ffffffffffffffffffffffffffffffffffffffff1681526020019081526020015f205f015f8282546118a69190612b3c565b925050819055508080600101915050611783565b508273ffffffffffffffffffffffffffffffffffffffff166108fc83600a018054905066b1a2bc2ec500006118ef9190612b7d565b600285600901546119009190612b7d565b61190a9190612bbe565b90811502906040515f60405180830381858888f19350505050158015611932573d5f803e3d5ffd5b50837f1c560e9f349cd346794f9d534fb852628d58cc7a726d0adb57820fae0a50cd47846040516119639190612a8d565b60405180910390a250505050565b5f805f8481526020019081526020015f2090506003816008015f6101000a81548160ff021916908360038111156119ab576119aa611d72565b5b0217905550600f60015f8473ffffffffffffffffffffffffffffffffffffffff1673ffffffffffffffffffffffffffffffffffffffff1681526020019081526020015f205f015f8282546119ff9190612b3c565b92505081905550600a60015f835f015f9054906101000a900473ffffffffffffffffffffffffffffffffffffffff1673ffffffffffffffffffffffffffffffffffffffff168573ffffffffffffffffffffffffffffffffffffffff1614611a8857835f015f9054906101000a900473ffffffffffffffffffffffffffffffffffffffff16611aad565b836001015f9054906101000a900473ffffffffffffffffffffffffffffffffffffffff165b73ffffffffffffffffffffffffffffffffffffffff1673ffffffffffffffffffffffffffffffffffffffff1681526020019081526020015f205f015f828254611af69190612b3c565b925050819055508173ffffffffffffffffffffffffffffffffffffffff166108fc60028360090154611b289190612b7d565b90811502906040515f60405180830381858888f19350505050158015611b50573d5f803e3d5ffd5b50827f1c560e9f349cd346794f9d534fb852628d58cc7a726d0adb57820fae0a50cd4783604051611b819190612a8d565b60405180910390a2505050565b5f819050919050565b611ba081611b8e565b82525050565b5f602082019050611bb95f830184611b97565b92915050565b5f819050919050565b611bd181611bbf565b82525050565b5f602082019050611bea5f830184611bc8565b92915050565b5f604051905090565b5f80fd5b5f80fd5b5f73ffffffffffffffffffffffffffffffffffffffff82169050919050565b5f611c2a82611c01565b9050919050565b611c3a81611c20565b8114611c44575f80fd5b50565b5f81359050611c5581611c31565b92915050565b5f60208284031215611c7057611c6f611bf9565b5b5f611c7d84828501611c47565b91505092915050565b611c8f81611b8e565b8114611c99575f80fd5b50565b5f81359050611caa81611c86565b92915050565b5f60208284031215611cc557611cc4611bf9565b5b5f611cd284828501611c9c565b91505092915050565b611ce481611c20565b82525050565b5f819050919050565b611cfc81611cea565b82525050565b5f81519050919050565b5f82825260208201905092915050565b8281835e5f83830152505050565b5f601f19601f8301169050919050565b5f611d4482611d02565b611d4e8185611d0c565b9350611d5e818560208601611d1c565b611d6781611d2a565b840191505092915050565b7f4e487b71000000000000000000000000000000000000000000000000000000005f52602160045260245ffd5b60048110611db057611daf611d72565b5b50565b5f819050611dc082611d9f565b919050565b5f611dcf82611db3565b9050919050565b611ddf81611dc5565b82525050565b5f61016082019050611df95f83018e611cdb565b611e06602083018d611cdb565b611e13604083018c611cf3565b611e20606083018b611cf3565b8181036080830152611e32818a611d3a565b905081810360a0830152611e468189611d3a565b9050611e5560c0830188611cf3565b611e6260e0830187611cf3565b611e70610100830186611dd6565b611e7e610120830185611b97565b611e8c610140830184611b97565b9c9b505050505050505050505050565b5f8060408385031215611eb257611eb1611bf9565b5b5f611ebf85828601611c9c565b9250506020611ed085828601611c9c565b9150509250929050565b611ee381611cea565b8114611eed575f80fd5b50565b5f81359050611efe81611eda565b92915050565b5f8060408385031215611f1a57611f19611bf9565b5b5f611f2785828601611c9c565b9250506020611f3885828601611ef0565b9150509250929050565b5f8115159050919050565b611f5681611f42565b82525050565b5f606082019050611f6f5f830186611bc8565b611f7c6020830185611b97565b611f896040830184611f4d565b949350505050565b5f80fd5b5f80fd5b7f4e487b71000000000000000000000000000000000000000000000000000000005f52604160045260245ffd5b611fcf82611d2a565b810181811067ffffffffffffffff82111715611fee57611fed611f99565b5b80604052505050565b5f612000611bf0565b905061200c8282611fc6565b919050565b5f67ffffffffffffffff82111561202b5761202a611f99565b5b61203482611d2a565b9050602081019050919050565b828183375f83830152505050565b5f61206161205c84612011565b611ff7565b90508281526020810184848401111561207d5761207c611f95565b5b612088848285612041565b509392505050565b5f82601f8301126120a4576120a3611f91565b5b81356120b484826020860161204f565b91505092915050565b5f805f606084860312156120d4576120d3611bf9565b5b5f6120e186828701611c9c565b93505060206120f286828701611ef0565b925050604084013567ffffffffffffffff81111561211357612112611bfd565b5b61211f86828701612090565b9150509250925092565b7f596f75206172652062616e6e65640000000000000000000000000000000000005f82015250565b5f61215d600e83611d0c565b915061216882612129565b602082019050919050565b5f6020820190508181035f83015261218a81612151565b9050919050565b7f496e636f7272656374206a757279207374616b650000000000000000000000005f82015250565b5f6121c5601483611d0c565b91506121d082612191565b602082019050919050565b5f6020820190508181035f8301526121f2816121b9565b9050919050565b7f4e6f2061637469766520646973707574650000000000000000000000000000005f82015250565b5f61222d601183611d0c565b9150612238826121f9565b602082019050919050565b5f6020820190508181035f83015261225a81612221565b9050919050565b7f4e487b71000000000000000000000000000000000000000000000000000000005f52602260045260245ffd5b5f60028204905060018216806122a557607f821691505b6020821081036122b8576122b7612261565b5b50919050565b7f4f70706f6e656e742069732062616e6e656400000000000000000000000000005f82015250565b5f6122f2601283611d0c565b91506122fd826122be565b602082019050919050565b5f6020820190508181035f83015261231f816122e6565b9050919050565b7f496e636f7272656374207374616b6520616d6f756e74000000000000000000005f82015250565b5f61235a601683611d0c565b915061236582612326565b602082019050919050565b5f6020820190508181035f8301526123878161234e565b9050919050565b7f4e487b71000000000000000000000000000000000000000000000000000000005f52601160045260245ffd5b5f6123c582611b8e565b91507fffffffffffffffffffffffffffffffffffffffffffffffffffffffffffffffff82036123f7576123f661238e565b5b600182019050919050565b5f61240c82611b8e565b915061241783611b8e565b925082820190508082111561242f5761242e61238e565b5b92915050565b5f6040820190506124485f830185611cdb565b6124556020830184611cdb565b9392505050565b7f4e487b71000000000000000000000000000000000000000000000000000000005f52603260045260245ffd5b7f4e6f742061206a75726f720000000000000000000000000000000000000000005f82015250565b5f6124bd600b83611d0c565b91506124c882612489565b602082019050919050565b5f6020820190508181035f8301526124ea816124b1565b9050919050565b5f6040820190506125045f830185611cdb565b6125116020830184611b97565b9392505050565b7f4e6f742062616e2d776f727468790000000000000000000000000000000000005f82015250565b5f61254c600e83611d0c565b915061255782612518565b602082019050919050565b5f6020820190508181035f83015261257981612540565b9050919050565b7f4e6f74206120706c6179657200000000000000000000000000000000000000005f82015250565b5f6125b4600c83611d0c565b91506125bf82612580565b602082019050919050565b5f6020820190508181035f8301526125e1816125a8565b9050919050565b7f4e6f7420696e20636f6d6d6974207068617365000000000000000000000000005f82015250565b5f61261c601383611d0c565b9150612627826125e8565b602082019050919050565b5f6020820190508181035f83015261264981612610565b9050919050565b7f4e6f7420696e2072657665616c207068617365000000000000000000000000005f82015250565b5f612684601383611d0c565b915061268f82612650565b602082019050919050565b5f6020820190508181035f8301526126b181612678565b9050919050565b7f52657665616c20706572696f64206578706972656400000000000000000000005f82015250565b5f6126ec601583611d0c565b91506126f7826126b8565b602082019050919050565b5f6020820190508181035f830152612719816126e0565b9050919050565b5f81905092915050565b7f495f7265706f72745f74727574680000000000000000000000000000000000005f82015250565b5f61275e600e83612720565b91506127698261272a565b600e82019050919050565b5f819050919050565b61278e61278982611cea565b612774565b82525050565b5f61279e82612752565b91506127aa828461277d565b60208201915081905092915050565b7f496e76616c69642072657665616c0000000000000000000000000000000000005f82015250565b5f6127ed600e83611d0c565b91506127f8826127b9565b602082019050919050565b5f6020820190508181035f83015261281a816127e1565b9050919050565b5f819050815f5260205f209050919050565b5f6020601f8301049050919050565b5f82821b905092915050565b5f6008830261287d7fffffffffffffffffffffffffffffffffffffffffffffffffffffffffffffffff82612842565b6128878683612842565b95508019841693508086168417925050509392505050565b5f819050919050565b5f6128c26128bd6128b884611b8e565b61289f565b611b8e565b9050919050565b5f819050919050565b6128db836128a8565b6128ef6128e7826128c9565b84845461284e565b825550505050565b5f90565b6129036128f7565b61290e8184846128d2565b505050565b5b81811015612931576129265f826128fb565b600181019050612914565b5050565b601f8211156129765761294781612821565b61295084612833565b8101602085101561295f578190505b61297361296b85612833565b830182612913565b50505b505050565b5f82821c905092915050565b5f6129965f198460080261297b565b1980831691505092915050565b5f6129ae8383612987565b9150826002028217905092915050565b6129c782611d02565b67ffffffffffffffff8111156129e0576129df611f99565b5b6129ea825461228e565b6129f5828285612935565b5f60209050601f831160018114612a26575f8415612a14578287015190505b612a1e85826129a3565b865550612a85565b601f198416612a3486612821565b5f5b82811015612a5b57848901518255600182019150602085019450602081019050612a36565b86831015612a785784890151612a74601f891682612987565b8355505b6001600288020188555050505b505050505050565b5f602082019050612aa05f830184611cdb565b92915050565b5f8154612ab28161228e565b612abc8186612720565b9450600182165f8114612ad65760018114612aeb57612b1d565b60ff1983168652811515820286019350612b1d565b612af485612821565b5f5b83811015612b1557815481890152600182019150602081019050612af6565b838801955050505b50505092915050565b5f612b318284612aa6565b915081905092915050565b5f612b4682611bbf565b9150612b5183611bbf565b92508282019050828112155f8312168382125f841215161715612b7757612b7661238e565b5b92915050565b5f612b8782611b8e565b9150612b9283611b8e565b9250828202612ba081611b8e565b91508282048414831517612bb757612bb661238e565b5b5092915050565b5f612bc882611b8e565b9150612bd383611b8e565b9250828203905081811115612beb57612bea61238e565b5b9291505056fea2646970667358221220bd21ebd690d8c31689c3e7a114b8da83ed12e526b5850dd5d3ef2d3ad56b549664736f6c634300081a0033",
					"opcodes": "PUSH1 0x80 PUSH1 0x40 MSTORE CALLVALUE DUP1 ISZERO PUSH1 0xE JUMPI PUSH0 DUP1 REVERT JUMPDEST POP PUSH2 0x2C27 DUP1 PUSH2 0x1C PUSH0 CODECOPY PUSH0 RETURN INVALID PUSH1 0x80 PUSH1 0x40 MSTORE PUSH1 0x4 CALLDATASIZE LT PUSH2 0x108 JUMPI PUSH0 CALLDATALOAD PUSH1 0xE0 SHR DUP1 PUSH4 0x6BE6258B GT PUSH2 0x94 JUMPI DUP1 PUSH4 0xC3529F31 GT PUSH2 0x63 JUMPI DUP1 PUSH4 0xC3529F31 EQ PUSH2 0x33C JUMPI DUP1 PUSH4 0xC7825A0E EQ PUSH2 0x366 JUMPI DUP1 PUSH4 0xE0AFF415 EQ PUSH2 0x38E JUMPI DUP1 PUSH4 0xE2EB41FF EQ PUSH2 0x3B8 JUMPI DUP1 PUSH4 0xFCCAC4AC EQ PUSH2 0x3F6 JUMPI PUSH2 0x108 JUMP JUMPDEST DUP1 PUSH4 0x6BE6258B EQ PUSH2 0x296 JUMPI DUP1 PUSH4 0x72352776 EQ PUSH2 0x2C0 JUMPI DUP1 PUSH4 0x8B227FF4 EQ PUSH2 0x2E8 JUMPI DUP1 PUSH4 0xA4785D14 EQ PUSH2 0x312 JUMPI PUSH2 0x108 JUMP JUMPDEST DUP1 PUSH4 0x21036B8A GT PUSH2 0xDB JUMPI DUP1 PUSH4 0x21036B8A EQ PUSH2 0x1C6 JUMPI DUP1 PUSH4 0x27A69176 EQ PUSH2 0x1E2 JUMPI DUP1 PUSH4 0x4768D4EF EQ PUSH2 0x20C JUMPI DUP1 PUSH4 0x583262AB EQ PUSH2 0x252 JUMPI DUP1 PUSH4 0x625535D1 EQ PUSH2 0x26E JUMPI PUSH2 0x108 JUMP JUMPDEST DUP1 PUSH4 0x1FD1951 EQ PUSH2 0x10C JUMPI DUP1 PUSH4 0x2EDF4B4 EQ PUSH2 0x136 JUMPI DUP1 PUSH4 0xAC2C4C3 EQ PUSH2 0x160 JUMPI DUP1 PUSH4 0xC2EB403 EQ PUSH2 0x18A JUMPI JUMPDEST PUSH0 DUP1 REVERT JUMPDEST CALLVALUE DUP1 ISZERO PUSH2 0x117 JUMPI PUSH0 DUP1 REVERT JUMPDEST POP PUSH2 0x120 PUSH2 0x41E JUMP JUMPDEST PUSH1 0x40 MLOAD PUSH2 0x12D SWAP2 SWAP1 PUSH2 0x1BA6 JUMP JUMPDEST PUSH1 0x40 MLOAD DUP1 SWAP2 SUB SWAP1 RETURN JUMPDEST CALLVALUE DUP1 ISZERO PUSH2 0x141 JUMPI PUSH0 DUP1 REVERT JUMPDEST POP PUSH2 0x14A PUSH2 0x424 JUMP JUMPDEST PUSH1 0x40 MLOAD PUSH2 0x157 SWAP2 SWAP1 PUSH2 0x1BD7 JUMP JUMPDEST PUSH1 0x40 MLOAD DUP1 SWAP2 SUB SWAP1 RETURN JUMPDEST CALLVALUE DUP1 ISZERO PUSH2 0x16B JUMPI PUSH0 DUP1 REVERT JUMPDEST POP PUSH2 0x174 PUSH2 0x429 JUMP JUMPDEST PUSH1 0x40 MLOAD PUSH2 0x181 SWAP2 SWAP1 PUSH2 0x1BD7 JUMP JUMPDEST PUSH1 0x40 MLOAD DUP1 SWAP2 SUB SWAP1 RETURN JUMPDEST CALLVALUE DUP1 ISZERO PUSH2 0x195 JUMPI PUSH0 DUP1 REVERT JUMPDEST POP PUSH2 0x1B0 PUSH1 0x4 DUP1 CALLDATASIZE SUB DUP2 ADD SWAP1 PUSH2 0x1AB SWAP2 SWAP1 PUSH2 0x1C5B JUMP JUMPDEST PUSH2 0x42E JUMP JUMPDEST PUSH1 0x40 MLOAD PUSH2 0x1BD SWAP2 SWAP1 PUSH2 0x1BA6 JUMP JUMPDEST PUSH1 0x40 MLOAD DUP1 SWAP2 SUB SWAP1 RETURN JUMPDEST PUSH2 0x1E0 PUSH1 0x4 DUP1 CALLDATASIZE SUB DUP2 ADD SWAP1 PUSH2 0x1DB SWAP2 SWAP1 PUSH2 0x1CB0 JUMP JUMPDEST PUSH2 0x4EE JUMP JUMPDEST STOP JUMPDEST CALLVALUE DUP1 ISZERO PUSH2 0x1ED JUMPI PUSH0 DUP1 REVERT JUMPDEST POP PUSH2 0x1F6 PUSH2 0x6B5 JUMP JUMPDEST PUSH1 0x40 MLOAD PUSH2 0x203 SWAP2 SWAP1 PUSH2 0x1BA6 JUMP JUMPDEST PUSH1 0x40 MLOAD DUP1 SWAP2 SUB SWAP1 RETURN JUMPDEST CALLVALUE DUP1 ISZERO PUSH2 0x217 JUMPI PUSH0 DUP1 REVERT JUMPDEST POP PUSH2 0x232 PUSH1 0x4 DUP1 CALLDATASIZE SUB DUP2 ADD SWAP1 PUSH2 0x22D SWAP2 SWAP1 PUSH2 0x1CB0 JUMP JUMPDEST PUSH2 0x6C1 JUMP JUMPDEST PUSH1 0x40 MLOAD PUSH2 0x249 SWAP12 SWAP11 SWAP10 SWAP9 SWAP8 SWAP7 SWAP6 SWAP5 SWAP4 SWAP3 SWAP2 SWAP1 PUSH2 0x1DE5 JUMP JUMPDEST PUSH1 0x40 MLOAD DUP1 SWAP2 SUB SWAP1 RETURN JUMPDEST PUSH2 0x26C PUSH1 0x4 DUP1 CALLDATASIZE SUB DUP2 ADD SWAP1 PUSH2 0x267 SWAP2 SWAP1 PUSH2 0x1C5B JUMP JUMPDEST PUSH2 0x86C JUMP JUMPDEST STOP JUMPDEST CALLVALUE DUP1 ISZERO PUSH2 0x279 JUMPI PUSH0 DUP1 REVERT JUMPDEST POP PUSH2 0x294 PUSH1 0x4 DUP1 CALLDATASIZE SUB DUP2 ADD SWAP1 PUSH2 0x28F SWAP2 SWAP1 PUSH2 0x1E9C JUMP JUMPDEST PUSH2 0xAE3 JUMP JUMPDEST STOP JUMPDEST CALLVALUE DUP1 ISZERO PUSH2 0x2A1 JUMPI PUSH0 DUP1 REVERT JUMPDEST POP PUSH2 0x2AA PUSH2 0xE05 JUMP JUMPDEST PUSH1 0x40 MLOAD PUSH2 0x2B7 SWAP2 SWAP1 PUSH2 0x1BA6 JUMP JUMPDEST PUSH1 0x40 MLOAD DUP1 SWAP2 SUB SWAP1 RETURN JUMPDEST CALLVALUE DUP1 ISZERO PUSH2 0x2CB JUMPI PUSH0 DUP1 REVERT JUMPDEST POP PUSH2 0x2E6 PUSH1 0x4 DUP1 CALLDATASIZE SUB DUP2 ADD SWAP1 PUSH2 0x2E1 SWAP2 SWAP1 PUSH2 0x1C5B JUMP JUMPDEST PUSH2 0xE10 JUMP JUMPDEST STOP JUMPDEST CALLVALUE DUP1 ISZERO PUSH2 0x2F3 JUMPI PUSH0 DUP1 REVERT JUMPDEST POP PUSH2 0x2FC PUSH2 0xF0C JUMP JUMPDEST PUSH1 0x40 MLOAD PUSH2 0x309 SWAP2 SWAP1 PUSH2 0x1BD7 JUMP JUMPDEST PUSH1 0x40 MLOAD DUP1 SWAP2 SUB SWAP1 RETURN JUMPDEST CALLVALUE DUP1 ISZERO PUSH2 0x31D JUMPI PUSH0 DUP1 REVERT JUMPDEST POP PUSH2 0x326 PUSH2 0xF30 JUMP JUMPDEST PUSH1 0x40 MLOAD PUSH2 0x333 SWAP2 SWAP1 PUSH2 0x1BD7 JUMP JUMPDEST PUSH1 0x40 MLOAD DUP1 SWAP2 SUB SWAP1 RETURN JUMPDEST CALLVALUE DUP1 ISZERO PUSH2 0x347 JUMPI PUSH0 DUP1 REVERT JUMPDEST POP PUSH2 0x350 PUSH2 0xF54 JUMP JUMPDEST PUSH1 0x40 MLOAD PUSH2 0x35D SWAP2 SWAP1 PUSH2 0x1BA6 JUMP JUMPDEST PUSH1 0x40 MLOAD DUP1 SWAP2 SUB SWAP1 RETURN JUMPDEST CALLVALUE DUP1 ISZERO PUSH2 0x371 JUMPI PUSH0 DUP1 REVERT JUMPDEST POP PUSH2 0x38C PUSH1 0x4 DUP1 CALLDATASIZE SUB DUP2 ADD SWAP1 PUSH2 0x387 SWAP2 SWAP1 PUSH2 0x1F04 JUMP JUMPDEST PUSH2 0xF5B JUMP JUMPDEST STOP JUMPDEST CALLVALUE DUP1 ISZERO PUSH2 0x399 JUMPI PUSH0 DUP1 REVERT JUMPDEST POP PUSH2 0x3A2 PUSH2 0x11AD JUMP JUMPDEST PUSH1 0x40 MLOAD PUSH2 0x3AF SWAP2 SWAP1 PUSH2 0x1BD7 JUMP JUMPDEST PUSH1 0x40 MLOAD DUP1 SWAP2 SUB SWAP1 RETURN JUMPDEST CALLVALUE DUP1 ISZERO PUSH2 0x3C3 JUMPI PUSH0 DUP1 REVERT JUMPDEST POP PUSH2 0x3DE PUSH1 0x4 DUP1 CALLDATASIZE SUB DUP2 ADD SWAP1 PUSH2 0x3D9 SWAP2 SWAP1 PUSH2 0x1C5B JUMP JUMPDEST PUSH2 0x11B2 JUMP JUMPDEST PUSH1 0x40 MLOAD PUSH2 0x3ED SWAP4 SWAP3 SWAP2 SWAP1 PUSH2 0x1F5C JUMP JUMPDEST PUSH1 0x40 MLOAD DUP1 SWAP2 SUB SWAP1 RETURN JUMPDEST CALLVALUE DUP1 ISZERO PUSH2 0x401 JUMPI PUSH0 DUP1 REVERT JUMPDEST POP PUSH2 0x41C PUSH1 0x4 DUP1 CALLDATASIZE SUB DUP2 ADD SWAP1 PUSH2 0x417 SWAP2 SWAP1 PUSH2 0x20BD JUMP JUMPDEST PUSH2 0x11E4 JUMP JUMPDEST STOP JUMPDEST PUSH1 0x2 SLOAD DUP2 JUMP JUMPDEST PUSH1 0x5 DUP2 JUMP JUMPDEST PUSH1 0xA DUP2 JUMP JUMPDEST PUSH0 PUSH1 0x32 PUSH1 0x1 PUSH0 DUP5 PUSH20 0xFFFFFFFFFFFFFFFFFFFFFFFFFFFFFFFFFFFFFFFF AND PUSH20 0xFFFFFFFFFFFFFFFFFFFFFFFFFFFFFFFFFFFFFFFF AND DUP2 MSTORE PUSH1 0x20 ADD SWAP1 DUP2 MSTORE PUSH1 0x20 ADD PUSH0 KECCAK256 PUSH0 ADD SLOAD SLT PUSH2 0x486 JUMPI PUSH8 0x6F05B59D3B20000 SWAP1 POP PUSH2 0x4E9 JUMP JUMPDEST PUSH0 PUSH1 0x1 PUSH0 DUP5 PUSH20 0xFFFFFFFFFFFFFFFFFFFFFFFFFFFFFFFFFFFFFFFF AND PUSH20 0xFFFFFFFFFFFFFFFFFFFFFFFFFFFFFFFFFFFFFFFF AND DUP2 MSTORE PUSH1 0x20 ADD SWAP1 DUP2 MSTORE PUSH1 0x20 ADD PUSH0 KECCAK256 PUSH0 ADD SLOAD SLT ISZERO PUSH2 0x4DD JUMPI PUSH8 0x1BC16D674EC80000 SWAP1 POP PUSH2 0x4E9 JUMP JUMPDEST PUSH8 0xDE0B6B3A7640000 SWAP1 POP JUMPDEST SWAP2 SWAP1 POP JUMP JUMPDEST PUSH1 0x1 PUSH0 CALLER PUSH20 0xFFFFFFFFFFFFFFFFFFFFFFFFFFFFFFFFFFFFFFFF AND PUSH20 0xFFFFFFFFFFFFFFFFFFFFFFFFFFFFFFFFFFFFFFFF AND DUP2 MSTORE PUSH1 0x20 ADD SWAP1 DUP2 MSTORE PUSH1 0x20 ADD PUSH0 KECCAK256 PUSH1 0x2 ADD PUSH0 SWAP1 SLOAD SWAP1 PUSH2 0x100 EXP SWAP1 DIV PUSH1 0xFF AND ISZERO PUSH2 0x57B JUMPI PUSH1 0x40 MLOAD PUSH32 0x8C379A000000000000000000000000000000000000000000000000000000000 DUP2 MSTORE PUSH1 0x4 ADD PUSH2 0x572 SWAP1 PUSH2 0x2173 JUMP JUMPDEST PUSH1 0x40 MLOAD DUP1 SWAP2 SUB SWAP1 REVERT JUMPDEST PUSH8 0x16345785D8A0000 CALLVALUE EQ PUSH2 0x5C5 JUMPI PUSH1 0x40 MLOAD PUSH32 0x8C379A000000000000000000000000000000000000000000000000000000000 DUP2 MSTORE PUSH1 0x4 ADD PUSH2 0x5BC SWAP1 PUSH2 0x21DB JUMP JUMPDEST PUSH1 0x40 MLOAD DUP1 SWAP2 SUB SWAP1 REVERT JUMPDEST PUSH0 DUP1 PUSH0 DUP4 DUP2 MSTORE PUSH1 0x20 ADD SWAP1 DUP2 MSTORE PUSH1 0x20 ADD PUSH0 KECCAK256 SWAP1 POP PUSH1 0x2 PUSH1 0x3 DUP2 GT ISZERO PUSH2 0x5EC JUMPI PUSH2 0x5EB PUSH2 0x1D72 JUMP JUMPDEST JUMPDEST DUP2 PUSH1 0x8 ADD PUSH0 SWAP1 SLOAD SWAP1 PUSH2 0x100 EXP SWAP1 DIV PUSH1 0xFF AND PUSH1 0x3 DUP2 GT ISZERO PUSH2 0x60F JUMPI PUSH2 0x60E PUSH2 0x1D72 JUMP JUMPDEST JUMPDEST EQ PUSH2 0x64F JUMPI PUSH1 0x40 MLOAD PUSH32 0x8C379A000000000000000000000000000000000000000000000000000000000 DUP2 MSTORE PUSH1 0x4 ADD PUSH2 0x646 SWAP1 PUSH2 0x2243 JUMP JUMPDEST PUSH1 0x40 MLOAD DUP1 SWAP2 SUB SWAP1 REVERT JUMPDEST DUP1 PUSH1 0xA ADD CALLER SWAP1 DUP1 PUSH1 0x1 DUP2 SLOAD ADD DUP1 DUP3 SSTORE DUP1 SWAP2 POP POP PUSH1 0x1 SWAP1 SUB SWAP1 PUSH0 MSTORE PUSH1 0x20 PUSH0 KECCAK256 ADD PUSH0 SWAP1 SWAP2 SWAP1 SWAP2 SWAP1 SWAP2 PUSH2 0x100 EXP DUP2 SLOAD DUP2 PUSH20 0xFFFFFFFFFFFFFFFFFFFFFFFFFFFFFFFFFFFFFFFF MUL NOT AND SWAP1 DUP4 PUSH20 0xFFFFFFFFFFFFFFFFFFFFFFFFFFFFFFFFFFFFFFFF AND MUL OR SWAP1 SSTORE POP POP POP JUMP JUMPDEST PUSH8 0x16345785D8A0000 DUP2 JUMP JUMPDEST PUSH0 PUSH1 0x20 MSTORE DUP1 PUSH0 MSTORE PUSH1 0x40 PUSH0 KECCAK256 PUSH0 SWAP2 POP SWAP1 POP DUP1 PUSH0 ADD PUSH0 SWAP1 SLOAD SWAP1 PUSH2 0x100 EXP SWAP1 DIV PUSH20 0xFFFFFFFFFFFFFFFFFFFFFFFFFFFFFFFFFFFFFFFF AND SWAP1 DUP1 PUSH1 0x1 ADD PUSH0 SWAP1 SLOAD SWAP1 PUSH2 0x100 EXP SWAP1 DIV PUSH20 0xFFFFFFFFFFFFFFFFFFFFFFFFFFFFFFFFFFFFFFFF AND SWAP1 DUP1 PUSH1 0x2 ADD SLOAD SWAP1 DUP1 PUSH1 0x3 ADD SLOAD SWAP1 DUP1 PUSH1 0x4 ADD DUP1 SLOAD PUSH2 0x735 SWAP1 PUSH2 0x228E JUMP JUMPDEST DUP1 PUSH1 0x1F ADD PUSH1 0x20 DUP1 SWAP2 DIV MUL PUSH1 0x20 ADD PUSH1 0x40 MLOAD SWAP1 DUP2 ADD PUSH1 0x40 MSTORE DUP1 SWAP3 SWAP2 SWAP1 DUP2 DUP2 MSTORE PUSH1 0x20 ADD DUP3 DUP1 SLOAD PUSH2 0x761 SWAP1 PUSH2 0x228E JUMP JUMPDEST DUP1 ISZERO PUSH2 0x7AC JUMPI DUP1 PUSH1 0x1F LT PUSH2 0x783 JUMPI PUSH2 0x100 DUP1 DUP4 SLOAD DIV MUL DUP4 MSTORE SWAP2 PUSH1 0x20 ADD SWAP2 PUSH2 0x7AC JUMP JUMPDEST DUP3 ADD SWAP2 SWAP1 PUSH0 MSTORE PUSH1 0x20 PUSH0 KECCAK256 SWAP1 JUMPDEST DUP2 SLOAD DUP2 MSTORE SWAP1 PUSH1 0x1 ADD SWAP1 PUSH1 0x20 ADD DUP1 DUP4 GT PUSH2 0x78F JUMPI DUP3 SWAP1 SUB PUSH1 0x1F AND DUP3 ADD SWAP2 JUMPDEST POP POP POP POP POP SWAP1 DUP1 PUSH1 0x5 ADD DUP1 SLOAD PUSH2 0x7C1 SWAP1 PUSH2 0x228E JUMP JUMPDEST DUP1 PUSH1 0x1F ADD PUSH1 0x20 DUP1 SWAP2 DIV MUL PUSH1 0x20 ADD PUSH1 0x40 MLOAD SWAP1 DUP2 ADD PUSH1 0x40 MSTORE DUP1 SWAP3 SWAP2 SWAP1 DUP2 DUP2 MSTORE PUSH1 0x20 ADD DUP3 DUP1 SLOAD PUSH2 0x7ED SWAP1 PUSH2 0x228E JUMP JUMPDEST DUP1 ISZERO PUSH2 0x838 JUMPI DUP1 PUSH1 0x1F LT PUSH2 0x80F JUMPI PUSH2 0x100 DUP1 DUP4 SLOAD DIV MUL DUP4 MSTORE SWAP2 PUSH1 0x20 ADD SWAP2 PUSH2 0x838 JUMP JUMPDEST DUP3 ADD SWAP2 SWAP1 PUSH0 MSTORE PUSH1 0x20 PUSH0 KECCAK256 SWAP1 JUMPDEST DUP2 SLOAD DUP2 MSTORE SWAP1 PUSH1 0x1 ADD SWAP1 PUSH1 0x20 ADD DUP1 DUP4 GT PUSH2 0x81B JUMPI DUP3 SWAP1 SUB PUSH1 0x1F AND DUP3 ADD SWAP2 JUMPDEST POP POP POP POP POP SWAP1 DUP1 PUSH1 0x6 ADD SLOAD SWAP1 DUP1 PUSH1 0x7 ADD SLOAD SWAP1 DUP1 PUSH1 0x8 ADD PUSH0 SWAP1 SLOAD SWAP1 PUSH2 0x100 EXP SWAP1 DIV PUSH1 0xFF AND SWAP1 DUP1 PUSH1 0x9 ADD SLOAD SWAP1 DUP1 PUSH1 0xC ADD SLOAD SWAP1 POP DUP12 JUMP JUMPDEST PUSH1 0x1 PUSH0 CALLER PUSH20 0xFFFFFFFFFFFFFFFFFFFFFFFFFFFFFFFFFFFFFFFF AND PUSH20 0xFFFFFFFFFFFFFFFFFFFFFFFFFFFFFFFFFFFFFFFF AND DUP2 MSTORE PUSH1 0x20 ADD SWAP1 DUP2 MSTORE PUSH1 0x20 ADD PUSH0 KECCAK256 PUSH1 0x2 ADD PUSH0 SWAP1 SLOAD SWAP1 PUSH2 0x100 EXP SWAP1 DIV PUSH1 0xFF AND ISZERO PUSH2 0x8F9 JUMPI PUSH1 0x40 MLOAD PUSH32 0x8C379A000000000000000000000000000000000000000000000000000000000 DUP2 MSTORE PUSH1 0x4 ADD PUSH2 0x8F0 SWAP1 PUSH2 0x2173 JUMP JUMPDEST PUSH1 0x40 MLOAD DUP1 SWAP2 SUB SWAP1 REVERT JUMPDEST PUSH1 0x1 PUSH0 DUP3 PUSH20 0xFFFFFFFFFFFFFFFFFFFFFFFFFFFFFFFFFFFFFFFF AND PUSH20 0xFFFFFFFFFFFFFFFFFFFFFFFFFFFFFFFFFFFFFFFF AND DUP2 MSTORE PUSH1 0x20 ADD SWAP1 DUP2 MSTORE PUSH1 0x20 ADD PUSH0 KECCAK256 PUSH1 0x2 ADD PUSH0 SWAP1 SLOAD SWAP1 PUSH2 0x100 EXP SWAP1 DIV PUSH1 0xFF AND ISZERO PUSH2 0x986 JUMPI PUSH1 0x40 MLOAD PUSH32 0x8C379A000000000000000000000000000000000000000000000000000000000 DUP2 MSTORE PUSH1 0x4 ADD PUSH2 0x97D SWAP1 PUSH2 0x2308 JUMP JUMPDEST PUSH1 0x40 MLOAD DUP1 SWAP2 SUB SWAP1 REVERT JUMPDEST PUSH0 PUSH2 0x990 CALLER PUSH2 0x42E JUMP JUMPDEST SWAP1 POP DUP1 CALLVALUE EQ PUSH2 0x9D4 JUMPI PUSH1 0x40 MLOAD PUSH32 0x8C379A000000000000000000000000000000000000000000000000000000000 DUP2 MSTORE PUSH1 0x4 ADD PUSH2 0x9CB SWAP1 PUSH2 0x2370 JUMP JUMPDEST PUSH1 0x40 MLOAD DUP1 SWAP2 SUB SWAP1 REVERT JUMPDEST PUSH0 PUSH1 0x2 PUSH0 DUP2 SLOAD DUP1 SWAP3 SWAP2 SWAP1 PUSH2 0x9E7 SWAP1 PUSH2 0x23BB JUMP JUMPDEST SWAP2 SWAP1 POP SSTORE SWAP1 POP PUSH0 DUP1 PUSH0 DUP4 DUP2 MSTORE PUSH1 0x20 ADD SWAP1 DUP2 MSTORE PUSH1 0x20 ADD PUSH0 KECCAK256 SWAP1 POP CALLER DUP2 PUSH0 ADD PUSH0 PUSH2 0x100 EXP DUP2 SLOAD DUP2 PUSH20 0xFFFFFFFFFFFFFFFFFFFFFFFFFFFFFFFFFFFFFFFF MUL NOT AND SWAP1 DUP4 PUSH20 0xFFFFFFFFFFFFFFFFFFFFFFFFFFFFFFFFFFFFFFFF AND MUL OR SWAP1 SSTORE POP DUP4 DUP2 PUSH1 0x1 ADD PUSH0 PUSH2 0x100 EXP DUP2 SLOAD DUP2 PUSH20 0xFFFFFFFFFFFFFFFFFFFFFFFFFFFFFFFFFFFFFFFF MUL NOT AND SWAP1 DUP4 PUSH20 0xFFFFFFFFFFFFFFFFFFFFFFFFFFFFFFFFFFFFFFFF AND MUL OR SWAP1 SSTORE POP DUP3 DUP2 PUSH1 0x9 ADD DUP2 SWAP1 SSTORE POP PUSH3 0x2A300 TIMESTAMP PUSH2 0xA9B SWAP2 SWAP1 PUSH2 0x2402 JUMP JUMPDEST DUP2 PUSH1 0xC ADD DUP2 SWAP1 SSTORE POP DUP2 PUSH32 0xE08AF3491FF5DA4A802782054D74ABE364C01B6983872E2E93E728330B03A450 CALLER DUP7 PUSH1 0x40 MLOAD PUSH2 0xAD5 SWAP3 SWAP2 SWAP1 PUSH2 0x2435 JUMP JUMPDEST PUSH1 0x40 MLOAD DUP1 SWAP2 SUB SWAP1 LOG2 POP POP POP POP JUMP JUMPDEST PUSH0 DUP1 PUSH0 DUP5 DUP2 MSTORE PUSH1 0x20 ADD SWAP1 DUP2 MSTORE PUSH1 0x20 ADD PUSH0 KECCAK256 SWAP1 POP PUSH1 0x2 PUSH1 0x3 DUP2 GT ISZERO PUSH2 0xB0A JUMPI PUSH2 0xB09 PUSH2 0x1D72 JUMP JUMPDEST JUMPDEST DUP2 PUSH1 0x8 ADD PUSH0 SWAP1 SLOAD SWAP1 PUSH2 0x100 EXP SWAP1 DIV PUSH1 0xFF AND PUSH1 0x3 DUP2 GT ISZERO PUSH2 0xB2D JUMPI PUSH2 0xB2C PUSH2 0x1D72 JUMP JUMPDEST JUMPDEST EQ PUSH2 0xB6D JUMPI PUSH1 0x40 MLOAD PUSH32 0x8C379A000000000000000000000000000000000000000000000000000000000 DUP2 MSTORE PUSH1 0x4 ADD PUSH2 0xB64 SWAP1 PUSH2 0x2243 JUMP JUMPDEST PUSH1 0x40 MLOAD DUP1 SWAP2 SUB SWAP1 REVERT JUMPDEST PUSH0 DUP1 JUMPDEST DUP3 PUSH1 0xA ADD DUP1 SLOAD SWAP1 POP DUP2 LT ISZERO PUSH2 0xC05 JUMPI CALLER PUSH20 0xFFFFFFFFFFFFFFFFFFFFFFFFFFFFFFFFFFFFFFFF AND DUP4 PUSH1 0xA ADD DUP3 DUP2 SLOAD DUP2 LT PUSH2 0xBAC JUMPI PUSH2 0xBAB PUSH2 0x245C JUMP JUMPDEST JUMPDEST SWAP1 PUSH0 MSTORE PUSH1 0x20 PUSH0 KECCAK256 ADD PUSH0 SWAP1 SLOAD SWAP1 PUSH2 0x100 EXP SWAP1 DIV PUSH20 0xFFFFFFFFFFFFFFFFFFFFFFFFFFFFFFFFFFFFFFFF AND PUSH20 0xFFFFFFFFFFFFFFFFFFFFFFFFFFFFFFFFFFFFFFFF AND SUB PUSH2 0xBF8 JUMPI PUSH1 0x1 SWAP2 POP PUSH2 0xC05 JUMP JUMPDEST DUP1 DUP1 PUSH1 0x1 ADD SWAP2 POP POP PUSH2 0xB70 JUMP JUMPDEST POP DUP1 PUSH2 0xC46 JUMPI PUSH1 0x40 MLOAD PUSH32 0x8C379A000000000000000000000000000000000000000000000000000000000 DUP2 MSTORE PUSH1 0x4 ADD PUSH2 0xC3D SWAP1 PUSH2 0x24D3 JUMP JUMPDEST PUSH1 0x40 MLOAD DUP1 SWAP2 SUB SWAP1 REVERT JUMPDEST DUP3 DUP3 PUSH1 0xB ADD PUSH0 CALLER PUSH20 0xFFFFFFFFFFFFFFFFFFFFFFFFFFFFFFFFFFFFFFFF AND PUSH20 0xFFFFFFFFFFFFFFFFFFFFFFFFFFFFFFFFFFFFFFFF AND DUP2 MSTORE PUSH1 0x20 ADD SWAP1 DUP2 MSTORE PUSH1 0x20 ADD PUSH0 KECCAK256 DUP2 SWAP1 SSTORE POP DUP4 PUSH32 0x8CAB1D01BE6CFA783358F659A7EBFEC9DD91E231A955872BF9A389B324110068 CALLER DUP6 PUSH1 0x40 MLOAD PUSH2 0xCBC SWAP3 SWAP2 SWAP1 PUSH2 0x24F1 JUMP JUMPDEST PUSH1 0x40 MLOAD DUP1 SWAP2 SUB SWAP1 LOG2 PUSH1 0x3 DUP3 PUSH1 0xA ADD DUP1 SLOAD SWAP1 POP LT PUSH2 0xDFF JUMPI PUSH0 DUP1 PUSH0 JUMPDEST DUP5 PUSH1 0xA ADD DUP1 SLOAD SWAP1 POP DUP2 LT ISZERO PUSH2 0xD99 JUMPI PUSH1 0x1 DUP6 PUSH1 0xB ADD PUSH0 DUP8 PUSH1 0xA ADD DUP5 DUP2 SLOAD DUP2 LT PUSH2 0xD03 JUMPI PUSH2 0xD02 PUSH2 0x245C JUMP JUMPDEST JUMPDEST SWAP1 PUSH0 MSTORE PUSH1 0x20 PUSH0 KECCAK256 ADD PUSH0 SWAP1 SLOAD SWAP1 PUSH2 0x100 EXP SWAP1 DIV PUSH20 0xFFFFFFFFFFFFFFFFFFFFFFFFFFFFFFFFFFFFFFFF AND PUSH20 0xFFFFFFFFFFFFFFFFFFFFFFFFFFFFFFFFFFFFFFFF AND PUSH20 0xFFFFFFFFFFFFFFFFFFFFFFFFFFFFFFFFFFFFFFFF AND DUP2 MSTORE PUSH1 0x20 ADD SWAP1 DUP2 MSTORE PUSH1 0x20 ADD PUSH0 KECCAK256 SLOAD SUB PUSH2 0xD7D JUMPI DUP3 DUP1 PUSH2 0xD75 SWAP1 PUSH2 0x23BB JUMP JUMPDEST SWAP4 POP POP PUSH2 0xD8C JUMP JUMPDEST DUP2 DUP1 PUSH2 0xD88 SWAP1 PUSH2 0x23BB JUMP JUMPDEST SWAP3 POP POP JUMPDEST DUP1 DUP1 PUSH1 0x1 ADD SWAP2 POP POP PUSH2 0xCD7 JUMP JUMPDEST POP PUSH0 DUP2 DUP4 GT PUSH2 0xDCB JUMPI DUP5 PUSH1 0x1 ADD PUSH0 SWAP1 SLOAD SWAP1 PUSH2 0x100 EXP SWAP1 DIV PUSH20 0xFFFFFFFFFFFFFFFFFFFFFFFFFFFFFFFFFFFFFFFF AND PUSH2 0xDEF JUMP JUMPDEST DUP5 PUSH0 ADD PUSH0 SWAP1 SLOAD SWAP1 PUSH2 0x100 EXP SWAP1 DIV PUSH20 0xFFFFFFFFFFFFFFFFFFFFFFFFFFFFFFFFFFFFFFFF AND JUMPDEST SWAP1 POP PUSH2 0xDFB DUP8 DUP3 PUSH2 0x1628 JUMP JUMPDEST POP POP POP JUMPDEST POP POP POP POP JUMP JUMPDEST PUSH7 0xB1A2BC2EC50000 DUP2 JUMP JUMPDEST PUSH32 0xFFFFFFFFFFFFFFFFFFFFFFFFFFFFFFFFFFFFFFFFFFFFFFFFFFFFFFFFFFFFFF9C PUSH1 0x1 PUSH0 DUP4 PUSH20 0xFFFFFFFFFFFFFFFFFFFFFFFFFFFFFFFFFFFFFFFF AND PUSH20 0xFFFFFFFFFFFFFFFFFFFFFFFFFFFFFFFFFFFFFFFF AND DUP2 MSTORE PUSH1 0x20 ADD SWAP1 DUP2 MSTORE PUSH1 0x20 ADD PUSH0 KECCAK256 PUSH0 ADD SLOAD SGT ISZERO PUSH2 0xEB2 JUMPI PUSH1 0x40 MLOAD PUSH32 0x8C379A000000000000000000000000000000000000000000000000000000000 DUP2 MSTORE PUSH1 0x4 ADD PUSH2 0xEA9 SWAP1 PUSH2 0x2562 JUMP JUMPDEST PUSH1 0x40 MLOAD DUP1 SWAP2 SUB SWAP1 REVERT JUMPDEST PUSH1 0x1 DUP1 PUSH0 DUP4 PUSH20 0xFFFFFFFFFFFFFFFFFFFFFFFFFFFFFFFFFFFFFFFF AND PUSH20 0xFFFFFFFFFFFFFFFFFFFFFFFFFFFFFFFFFFFFFFFF AND DUP2 MSTORE PUSH1 0x20 ADD SWAP1 DUP2 MSTORE PUSH1 0x20 ADD PUSH0 KECCAK256 PUSH1 0x2 ADD PUSH0 PUSH2 0x100 EXP DUP2 SLOAD DUP2 PUSH1 0xFF MUL NOT AND SWAP1 DUP4 ISZERO ISZERO MUL OR SWAP1 SSTORE POP POP JUMP JUMPDEST PUSH32 0xFFFFFFFFFFFFFFFFFFFFFFFFFFFFFFFFFFFFFFFFFFFFFFFFFFFFFFFFFFFFFFCE DUP2 JUMP JUMPDEST PUSH32 0xFFFFFFFFFFFFFFFFFFFFFFFFFFFFFFFFFFFFFFFFFFFFFFFFFFFFFFFFFFFFFFE7 DUP2 JUMP JUMPDEST PUSH3 0x2A300 DUP2 JUMP JUMPDEST DUP2 PUSH0 DUP1 DUP3 DUP2 MSTORE PUSH1 0x20 ADD SWAP1 DUP2 MSTORE PUSH1 0x20 ADD PUSH0 KECCAK256 PUSH0 ADD PUSH0 SWAP1 SLOAD SWAP1 PUSH2 0x100 EXP SWAP1 DIV PUSH20 0xFFFFFFFFFFFFFFFFFFFFFFFFFFFFFFFFFFFFFFFF AND PUSH20 0xFFFFFFFFFFFFFFFFFFFFFFFFFFFFFFFFFFFFFFFF AND CALLER PUSH20 0xFFFFFFFFFFFFFFFFFFFFFFFFFFFFFFFFFFFFFFFF AND EQ DUP1 PUSH2 0x1024 JUMPI POP PUSH0 DUP1 DUP3 DUP2 MSTORE PUSH1 0x20 ADD SWAP1 DUP2 MSTORE PUSH1 0x20 ADD PUSH0 KECCAK256 PUSH1 0x1 ADD PUSH0 SWAP1 SLOAD SWAP1 PUSH2 0x100 EXP SWAP1 DIV PUSH20 0xFFFFFFFFFFFFFFFFFFFFFFFFFFFFFFFFFFFFFFFF AND PUSH20 0xFFFFFFFFFFFFFFFFFFFFFFFFFFFFFFFFFFFFFFFF AND CALLER PUSH20 0xFFFFFFFFFFFFFFFFFFFFFFFFFFFFFFFFFFFFFFFF AND EQ JUMPDEST PUSH2 0x1063 JUMPI PUSH1 0x40 MLOAD PUSH32 0x8C379A000000000000000000000000000000000000000000000000000000000 DUP2 MSTORE PUSH1 0x4 ADD PUSH2 0x105A SWAP1 PUSH2 0x25CA JUMP JUMPDEST PUSH1 0x40 MLOAD DUP1 SWAP2 SUB SWAP1 REVERT JUMPDEST PUSH0 DUP1 PUSH0 DUP6 DUP2 MSTORE PUSH1 0x20 ADD SWAP1 DUP2 MSTORE PUSH1 0x20 ADD PUSH0 KECCAK256 SWAP1 POP PUSH0 PUSH1 0x3 DUP2 GT ISZERO PUSH2 0x1089 JUMPI PUSH2 0x1088 PUSH2 0x1D72 JUMP JUMPDEST JUMPDEST DUP2 PUSH1 0x8 ADD PUSH0 SWAP1 SLOAD SWAP1 PUSH2 0x100 EXP SWAP1 DIV PUSH1 0xFF AND PUSH1 0x3 DUP2 GT ISZERO PUSH2 0x10AC JUMPI PUSH2 0x10AB PUSH2 0x1D72 JUMP JUMPDEST JUMPDEST EQ PUSH2 0x10EC JUMPI PUSH1 0x40 MLOAD PUSH32 0x8C379A000000000000000000000000000000000000000000000000000000000 DUP2 MSTORE PUSH1 0x4 ADD PUSH2 0x10E3 SWAP1 PUSH2 0x2632 JUMP JUMPDEST PUSH1 0x40 MLOAD DUP1 SWAP2 SUB SWAP1 REVERT JUMPDEST DUP1 PUSH0 ADD PUSH0 SWAP1 SLOAD SWAP1 PUSH2 0x100 EXP SWAP1 DIV PUSH20 0xFFFFFFFFFFFFFFFFFFFFFFFFFFFFFFFFFFFFFFFF AND PUSH20 0xFFFFFFFFFFFFFFFFFFFFFFFFFFFFFFFFFFFFFFFF AND CALLER PUSH20 0xFFFFFFFFFFFFFFFFFFFFFFFFFFFFFFFFFFFFFFFF AND SUB PUSH2 0x114F JUMPI DUP3 DUP2 PUSH1 0x2 ADD DUP2 SWAP1 SSTORE POP PUSH2 0x1159 JUMP JUMPDEST DUP3 DUP2 PUSH1 0x3 ADD DUP2 SWAP1 SSTORE POP JUMPDEST PUSH0 DUP1 SHL DUP2 PUSH1 0x2 ADD SLOAD EQ ISZERO DUP1 ISZERO PUSH2 0x1175 JUMPI POP PUSH0 DUP1 SHL DUP2 PUSH1 0x3 ADD SLOAD EQ ISZERO JUMPDEST ISZERO PUSH2 0x11A7 JUMPI PUSH1 0x1 DUP2 PUSH1 0x8 ADD PUSH0 PUSH2 0x100 EXP DUP2 SLOAD DUP2 PUSH1 0xFF MUL NOT AND SWAP1 DUP4 PUSH1 0x3 DUP2 GT ISZERO PUSH2 0x11A1 JUMPI PUSH2 0x11A0 PUSH2 0x1D72 JUMP JUMPDEST JUMPDEST MUL OR SWAP1 SSTORE POP JUMPDEST POP POP POP POP JUMP JUMPDEST PUSH1 0xF DUP2 JUMP JUMPDEST PUSH1 0x1 PUSH1 0x20 MSTORE DUP1 PUSH0 MSTORE PUSH1 0x40 PUSH0 KECCAK256 PUSH0 SWAP2 POP SWAP1 POP DUP1 PUSH0 ADD SLOAD SWAP1 DUP1 PUSH1 0x1 ADD SLOAD SWAP1 DUP1 PUSH1 0x2 ADD PUSH0 SWAP1 SLOAD SWAP1 PUSH2 0x100 EXP SWAP1 DIV PUSH1 0xFF AND SWAP1 POP DUP4 JUMP JUMPDEST DUP3 PUSH0 DUP1 DUP3 DUP2 MSTORE PUSH1 0x20 ADD SWAP1 DUP2 MSTORE PUSH1 0x20 ADD PUSH0 KECCAK256 PUSH0 ADD PUSH0 SWAP1 SLOAD SWAP1 PUSH2 0x100 EXP SWAP1 DIV PUSH20 0xFFFFFFFFFFFFFFFFFFFFFFFFFFFFFFFFFFFFFFFF AND PUSH20 0xFFFFFFFFFFFFFFFFFFFFFFFFFFFFFFFFFFFFFFFF AND CALLER PUSH20 0xFFFFFFFFFFFFFFFFFFFFFFFFFFFFFFFFFFFFFFFF AND EQ DUP1 PUSH2 0x12AD JUMPI POP PUSH0 DUP1 DUP3 DUP2 MSTORE PUSH1 0x20 ADD SWAP1 DUP2 MSTORE PUSH1 0x20 ADD PUSH0 KECCAK256 PUSH1 0x1 ADD PUSH0 SWAP1 SLOAD SWAP1 PUSH2 0x100 EXP SWAP1 DIV PUSH20 0xFFFFFFFFFFFFFFFFFFFFFFFFFFFFFFFFFFFFFFFF AND PUSH20 0xFFFFFFFFFFFFFFFFFFFFFFFFFFFFFFFFFFFFFFFF AND CALLER PUSH20 0xFFFFFFFFFFFFFFFFFFFFFFFFFFFFFFFFFFFFFFFF AND EQ JUMPDEST PUSH2 0x12EC JUMPI PUSH1 0x40 MLOAD PUSH32 0x8C379A000000000000000000000000000000000000000000000000000000000 DUP2 MSTORE PUSH1 0x4 ADD PUSH2 0x12E3 SWAP1 PUSH2 0x25CA JUMP JUMPDEST PUSH1 0x40 MLOAD DUP1 SWAP2 SUB SWAP1 REVERT JUMPDEST PUSH0 DUP1 PUSH0 DUP7 DUP2 MSTORE PUSH1 0x20 ADD SWAP1 DUP2 MSTORE PUSH1 0x20 ADD PUSH0 KECCAK256 SWAP1 POP PUSH1 0x1 PUSH1 0x3 DUP2 GT ISZERO PUSH2 0x1313 JUMPI PUSH2 0x1312 PUSH2 0x1D72 JUMP JUMPDEST JUMPDEST DUP2 PUSH1 0x8 ADD PUSH0 SWAP1 SLOAD SWAP1 PUSH2 0x100 EXP SWAP1 DIV PUSH1 0xFF AND PUSH1 0x3 DUP2 GT ISZERO PUSH2 0x1336 JUMPI PUSH2 0x1335 PUSH2 0x1D72 JUMP JUMPDEST JUMPDEST EQ PUSH2 0x1376 JUMPI PUSH1 0x40 MLOAD PUSH32 0x8C379A000000000000000000000000000000000000000000000000000000000 DUP2 MSTORE PUSH1 0x4 ADD PUSH2 0x136D SWAP1 PUSH2 0x269A JUMP JUMPDEST PUSH1 0x40 MLOAD DUP1 SWAP2 SUB SWAP1 REVERT JUMPDEST DUP1 PUSH1 0xC ADD SLOAD TIMESTAMP GT ISZERO PUSH2 0x13BD JUMPI PUSH1 0x40 MLOAD PUSH32 0x8C379A000000000000000000000000000000000000000000000000000000000 DUP2 MSTORE PUSH1 0x4 ADD PUSH2 0x13B4 SWAP1 PUSH2 0x2702 JUMP JUMPDEST PUSH1 0x40 MLOAD DUP1 SWAP2 SUB SWAP1 REVERT JUMPDEST PUSH0 DUP5 PUSH1 0x40 MLOAD PUSH1 0x20 ADD PUSH2 0x13CF SWAP2 SWAP1 PUSH2 0x2794 JUMP JUMPDEST PUSH1 0x40 MLOAD PUSH1 0x20 DUP2 DUP4 SUB SUB DUP2 MSTORE SWAP1 PUSH1 0x40 MSTORE DUP1 MLOAD SWAP1 PUSH1 0x20 ADD KECCAK256 SWAP1 POP DUP2 PUSH0 ADD PUSH0 SWAP1 SLOAD SWAP1 PUSH2 0x100 EXP SWAP1 DIV PUSH20 0xFFFFFFFFFFFFFFFFFFFFFFFFFFFFFFFFFFFFFFFF AND PUSH20 0xFFFFFFFFFFFFFFFFFFFFFFFFFFFFFFFFFFFFFFFF AND CALLER PUSH20 0xFFFFFFFFFFFFFFFFFFFFFFFFFFFFFFFFFFFFFFFF AND SUB PUSH2 0x14A2 JUMPI DUP2 PUSH1 0x2 ADD SLOAD DUP2 EQ PUSH2 0x1482 JUMPI PUSH1 0x40 MLOAD PUSH32 0x8C379A000000000000000000000000000000000000000000000000000000000 DUP2 MSTORE PUSH1 0x4 ADD PUSH2 0x1479 SWAP1 PUSH2 0x2803 JUMP JUMPDEST PUSH1 0x40 MLOAD DUP1 SWAP2 SUB SWAP1 REVERT JUMPDEST DUP4 DUP3 PUSH1 0x4 ADD SWAP1 DUP2 PUSH2 0x1493 SWAP2 SWAP1 PUSH2 0x29BE JUMP JUMPDEST POP DUP5 DUP3 PUSH1 0x6 ADD DUP2 SWAP1 SSTORE POP PUSH2 0x1504 JUMP JUMPDEST DUP2 PUSH1 0x3 ADD SLOAD DUP2 EQ PUSH2 0x14E8 JUMPI PUSH1 0x40 MLOAD PUSH32 0x8C379A000000000000000000000000000000000000000000000000000000000 DUP2 MSTORE PUSH1 0x4 ADD PUSH2 0x14DF SWAP1 PUSH2 0x2803 JUMP JUMPDEST PUSH1 0x40 MLOAD DUP1 SWAP2 SUB SWAP1 REVERT JUMPDEST DUP4 DUP3 PUSH1 0x5 ADD SWAP1 DUP2 PUSH2 0x14F9 SWAP2 SWAP1 PUSH2 0x29BE JUMP JUMPDEST POP DUP5 DUP3 PUSH1 0x7 ADD DUP2 SWAP1 SSTORE POP JUMPDEST DUP6 PUSH32 0x493474653EA5446B10D9BD9AED1854DE71A1AF7E2EEA8FC3065EF63FBEFDA9E2 CALLER PUSH1 0x40 MLOAD PUSH2 0x1534 SWAP2 SWAP1 PUSH2 0x2A8D JUMP JUMPDEST PUSH1 0x40 MLOAD DUP1 SWAP2 SUB SWAP1 LOG2 PUSH0 DUP1 SHL DUP3 PUSH1 0x6 ADD SLOAD EQ ISZERO DUP1 ISZERO PUSH2 0x1558 JUMPI POP PUSH0 DUP1 SHL DUP3 PUSH1 0x7 ADD SLOAD EQ ISZERO JUMPDEST ISZERO PUSH2 0x1620 JUMPI DUP2 PUSH1 0x5 ADD PUSH1 0x40 MLOAD PUSH1 0x20 ADD PUSH2 0x1571 SWAP2 SWAP1 PUSH2 0x2B26 JUMP JUMPDEST PUSH1 0x40 MLOAD PUSH1 0x20 DUP2 DUP4 SUB SUB DUP2 MSTORE SWAP1 PUSH1 0x40 MSTORE DUP1 MLOAD SWAP1 PUSH1 0x20 ADD KECCAK256 DUP3 PUSH1 0x4 ADD PUSH1 0x40 MLOAD PUSH1 0x20 ADD PUSH2 0x159B SWAP2 SWAP1 PUSH2 0x2B26 JUMP JUMPDEST PUSH1 0x40 MLOAD PUSH1 0x20 DUP2 DUP4 SUB SUB DUP2 MSTORE SWAP1 PUSH1 0x40 MSTORE DUP1 MLOAD SWAP1 PUSH1 0x20 ADD KECCAK256 SUB PUSH2 0x15C5 JUMPI PUSH2 0x15C0 DUP7 CALLER PUSH2 0x1971 JUMP JUMPDEST PUSH2 0x161F JUMP JUMPDEST PUSH1 0x2 DUP3 PUSH1 0x8 ADD PUSH0 PUSH2 0x100 EXP DUP2 SLOAD DUP2 PUSH1 0xFF MUL NOT AND SWAP1 DUP4 PUSH1 0x3 DUP2 GT ISZERO PUSH2 0x15EC JUMPI PUSH2 0x15EB PUSH2 0x1D72 JUMP JUMPDEST JUMPDEST MUL OR SWAP1 SSTORE POP DUP6 PUSH32 0x116F6B179359DB1A58A963FC783EE184E7844ABA306A3C2CE02DE3D7391D17C3 PUSH1 0x40 MLOAD PUSH1 0x40 MLOAD DUP1 SWAP2 SUB SWAP1 LOG2 JUMPDEST JUMPDEST POP POP POP POP POP POP JUMP JUMPDEST PUSH0 DUP1 PUSH0 DUP5 DUP2 MSTORE PUSH1 0x20 ADD SWAP1 DUP2 MSTORE PUSH1 0x20 ADD PUSH0 KECCAK256 SWAP1 POP PUSH1 0x3 DUP2 PUSH1 0x8 ADD PUSH0 PUSH2 0x100 EXP DUP2 SLOAD DUP2 PUSH1 0xFF MUL NOT AND SWAP1 DUP4 PUSH1 0x3 DUP2 GT ISZERO PUSH2 0x1662 JUMPI PUSH2 0x1661 PUSH2 0x1D72 JUMP JUMPDEST JUMPDEST MUL OR SWAP1 SSTORE POP PUSH0 DUP2 PUSH0 ADD PUSH0 SWAP1 SLOAD SWAP1 PUSH2 0x100 EXP SWAP1 DIV PUSH20 0xFFFFFFFFFFFFFFFFFFFFFFFFFFFFFFFFFFFFFFFF AND PUSH20 0xFFFFFFFFFFFFFFFFFFFFFFFFFFFFFFFFFFFFFFFF AND DUP4 PUSH20 0xFFFFFFFFFFFFFFFFFFFFFFFFFFFFFFFFFFFFFFFF AND EQ PUSH2 0x16E5 JUMPI DUP2 PUSH0 ADD PUSH0 SWAP1 SLOAD SWAP1 PUSH2 0x100 EXP SWAP1 DIV PUSH20 0xFFFFFFFFFFFFFFFFFFFFFFFFFFFFFFFFFFFFFFFF AND PUSH2 0x170A JUMP JUMPDEST DUP2 PUSH1 0x1 ADD PUSH0 SWAP1 SLOAD SWAP1 PUSH2 0x100 EXP SWAP1 DIV PUSH20 0xFFFFFFFFFFFFFFFFFFFFFFFFFFFFFFFFFFFFFFFF AND JUMPDEST SWAP1 POP PUSH32 0xFFFFFFFFFFFFFFFFFFFFFFFFFFFFFFFFFFFFFFFFFFFFFFFFFFFFFFFFFFFFFFCE PUSH1 0x1 PUSH0 DUP4 PUSH20 0xFFFFFFFFFFFFFFFFFFFFFFFFFFFFFFFFFFFFFFFF AND PUSH20 0xFFFFFFFFFFFFFFFFFFFFFFFFFFFFFFFFFFFFFFFF AND DUP2 MSTORE PUSH1 0x20 ADD SWAP1 DUP2 MSTORE PUSH1 0x20 ADD PUSH0 KECCAK256 PUSH0 ADD PUSH0 DUP3 DUP3 SLOAD PUSH2 0x177A SWAP2 SWAP1 PUSH2 0x2B3C JUMP JUMPDEST SWAP3 POP POP DUP2 SWAP1 SSTORE POP PUSH0 JUMPDEST DUP3 PUSH1 0xA ADD DUP1 SLOAD SWAP1 POP DUP2 LT ISZERO PUSH2 0x18BA JUMPI DUP3 PUSH1 0xA ADD DUP2 DUP2 SLOAD DUP2 LT PUSH2 0x17A8 JUMPI PUSH2 0x17A7 PUSH2 0x245C JUMP JUMPDEST JUMPDEST SWAP1 PUSH0 MSTORE PUSH1 0x20 PUSH0 KECCAK256 ADD PUSH0 SWAP1 SLOAD SWAP1 PUSH2 0x100 EXP SWAP1 DIV PUSH20 0xFFFFFFFFFFFFFFFFFFFFFFFFFFFFFFFFFFFFFFFF AND PUSH20 0xFFFFFFFFFFFFFFFFFFFFFFFFFFFFFFFFFFFFFFFF AND PUSH2 0x8FC PUSH7 0xB1A2BC2EC50000 SWAP1 DUP2 ISZERO MUL SWAP1 PUSH1 0x40 MLOAD PUSH0 PUSH1 0x40 MLOAD DUP1 DUP4 SUB DUP2 DUP6 DUP9 DUP9 CALL SWAP4 POP POP POP POP ISZERO DUP1 ISZERO PUSH2 0x1819 JUMPI RETURNDATASIZE PUSH0 DUP1 RETURNDATACOPY RETURNDATASIZE PUSH0 REVERT JUMPDEST POP PUSH1 0x5 PUSH1 0x1 PUSH0 DUP6 PUSH1 0xA ADD DUP5 DUP2 SLOAD DUP2 LT PUSH2 0x1835 JUMPI PUSH2 0x1834 PUSH2 0x245C JUMP JUMPDEST JUMPDEST SWAP1 PUSH0 MSTORE PUSH1 0x20 PUSH0 KECCAK256 ADD PUSH0 SWAP1 SLOAD SWAP1 PUSH2 0x100 EXP SWAP1 DIV PUSH20 0xFFFFFFFFFFFFFFFFFFFFFFFFFFFFFFFFFFFFFFFF AND PUSH20 0xFFFFFFFFFFFFFFFFFFFFFFFFFFFFFFFFFFFFFFFF AND PUSH20 0xFFFFFFFFFFFFFFFFFFFFFFFFFFFFFFFFFFFFFFFF AND DUP2 MSTORE PUSH1 0x20 ADD SWAP1 DUP2 MSTORE PUSH1 0x20 ADD PUSH0 KECCAK256 PUSH0 ADD PUSH0 DUP3 DUP3 SLOAD PUSH2 0x18A6 SWAP2 SWAP1 PUSH2 0x2B3C JUMP JUMPDEST SWAP3 POP POP DUP2 SWAP1 SSTORE POP DUP1 DUP1 PUSH1 0x1 ADD SWAP2 POP POP PUSH2 0x1783 JUMP JUMPDEST POP DUP3 PUSH20 0xFFFFFFFFFFFFFFFFFFFFFFFFFFFFFFFFFFFFFFFF AND PUSH2 0x8FC DUP4 PUSH1 0xA ADD DUP1 SLOAD SWAP1 POP PUSH7 0xB1A2BC2EC50000 PUSH2 0x18EF SWAP2 SWAP1 PUSH2 0x2B7D JUMP JUMPDEST PUSH1 0x2 DUP6 PUSH1 0x9 ADD SLOAD PUSH2 0x1900 SWAP2 SWAP1 PUSH2 0x2B7D JUMP JUMPDEST PUSH2 0x190A SWAP2 SWAP1 PUSH2 0x2BBE JUMP JUMPDEST SWAP1 DUP2 ISZERO MUL SWAP1 PUSH1 0x40 MLOAD PUSH0 PUSH1 0x40 MLOAD DUP1 DUP4 SUB DUP2 DUP6 DUP9 DUP9 CALL SWAP4 POP POP POP POP ISZERO DUP1 ISZERO PUSH2 0x1932 JUMPI RETURNDATASIZE PUSH0 DUP1 RETURNDATACOPY RETURNDATASIZE PUSH0 REVERT JUMPDEST POP DUP4 PUSH32 0x1C560E9F349CD346794F9D534FB852628D58CC7A726D0ADB57820FAE0A50CD47 DUP5 PUSH1 0x40 MLOAD PUSH2 0x1963 SWAP2 SWAP1 PUSH2 0x2A8D JUMP JUMPDEST PUSH1 0x40 MLOAD DUP1 SWAP2 SUB SWAP1 LOG2 POP POP POP POP JUMP JUMPDEST PUSH0 DUP1 PUSH0 DUP5 DUP2 MSTORE PUSH1 0x20 ADD SWAP1 DUP2 MSTORE PUSH1 0x20 ADD PUSH0 KECCAK256 SWAP1 POP PUSH1 0x3 DUP2 PUSH1 0x8 ADD PUSH0 PUSH2 0x100 EXP DUP2 SLOAD DUP2 PUSH1 0xFF MUL NOT AND SWAP1 DUP4 PUSH1 0x3 DUP2 GT ISZERO PUSH2 0x19AB JUMPI PUSH2 0x19AA PUSH2 0x1D72 JUMP JUMPDEST JUMPDEST MUL OR SWAP1 SSTORE POP PUSH1 0xF PUSH1 0x1 PUSH0 DUP5 PUSH20 0xFFFFFFFFFFFFFFFFFFFFFFFFFFFFFFFFFFFFFFFF AND PUSH20 0xFFFFFFFFFFFFFFFFFFFFFFFFFFFFFFFFFFFFFFFF AND DUP2 MSTORE PUSH1 0x20 ADD SWAP1 DUP2 MSTORE PUSH1 0x20 ADD PUSH0 KECCAK256 PUSH0 ADD PUSH0 DUP3 DUP3 SLOAD PUSH2 0x19FF SWAP2 SWAP1 PUSH2 0x2B3C JUMP JUMPDEST SWAP3 POP POP DUP2 SWAP1 SSTORE POP PUSH1 0xA PUSH1 0x1 PUSH0 DUP4 PUSH0 ADD PUSH0 SWAP1 SLOAD SWAP1 PUSH2 0x100 EXP SWAP1 DIV PUSH20 0xFFFFFFFFFFFFFFFFFFFFFFFFFFFFFFFFFFFFFFFF AND PUSH20 0xFFFFFFFFFFFFFFFFFFFFFFFFFFFFFFFFFFFFFFFF AND DUP6 PUSH20 0xFFFFFFFFFFFFFFFFFFFFFFFFFFFFFFFFFFFFFFFF AND EQ PUSH2 0x1A88 JUMPI DUP4 PUSH0 ADD PUSH0 SWAP1 SLOAD SWAP1 PUSH2 0x100 EXP SWAP1 DIV PUSH20 0xFFFFFFFFFFFFFFFFFFFFFFFFFFFFFFFFFFFFFFFF AND PUSH2 0x1AAD JUMP JUMPDEST DUP4 PUSH1 0x1 ADD PUSH0 SWAP1 SLOAD SWAP1 PUSH2 0x100 EXP SWAP1 DIV PUSH20 0xFFFFFFFFFFFFFFFFFFFFFFFFFFFFFFFFFFFFFFFF AND JUMPDEST PUSH20 0xFFFFFFFFFFFFFFFFFFFFFFFFFFFFFFFFFFFFFFFF AND PUSH20 0xFFFFFFFFFFFFFFFFFFFFFFFFFFFFFFFFFFFFFFFF AND DUP2 MSTORE PUSH1 0x20 ADD SWAP1 DUP2 MSTORE PUSH1 0x20 ADD PUSH0 KECCAK256 PUSH0 ADD PUSH0 DUP3 DUP3 SLOAD PUSH2 0x1AF6 SWAP2 SWAP1 PUSH2 0x2B3C JUMP JUMPDEST SWAP3 POP POP DUP2 SWAP1 SSTORE POP DUP2 PUSH20 0xFFFFFFFFFFFFFFFFFFFFFFFFFFFFFFFFFFFFFFFF AND PUSH2 0x8FC PUSH1 0x2 DUP4 PUSH1 0x9 ADD SLOAD PUSH2 0x1B28 SWAP2 SWAP1 PUSH2 0x2B7D JUMP JUMPDEST SWAP1 DUP2 ISZERO MUL SWAP1 PUSH1 0x40 MLOAD PUSH0 PUSH1 0x40 MLOAD DUP1 DUP4 SUB DUP2 DUP6 DUP9 DUP9 CALL SWAP4 POP POP POP POP ISZERO DUP1 ISZERO PUSH2 0x1B50 JUMPI RETURNDATASIZE PUSH0 DUP1 RETURNDATACOPY RETURNDATASIZE PUSH0 REVERT JUMPDEST POP DUP3 PUSH32 0x1C560E9F349CD346794F9D534FB852628D58CC7A726D0ADB57820FAE0A50CD47 DUP4 PUSH1 0x40 MLOAD PUSH2 0x1B81 SWAP2 SWAP1 PUSH2 0x2A8D JUMP JUMPDEST PUSH1 0x40 MLOAD DUP1 SWAP2 SUB SWAP1 LOG2 POP POP POP JUMP JUMPDEST PUSH0 DUP2 SWAP1 POP SWAP2 SWAP1 POP JUMP JUMPDEST PUSH2 0x1BA0 DUP2 PUSH2 0x1B8E JUMP JUMPDEST DUP3 MSTORE POP POP JUMP JUMPDEST PUSH0 PUSH1 0x20 DUP3 ADD SWAP1 POP PUSH2 0x1BB9 PUSH0 DUP4 ADD DUP5 PUSH2 0x1B97 JUMP JUMPDEST SWAP3 SWAP2 POP POP JUMP JUMPDEST PUSH0 DUP2 SWAP1 POP SWAP2 SWAP1 POP JUMP JUMPDEST PUSH2 0x1BD1 DUP2 PUSH2 0x1BBF JUMP JUMPDEST DUP3 MSTORE POP POP JUMP JUMPDEST PUSH0 PUSH1 0x20 DUP3 ADD SWAP1 POP PUSH2 0x1BEA PUSH0 DUP4 ADD DUP5 PUSH2 0x1BC8 JUMP JUMPDEST SWAP3 SWAP2 POP POP JUMP JUMPDEST PUSH0 PUSH1 0x40 MLOAD SWAP1 POP SWAP1 JUMP JUMPDEST PUSH0 DUP1 REVERT JUMPDEST PUSH0 DUP1 REVERT JUMPDEST PUSH0 PUSH20 0xFFFFFFFFFFFFFFFFFFFFFFFFFFFFFFFFFFFFFFFF DUP3 AND SWAP1 POP SWAP2 SWAP1 POP JUMP JUMPDEST PUSH0 PUSH2 0x1C2A DUP3 PUSH2 0x1C01 JUMP JUMPDEST SWAP1 POP SWAP2 SWAP1 POP JUMP JUMPDEST PUSH2 0x1C3A DUP2 PUSH2 0x1C20 JUMP JUMPDEST DUP2 EQ PUSH2 0x1C44 JUMPI PUSH0 DUP1 REVERT JUMPDEST POP JUMP JUMPDEST PUSH0 DUP2 CALLDATALOAD SWAP1 POP PUSH2 0x1C55 DUP2 PUSH2 0x1C31 JUMP JUMPDEST SWAP3 SWAP2 POP POP JUMP JUMPDEST PUSH0 PUSH1 0x20 DUP3 DUP5 SUB SLT ISZERO PUSH2 0x1C70 JUMPI PUSH2 0x1C6F PUSH2 0x1BF9 JUMP JUMPDEST JUMPDEST PUSH0 PUSH2 0x1C7D DUP5 DUP3 DUP6 ADD PUSH2 0x1C47 JUMP JUMPDEST SWAP2 POP POP SWAP3 SWAP2 POP POP JUMP JUMPDEST PUSH2 0x1C8F DUP2 PUSH2 0x1B8E JUMP JUMPDEST DUP2 EQ PUSH2 0x1C99 JUMPI PUSH0 DUP1 REVERT JUMPDEST POP JUMP JUMPDEST PUSH0 DUP2 CALLDATALOAD SWAP1 POP PUSH2 0x1CAA DUP2 PUSH2 0x1C86 JUMP JUMPDEST SWAP3 SWAP2 POP POP JUMP JUMPDEST PUSH0 PUSH1 0x20 DUP3 DUP5 SUB SLT ISZERO PUSH2 0x1CC5 JUMPI PUSH2 0x1CC4 PUSH2 0x1BF9 JUMP JUMPDEST JUMPDEST PUSH0 PUSH2 0x1CD2 DUP5 DUP3 DUP6 ADD PUSH2 0x1C9C JUMP JUMPDEST SWAP2 POP POP SWAP3 SWAP2 POP POP JUMP JUMPDEST PUSH2 0x1CE4 DUP2 PUSH2 0x1C20 JUMP JUMPDEST DUP3 MSTORE POP POP JUMP JUMPDEST PUSH0 DUP2 SWAP1 POP SWAP2 SWAP1 POP JUMP JUMPDEST PUSH2 0x1CFC DUP2 PUSH2 0x1CEA JUMP JUMPDEST DUP3 MSTORE POP POP JUMP JUMPDEST PUSH0 DUP2 MLOAD SWAP1 POP SWAP2 SWAP1 POP JUMP JUMPDEST PUSH0 DUP3 DUP3 MSTORE PUSH1 0x20 DUP3 ADD SWAP1 POP SWAP3 SWAP2 POP POP JUMP JUMPDEST DUP3 DUP2 DUP4 MCOPY PUSH0 DUP4 DUP4 ADD MSTORE POP POP POP JUMP JUMPDEST PUSH0 PUSH1 0x1F NOT PUSH1 0x1F DUP4 ADD AND SWAP1 POP SWAP2 SWAP1 POP JUMP JUMPDEST PUSH0 PUSH2 0x1D44 DUP3 PUSH2 0x1D02 JUMP JUMPDEST PUSH2 0x1D4E DUP2 DUP6 PUSH2 0x1D0C JUMP JUMPDEST SWAP4 POP PUSH2 0x1D5E DUP2 DUP6 PUSH1 0x20 DUP7 ADD PUSH2 0x1D1C JUMP JUMPDEST PUSH2 0x1D67 DUP2 PUSH2 0x1D2A JUMP JUMPDEST DUP5 ADD SWAP2 POP POP SWAP3 SWAP2 POP POP JUMP JUMPDEST PUSH32 0x4E487B7100000000000000000000000000000000000000000000000000000000 PUSH0 MSTORE PUSH1 0x21 PUSH1 0x4 MSTORE PUSH1 0x24 PUSH0 REVERT JUMPDEST PUSH1 0x4 DUP2 LT PUSH2 0x1DB0 JUMPI PUSH2 0x1DAF PUSH2 0x1D72 JUMP JUMPDEST JUMPDEST POP JUMP JUMPDEST PUSH0 DUP2 SWAP1 POP PUSH2 0x1DC0 DUP3 PUSH2 0x1D9F JUMP JUMPDEST SWAP2 SWAP1 POP JUMP JUMPDEST PUSH0 PUSH2 0x1DCF DUP3 PUSH2 0x1DB3 JUMP JUMPDEST SWAP1 POP SWAP2 SWAP1 POP JUMP JUMPDEST PUSH2 0x1DDF DUP2 PUSH2 0x1DC5 JUMP JUMPDEST DUP3 MSTORE POP POP JUMP JUMPDEST PUSH0 PUSH2 0x160 DUP3 ADD SWAP1 POP PUSH2 0x1DF9 PUSH0 DUP4 ADD DUP15 PUSH2 0x1CDB JUMP JUMPDEST PUSH2 0x1E06 PUSH1 0x20 DUP4 ADD DUP14 PUSH2 0x1CDB JUMP JUMPDEST PUSH2 0x1E13 PUSH1 0x40 DUP4 ADD DUP13 PUSH2 0x1CF3 JUMP JUMPDEST PUSH2 0x1E20 PUSH1 0x60 DUP4 ADD DUP12 PUSH2 0x1CF3 JUMP JUMPDEST DUP2 DUP2 SUB PUSH1 0x80 DUP4 ADD MSTORE PUSH2 0x1E32 DUP2 DUP11 PUSH2 0x1D3A JUMP JUMPDEST SWAP1 POP DUP2 DUP2 SUB PUSH1 0xA0 DUP4 ADD MSTORE PUSH2 0x1E46 DUP2 DUP10 PUSH2 0x1D3A JUMP JUMPDEST SWAP1 POP PUSH2 0x1E55 PUSH1 0xC0 DUP4 ADD DUP9 PUSH2 0x1CF3 JUMP JUMPDEST PUSH2 0x1E62 PUSH1 0xE0 DUP4 ADD DUP8 PUSH2 0x1CF3 JUMP JUMPDEST PUSH2 0x1E70 PUSH2 0x100 DUP4 ADD DUP7 PUSH2 0x1DD6 JUMP JUMPDEST PUSH2 0x1E7E PUSH2 0x120 DUP4 ADD DUP6 PUSH2 0x1B97 JUMP JUMPDEST PUSH2 0x1E8C PUSH2 0x140 DUP4 ADD DUP5 PUSH2 0x1B97 JUMP JUMPDEST SWAP13 SWAP12 POP POP POP POP POP POP POP POP POP POP POP POP JUMP JUMPDEST PUSH0 DUP1 PUSH1 0x40 DUP4 DUP6 SUB SLT ISZERO PUSH2 0x1EB2 JUMPI PUSH2 0x1EB1 PUSH2 0x1BF9 JUMP JUMPDEST JUMPDEST PUSH0 PUSH2 0x1EBF DUP6 DUP3 DUP7 ADD PUSH2 0x1C9C JUMP JUMPDEST SWAP3 POP POP PUSH1 0x20 PUSH2 0x1ED0 DUP6 DUP3 DUP7 ADD PUSH2 0x1C9C JUMP JUMPDEST SWAP2 POP POP SWAP3 POP SWAP3 SWAP1 POP JUMP JUMPDEST PUSH2 0x1EE3 DUP2 PUSH2 0x1CEA JUMP JUMPDEST DUP2 EQ PUSH2 0x1EED JUMPI PUSH0 DUP1 REVERT JUMPDEST POP JUMP JUMPDEST PUSH0 DUP2 CALLDATALOAD SWAP1 POP PUSH2 0x1EFE DUP2 PUSH2 0x1EDA JUMP JUMPDEST SWAP3 SWAP2 POP POP JUMP JUMPDEST PUSH0 DUP1 PUSH1 0x40 DUP4 DUP6 SUB SLT ISZERO PUSH2 0x1F1A JUMPI PUSH2 0x1F19 PUSH2 0x1BF9 JUMP JUMPDEST JUMPDEST PUSH0 PUSH2 0x1F27 DUP6 DUP3 DUP7 ADD PUSH2 0x1C9C JUMP JUMPDEST SWAP3 POP POP PUSH1 0x20 PUSH2 0x1F38 DUP6 DUP3 DUP7 ADD PUSH2 0x1EF0 JUMP JUMPDEST SWAP2 POP POP SWAP3 POP SWAP3 SWAP1 POP JUMP JUMPDEST PUSH0 DUP2 ISZERO ISZERO SWAP1 POP SWAP2 SWAP1 POP JUMP JUMPDEST PUSH2 0x1F56 DUP2 PUSH2 0x1F42 JUMP JUMPDEST DUP3 MSTORE POP POP JUMP JUMPDEST PUSH0 PUSH1 0x60 DUP3 ADD SWAP1 POP PUSH2 0x1F6F PUSH0 DUP4 ADD DUP7 PUSH2 0x1BC8 JUMP JUMPDEST PUSH2 0x1F7C PUSH1 0x20 DUP4 ADD DUP6 PUSH2 0x1B97 JUMP JUMPDEST PUSH2 0x1F89 PUSH1 0x40 DUP4 ADD DUP5 PUSH2 0x1F4D JUMP JUMPDEST SWAP5 SWAP4 POP POP POP POP JUMP JUMPDEST PUSH0 DUP1 REVERT JUMPDEST PUSH0 DUP1 REVERT JUMPDEST PUSH32 0x4E487B7100000000000000000000000000000000000000000000000000000000 PUSH0 MSTORE PUSH1 0x41 PUSH1 0x4 MSTORE PUSH1 0x24 PUSH0 REVERT JUMPDEST PUSH2 0x1FCF DUP3 PUSH2 0x1D2A JUMP JUMPDEST DUP2 ADD DUP2 DUP2 LT PUSH8 0xFFFFFFFFFFFFFFFF DUP3 GT OR ISZERO PUSH2 0x1FEE JUMPI PUSH2 0x1FED PUSH2 0x1F99 JUMP JUMPDEST JUMPDEST DUP1 PUSH1 0x40 MSTORE POP POP POP JUMP JUMPDEST PUSH0 PUSH2 0x2000 PUSH2 0x1BF0 JUMP JUMPDEST SWAP1 POP PUSH2 0x200C DUP3 DUP3 PUSH2 0x1FC6 JUMP JUMPDEST SWAP2 SWAP1 POP JUMP JUMPDEST PUSH0 PUSH8 0xFFFFFFFFFFFFFFFF DUP3 GT ISZERO PUSH2 0x202B JUMPI PUSH2 0x202A PUSH2 0x1F99 JUMP JUMPDEST JUMPDEST PUSH2 0x2034 DUP3 PUSH2 0x1D2A JUMP JUMPDEST SWAP1 POP PUSH1 0x20 DUP2 ADD SWAP1 POP SWAP2 SWAP1 POP JUMP JUMPDEST DUP3 DUP2 DUP4 CALLDATACOPY PUSH0 DUP4 DUP4 ADD MSTORE POP POP POP JUMP JUMPDEST PUSH0 PUSH2 0x2061 PUSH2 0x205C DUP5 PUSH2 0x2011 JUMP JUMPDEST PUSH2 0x1FF7 JUMP JUMPDEST SWAP1 POP DUP3 DUP2 MSTORE PUSH1 0x20 DUP2 ADD DUP5 DUP5 DUP5 ADD GT ISZERO PUSH2 0x207D JUMPI PUSH2 0x207C PUSH2 0x1F95 JUMP JUMPDEST JUMPDEST PUSH2 0x2088 DUP5 DUP3 DUP6 PUSH2 0x2041 JUMP JUMPDEST POP SWAP4 SWAP3 POP POP POP JUMP JUMPDEST PUSH0 DUP3 PUSH1 0x1F DUP4 ADD SLT PUSH2 0x20A4 JUMPI PUSH2 0x20A3 PUSH2 0x1F91 JUMP JUMPDEST JUMPDEST DUP2 CALLDATALOAD PUSH2 0x20B4 DUP5 DUP3 PUSH1 0x20 DUP7 ADD PUSH2 0x204F JUMP JUMPDEST SWAP2 POP POP SWAP3 SWAP2 POP POP JUMP JUMPDEST PUSH0 DUP1 PUSH0 PUSH1 0x60 DUP5 DUP7 SUB SLT ISZERO PUSH2 0x20D4 JUMPI PUSH2 0x20D3 PUSH2 0x1BF9 JUMP JUMPDEST JUMPDEST PUSH0 PUSH2 0x20E1 DUP7 DUP3 DUP8 ADD PUSH2 0x1C9C JUMP JUMPDEST SWAP4 POP POP PUSH1 0x20 PUSH2 0x20F2 DUP7 DUP3 DUP8 ADD PUSH2 0x1EF0 JUMP JUMPDEST SWAP3 POP POP PUSH1 0x40 DUP5 ADD CALLDATALOAD PUSH8 0xFFFFFFFFFFFFFFFF DUP2 GT ISZERO PUSH2 0x2113 JUMPI PUSH2 0x2112 PUSH2 0x1BFD JUMP JUMPDEST JUMPDEST PUSH2 0x211F DUP7 DUP3 DUP8 ADD PUSH2 0x2090 JUMP JUMPDEST SWAP2 POP POP SWAP3 POP SWAP3 POP SWAP3 JUMP JUMPDEST PUSH32 0x596F75206172652062616E6E6564000000000000000000000000000000000000 PUSH0 DUP3 ADD MSTORE POP JUMP JUMPDEST PUSH0 PUSH2 0x215D PUSH1 0xE DUP4 PUSH2 0x1D0C JUMP JUMPDEST SWAP2 POP PUSH2 0x2168 DUP3 PUSH2 0x2129 JUMP JUMPDEST PUSH1 0x20 DUP3 ADD SWAP1 POP SWAP2 SWAP1 POP JUMP JUMPDEST PUSH0 PUSH1 0x20 DUP3 ADD SWAP1 POP DUP2 DUP2 SUB PUSH0 DUP4 ADD MSTORE PUSH2 0x218A DUP2 PUSH2 0x2151 JUMP JUMPDEST SWAP1 POP SWAP2 SWAP1 POP JUMP JUMPDEST PUSH32 0x496E636F7272656374206A757279207374616B65000000000000000000000000 PUSH0 DUP3 ADD MSTORE POP JUMP JUMPDEST PUSH0 PUSH2 0x21C5 PUSH1 0x14 DUP4 PUSH2 0x1D0C JUMP JUMPDEST SWAP2 POP PUSH2 0x21D0 DUP3 PUSH2 0x2191 JUMP JUMPDEST PUSH1 0x20 DUP3 ADD SWAP1 POP SWAP2 SWAP1 POP JUMP JUMPDEST PUSH0 PUSH1 0x20 DUP3 ADD SWAP1 POP DUP2 DUP2 SUB PUSH0 DUP4 ADD MSTORE PUSH2 0x21F2 DUP2 PUSH2 0x21B9 JUMP JUMPDEST SWAP1 POP SWAP2 SWAP1 POP JUMP JUMPDEST PUSH32 0x4E6F206163746976652064697370757465000000000000000000000000000000 PUSH0 DUP3 ADD MSTORE POP JUMP JUMPDEST PUSH0 PUSH2 0x222D PUSH1 0x11 DUP4 PUSH2 0x1D0C JUMP JUMPDEST SWAP2 POP PUSH2 0x2238 DUP3 PUSH2 0x21F9 JUMP JUMPDEST PUSH1 0x20 DUP3 ADD SWAP1 POP SWAP2 SWAP1 POP JUMP JUMPDEST PUSH0 PUSH1 0x20 DUP3 ADD SWAP1 POP DUP2 DUP2 SUB PUSH0 DUP4 ADD MSTORE PUSH2 0x225A DUP2 PUSH2 0x2221 JUMP JUMPDEST SWAP1 POP SWAP2 SWAP1 POP JUMP JUMPDEST PUSH32 0x4E487B7100000000000000000000000000000000000000000000000000000000 PUSH0 MSTORE PUSH1 0x22 PUSH1 0x4 MSTORE PUSH1 0x24 PUSH0 REVERT JUMPDEST PUSH0 PUSH1 0x2 DUP3 DIV SWAP1 POP PUSH1 0x1 DUP3 AND DUP1 PUSH2 0x22A5 JUMPI PUSH1 0x7F DUP3 AND SWAP2 POP JUMPDEST PUSH1 0x20 DUP3 LT DUP2 SUB PUSH2 0x22B8 JUMPI PUSH2 0x22B7 PUSH2 0x2261 JUMP JUMPDEST JUMPDEST POP SWAP2 SWAP1 POP JUMP JUMPDEST PUSH32 0x4F70706F6E656E742069732062616E6E65640000000000000000000000000000 PUSH0 DUP3 ADD MSTORE POP JUMP JUMPDEST PUSH0 PUSH2 0x22F2 PUSH1 0x12 DUP4 PUSH2 0x1D0C JUMP JUMPDEST SWAP2 POP PUSH2 0x22FD DUP3 PUSH2 0x22BE JUMP JUMPDEST PUSH1 0x20 DUP3 ADD SWAP1 POP SWAP2 SWAP1 POP JUMP JUMPDEST PUSH0 PUSH1 0x20 DUP3 ADD SWAP1 POP DUP2 DUP2 SUB PUSH0 DUP4 ADD MSTORE PUSH2 0x231F DUP2 PUSH2 0x22E6 JUMP JUMPDEST SWAP1 POP SWAP2 SWAP1 POP JUMP JUMPDEST PUSH32 0x496E636F7272656374207374616B6520616D6F756E7400000000000000000000 PUSH0 DUP3 ADD MSTORE POP JUMP JUMPDEST PUSH0 PUSH2 0x235A PUSH1 0x16 DUP4 PUSH2 0x1D0C JUMP JUMPDEST SWAP2 POP PUSH2 0x2365 DUP3 PUSH2 0x2326 JUMP JUMPDEST PUSH1 0x20 DUP3 ADD SWAP1 POP SWAP2 SWAP1 POP JUMP JUMPDEST PUSH0 PUSH1 0x20 DUP3 ADD SWAP1 POP DUP2 DUP2 SUB PUSH0 DUP4 ADD MSTORE PUSH2 0x2387 DUP2 PUSH2 0x234E JUMP JUMPDEST SWAP1 POP SWAP2 SWAP1 POP JUMP JUMPDEST PUSH32 0x4E487B7100000000000000000000000000000000000000000000000000000000 PUSH0 MSTORE PUSH1 0x11 PUSH1 0x4 MSTORE PUSH1 0x24 PUSH0 REVERT JUMPDEST PUSH0 PUSH2 0x23C5 DUP3 PUSH2 0x1B8E JUMP JUMPDEST SWAP2 POP PUSH32 0xFFFFFFFFFFFFFFFFFFFFFFFFFFFFFFFFFFFFFFFFFFFFFFFFFFFFFFFFFFFFFFFF DUP3 SUB PUSH2 0x23F7 JUMPI PUSH2 0x23F6 PUSH2 0x238E JUMP JUMPDEST JUMPDEST PUSH1 0x1 DUP3 ADD SWAP1 POP SWAP2 SWAP1 POP JUMP JUMPDEST PUSH0 PUSH2 0x240C DUP3 PUSH2 0x1B8E JUMP JUMPDEST SWAP2 POP PUSH2 0x2417 DUP4 PUSH2 0x1B8E JUMP JUMPDEST SWAP3 POP DUP3 DUP3 ADD SWAP1 POP DUP1 DUP3 GT ISZERO PUSH2 0x242F JUMPI PUSH2 0x242E PUSH2 0x238E JUMP JUMPDEST JUMPDEST SWAP3 SWAP2 POP POP JUMP JUMPDEST PUSH0 PUSH1 0x40 DUP3 ADD SWAP1 POP PUSH2 0x2448 PUSH0 DUP4 ADD DUP6 PUSH2 0x1CDB JUMP JUMPDEST PUSH2 0x2455 PUSH1 0x20 DUP4 ADD DUP5 PUSH2 0x1CDB JUMP JUMPDEST SWAP4 SWAP3 POP POP POP JUMP JUMPDEST PUSH32 0x4E487B7100000000000000000000000000000000000000000000000000000000 PUSH0 MSTORE PUSH1 0x32 PUSH1 0x4 MSTORE PUSH1 0x24 PUSH0 REVERT JUMPDEST PUSH32 0x4E6F742061206A75726F72000000000000000000000000000000000000000000 PUSH0 DUP3 ADD MSTORE POP JUMP JUMPDEST PUSH0 PUSH2 0x24BD PUSH1 0xB DUP4 PUSH2 0x1D0C JUMP JUMPDEST SWAP2 POP PUSH2 0x24C8 DUP3 PUSH2 0x2489 JUMP JUMPDEST PUSH1 0x20 DUP3 ADD SWAP1 POP SWAP2 SWAP1 POP JUMP JUMPDEST PUSH0 PUSH1 0x20 DUP3 ADD SWAP1 POP DUP2 DUP2 SUB PUSH0 DUP4 ADD MSTORE PUSH2 0x24EA DUP2 PUSH2 0x24B1 JUMP JUMPDEST SWAP1 POP SWAP2 SWAP1 POP JUMP JUMPDEST PUSH0 PUSH1 0x40 DUP3 ADD SWAP1 POP PUSH2 0x2504 PUSH0 DUP4 ADD DUP6 PUSH2 0x1CDB JUMP JUMPDEST PUSH2 0x2511 PUSH1 0x20 DUP4 ADD DUP5 PUSH2 0x1B97 JUMP JUMPDEST SWAP4 SWAP3 POP POP POP JUMP JUMPDEST PUSH32 0x4E6F742062616E2D776F72746879000000000000000000000000000000000000 PUSH0 DUP3 ADD MSTORE POP JUMP JUMPDEST PUSH0 PUSH2 0x254C PUSH1 0xE DUP4 PUSH2 0x1D0C JUMP JUMPDEST SWAP2 POP PUSH2 0x2557 DUP3 PUSH2 0x2518 JUMP JUMPDEST PUSH1 0x20 DUP3 ADD SWAP1 POP SWAP2 SWAP1 POP JUMP JUMPDEST PUSH0 PUSH1 0x20 DUP3 ADD SWAP1 POP DUP2 DUP2 SUB PUSH0 DUP4 ADD MSTORE PUSH2 0x2579 DUP2 PUSH2 0x2540 JUMP JUMPDEST SWAP1 POP SWAP2 SWAP1 POP JUMP JUMPDEST PUSH32 0x4E6F74206120706C617965720000000000000000000000000000000000000000 PUSH0 DUP3 ADD MSTORE POP JUMP JUMPDEST PUSH0 PUSH2 0x25B4 PUSH1 0xC DUP4 PUSH2 0x1D0C JUMP JUMPDEST SWAP2 POP PUSH2 0x25BF DUP3 PUSH2 0x2580 JUMP JUMPDEST PUSH1 0x20 DUP3 ADD SWAP1 POP SWAP2 SWAP1 POP JUMP JUMPDEST PUSH0 PUSH1 0x20 DUP3 ADD SWAP1 POP DUP2 DUP2 SUB PUSH0 DUP4 ADD MSTORE PUSH2 0x25E1 DUP2 PUSH2 0x25A8 JUMP JUMPDEST SWAP1 POP SWAP2 SWAP1 POP JUMP JUMPDEST PUSH32 0x4E6F7420696E20636F6D6D697420706861736500000000000000000000000000 PUSH0 DUP3 ADD MSTORE POP JUMP JUMPDEST PUSH0 PUSH2 0x261C PUSH1 0x13 DUP4 PUSH2 0x1D0C JUMP JUMPDEST SWAP2 POP PUSH2 0x2627 DUP3 PUSH2 0x25E8 JUMP JUMPDEST PUSH1 0x20 DUP3 ADD SWAP1 POP SWAP2 SWAP1 POP JUMP JUMPDEST PUSH0 PUSH1 0x20 DUP3 ADD SWAP1 POP DUP2 DUP2 SUB PUSH0 DUP4 ADD MSTORE PUSH2 0x2649 DUP2 PUSH2 0x2610 JUMP JUMPDEST SWAP1 POP SWAP2 SWAP1 POP JUMP JUMPDEST PUSH32 0x4E6F7420696E2072657665616C20706861736500000000000000000000000000 PUSH0 DUP3 ADD MSTORE POP JUMP JUMPDEST PUSH0 PUSH2 0x2684 PUSH1 0x13 DUP4 PUSH2 0x1D0C JUMP JUMPDEST SWAP2 POP PUSH2 0x268F DUP3 PUSH2 0x2650 JUMP JUMPDEST PUSH1 0x20 DUP3 ADD SWAP1 POP SWAP2 SWAP1 POP JUMP JUMPDEST PUSH0 PUSH1 0x20 DUP3 ADD SWAP1 POP DUP2 DUP2 SUB PUSH0 DUP4 ADD MSTORE PUSH2 0x26B1 DUP2 PUSH2 0x2678 JUMP JUMPDEST SWAP1 POP SWAP2 SWAP1 POP JUMP JUMPDEST PUSH32 0x52657665616C20706572696F6420657870697265640000000000000000000000 PUSH0 DUP3 ADD MSTORE POP JUMP JUMPDEST PUSH0 PUSH2 0x26EC PUSH1 0x15 DUP4 PUSH2 0x1D0C JUMP JUMPDEST SWAP2 POP PUSH2 0x26F7 DUP3 PUSH2 0x26B8 JUMP JUMPDEST PUSH1 0x20 DUP3 ADD SWAP1 POP SWAP2 SWAP1 POP JUMP JUMPDEST PUSH0 PUSH1 0x20 DUP3 ADD SWAP1 POP DUP2 DUP2 SUB PUSH0 DUP4 ADD MSTORE PUSH2 0x2719 DUP2 PUSH2 0x26E0 JUMP JUMPDEST SWAP1 POP SWAP2 SWAP1 POP JUMP JUMPDEST PUSH0 DUP2 SWAP1 POP SWAP3 SWAP2 POP POP JUMP JUMPDEST PUSH32 0x495F7265706F72745F7472757468000000000000000000000000000000000000 PUSH0 DUP3 ADD MSTORE POP JUMP JUMPDEST PUSH0 PUSH2 0x275E PUSH1 0xE DUP4 PUSH2 0x2720 JUMP JUMPDEST SWAP2 POP PUSH2 0x2769 DUP3 PUSH2 0x272A JUMP JUMPDEST PUSH1 0xE DUP3 ADD SWAP1 POP SWAP2 SWAP1 POP JUMP JUMPDEST PUSH0 DUP2 SWAP1 POP SWAP2 SWAP1 POP JUMP JUMPDEST PUSH2 0x278E PUSH2 0x2789 DUP3 PUSH2 0x1CEA JUMP JUMPDEST PUSH2 0x2774 JUMP JUMPDEST DUP3 MSTORE POP POP JUMP JUMPDEST PUSH0 PUSH2 0x279E DUP3 PUSH2 0x2752 JUMP JUMPDEST SWAP2 POP PUSH2 0x27AA DUP3 DUP5 PUSH2 0x277D JUMP JUMPDEST PUSH1 0x20 DUP3 ADD SWAP2 POP DUP2 SWAP1 POP SWAP3 SWAP2 POP POP JUMP JUMPDEST PUSH32 0x496E76616C69642072657665616C000000000000000000000000000000000000 PUSH0 DUP3 ADD MSTORE POP JUMP JUMPDEST PUSH0 PUSH2 0x27ED PUSH1 0xE DUP4 PUSH2 0x1D0C JUMP JUMPDEST SWAP2 POP PUSH2 0x27F8 DUP3 PUSH2 0x27B9 JUMP JUMPDEST PUSH1 0x20 DUP3 ADD SWAP1 POP SWAP2 SWAP1 POP JUMP JUMPDEST PUSH0 PUSH1 0x20 DUP3 ADD SWAP1 POP DUP2 DUP2 SUB PUSH0 DUP4 ADD MSTORE PUSH2 0x281A DUP2 PUSH2 0x27E1 JUMP JUMPDEST SWAP1 POP SWAP2 SWAP1 POP JUMP JUMPDEST PUSH0 DUP2 SWAP1 POP DUP2 PUSH0 MSTORE PUSH1 0x20 PUSH0 KECCAK256 SWAP1 POP SWAP2 SWAP1 POP JUMP JUMPDEST PUSH0 PUSH1 0x20 PUSH1 0x1F DUP4 ADD DIV SWAP1 POP SWAP2 SWAP1 POP JUMP JUMPDEST PUSH0 DUP3 DUP3 SHL SWAP1 POP SWAP3 SWAP2 POP POP JUMP JUMPDEST PUSH0 PUSH1 0x8 DUP4 MUL PUSH2 0x287D PUSH32 0xFFFFFFFFFFFFFFFFFFFFFFFFFFFFFFFFFFFFFFFFFFFFFFFFFFFFFFFFFFFFFFFF DUP3 PUSH2 0x2842 JUMP JUMPDEST PUSH2 0x2887 DUP7 DUP4 PUSH2 0x2842 JUMP JUMPDEST SWAP6 POP DUP1 NOT DUP5 AND SWAP4 POP DUP1 DUP7 AND DUP5 OR SWAP3 POP POP POP SWAP4 SWAP3 POP POP POP JUMP JUMPDEST PUSH0 DUP2 SWAP1 POP SWAP2 SWAP1 POP JUMP JUMPDEST PUSH0 PUSH2 0x28C2 PUSH2 0x28BD PUSH2 0x28B8 DUP5 PUSH2 0x1B8E JUMP JUMPDEST PUSH2 0x289F JUMP JUMPDEST PUSH2 0x1B8E JUMP JUMPDEST SWAP1 POP SWAP2 SWAP1 POP JUMP JUMPDEST PUSH0 DUP2 SWAP1 POP SWAP2 SWAP1 POP JUMP JUMPDEST PUSH2 0x28DB DUP4 PUSH2 0x28A8 JUMP JUMPDEST PUSH2 0x28EF PUSH2 0x28E7 DUP3 PUSH2 0x28C9 JUMP JUMPDEST DUP5 DUP5 SLOAD PUSH2 0x284E JUMP JUMPDEST DUP3 SSTORE POP POP POP POP JUMP JUMPDEST PUSH0 SWAP1 JUMP JUMPDEST PUSH2 0x2903 PUSH2 0x28F7 JUMP JUMPDEST PUSH2 0x290E DUP2 DUP5 DUP5 PUSH2 0x28D2 JUMP JUMPDEST POP POP POP JUMP JUMPDEST JUMPDEST DUP2 DUP2 LT ISZERO PUSH2 0x2931 JUMPI PUSH2 0x2926 PUSH0 DUP3 PUSH2 0x28FB JUMP JUMPDEST PUSH1 0x1 DUP2 ADD SWAP1 POP PUSH2 0x2914 JUMP JUMPDEST POP POP JUMP JUMPDEST PUSH1 0x1F DUP3 GT ISZERO PUSH2 0x2976 JUMPI PUSH2 0x2947 DUP2 PUSH2 0x2821 JUMP JUMPDEST PUSH2 0x2950 DUP5 PUSH2 0x2833 JUMP JUMPDEST DUP2 ADD PUSH1 0x20 DUP6 LT ISZERO PUSH2 0x295F JUMPI DUP2 SWAP1 POP JUMPDEST PUSH2 0x2973 PUSH2 0x296B DUP6 PUSH2 0x2833 JUMP JUMPDEST DUP4 ADD DUP3 PUSH2 0x2913 JUMP JUMPDEST POP POP JUMPDEST POP POP POP JUMP JUMPDEST PUSH0 DUP3 DUP3 SHR SWAP1 POP SWAP3 SWAP2 POP POP JUMP JUMPDEST PUSH0 PUSH2 0x2996 PUSH0 NOT DUP5 PUSH1 0x8 MUL PUSH2 0x297B JUMP JUMPDEST NOT DUP1 DUP4 AND SWAP2 POP POP SWAP3 SWAP2 POP POP JUMP JUMPDEST PUSH0 PUSH2 0x29AE DUP4 DUP4 PUSH2 0x2987 JUMP JUMPDEST SWAP2 POP DUP3 PUSH1 0x2 MUL DUP3 OR SWAP1 POP SWAP3 SWAP2 POP POP JUMP JUMPDEST PUSH2 0x29C7 DUP3 PUSH2 0x1D02 JUMP JUMPDEST PUSH8 0xFFFFFFFFFFFFFFFF DUP2 GT ISZERO PUSH2 0x29E0 JUMPI PUSH2 0x29DF PUSH2 0x1F99 JUMP JUMPDEST JUMPDEST PUSH2 0x29EA DUP3 SLOAD PUSH2 0x228E JUMP JUMPDEST PUSH2 0x29F5 DUP3 DUP3 DUP6 PUSH2 0x2935 JUMP JUMPDEST PUSH0 PUSH1 0x20 SWAP1 POP PUSH1 0x1F DUP4 GT PUSH1 0x1 DUP2 EQ PUSH2 0x2A26 JUMPI PUSH0 DUP5 ISZERO PUSH2 0x2A14 JUMPI DUP3 DUP8 ADD MLOAD SWAP1 POP JUMPDEST PUSH2 0x2A1E DUP6 DUP3 PUSH2 0x29A3 JUMP JUMPDEST DUP7 SSTORE POP PUSH2 0x2A85 JUMP JUMPDEST PUSH1 0x1F NOT DUP5 AND PUSH2 0x2A34 DUP7 PUSH2 0x2821 JUMP JUMPDEST PUSH0 JUMPDEST DUP3 DUP2 LT ISZERO PUSH2 0x2A5B JUMPI DUP5 DUP10 ADD MLOAD DUP3 SSTORE PUSH1 0x1 DUP3 ADD SWAP2 POP PUSH1 0x20 DUP6 ADD SWAP5 POP PUSH1 0x20 DUP2 ADD SWAP1 POP PUSH2 0x2A36 JUMP JUMPDEST DUP7 DUP4 LT ISZERO PUSH2 0x2A78 JUMPI DUP5 DUP10 ADD MLOAD PUSH2 0x2A74 PUSH1 0x1F DUP10 AND DUP3 PUSH2 0x2987 JUMP JUMPDEST DUP4 SSTORE POP JUMPDEST PUSH1 0x1 PUSH1 0x2 DUP9 MUL ADD DUP9 SSTORE POP POP POP JUMPDEST POP POP POP POP POP POP JUMP JUMPDEST PUSH0 PUSH1 0x20 DUP3 ADD SWAP1 POP PUSH2 0x2AA0 PUSH0 DUP4 ADD DUP5 PUSH2 0x1CDB JUMP JUMPDEST SWAP3 SWAP2 POP POP JUMP JUMPDEST PUSH0 DUP2 SLOAD PUSH2 0x2AB2 DUP2 PUSH2 0x228E JUMP JUMPDEST PUSH2 0x2ABC DUP2 DUP7 PUSH2 0x2720 JUMP JUMPDEST SWAP5 POP PUSH1 0x1 DUP3 AND PUSH0 DUP2 EQ PUSH2 0x2AD6 JUMPI PUSH1 0x1 DUP2 EQ PUSH2 0x2AEB JUMPI PUSH2 0x2B1D JUMP JUMPDEST PUSH1 0xFF NOT DUP4 AND DUP7 MSTORE DUP2 ISZERO ISZERO DUP3 MUL DUP7 ADD SWAP4 POP PUSH2 0x2B1D JUMP JUMPDEST PUSH2 0x2AF4 DUP6 PUSH2 0x2821 JUMP JUMPDEST PUSH0 JUMPDEST DUP4 DUP2 LT ISZERO PUSH2 0x2B15 JUMPI DUP2 SLOAD DUP2 DUP10 ADD MSTORE PUSH1 0x1 DUP3 ADD SWAP2 POP PUSH1 0x20 DUP2 ADD SWAP1 POP PUSH2 0x2AF6 JUMP JUMPDEST DUP4 DUP9 ADD SWAP6 POP POP POP JUMPDEST POP POP POP SWAP3 SWAP2 POP POP JUMP JUMPDEST PUSH0 PUSH2 0x2B31 DUP3 DUP5 PUSH2 0x2AA6 JUMP JUMPDEST SWAP2 POP DUP2 SWAP1 POP SWAP3 SWAP2 POP POP JUMP JUMPDEST PUSH0 PUSH2 0x2B46 DUP3 PUSH2 0x1BBF JUMP JUMPDEST SWAP2 POP PUSH2 0x2B51 DUP4 PUSH2 0x1BBF JUMP JUMPDEST SWAP3 POP DUP3 DUP3 ADD SWAP1 POP DUP3 DUP2 SLT ISZERO PUSH0 DUP4 SLT AND DUP4 DUP3 SLT PUSH0 DUP5 SLT ISZERO AND OR ISZERO PUSH2 0x2B77 JUMPI PUSH2 0x2B76 PUSH2 0x238E JUMP JUMPDEST JUMPDEST SWAP3 SWAP2 POP POP JUMP JUMPDEST PUSH0 PUSH2 0x2B87 DUP3 PUSH2 0x1B8E JUMP JUMPDEST SWAP2 POP PUSH2 0x2B92 DUP4 PUSH2 0x1B8E JUMP JUMPDEST SWAP3 POP DUP3 DUP3 MUL PUSH2 0x2BA0 DUP2 PUSH2 0x1B8E JUMP JUMPDEST SWAP2 POP DUP3 DUP3 DIV DUP5 EQ DUP4 ISZERO OR PUSH2 0x2BB7 JUMPI PUSH2 0x2BB6 PUSH2 0x238E JUMP JUMPDEST JUMPDEST POP SWAP3 SWAP2 POP POP JUMP JUMPDEST PUSH0 PUSH2 0x2BC8 DUP3 PUSH2 0x1B8E JUMP JUMPDEST SWAP2 POP PUSH2 0x2BD3 DUP4 PUSH2 0x1B8E JUMP JUMPDEST SWAP3 POP DUP3 DUP3 SUB SWAP1 POP DUP2 DUP2 GT ISZERO PUSH2 0x2BEB JUMPI PUSH2 0x2BEA PUSH2 0x238E JUMP JUMPDEST JUMPDEST SWAP3 SWAP2 POP POP JUMP INVALID LOG2 PUSH5 0x6970667358 0x22 SLT KECCAK256 0xBD 0x21 0xEB 0xD6 SWAP1 0xD8 0xC3 AND DUP10 0xC3 0xE7 LOG1 EQ 0xB8 0xDA DUP4 0xED SLT 0xE5 0x26 0xB5 DUP6 0xD 0xD5 0xD3 0xEF 0x2D GASPRICE 0xD5 PUSH12 0x549664736F6C634300081A00 CALLER "
				},
				"gasEstimates": {
					"creation": {
						"codeDepositCost": "2260600",
						"executionCost": "2417",
						"totalCost": "2263017"
					},
					"external": {
						"JURY_REWARD()": "348",
						"JURY_STAKE()": "370",
						"REP_JURY_VOTE()": "371",
						"REP_LIED()": "392",
						"REP_NO_REVEAL()": "414",
						"REP_TRUTHFUL()": "393",
						"REP_WIN()": "391",
						"REVEAL_PERIOD()": "347",
						"banCheater(address)": "27073",
						"commitResult(uint256,bytes32)": "60312",
						"createMatch(address)": "infinite",
						"getStakeAmount(address)": "5176",
						"joinJury(uint256)": "53555",
						"matchCounter()": "2449",
						"matches(uint256)": "infinite",
						"players(address)": "7366",
						"revealResult(uint256,bytes32,string)": "infinite",
						"voteAsJuror(uint256,uint256)": "infinite"
					},
					"internal": {
						"_resolveDispute(uint256,address)": "infinite",
						"_resolveMatch(uint256,address)": "infinite"
					}
				},
				"methodIdentifiers": {
					"JURY_REWARD()": "6be6258b",
					"JURY_STAKE()": "27a69176",
					"REP_JURY_VOTE()": "02edf4b4",
					"REP_LIED()": "8b227ff4",
					"REP_NO_REVEAL()": "a4785d14",
					"REP_TRUTHFUL()": "0ac2c4c3",
					"REP_WIN()": "e0aff415",
					"REVEAL_PERIOD()": "c3529f31",
					"banCheater(address)": "72352776",
					"commitResult(uint256,bytes32)": "c7825a0e",
					"createMatch(address)": "583262ab",
					"getStakeAmount(address)": "0c2eb403",
					"joinJury(uint256)": "21036b8a",
					"matchCounter()": "01fd1951",
					"matches(uint256)": "4768d4ef",
					"players(address)": "e2eb41ff",
					"revealResult(uint256,bytes32,string)": "fccac4ac",
					"voteAsJuror(uint256,uint256)": "625535d1"
				}
			},
			"storageLayout": {
				"storage": [
					{
						"astId": 75,
						"contract": "contracts/MatchContract.sol:MatchContract",
						"label": "matches",
						"offset": 0,
						"slot": "0",
						"type": "t_mapping(t_uint256,t_struct(Match)44_storage)"
					},
					{
						"astId": 80,
						"contract": "contracts/MatchContract.sol:MatchContract",
						"label": "players",
						"offset": 0,
						"slot": "1",
						"type": "t_mapping(t_address,t_struct(Player)13_storage)"
					},
					{
						"astId": 82,
						"contract": "contracts/MatchContract.sol:MatchContract",
						"label": "matchCounter",
						"offset": 0,
						"slot": "2",
						"type": "t_uint256"
					}
				],
				"types": {
					"t_address": {
						"encoding": "inplace",
						"label": "address",
						"numberOfBytes": "20"
					},
					"t_array(t_address)dyn_storage": {
						"base": "t_address",
						"encoding": "dynamic_array",
						"label": "address[]",
						"numberOfBytes": "32"
					},
					"t_bool": {
						"encoding": "inplace",
						"label": "bool",
						"numberOfBytes": "1"
					},
					"t_bytes32": {
						"encoding": "inplace",
						"label": "bytes32",
						"numberOfBytes": "32"
					},
					"t_enum(MatchStatus)6": {
						"encoding": "inplace",
						"label": "enum MatchContract.MatchStatus",
						"numberOfBytes": "1"
					},
					"t_int256": {
						"encoding": "inplace",
						"label": "int256",
						"numberOfBytes": "32"
					},
					"t_mapping(t_address,t_struct(Player)13_storage)": {
						"encoding": "mapping",
						"key": "t_address",
						"label": "mapping(address => struct MatchContract.Player)",
						"numberOfBytes": "32",
						"value": "t_struct(Player)13_storage"
					},
					"t_mapping(t_address,t_uint256)": {
						"encoding": "mapping",
						"key": "t_address",
						"label": "mapping(address => uint256)",
						"numberOfBytes": "32",
						"value": "t_uint256"
					},
					"t_mapping(t_uint256,t_struct(Match)44_storage)": {
						"encoding": "mapping",
						"key": "t_uint256",
						"label": "mapping(uint256 => struct MatchContract.Match)",
						"numberOfBytes": "32",
						"value": "t_struct(Match)44_storage"
					},
					"t_string_storage": {
						"encoding": "bytes",
						"label": "string",
						"numberOfBytes": "32"
					},
					"t_struct(Match)44_storage": {
						"encoding": "inplace",
						"label": "struct MatchContract.Match",
						"members": [
							{
								"astId": 15,
								"contract": "contracts/MatchContract.sol:MatchContract",
								"label": "player1",
								"offset": 0,
								"slot": "0",
								"type": "t_address"
							},
							{
								"astId": 17,
								"contract": "contracts/MatchContract.sol:MatchContract",
								"label": "player2",
								"offset": 0,
								"slot": "1",
								"type": "t_address"
							},
							{
								"astId": 19,
								"contract": "contracts/MatchContract.sol:MatchContract",
								"label": "player1Commit",
								"offset": 0,
								"slot": "2",
								"type": "t_bytes32"
							},
							{
								"astId": 21,
								"contract": "contracts/MatchContract.sol:MatchContract",
								"label": "player2Commit",
								"offset": 0,
								"slot": "3",
								"type": "t_bytes32"
							},
							{
								"astId": 23,
								"contract": "contracts/MatchContract.sol:MatchContract",
								"label": "player1Result",
								"offset": 0,
								"slot": "4",
								"type": "t_string_storage"
							},
							{
								"astId": 25,
								"contract": "contracts/MatchContract.sol:MatchContract",
								"label": "player2Result",
								"offset": 0,
								"slot": "5",
								"type": "t_string_storage"
							},
							{
								"astId": 27,
								"contract": "contracts/MatchContract.sol:MatchContract",
								"label": "player1Salt",
								"offset": 0,
								"slot": "6",
								"type": "t_bytes32"
							},
							{
								"astId": 29,
								"contract": "contracts/MatchContract.sol:MatchContract",
								"label": "player2Salt",
								"offset": 0,
								"slot": "7",
								"type": "t_bytes32"
							},
							{
								"astId": 32,
								"contract": "contracts/MatchContract.sol:MatchContract",
								"label": "status",
								"offset": 0,
								"slot": "8",
								"type": "t_enum(MatchStatus)6"
							},
							{
								"astId": 34,
								"contract": "contracts/MatchContract.sol:MatchContract",
								"label": "stakeAmount",
								"offset": 0,
								"slot": "9",
								"type": "t_uint256"
							},
							{
								"astId": 37,
								"contract": "contracts/MatchContract.sol:MatchContract",
								"label": "juryPool",
								"offset": 0,
								"slot": "10",
								"type": "t_array(t_address)dyn_storage"
							},
							{
								"astId": 41,
								"contract": "contracts/MatchContract.sol:MatchContract",
								"label": "juryVotes",
								"offset": 0,
								"slot": "11",
								"type": "t_mapping(t_address,t_uint256)"
							},
							{
								"astId": 43,
								"contract": "contracts/MatchContract.sol:MatchContract",
								"label": "revealDeadline",
								"offset": 0,
								"slot": "12",
								"type": "t_uint256"
							}
						],
						"numberOfBytes": "416"
					},
					"t_struct(Player)13_storage": {
						"encoding": "inplace",
						"label": "struct MatchContract.Player",
						"members": [
							{
								"astId": 8,
								"contract": "contracts/MatchContract.sol:MatchContract",
								"label": "reputation",
								"offset": 0,
								"slot": "0",
								"type": "t_int256"
							},
							{
								"astId": 10,
								"contract": "contracts/MatchContract.sol:MatchContract",
								"label": "totalMatches",
								"offset": 0,
								"slot": "1",
								"type": "t_uint256"
							},
							{
								"astId": 12,
								"contract": "contracts/MatchContract.sol:MatchContract",
								"label": "isBanned",
								"offset": 0,
								"slot": "2",
								"type": "t_bool"
							}
						],
						"numberOfBytes": "96"
					},
					"t_uint256": {
						"encoding": "inplace",
						"label": "uint256",
						"numberOfBytes": "32"
					}
				}
			},
			"userdoc": {
				"kind": "user",
				"methods": {},
				"version": 1
			}
		}
	}
}