{
	"data": {
		"bytecode": {
			"linkReferences": {},
			"object": "6080604052348015600e575f80fd5b50612c528061001c5f395ff3fe608060405260043610610108575f3560e01c80636be6258b11610094578063c3529f3111610063578063c3529f311461033c578063c7825a0e14610366578063e0aff4151461038e578063e2eb41ff146103b8578063fccac4ac146103f657610108565b80636be6258b1461029657806372352776146102c05780638b227ff4146102e8578063a4785d141461031257610108565b806321036b8a116100db57806321036b8a146101c657806327a69176146101e25780634768d4ef1461020c578063583262ab14610252578063625535d11461026e57610108565b806301fd19511461010c57806302edf4b4146101365780630ac2c4c3146101605780630c2eb4031461018a575b5f80fd5b348015610117575f80fd5b5061012061041e565b60405161012d9190611bd1565b60405180910390f35b348015610141575f80fd5b5061014a610424565b6040516101579190611c02565b60405180910390f35b34801561016b575f80fd5b50610174610429565b6040516101819190611c02565b60405180910390f35b348015610195575f80fd5b506101b060048036038101906101ab9190611c86565b61042e565b6040516101bd9190611bd1565b60405180910390f35b6101e060048036038101906101db9190611cdb565b6104ee565b005b3480156101ed575f80fd5b506101f66106b5565b6040516102039190611bd1565b60405180910390f35b348015610217575f80fd5b50610232600480360381019061022d9190611cdb565b6106c1565b6040516102499b9a99989796959493929190611e10565b60405180910390f35b61026c60048036038101906102679190611c86565b61086c565b005b348015610279575f80fd5b50610294600480360381019061028f9190611ec7565b610b0e565b005b3480156102a1575f80fd5b506102aa610e30565b6040516102b79190611bd1565b60405180910390f35b3480156102cb575f80fd5b506102e660048036038101906102e19190611c86565b610e3b565b005b3480156102f3575f80fd5b506102fc610f37565b6040516103099190611c02565b60405180910390f35b34801561031d575f80fd5b50610326610f5b565b6040516103339190611c02565b60405180910390f35b348015610347575f80fd5b50610350610f7f565b60405161035d9190611bd1565b60405180910390f35b348015610371575f80fd5b5061038c60048036038101906103879190611f2f565b610f86565b005b348015610399575f80fd5b506103a26111d8565b6040516103af9190611c02565b60405180910390f35b3480156103c3575f80fd5b506103de60048036038101906103d99190611c86565b6111dd565b6040516103ed93929190611f87565b60405180910390f35b348015610401575f80fd5b5061041c600480360381019061041791906120e8565b61120f565b005b60025481565b600581565b600a81565b5f603260015f8473ffffffffffffffffffffffffffffffffffffffff1673ffffffffffffffffffffffffffffffffffffffff1681526020019081526020015f205f015412610486576706f05b59d3b2000090506104e9565b5f60015f8473ffffffffffffffffffffffffffffffffffffffff1673ffffffffffffffffffffffffffffffffffffffff1681526020019081526020015f205f015412156104dd57671bc16d674ec8000090506104e9565b670de0b6b3a764000090505b919050565b60015f3373ffffffffffffffffffffffffffffffffffffffff1673ffffffffffffffffffffffffffffffffffffffff1681526020019081526020015f206002015f9054906101000a900460ff161561057b576040517f08c379a00000000000000000000000000000000000000000000000000000000081526004016105729061219e565b60405180910390fd5b67016345785d8a000034146105c5576040517f08c379a00000000000000000000000000000000000000000000000000000000081526004016105bc90612206565b60405180910390fd5b5f805f8381526020019081526020015f209050600260038111156105ec576105eb611d9d565b5b816008015f9054906101000a900460ff16600381111561060f5761060e611d9d565b5b1461064f576040517f08c379a00000000000000000000000000000000000000000000000000000000081526004016106469061226e565b60405180910390fd5b80600a0133908060018154018082558091505060019003905f5260205f20015f9091909190916101000a81548173ffffffffffffffffffffffffffffffffffffffff021916908373ffffffffffffffffffffffffffffffffffffffff1602179055505050565b67016345785d8a000081565b5f602052805f5260405f205f91509050805f015f9054906101000a900473ffffffffffffffffffffffffffffffffffffffff1690806001015f9054906101000a900473ffffffffffffffffffffffffffffffffffffffff1690806002015490806003015490806004018054610735906122b9565b80601f0160208091040260200160405190810160405280929190818152602001828054610761906122b9565b80156107ac5780601f10610783576101008083540402835291602001916107ac565b820191905f5260205f20905b81548152906001019060200180831161078f57829003601f168201915b5050505050908060050180546107c1906122b9565b80601f01602080910402602001604051908101604052809291908181526020018280546107ed906122b9565b80156108385780601f1061080f57610100808354040283529160200191610838565b820191905f5260205f20905b81548152906001019060200180831161081b57829003601f168201915b505050505090806006015490806007015490806008015f9054906101000a900460ff169080600901549080600c015490508b565b60015f3373ffffffffffffffffffffffffffffffffffffffff1673ffffffffffffffffffffffffffffffffffffffff1681526020019081526020015f206002015f9054906101000a900460ff16156108f9576040517f08c379a00000000000000000000000000000000000000000000000000000000081526004016108f09061219e565b60405180910390fd5b60015f8273ffffffffffffffffffffffffffffffffffffffff1673ffffffffffffffffffffffffffffffffffffffff1681526020019081526020015f206002015f9054906101000a900460ff1615610986576040517f08c379a000000000000000000000000000000000000000000000000000000000815260040161097d90612333565b60405180910390fd5b5f6109903361042e565b90508034146109d4576040517f08c379a00000000000000000000000000000000000000000000000000000000081526004016109cb9061239b565b60405180910390fd5b5f60025f8154809291906109e7906123e6565b9190505590505f805f8381526020019081526020015f20905033815f015f6101000a81548173ffffffffffffffffffffffffffffffffffffffff021916908373ffffffffffffffffffffffffffffffffffffffff16021790555083816001015f6101000a81548173ffffffffffffffffffffffffffffffffffffffff021916908373ffffffffffffffffffffffffffffffffffffffff1602179055508281600901819055506202a30042610a9b919061242d565b81600c01819055505f816008015f6101000a81548160ff02191690836003811115610ac957610ac8611d9d565b5b0217905550817fe08af3491ff5da4a802782054d74abe364c01b6983872e2e93e728330b03a4503386604051610b00929190612460565b60405180910390a250505050565b5f805f8481526020019081526020015f20905060026003811115610b3557610b34611d9d565b5b816008015f9054906101000a900460ff166003811115610b5857610b57611d9d565b5b14610b98576040517f08c379a0000000000000000000000000000000000000000000000000000000008152600401610b8f9061226e565b60405180910390fd5b5f805b82600a0180549050811015610c30573373ffffffffffffffffffffffffffffffffffffffff1683600a018281548110610bd757610bd6612487565b5b905f5260205f20015f9054906101000a900473ffffffffffffffffffffffffffffffffffffffff1673ffffffffffffffffffffffffffffffffffffffff1603610c235760019150610c30565b8080600101915050610b9b565b5080610c71576040517f08c379a0000000000000000000000000000000000000000000000000000000008152600401610c68906124fe565b60405180910390fd5b8282600b015f3373ffffffffffffffffffffffffffffffffffffffff1673ffffffffffffffffffffffffffffffffffffffff1681526020019081526020015f2081905550837f8cab1d01be6cfa783358f659a7ebfec9dd91e231a955872bf9a389b3241100683385604051610ce792919061251c565b60405180910390a2600382600a018054905010610e2a575f805f5b84600a0180549050811015610dc457600185600b015f87600a018481548110610d2e57610d2d612487565b5b905f5260205f20015f9054906101000a900473ffffffffffffffffffffffffffffffffffffffff1673ffffffffffffffffffffffffffffffffffffffff1673ffffffffffffffffffffffffffffffffffffffff1681526020019081526020015f205403610da8578280610da0906123e6565b935050610db7565b8180610db3906123e6565b9250505b8080600101915050610d02565b505f818311610df657846001015f9054906101000a900473ffffffffffffffffffffffffffffffffffffffff16610e1a565b845f015f9054906101000a900473ffffffffffffffffffffffffffffffffffffffff165b9050610e268782611653565b5050505b50505050565b66b1a2bc2ec5000081565b7fffffffffffffffffffffffffffffffffffffffffffffffffffffffffffffff9c60015f8373ffffffffffffffffffffffffffffffffffffffff1673ffffffffffffffffffffffffffffffffffffffff1681526020019081526020015f205f01541315610edd576040517f08c379a0000000000000000000000000000000000000000000000000000000008152600401610ed49061258d565b60405180910390fd5b6001805f8373ffffffffffffffffffffffffffffffffffffffff1673ffffffffffffffffffffffffffffffffffffffff1681526020019081526020015f206002015f6101000a81548160ff02191690831515021790555050565b7fffffffffffffffffffffffffffffffffffffffffffffffffffffffffffffffce81565b7fffffffffffffffffffffffffffffffffffffffffffffffffffffffffffffffe781565b6202a30081565b815f808281526020019081526020015f205f015f9054906101000a900473ffffffffffffffffffffffffffffffffffffffff1673ffffffffffffffffffffffffffffffffffffffff163373ffffffffffffffffffffffffffffffffffffffff16148061104f57505f808281526020019081526020015f206001015f9054906101000a900473ffffffffffffffffffffffffffffffffffffffff1673ffffffffffffffffffffffffffffffffffffffff163373ffffffffffffffffffffffffffffffffffffffff16145b61108e576040517f08c379a0000000000000000000000000000000000000000000000000000000008152600401611085906125f5565b60405180910390fd5b5f805f8581526020019081526020015f2090505f60038111156110b4576110b3611d9d565b5b816008015f9054906101000a900460ff1660038111156110d7576110d6611d9d565b5b14611117576040517f08c379a000000000000000000000000000000000000000000000000000000000815260040161110e9061265d565b60405180910390fd5b805f015f9054906101000a900473ffffffffffffffffffffffffffffffffffffffff1673ffffffffffffffffffffffffffffffffffffffff163373ffffffffffffffffffffffffffffffffffffffff160361117a57828160020181905550611184565b8281600301819055505b5f801b8160020154141580156111a057505f801b816003015414155b156111d2576001816008015f6101000a81548160ff021916908360038111156111cc576111cb611d9d565b5b02179055505b50505050565b600f81565b6001602052805f5260405f205f91509050805f015490806001015490806002015f9054906101000a900460ff16905083565b825f808281526020019081526020015f205f015f9054906101000a900473ffffffffffffffffffffffffffffffffffffffff1673ffffffffffffffffffffffffffffffffffffffff163373ffffffffffffffffffffffffffffffffffffffff1614806112d857505f808281526020019081526020015f206001015f9054906101000a900473ffffffffffffffffffffffffffffffffffffffff1673ffffffffffffffffffffffffffffffffffffffff163373ffffffffffffffffffffffffffffffffffffffff16145b611317576040517f08c379a000000000000000000000000000000000000000000000000000000000815260040161130e906125f5565b60405180910390fd5b5f805f8681526020019081526020015f2090506001600381111561133e5761133d611d9d565b5b816008015f9054906101000a900460ff16600381111561136157611360611d9d565b5b146113a1576040517f08c379a0000000000000000000000000000000000000000000000000000000008152600401611398906126c5565b60405180910390fd5b80600c01544211156113e8576040517f08c379a00000000000000000000000000000000000000000000000000000000081526004016113df9061272d565b60405180910390fd5b5f846040516020016113fa91906127bf565b604051602081830303815290604052805190602001209050815f015f9054906101000a900473ffffffffffffffffffffffffffffffffffffffff1673ffffffffffffffffffffffffffffffffffffffff163373ffffffffffffffffffffffffffffffffffffffff16036114cd57816002015481146114ad576040517f08c379a00000000000000000000000000000000000000000000000000000000081526004016114a49061282e565b60405180910390fd5b838260040190816114be91906129e9565b5084826006018190555061152f565b81600301548114611513576040517f08c379a000000000000000000000000000000000000000000000000000000000815260040161150a9061282e565b60405180910390fd5b8382600501908161152491906129e9565b508482600701819055505b857f493474653ea5446b10d9bd9aed1854de71a1af7e2eea8fc3065ef63fbefda9e23360405161155f9190612ab8565b60405180910390a25f801b82600601541415801561158357505f801b826007015414155b1561164b578160050160405160200161159c9190612b51565b60405160208183030381529060405280519060200120826004016040516020016115c69190612b51565b60405160208183030381529060405280519060200120036115f0576115eb863361199c565b61164a565b6002826008015f6101000a81548160ff0219169083600381111561161757611616611d9d565b5b0217905550857f116f6b179359db1a58a963fc783ee184e7844aba306a3c2ce02de3d7391d17c360405160405180910390a25b5b505050505050565b5f805f8481526020019081526020015f2090506003816008015f6101000a81548160ff0219169083600381111561168d5761168c611d9d565b5b02179055505f815f015f9054906101000a900473ffffffffffffffffffffffffffffffffffffffff1673ffffffffffffffffffffffffffffffffffffffff168373ffffffffffffffffffffffffffffffffffffffff161461171057815f015f9054906101000a900473ffffffffffffffffffffffffffffffffffffffff16611735565b816001015f9054906101000a900473ffffffffffffffffffffffffffffffffffffffff165b90507fffffffffffffffffffffffffffffffffffffffffffffffffffffffffffffffce60015f8373ffffffffffffffffffffffffffffffffffffffff1673ffffffffffffffffffffffffffffffffffffffff1681526020019081526020015f205f015f8282546117a59190612b67565b925050819055505f5b82600a01805490508110156118e55782600a0181815481106117d3576117d2612487565b5b905f5260205f20015f9054906101000a900473ffffffffffffffffffffffffffffffffffffffff1673ffffffffffffffffffffffffffffffffffffffff166108fc66b1a2bc2ec5000090811502906040515f60405180830381858888f19350505050158015611844573d5f803e3d5ffd5b50600560015f85600a0184815481106118605761185f612487565b5b905f5260205f20015f9054906101000a900473ffffffffffffffffffffffffffffffffffffffff1673ffffffffffffffffffffffffffffffffffffffff1673ffffffffffffffffffffffffffffffffffffffff1681526020019081526020015f205f015f8282546118d19190612b67565b9250508190555080806001019150506117ae565b508273ffffffffffffffffffffffffffffffffffffffff166108fc83600a018054905066b1a2bc2ec5000061191a9190612ba8565b6002856009015461192b9190612ba8565b6119359190612be9565b90811502906040515f60405180830381858888f1935050505015801561195d573d5f803e3d5ffd5b50837f1c560e9f349cd346794f9d534fb852628d58cc7a726d0adb57820fae0a50cd478460405161198e9190612ab8565b60405180910390a250505050565b5f805f8481526020019081526020015f2090506003816008015f6101000a81548160ff021916908360038111156119d6576119d5611d9d565b5b0217905550600f60015f8473ffffffffffffffffffffffffffffffffffffffff1673ffffffffffffffffffffffffffffffffffffffff1681526020019081526020015f205f015f828254611a2a9190612b67565b92505081905550600a60015f835f015f9054906101000a900473ffffffffffffffffffffffffffffffffffffffff1673ffffffffffffffffffffffffffffffffffffffff168573ffffffffffffffffffffffffffffffffffffffff1614611ab357835f015f9054906101000a900473ffffffffffffffffffffffffffffffffffffffff16611ad8565b836001015f9054906101000a900473ffffffffffffffffffffffffffffffffffffffff165b73ffffffffffffffffffffffffffffffffffffffff1673ffffffffffffffffffffffffffffffffffffffff1681526020019081526020015f205f015f828254611b219190612b67565b925050819055508173ffffffffffffffffffffffffffffffffffffffff166108fc60028360090154611b539190612ba8565b90811502906040515f60405180830381858888f19350505050158015611b7b573d5f803e3d5ffd5b50827f1c560e9f349cd346794f9d534fb852628d58cc7a726d0adb57820fae0a50cd4783604051611bac9190612ab8565b60405180910390a2505050565b5f819050919050565b611bcb81611bb9565b82525050565b5f602082019050611be45f830184611bc2565b92915050565b5f819050919050565b611bfc81611bea565b82525050565b5f602082019050611c155f830184611bf3565b92915050565b5f604051905090565b5f80fd5b5f80fd5b5f73ffffffffffffffffffffffffffffffffffffffff82169050919050565b5f611c5582611c2c565b9050919050565b611c6581611c4b565b8114611c6f575f80fd5b50565b5f81359050611c8081611c5c565b92915050565b5f60208284031215611c9b57611c9a611c24565b5b5f611ca884828501611c72565b91505092915050565b611cba81611bb9565b8114611cc4575f80fd5b50565b5f81359050611cd581611cb1565b92915050565b5f60208284031215611cf057611cef611c24565b5b5f611cfd84828501611cc7565b91505092915050565b611d0f81611c4b565b82525050565b5f819050919050565b611d2781611d15565b82525050565b5f81519050919050565b5f82825260208201905092915050565b8281835e5f83830152505050565b5f601f19601f8301169050919050565b5f611d6f82611d2d565b611d798185611d37565b9350611d89818560208601611d47565b611d9281611d55565b840191505092915050565b7f4e487b71000000000000000000000000000000000000000000000000000000005f52602160045260245ffd5b60048110611ddb57611dda611d9d565b5b50565b5f819050611deb82611dca565b919050565b5f611dfa82611dde565b9050919050565b611e0a81611df0565b82525050565b5f61016082019050611e245f83018e611d06565b611e31602083018d611d06565b611e3e604083018c611d1e565b611e4b606083018b611d1e565b8181036080830152611e5d818a611d65565b905081810360a0830152611e718189611d65565b9050611e8060c0830188611d1e565b611e8d60e0830187611d1e565b611e9b610100830186611e01565b611ea9610120830185611bc2565b611eb7610140830184611bc2565b9c9b505050505050505050505050565b5f8060408385031215611edd57611edc611c24565b5b5f611eea85828601611cc7565b9250506020611efb85828601611cc7565b9150509250929050565b611f0e81611d15565b8114611f18575f80fd5b50565b5f81359050611f2981611f05565b92915050565b5f8060408385031215611f4557611f44611c24565b5b5f611f5285828601611cc7565b9250506020611f6385828601611f1b565b9150509250929050565b5f8115159050919050565b611f8181611f6d565b82525050565b5f606082019050611f9a5f830186611bf3565b611fa76020830185611bc2565b611fb46040830184611f78565b949350505050565b5f80fd5b5f80fd5b7f4e487b71000000000000000000000000000000000000000000000000000000005f52604160045260245ffd5b611ffa82611d55565b810181811067ffffffffffffffff8211171561201957612018611fc4565b5b80604052505050565b5f61202b611c1b565b90506120378282611ff1565b919050565b5f67ffffffffffffffff82111561205657612055611fc4565b5b61205f82611d55565b9050602081019050919050565b828183375f83830152505050565b5f61208c6120878461203c565b612022565b9050828152602081018484840111156120a8576120a7611fc0565b5b6120b384828561206c565b509392505050565b5f82601f8301126120cf576120ce611fbc565b5b81356120df84826020860161207a565b91505092915050565b5f805f606084860312156120ff576120fe611c24565b5b5f61210c86828701611cc7565b935050602061211d86828701611f1b565b925050604084013567ffffffffffffffff81111561213e5761213d611c28565b5b61214a868287016120bb565b9150509250925092565b7f596f75206172652062616e6e65640000000000000000000000000000000000005f82015250565b5f612188600e83611d37565b915061219382612154565b602082019050919050565b5f6020820190508181035f8301526121b58161217c565b9050919050565b7f496e636f7272656374206a757279207374616b650000000000000000000000005f82015250565b5f6121f0601483611d37565b91506121fb826121bc565b602082019050919050565b5f6020820190508181035f83015261221d816121e4565b9050919050565b7f4e6f2061637469766520646973707574650000000000000000000000000000005f82015250565b5f612258601183611d37565b915061226382612224565b602082019050919050565b5f6020820190508181035f8301526122858161224c565b9050919050565b7f4e487b71000000000000000000000000000000000000000000000000000000005f52602260045260245ffd5b5f60028204905060018216806122d057607f821691505b6020821081036122e3576122e261228c565b5b50919050565b7f4f70706f6e656e742069732062616e6e656400000000000000000000000000005f82015250565b5f61231d601283611d37565b9150612328826122e9565b602082019050919050565b5f6020820190508181035f83015261234a81612311565b9050919050565b7f496e636f7272656374207374616b6520616d6f756e74000000000000000000005f82015250565b5f612385601683611d37565b915061239082612351565b602082019050919050565b5f6020820190508181035f8301526123b281612379565b9050919050565b7f4e487b71000000000000000000000000000000000000000000000000000000005f52601160045260245ffd5b5f6123f082611bb9565b91507fffffffffffffffffffffffffffffffffffffffffffffffffffffffffffffffff8203612422576124216123b9565b5b600182019050919050565b5f61243782611bb9565b915061244283611bb9565b925082820190508082111561245a576124596123b9565b5b92915050565b5f6040820190506124735f830185611d06565b6124806020830184611d06565b9392505050565b7f4e487b71000000000000000000000000000000000000000000000000000000005f52603260045260245ffd5b7f4e6f742061206a75726f720000000000000000000000000000000000000000005f82015250565b5f6124e8600b83611d37565b91506124f3826124b4565b602082019050919050565b5f6020820190508181035f830152612515816124dc565b9050919050565b5f60408201905061252f5f830185611d06565b61253c6020830184611bc2565b9392505050565b7f4e6f742062616e2d776f727468790000000000000000000000000000000000005f82015250565b5f612577600e83611d37565b915061258282612543565b602082019050919050565b5f6020820190508181035f8301526125a48161256b565b9050919050565b7f4e6f74206120706c6179657200000000000000000000000000000000000000005f82015250565b5f6125df600c83611d37565b91506125ea826125ab565b602082019050919050565b5f6020820190508181035f83015261260c816125d3565b9050919050565b7f4e6f7420696e20636f6d6d6974207068617365000000000000000000000000005f82015250565b5f612647601383611d37565b915061265282612613565b602082019050919050565b5f6020820190508181035f8301526126748161263b565b9050919050565b7f4e6f7420696e2072657665616c207068617365000000000000000000000000005f82015250565b5f6126af601383611d37565b91506126ba8261267b565b602082019050919050565b5f6020820190508181035f8301526126dc816126a3565b9050919050565b7f52657665616c20706572696f64206578706972656400000000000000000000005f82015250565b5f612717601583611d37565b9150612722826126e3565b602082019050919050565b5f6020820190508181035f8301526127448161270b565b9050919050565b5f81905092915050565b7f495f7265706f72745f74727574680000000000000000000000000000000000005f82015250565b5f612789600e8361274b565b915061279482612755565b600e82019050919050565b5f819050919050565b6127b96127b482611d15565b61279f565b82525050565b5f6127c98261277d565b91506127d582846127a8565b60208201915081905092915050565b7f496e76616c69642072657665616c0000000000000000000000000000000000005f82015250565b5f612818600e83611d37565b9150612823826127e4565b602082019050919050565b5f6020820190508181035f8301526128458161280c565b9050919050565b5f819050815f5260205f209050919050565b5f6020601f8301049050919050565b5f82821b905092915050565b5f600883026128a87fffffffffffffffffffffffffffffffffffffffffffffffffffffffffffffffff8261286d565b6128b2868361286d565b95508019841693508086168417925050509392505050565b5f819050919050565b5f6128ed6128e86128e384611bb9565b6128ca565b611bb9565b9050919050565b5f819050919050565b612906836128d3565b61291a612912826128f4565b848454612879565b825550505050565b5f90565b61292e612922565b6129398184846128fd565b505050565b5b8181101561295c576129515f82612926565b60018101905061293f565b5050565b601f8211156129a1576129728161284c565b61297b8461285e565b8101602085101561298a578190505b61299e6129968561285e565b83018261293e565b50505b505050565b5f82821c905092915050565b5f6129c15f19846008026129a6565b1980831691505092915050565b5f6129d983836129b2565b9150826002028217905092915050565b6129f282611d2d565b67ffffffffffffffff811115612a0b57612a0a611fc4565b5b612a1582546122b9565b612a20828285612960565b5f60209050601f831160018114612a51575f8415612a3f578287015190505b612a4985826129ce565b865550612ab0565b601f198416612a5f8661284c565b5f5b82811015612a8657848901518255600182019150602085019450602081019050612a61565b86831015612aa35784890151612a9f601f8916826129b2565b8355505b6001600288020188555050505b505050505050565b5f602082019050612acb5f830184611d06565b92915050565b5f8154612add816122b9565b612ae7818661274b565b9450600182165f8114612b015760018114612b1657612b48565b60ff1983168652811515820286019350612b48565b612b1f8561284c565b5f5b83811015612b4057815481890152600182019150602081019050612b21565b838801955050505b50505092915050565b5f612b5c8284612ad1565b915081905092915050565b5f612b7182611bea565b9150612b7c83611bea565b92508282019050828112155f8312168382125f841215161715612ba257612ba16123b9565b5b92915050565b5f612bb282611bb9565b9150612bbd83611bb9565b9250828202612bcb81611bb9565b91508282048414831517612be257612be16123b9565b5b5092915050565b5f612bf382611bb9565b9150612bfe83611bb9565b9250828203905081811115612c1657612c156123b9565b5b9291505056fea26469706673582212201639d4608b87a38ed7b1796a1db1ff52858285d2561b2eb494e4645b14bfcd2f64736f6c634300081a0033",
			"opcodes": "PUSH1 0x80 PUSH1 0x40 MSTORE CALLVALUE DUP1 ISZERO PUSH1 0xE JUMPI PUSH0 DUP1 REVERT JUMPDEST POP PUSH2 0x2C52 DUP1 PUSH2 0x1C PUSH0 CODECOPY PUSH0 RETURN INVALID PUSH1 0x80 PUSH1 0x40 MSTORE PUSH1 0x4 CALLDATASIZE LT PUSH2 0x108 JUMPI PUSH0 CALLDATALOAD PUSH1 0xE0 SHR DUP1 PUSH4 0x6BE6258B GT PUSH2 0x94 JUMPI DUP1 PUSH4 0xC3529F31 GT PUSH2 0x63 JUMPI DUP1 PUSH4 0xC3529F31 EQ PUSH2 0x33C JUMPI DUP1 PUSH4 0xC7825A0E EQ PUSH2 0x366 JUMPI DUP1 PUSH4 0xE0AFF415 EQ PUSH2 0x38E JUMPI DUP1 PUSH4 0xE2EB41FF EQ PUSH2 0x3B8 JUMPI DUP1 PUSH4 0xFCCAC4AC EQ PUSH2 0x3F6 JUMPI PUSH2 0x108 JUMP JUMPDEST DUP1 PUSH4 0x6BE6258B EQ PUSH2 0x296 JUMPI DUP1 PUSH4 0x72352776 EQ PUSH2 0x2C0 JUMPI DUP1 PUSH4 0x8B227FF4 EQ PUSH2 0x2E8 JUMPI DUP1 PUSH4 0xA4785D14 EQ PUSH2 0x312 JUMPI PUSH2 0x108 JUMP JUMPDEST DUP1 PUSH4 0x21036B8A GT PUSH2 0xDB JUMPI DUP1 PUSH4 0x21036B8A EQ PUSH2 0x1C6 JUMPI DUP1 PUSH4 0x27A69176 EQ PUSH2 0x1E2 JUMPI DUP1 PUSH4 0x4768D4EF EQ PUSH2 0x20C JUMPI DUP1 PUSH4 0x583262AB EQ PUSH2 0x252 JUMPI DUP1 PUSH4 0x625535D1 EQ PUSH2 0x26E JUMPI PUSH2 0x108 JUMP JUMPDEST DUP1 PUSH4 0x1FD1951 EQ PUSH2 0x10C JUMPI DUP1 PUSH4 0x2EDF4B4 EQ PUSH2 0x136 JUMPI DUP1 PUSH4 0xAC2C4C3 EQ PUSH2 0x160 JUMPI DUP1 PUSH4 0xC2EB403 EQ PUSH2 0x18A JUMPI JUMPDEST PUSH0 DUP1 REVERT JUMPDEST CALLVALUE DUP1 ISZERO PUSH2 0x117 JUMPI PUSH0 DUP1 REVERT JUMPDEST POP PUSH2 0x120 PUSH2 0x41E JUMP JUMPDEST PUSH1 0x40 MLOAD PUSH2 0x12D SWAP2 SWAP1 PUSH2 0x1BD1 JUMP JUMPDEST PUSH1 0x40 MLOAD DUP1 SWAP2 SUB SWAP1 RETURN JUMPDEST CALLVALUE DUP1 ISZERO PUSH2 0x141 JUMPI PUSH0 DUP1 REVERT JUMPDEST POP PUSH2 0x14A PUSH2 0x424 JUMP JUMPDEST PUSH1 0x40 MLOAD PUSH2 0x157 SWAP2 SWAP1 PUSH2 0x1C02 JUMP JUMPDEST PUSH1 0x40 MLOAD DUP1 SWAP2 SUB SWAP1 RETURN JUMPDEST CALLVALUE DUP1 ISZERO PUSH2 0x16B JUMPI PUSH0 DUP1 REVERT JUMPDEST POP PUSH2 0x174 PUSH2 0x429 JUMP JUMPDEST PUSH1 0x40 MLOAD PUSH2 0x181 SWAP2 SWAP1 PUSH2 0x1C02 JUMP JUMPDEST PUSH1 0x40 MLOAD DUP1 SWAP2 SUB SWAP1 RETURN JUMPDEST CALLVALUE DUP1 ISZERO PUSH2 0x195 JUMPI PUSH0 DUP1 REVERT JUMPDEST POP PUSH2 0x1B0 PUSH1 0x4 DUP1 CALLDATASIZE SUB DUP2 ADD SWAP1 PUSH2 0x1AB SWAP2 SWAP1 PUSH2 0x1C86 JUMP JUMPDEST PUSH2 0x42E JUMP JUMPDEST PUSH1 0x40 MLOAD PUSH2 0x1BD SWAP2 SWAP1 PUSH2 0x1BD1 JUMP JUMPDEST PUSH1 0x40 MLOAD DUP1 SWAP2 SUB SWAP1 RETURN JUMPDEST PUSH2 0x1E0 PUSH1 0x4 DUP1 CALLDATASIZE SUB DUP2 ADD SWAP1 PUSH2 0x1DB SWAP2 SWAP1 PUSH2 0x1CDB JUMP JUMPDEST PUSH2 0x4EE JUMP JUMPDEST STOP JUMPDEST CALLVALUE DUP1 ISZERO PUSH2 0x1ED JUMPI PUSH0 DUP1 REVERT JUMPDEST POP PUSH2 0x1F6 PUSH2 0x6B5 JUMP JUMPDEST PUSH1 0x40 MLOAD PUSH2 0x203 SWAP2 SWAP1 PUSH2 0x1BD1 JUMP JUMPDEST PUSH1 0x40 MLOAD DUP1 SWAP2 SUB SWAP1 RETURN JUMPDEST CALLVALUE DUP1 ISZERO PUSH2 0x217 JUMPI PUSH0 DUP1 REVERT JUMPDEST POP PUSH2 0x232 PUSH1 0x4 DUP1 CALLDATASIZE SUB DUP2 ADD SWAP1 PUSH2 0x22D SWAP2 SWAP1 PUSH2 0x1CDB JUMP JUMPDEST PUSH2 0x6C1 JUMP JUMPDEST PUSH1 0x40 MLOAD PUSH2 0x249 SWAP12 SWAP11 SWAP10 SWAP9 SWAP8 SWAP7 SWAP6 SWAP5 SWAP4 SWAP3 SWAP2 SWAP1 PUSH2 0x1E10 JUMP JUMPDEST PUSH1 0x40 MLOAD DUP1 SWAP2 SUB SWAP1 RETURN JUMPDEST PUSH2 0x26C PUSH1 0x4 DUP1 CALLDATASIZE SUB DUP2 ADD SWAP1 PUSH2 0x267 SWAP2 SWAP1 PUSH2 0x1C86 JUMP JUMPDEST PUSH2 0x86C JUMP JUMPDEST STOP JUMPDEST CALLVALUE DUP1 ISZERO PUSH2 0x279 JUMPI PUSH0 DUP1 REVERT JUMPDEST POP PUSH2 0x294 PUSH1 0x4 DUP1 CALLDATASIZE SUB DUP2 ADD SWAP1 PUSH2 0x28F SWAP2 SWAP1 PUSH2 0x1EC7 JUMP JUMPDEST PUSH2 0xB0E JUMP JUMPDEST STOP JUMPDEST CALLVALUE DUP1 ISZERO PUSH2 0x2A1 JUMPI PUSH0 DUP1 REVERT JUMPDEST POP PUSH2 0x2AA PUSH2 0xE30 JUMP JUMPDEST PUSH1 0x40 MLOAD PUSH2 0x2B7 SWAP2 SWAP1 PUSH2 0x1BD1 JUMP JUMPDEST PUSH1 0x40 MLOAD DUP1 SWAP2 SUB SWAP1 RETURN JUMPDEST CALLVALUE DUP1 ISZERO PUSH2 0x2CB JUMPI PUSH0 DUP1 REVERT JUMPDEST POP PUSH2 0x2E6 PUSH1 0x4 DUP1 CALLDATASIZE SUB DUP2 ADD SWAP1 PUSH2 0x2E1 SWAP2 SWAP1 PUSH2 0x1C86 JUMP JUMPDEST PUSH2 0xE3B JUMP JUMPDEST STOP JUMPDEST CALLVALUE DUP1 ISZERO PUSH2 0x2F3 JUMPI PUSH0 DUP1 REVERT JUMPDEST POP PUSH2 0x2FC PUSH2 0xF37 JUMP JUMPDEST PUSH1 0x40 MLOAD PUSH2 0x309 SWAP2 SWAP1 PUSH2 0x1C02 JUMP JUMPDEST PUSH1 0x40 MLOAD DUP1 SWAP2 SUB SWAP1 RETURN JUMPDEST CALLVALUE DUP1 ISZERO PUSH2 0x31D JUMPI PUSH0 DUP1 REVERT JUMPDEST POP PUSH2 0x326 PUSH2 0xF5B JUMP JUMPDEST PUSH1 0x40 MLOAD PUSH2 0x333 SWAP2 SWAP1 PUSH2 0x1C02 JUMP JUMPDEST PUSH1 0x40 MLOAD DUP1 SWAP2 SUB SWAP1 RETURN JUMPDEST CALLVALUE DUP1 ISZERO PUSH2 0x347 JUMPI PUSH0 DUP1 REVERT JUMPDEST POP PUSH2 0x350 PUSH2 0xF7F JUMP JUMPDEST PUSH1 0x40 MLOAD PUSH2 0x35D SWAP2 SWAP1 PUSH2 0x1BD1 JUMP JUMPDEST PUSH1 0x40 MLOAD DUP1 SWAP2 SUB SWAP1 RETURN JUMPDEST CALLVALUE DUP1 ISZERO PUSH2 0x371 JUMPI PUSH0 DUP1 REVERT JUMPDEST POP PUSH2 0x38C PUSH1 0x4 DUP1 CALLDATASIZE SUB DUP2 ADD SWAP1 PUSH2 0x387 SWAP2 SWAP1 PUSH2 0x1F2F JUMP JUMPDEST PUSH2 0xF86 JUMP JUMPDEST STOP JUMPDEST CALLVALUE DUP1 ISZERO PUSH2 0x399 JUMPI PUSH0 DUP1 REVERT JUMPDEST POP PUSH2 0x3A2 PUSH2 0x11D8 JUMP JUMPDEST PUSH1 0x40 MLOAD PUSH2 0x3AF SWAP2 SWAP1 PUSH2 0x1C02 JUMP JUMPDEST PUSH1 0x40 MLOAD DUP1 SWAP2 SUB SWAP1 RETURN JUMPDEST CALLVALUE DUP1 ISZERO PUSH2 0x3C3 JUMPI PUSH0 DUP1 REVERT JUMPDEST POP PUSH2 0x3DE PUSH1 0x4 DUP1 CALLDATASIZE SUB DUP2 ADD SWAP1 PUSH2 0x3D9 SWAP2 SWAP1 PUSH2 0x1C86 JUMP JUMPDEST PUSH2 0x11DD JUMP JUMPDEST PUSH1 0x40 MLOAD PUSH2 0x3ED SWAP4 SWAP3 SWAP2 SWAP1 PUSH2 0x1F87 JUMP JUMPDEST PUSH1 0x40 MLOAD DUP1 SWAP2 SUB SWAP1 RETURN JUMPDEST CALLVALUE DUP1 ISZERO PUSH2 0x401 JUMPI PUSH0 DUP1 REVERT JUMPDEST POP PUSH2 0x41C PUSH1 0x4 DUP1 CALLDATASIZE SUB DUP2 ADD SWAP1 PUSH2 0x417 SWAP2 SWAP1 PUSH2 0x20E8 JUMP JUMPDEST PUSH2 0x120F JUMP JUMPDEST STOP JUMPDEST PUSH1 0x2 SLOAD DUP2 JUMP JUMPDEST PUSH1 0x5 DUP2 JUMP JUMPDEST PUSH1 0xA DUP2 JUMP JUMPDEST PUSH0 PUSH1 0x32 PUSH1 0x1 PUSH0 DUP5 PUSH20 0xFFFFFFFFFFFFFFFFFFFFFFFFFFFFFFFFFFFFFFFF AND PUSH20 0xFFFFFFFFFFFFFFFFFFFFFFFFFFFFFFFFFFFFFFFF AND DUP2 MSTORE PUSH1 0x20 ADD SWAP1 DUP2 MSTORE PUSH1 0x20 ADD PUSH0 KECCAK256 PUSH0 ADD SLOAD SLT PUSH2 0x486 JUMPI PUSH8 0x6F05B59D3B20000 SWAP1 POP PUSH2 0x4E9 JUMP JUMPDEST PUSH0 PUSH1 0x1 PUSH0 DUP5 PUSH20 0xFFFFFFFFFFFFFFFFFFFFFFFFFFFFFFFFFFFFFFFF AND PUSH20 0xFFFFFFFFFFFFFFFFFFFFFFFFFFFFFFFFFFFFFFFF AND DUP2 MSTORE PUSH1 0x20 ADD SWAP1 DUP2 MSTORE PUSH1 0x20 ADD PUSH0 KECCAK256 PUSH0 ADD SLOAD SLT ISZERO PUSH2 0x4DD JUMPI PUSH8 0x1BC16D674EC80000 SWAP1 POP PUSH2 0x4E9 JUMP JUMPDEST PUSH8 0xDE0B6B3A7640000 SWAP1 POP JUMPDEST SWAP2 SWAP1 POP JUMP JUMPDEST PUSH1 0x1 PUSH0 CALLER PUSH20 0xFFFFFFFFFFFFFFFFFFFFFFFFFFFFFFFFFFFFFFFF AND PUSH20 0xFFFFFFFFFFFFFFFFFFFFFFFFFFFFFFFFFFFFFFFF AND DUP2 MSTORE PUSH1 0x20 ADD SWAP1 DUP2 MSTORE PUSH1 0x20 ADD PUSH0 KECCAK256 PUSH1 0x2 ADD PUSH0 SWAP1 SLOAD SWAP1 PUSH2 0x100 EXP SWAP1 DIV PUSH1 0xFF AND ISZERO PUSH2 0x57B JUMPI PUSH1 0x40 MLOAD PUSH32 0x8C379A000000000000000000000000000000000000000000000000000000000 DUP2 MSTORE PUSH1 0x4 ADD PUSH2 0x572 SWAP1 PUSH2 0x219E JUMP JUMPDEST PUSH1 0x40 MLOAD DUP1 SWAP2 SUB SWAP1 REVERT JUMPDEST PUSH8 0x16345785D8A0000 CALLVALUE EQ PUSH2 0x5C5 JUMPI PUSH1 0x40 MLOAD PUSH32 0x8C379A000000000000000000000000000000000000000000000000000000000 DUP2 MSTORE PUSH1 0x4 ADD PUSH2 0x5BC SWAP1 PUSH2 0x2206 JUMP JUMPDEST PUSH1 0x40 MLOAD DUP1 SWAP2 SUB SWAP1 REVERT JUMPDEST PUSH0 DUP1 PUSH0 DUP4 DUP2 MSTORE PUSH1 0x20 ADD SWAP1 DUP2 MSTORE PUSH1 0x20 ADD PUSH0 KECCAK256 SWAP1 POP PUSH1 0x2 PUSH1 0x3 DUP2 GT ISZERO PUSH2 0x5EC JUMPI PUSH2 0x5EB PUSH2 0x1D9D JUMP JUMPDEST JUMPDEST DUP2 PUSH1 0x8 ADD PUSH0 SWAP1 SLOAD SWAP1 PUSH2 0x100 EXP SWAP1 DIV PUSH1 0xFF AND PUSH1 0x3 DUP2 GT ISZERO PUSH2 0x60F JUMPI PUSH2 0x60E PUSH2 0x1D9D JUMP JUMPDEST JUMPDEST EQ PUSH2 0x64F JUMPI PUSH1 0x40 MLOAD PUSH32 0x8C379A000000000000000000000000000000000000000000000000000000000 DUP2 MSTORE PUSH1 0x4 ADD PUSH2 0x646 SWAP1 PUSH2 0x226E JUMP JUMPDEST PUSH1 0x40 MLOAD DUP1 SWAP2 SUB SWAP1 REVERT JUMPDEST DUP1 PUSH1 0xA ADD CALLER SWAP1 DUP1 PUSH1 0x1 DUP2 SLOAD ADD DUP1 DUP3 SSTORE DUP1 SWAP2 POP POP PUSH1 0x1 SWAP1 SUB SWAP1 PUSH0 MSTORE PUSH1 0x20 PUSH0 KECCAK256 ADD PUSH0 SWAP1 SWAP2 SWAP1 SWAP2 SWAP1 SWAP2 PUSH2 0x100 EXP DUP2 SLOAD DUP2 PUSH20 0xFFFFFFFFFFFFFFFFFFFFFFFFFFFFFFFFFFFFFFFF MUL NOT AND SWAP1 DUP4 PUSH20 0xFFFFFFFFFFFFFFFFFFFFFFFFFFFFFFFFFFFFFFFF AND MUL OR SWAP1 SSTORE POP POP POP JUMP JUMPDEST PUSH8 0x16345785D8A0000 DUP2 JUMP JUMPDEST PUSH0 PUSH1 0x20 MSTORE DUP1 PUSH0 MSTORE PUSH1 0x40 PUSH0 KECCAK256 PUSH0 SWAP2 POP SWAP1 POP DUP1 PUSH0 ADD PUSH0 SWAP1 SLOAD SWAP1 PUSH2 0x100 EXP SWAP1 DIV PUSH20 0xFFFFFFFFFFFFFFFFFFFFFFFFFFFFFFFFFFFFFFFF AND SWAP1 DUP1 PUSH1 0x1 ADD PUSH0 SWAP1 SLOAD SWAP1 PUSH2 0x100 EXP SWAP1 DIV PUSH20 0xFFFFFFFFFFFFFFFFFFFFFFFFFFFFFFFFFFFFFFFF AND SWAP1 DUP1 PUSH1 0x2 ADD SLOAD SWAP1 DUP1 PUSH1 0x3 ADD SLOAD SWAP1 DUP1 PUSH1 0x4 ADD DUP1 SLOAD PUSH2 0x735 SWAP1 PUSH2 0x22B9 JUMP JUMPDEST DUP1 PUSH1 0x1F ADD PUSH1 0x20 DUP1 SWAP2 DIV MUL PUSH1 0x20 ADD PUSH1 0x40 MLOAD SWAP1 DUP2 ADD PUSH1 0x40 MSTORE DUP1 SWAP3 SWAP2 SWAP1 DUP2 DUP2 MSTORE PUSH1 0x20 ADD DUP3 DUP1 SLOAD PUSH2 0x761 SWAP1 PUSH2 0x22B9 JUMP JUMPDEST DUP1 ISZERO PUSH2 0x7AC JUMPI DUP1 PUSH1 0x1F LT PUSH2 0x783 JUMPI PUSH2 0x100 DUP1 DUP4 SLOAD DIV MUL DUP4 MSTORE SWAP2 PUSH1 0x20 ADD SWAP2 PUSH2 0x7AC JUMP JUMPDEST DUP3 ADD SWAP2 SWAP1 PUSH0 MSTORE PUSH1 0x20 PUSH0 KECCAK256 SWAP1 JUMPDEST DUP2 SLOAD DUP2 MSTORE SWAP1 PUSH1 0x1 ADD SWAP1 PUSH1 0x20 ADD DUP1 DUP4 GT PUSH2 0x78F JUMPI DUP3 SWAP1 SUB PUSH1 0x1F AND DUP3 ADD SWAP2 JUMPDEST POP POP POP POP POP SWAP1 DUP1 PUSH1 0x5 ADD DUP1 SLOAD PUSH2 0x7C1 SWAP1 PUSH2 0x22B9 JUMP JUMPDEST DUP1 PUSH1 0x1F ADD PUSH1 0x20 DUP1 SWAP2 DIV MUL PUSH1 0x20 ADD PUSH1 0x40 MLOAD SWAP1 DUP2 ADD PUSH1 0x40 MSTORE DUP1 SWAP3 SWAP2 SWAP1 DUP2 DUP2 MSTORE PUSH1 0x20 ADD DUP3 DUP1 SLOAD PUSH2 0x7ED SWAP1 PUSH2 0x22B9 JUMP JUMPDEST DUP1 ISZERO PUSH2 0x838 JUMPI DUP1 PUSH1 0x1F LT PUSH2 0x80F JUMPI PUSH2 0x100 DUP1 DUP4 SLOAD DIV MUL DUP4 MSTORE SWAP2 PUSH1 0x20 ADD SWAP2 PUSH2 0x838 JUMP JUMPDEST DUP3 ADD SWAP2 SWAP1 PUSH0 MSTORE PUSH1 0x20 PUSH0 KECCAK256 SWAP1 JUMPDEST DUP2 SLOAD DUP2 MSTORE SWAP1 PUSH1 0x1 ADD SWAP1 PUSH1 0x20 ADD DUP1 DUP4 GT PUSH2 0x81B JUMPI DUP3 SWAP1 SUB PUSH1 0x1F AND DUP3 ADD SWAP2 JUMPDEST POP POP POP POP POP SWAP1 DUP1 PUSH1 0x6 ADD SLOAD SWAP1 DUP1 PUSH1 0x7 ADD SLOAD SWAP1 DUP1 PUSH1 0x8 ADD PUSH0 SWAP1 SLOAD SWAP1 PUSH2 0x100 EXP SWAP1 DIV PUSH1 0xFF AND SWAP1 DUP1 PUSH1 0x9 ADD SLOAD SWAP1 DUP1 PUSH1 0xC ADD SLOAD SWAP1 POP DUP12 JUMP JUMPDEST PUSH1 0x1 PUSH0 CALLER PUSH20 0xFFFFFFFFFFFFFFFFFFFFFFFFFFFFFFFFFFFFFFFF AND PUSH20 0xFFFFFFFFFFFFFFFFFFFFFFFFFFFFFFFFFFFFFFFF AND DUP2 MSTORE PUSH1 0x20 ADD SWAP1 DUP2 MSTORE PUSH1 0x20 ADD PUSH0 KECCAK256 PUSH1 0x2 ADD PUSH0 SWAP1 SLOAD SWAP1 PUSH2 0x100 EXP SWAP1 DIV PUSH1 0xFF AND ISZERO PUSH2 0x8F9 JUMPI PUSH1 0x40 MLOAD PUSH32 0x8C379A000000000000000000000000000000000000000000000000000000000 DUP2 MSTORE PUSH1 0x4 ADD PUSH2 0x8F0 SWAP1 PUSH2 0x219E JUMP JUMPDEST PUSH1 0x40 MLOAD DUP1 SWAP2 SUB SWAP1 REVERT JUMPDEST PUSH1 0x1 PUSH0 DUP3 PUSH20 0xFFFFFFFFFFFFFFFFFFFFFFFFFFFFFFFFFFFFFFFF AND PUSH20 0xFFFFFFFFFFFFFFFFFFFFFFFFFFFFFFFFFFFFFFFF AND DUP2 MSTORE PUSH1 0x20 ADD SWAP1 DUP2 MSTORE PUSH1 0x20 ADD PUSH0 KECCAK256 PUSH1 0x2 ADD PUSH0 SWAP1 SLOAD SWAP1 PUSH2 0x100 EXP SWAP1 DIV PUSH1 0xFF AND ISZERO PUSH2 0x986 JUMPI PUSH1 0x40 MLOAD PUSH32 0x8C379A000000000000000000000000000000000000000000000000000000000 DUP2 MSTORE PUSH1 0x4 ADD PUSH2 0x97D SWAP1 PUSH2 0x2333 JUMP JUMPDEST PUSH1 0x40 MLOAD DUP1 SWAP2 SUB SWAP1 REVERT JUMPDEST PUSH0 PUSH2 0x990 CALLER PUSH2 0x42E JUMP JUMPDEST SWAP1 POP DUP1 CALLVALUE EQ PUSH2 0x9D4 JUMPI PUSH1 0x40 MLOAD PUSH32 0x8C379A000000000000000000000000000000000000000000000000000000000 DUP2 MSTORE PUSH1 0x4 ADD PUSH2 0x9CB SWAP1 PUSH2 0x239B JUMP JUMPDEST PUSH1 0x40 MLOAD DUP1 SWAP2 SUB SWAP1 REVERT JUMPDEST PUSH0 PUSH1 0x2 PUSH0 DUP2 SLOAD DUP1 SWAP3 SWAP2 SWAP1 PUSH2 0x9E7 SWAP1 PUSH2 0x23E6 JUMP JUMPDEST SWAP2 SWAP1 POP SSTORE SWAP1 POP PUSH0 DUP1 PUSH0 DUP4 DUP2 MSTORE PUSH1 0x20 ADD SWAP1 DUP2 MSTORE PUSH1 0x20 ADD PUSH0 KECCAK256 SWAP1 POP CALLER DUP2 PUSH0 ADD PUSH0 PUSH2 0x100 EXP DUP2 SLOAD DUP2 PUSH20 0xFFFFFFFFFFFFFFFFFFFFFFFFFFFFFFFFFFFFFFFF MUL NOT AND SWAP1 DUP4 PUSH20 0xFFFFFFFFFFFFFFFFFFFFFFFFFFFFFFFFFFFFFFFF AND MUL OR SWAP1 SSTORE POP DUP4 DUP2 PUSH1 0x1 ADD PUSH0 PUSH2 0x100 EXP DUP2 SLOAD DUP2 PUSH20 0xFFFFFFFFFFFFFFFFFFFFFFFFFFFFFFFFFFFFFFFF MUL NOT AND SWAP1 DUP4 PUSH20 0xFFFFFFFFFFFFFFFFFFFFFFFFFFFFFFFFFFFFFFFF AND MUL OR SWAP1 SSTORE POP DUP3 DUP2 PUSH1 0x9 ADD DUP2 SWAP1 SSTORE POP PUSH3 0x2A300 TIMESTAMP PUSH2 0xA9B SWAP2 SWAP1 PUSH2 0x242D JUMP JUMPDEST DUP2 PUSH1 0xC ADD DUP2 SWAP1 SSTORE POP PUSH0 DUP2 PUSH1 0x8 ADD PUSH0 PUSH2 0x100 EXP DUP2 SLOAD DUP2 PUSH1 0xFF MUL NOT AND SWAP1 DUP4 PUSH1 0x3 DUP2 GT ISZERO PUSH2 0xAC9 JUMPI PUSH2 0xAC8 PUSH2 0x1D9D JUMP JUMPDEST JUMPDEST MUL OR SWAP1 SSTORE POP DUP2 PUSH32 0xE08AF3491FF5DA4A802782054D74ABE364C01B6983872E2E93E728330B03A450 CALLER DUP7 PUSH1 0x40 MLOAD PUSH2 0xB00 SWAP3 SWAP2 SWAP1 PUSH2 0x2460 JUMP JUMPDEST PUSH1 0x40 MLOAD DUP1 SWAP2 SUB SWAP1 LOG2 POP POP POP POP JUMP JUMPDEST PUSH0 DUP1 PUSH0 DUP5 DUP2 MSTORE PUSH1 0x20 ADD SWAP1 DUP2 MSTORE PUSH1 0x20 ADD PUSH0 KECCAK256 SWAP1 POP PUSH1 0x2 PUSH1 0x3 DUP2 GT ISZERO PUSH2 0xB35 JUMPI PUSH2 0xB34 PUSH2 0x1D9D JUMP JUMPDEST JUMPDEST DUP2 PUSH1 0x8 ADD PUSH0 SWAP1 SLOAD SWAP1 PUSH2 0x100 EXP SWAP1 DIV PUSH1 0xFF AND PUSH1 0x3 DUP2 GT ISZERO PUSH2 0xB58 JUMPI PUSH2 0xB57 PUSH2 0x1D9D JUMP JUMPDEST JUMPDEST EQ PUSH2 0xB98 JUMPI PUSH1 0x40 MLOAD PUSH32 0x8C379A000000000000000000000000000000000000000000000000000000000 DUP2 MSTORE PUSH1 0x4 ADD PUSH2 0xB8F SWAP1 PUSH2 0x226E JUMP JUMPDEST PUSH1 0x40 MLOAD DUP1 SWAP2 SUB SWAP1 REVERT JUMPDEST PUSH0 DUP1 JUMPDEST DUP3 PUSH1 0xA ADD DUP1 SLOAD SWAP1 POP DUP2 LT ISZERO PUSH2 0xC30 JUMPI CALLER PUSH20 0xFFFFFFFFFFFFFFFFFFFFFFFFFFFFFFFFFFFFFFFF AND DUP4 PUSH1 0xA ADD DUP3 DUP2 SLOAD DUP2 LT PUSH2 0xBD7 JUMPI PUSH2 0xBD6 PUSH2 0x2487 JUMP JUMPDEST JUMPDEST SWAP1 PUSH0 MSTORE PUSH1 0x20 PUSH0 KECCAK256 ADD PUSH0 SWAP1 SLOAD SWAP1 PUSH2 0x100 EXP SWAP1 DIV PUSH20 0xFFFFFFFFFFFFFFFFFFFFFFFFFFFFFFFFFFFFFFFF AND PUSH20 0xFFFFFFFFFFFFFFFFFFFFFFFFFFFFFFFFFFFFFFFF AND SUB PUSH2 0xC23 JUMPI PUSH1 0x1 SWAP2 POP PUSH2 0xC30 JUMP JUMPDEST DUP1 DUP1 PUSH1 0x1 ADD SWAP2 POP POP PUSH2 0xB9B JUMP JUMPDEST POP DUP1 PUSH2 0xC71 JUMPI PUSH1 0x40 MLOAD PUSH32 0x8C379A000000000000000000000000000000000000000000000000000000000 DUP2 MSTORE PUSH1 0x4 ADD PUSH2 0xC68 SWAP1 PUSH2 0x24FE JUMP JUMPDEST PUSH1 0x40 MLOAD DUP1 SWAP2 SUB SWAP1 REVERT JUMPDEST DUP3 DUP3 PUSH1 0xB ADD PUSH0 CALLER PUSH20 0xFFFFFFFFFFFFFFFFFFFFFFFFFFFFFFFFFFFFFFFF AND PUSH20 0xFFFFFFFFFFFFFFFFFFFFFFFFFFFFFFFFFFFFFFFF AND DUP2 MSTORE PUSH1 0x20 ADD SWAP1 DUP2 MSTORE PUSH1 0x20 ADD PUSH0 KECCAK256 DUP2 SWAP1 SSTORE POP DUP4 PUSH32 0x8CAB1D01BE6CFA783358F659A7EBFEC9DD91E231A955872BF9A389B324110068 CALLER DUP6 PUSH1 0x40 MLOAD PUSH2 0xCE7 SWAP3 SWAP2 SWAP1 PUSH2 0x251C JUMP JUMPDEST PUSH1 0x40 MLOAD DUP1 SWAP2 SUB SWAP1 LOG2 PUSH1 0x3 DUP3 PUSH1 0xA ADD DUP1 SLOAD SWAP1 POP LT PUSH2 0xE2A JUMPI PUSH0 DUP1 PUSH0 JUMPDEST DUP5 PUSH1 0xA ADD DUP1 SLOAD SWAP1 POP DUP2 LT ISZERO PUSH2 0xDC4 JUMPI PUSH1 0x1 DUP6 PUSH1 0xB ADD PUSH0 DUP8 PUSH1 0xA ADD DUP5 DUP2 SLOAD DUP2 LT PUSH2 0xD2E JUMPI PUSH2 0xD2D PUSH2 0x2487 JUMP JUMPDEST JUMPDEST SWAP1 PUSH0 MSTORE PUSH1 0x20 PUSH0 KECCAK256 ADD PUSH0 SWAP1 SLOAD SWAP1 PUSH2 0x100 EXP SWAP1 DIV PUSH20 0xFFFFFFFFFFFFFFFFFFFFFFFFFFFFFFFFFFFFFFFF AND PUSH20 0xFFFFFFFFFFFFFFFFFFFFFFFFFFFFFFFFFFFFFFFF AND PUSH20 0xFFFFFFFFFFFFFFFFFFFFFFFFFFFFFFFFFFFFFFFF AND DUP2 MSTORE PUSH1 0x20 ADD SWAP1 DUP2 MSTORE PUSH1 0x20 ADD PUSH0 KECCAK256 SLOAD SUB PUSH2 0xDA8 JUMPI DUP3 DUP1 PUSH2 0xDA0 SWAP1 PUSH2 0x23E6 JUMP JUMPDEST SWAP4 POP POP PUSH2 0xDB7 JUMP JUMPDEST DUP2 DUP1 PUSH2 0xDB3 SWAP1 PUSH2 0x23E6 JUMP JUMPDEST SWAP3 POP POP JUMPDEST DUP1 DUP1 PUSH1 0x1 ADD SWAP2 POP POP PUSH2 0xD02 JUMP JUMPDEST POP PUSH0 DUP2 DUP4 GT PUSH2 0xDF6 JUMPI DUP5 PUSH1 0x1 ADD PUSH0 SWAP1 SLOAD SWAP1 PUSH2 0x100 EXP SWAP1 DIV PUSH20 0xFFFFFFFFFFFFFFFFFFFFFFFFFFFFFFFFFFFFFFFF AND PUSH2 0xE1A JUMP JUMPDEST DUP5 PUSH0 ADD PUSH0 SWAP1 SLOAD SWAP1 PUSH2 0x100 EXP SWAP1 DIV PUSH20 0xFFFFFFFFFFFFFFFFFFFFFFFFFFFFFFFFFFFFFFFF AND JUMPDEST SWAP1 POP PUSH2 0xE26 DUP8 DUP3 PUSH2 0x1653 JUMP JUMPDEST POP POP POP JUMPDEST POP POP POP POP JUMP JUMPDEST PUSH7 0xB1A2BC2EC50000 DUP2 JUMP JUMPDEST PUSH32 0xFFFFFFFFFFFFFFFFFFFFFFFFFFFFFFFFFFFFFFFFFFFFFFFFFFFFFFFFFFFFFF9C PUSH1 0x1 PUSH0 DUP4 PUSH20 0xFFFFFFFFFFFFFFFFFFFFFFFFFFFFFFFFFFFFFFFF AND PUSH20 0xFFFFFFFFFFFFFFFFFFFFFFFFFFFFFFFFFFFFFFFF AND DUP2 MSTORE PUSH1 0x20 ADD SWAP1 DUP2 MSTORE PUSH1 0x20 ADD PUSH0 KECCAK256 PUSH0 ADD SLOAD SGT ISZERO PUSH2 0xEDD JUMPI PUSH1 0x40 MLOAD PUSH32 0x8C379A000000000000000000000000000000000000000000000000000000000 DUP2 MSTORE PUSH1 0x4 ADD PUSH2 0xED4 SWAP1 PUSH2 0x258D JUMP JUMPDEST PUSH1 0x40 MLOAD DUP1 SWAP2 SUB SWAP1 REVERT JUMPDEST PUSH1 0x1 DUP1 PUSH0 DUP4 PUSH20 0xFFFFFFFFFFFFFFFFFFFFFFFFFFFFFFFFFFFFFFFF AND PUSH20 0xFFFFFFFFFFFFFFFFFFFFFFFFFFFFFFFFFFFFFFFF AND DUP2 MSTORE PUSH1 0x20 ADD SWAP1 DUP2 MSTORE PUSH1 0x20 ADD PUSH0 KECCAK256 PUSH1 0x2 ADD PUSH0 PUSH2 0x100 EXP DUP2 SLOAD DUP2 PUSH1 0xFF MUL NOT AND SWAP1 DUP4 ISZERO ISZERO MUL OR SWAP1 SSTORE POP POP JUMP JUMPDEST PUSH32 0xFFFFFFFFFFFFFFFFFFFFFFFFFFFFFFFFFFFFFFFFFFFFFFFFFFFFFFFFFFFFFFCE DUP2 JUMP JUMPDEST PUSH32 0xFFFFFFFFFFFFFFFFFFFFFFFFFFFFFFFFFFFFFFFFFFFFFFFFFFFFFFFFFFFFFFE7 DUP2 JUMP JUMPDEST PUSH3 0x2A300 DUP2 JUMP JUMPDEST DUP2 PUSH0 DUP1 DUP3 DUP2 MSTORE PUSH1 0x20 ADD SWAP1 DUP2 MSTORE PUSH1 0x20 ADD PUSH0 KECCAK256 PUSH0 ADD PUSH0 SWAP1 SLOAD SWAP1 PUSH2 0x100 EXP SWAP1 DIV PUSH20 0xFFFFFFFFFFFFFFFFFFFFFFFFFFFFFFFFFFFFFFFF AND PUSH20 0xFFFFFFFFFFFFFFFFFFFFFFFFFFFFFFFFFFFFFFFF AND CALLER PUSH20 0xFFFFFFFFFFFFFFFFFFFFFFFFFFFFFFFFFFFFFFFF AND EQ DUP1 PUSH2 0x104F JUMPI POP PUSH0 DUP1 DUP3 DUP2 MSTORE PUSH1 0x20 ADD SWAP1 DUP2 MSTORE PUSH1 0x20 ADD PUSH0 KECCAK256 PUSH1 0x1 ADD PUSH0 SWAP1 SLOAD SWAP1 PUSH2 0x100 EXP SWAP1 DIV PUSH20 0xFFFFFFFFFFFFFFFFFFFFFFFFFFFFFFFFFFFFFFFF AND PUSH20 0xFFFFFFFFFFFFFFFFFFFFFFFFFFFFFFFFFFFFFFFF AND CALLER PUSH20 0xFFFFFFFFFFFFFFFFFFFFFFFFFFFFFFFFFFFFFFFF AND EQ JUMPDEST PUSH2 0x108E JUMPI PUSH1 0x40 MLOAD PUSH32 0x8C379A000000000000000000000000000000000000000000000000000000000 DUP2 MSTORE PUSH1 0x4 ADD PUSH2 0x1085 SWAP1 PUSH2 0x25F5 JUMP JUMPDEST PUSH1 0x40 MLOAD DUP1 SWAP2 SUB SWAP1 REVERT JUMPDEST PUSH0 DUP1 PUSH0 DUP6 DUP2 MSTORE PUSH1 0x20 ADD SWAP1 DUP2 MSTORE PUSH1 0x20 ADD PUSH0 KECCAK256 SWAP1 POP PUSH0 PUSH1 0x3 DUP2 GT ISZERO PUSH2 0x10B4 JUMPI PUSH2 0x10B3 PUSH2 0x1D9D JUMP JUMPDEST JUMPDEST DUP2 PUSH1 0x8 ADD PUSH0 SWAP1 SLOAD SWAP1 PUSH2 0x100 EXP SWAP1 DIV PUSH1 0xFF AND PUSH1 0x3 DUP2 GT ISZERO PUSH2 0x10D7 JUMPI PUSH2 0x10D6 PUSH2 0x1D9D JUMP JUMPDEST JUMPDEST EQ PUSH2 0x1117 JUMPI PUSH1 0x40 MLOAD PUSH32 0x8C379A000000000000000000000000000000000000000000000000000000000 DUP2 MSTORE PUSH1 0x4 ADD PUSH2 0x110E SWAP1 PUSH2 0x265D JUMP JUMPDEST PUSH1 0x40 MLOAD DUP1 SWAP2 SUB SWAP1 REVERT JUMPDEST DUP1 PUSH0 ADD PUSH0 SWAP1 SLOAD SWAP1 PUSH2 0x100 EXP SWAP1 DIV PUSH20 0xFFFFFFFFFFFFFFFFFFFFFFFFFFFFFFFFFFFFFFFF AND PUSH20 0xFFFFFFFFFFFFFFFFFFFFFFFFFFFFFFFFFFFFFFFF AND CALLER PUSH20 0xFFFFFFFFFFFFFFFFFFFFFFFFFFFFFFFFFFFFFFFF AND SUB PUSH2 0x117A JUMPI DUP3 DUP2 PUSH1 0x2 ADD DUP2 SWAP1 SSTORE POP PUSH2 0x1184 JUMP JUMPDEST DUP3 DUP2 PUSH1 0x3 ADD DUP2 SWAP1 SSTORE POP JUMPDEST PUSH0 DUP1 SHL DUP2 PUSH1 0x2 ADD SLOAD EQ ISZERO DUP1 ISZERO PUSH2 0x11A0 JUMPI POP PUSH0 DUP1 SHL DUP2 PUSH1 0x3 ADD SLOAD EQ ISZERO JUMPDEST ISZERO PUSH2 0x11D2 JUMPI PUSH1 0x1 DUP2 PUSH1 0x8 ADD PUSH0 PUSH2 0x100 EXP DUP2 SLOAD DUP2 PUSH1 0xFF MUL NOT AND SWAP1 DUP4 PUSH1 0x3 DUP2 GT ISZERO PUSH2 0x11CC JUMPI PUSH2 0x11CB PUSH2 0x1D9D JUMP JUMPDEST JUMPDEST MUL OR SWAP1 SSTORE POP JUMPDEST POP POP POP POP JUMP JUMPDEST PUSH1 0xF DUP2 JUMP JUMPDEST PUSH1 0x1 PUSH1 0x20 MSTORE DUP1 PUSH0 MSTORE PUSH1 0x40 PUSH0 KECCAK256 PUSH0 SWAP2 POP SWAP1 POP DUP1 PUSH0 ADD SLOAD SWAP1 DUP1 PUSH1 0x1 ADD SLOAD SWAP1 DUP1 PUSH1 0x2 ADD PUSH0 SWAP1 SLOAD SWAP1 PUSH2 0x100 EXP SWAP1 DIV PUSH1 0xFF AND SWAP1 POP DUP4 JUMP JUMPDEST DUP3 PUSH0 DUP1 DUP3 DUP2 MSTORE PUSH1 0x20 ADD SWAP1 DUP2 MSTORE PUSH1 0x20 ADD PUSH0 KECCAK256 PUSH0 ADD PUSH0 SWAP1 SLOAD SWAP1 PUSH2 0x100 EXP SWAP1 DIV PUSH20 0xFFFFFFFFFFFFFFFFFFFFFFFFFFFFFFFFFFFFFFFF AND PUSH20 0xFFFFFFFFFFFFFFFFFFFFFFFFFFFFFFFFFFFFFFFF AND CALLER PUSH20 0xFFFFFFFFFFFFFFFFFFFFFFFFFFFFFFFFFFFFFFFF AND EQ DUP1 PUSH2 0x12D8 JUMPI POP PUSH0 DUP1 DUP3 DUP2 MSTORE PUSH1 0x20 ADD SWAP1 DUP2 MSTORE PUSH1 0x20 ADD PUSH0 KECCAK256 PUSH1 0x1 ADD PUSH0 SWAP1 SLOAD SWAP1 PUSH2 0x100 EXP SWAP1 DIV PUSH20 0xFFFFFFFFFFFFFFFFFFFFFFFFFFFFFFFFFFFFFFFF AND PUSH20 0xFFFFFFFFFFFFFFFFFFFFFFFFFFFFFFFFFFFFFFFF AND CALLER PUSH20 0xFFFFFFFFFFFFFFFFFFFFFFFFFFFFFFFFFFFFFFFF AND EQ JUMPDEST PUSH2 0x1317 JUMPI PUSH1 0x40 MLOAD PUSH32 0x8C379A000000000000000000000000000000000000000000000000000000000 DUP2 MSTORE PUSH1 0x4 ADD PUSH2 0x130E SWAP1 PUSH2 0x25F5 JUMP JUMPDEST PUSH1 0x40 MLOAD DUP1 SWAP2 SUB SWAP1 REVERT JUMPDEST PUSH0 DUP1 PUSH0 DUP7 DUP2 MSTORE PUSH1 0x20 ADD SWAP1 DUP2 MSTORE PUSH1 0x20 ADD PUSH0 KECCAK256 SWAP1 POP PUSH1 0x1 PUSH1 0x3 DUP2 GT ISZERO PUSH2 0x133E JUMPI PUSH2 0x133D PUSH2 0x1D9D JUMP JUMPDEST JUMPDEST DUP2 PUSH1 0x8 ADD PUSH0 SWAP1 SLOAD SWAP1 PUSH2 0x100 EXP SWAP1 DIV PUSH1 0xFF AND PUSH1 0x3 DUP2 GT ISZERO PUSH2 0x1361 JUMPI PUSH2 0x1360 PUSH2 0x1D9D JUMP JUMPDEST JUMPDEST EQ PUSH2 0x13A1 JUMPI PUSH1 0x40 MLOAD PUSH32 0x8C379A000000000000000000000000000000000000000000000000000000000 DUP2 MSTORE PUSH1 0x4 ADD PUSH2 0x1398 SWAP1 PUSH2 0x26C5 JUMP JUMPDEST PUSH1 0x40 MLOAD DUP1 SWAP2 SUB SWAP1 REVERT JUMPDEST DUP1 PUSH1 0xC ADD SLOAD TIMESTAMP GT ISZERO PUSH2 0x13E8 JUMPI PUSH1 0x40 MLOAD PUSH32 0x8C379A000000000000000000000000000000000000000000000000000000000 DUP2 MSTORE PUSH1 0x4 ADD PUSH2 0x13DF SWAP1 PUSH2 0x272D JUMP JUMPDEST PUSH1 0x40 MLOAD DUP1 SWAP2 SUB SWAP1 REVERT JUMPDEST PUSH0 DUP5 PUSH1 0x40 MLOAD PUSH1 0x20 ADD PUSH2 0x13FA SWAP2 SWAP1 PUSH2 0x27BF JUMP JUMPDEST PUSH1 0x40 MLOAD PUSH1 0x20 DUP2 DUP4 SUB SUB DUP2 MSTORE SWAP1 PUSH1 0x40 MSTORE DUP1 MLOAD SWAP1 PUSH1 0x20 ADD KECCAK256 SWAP1 POP DUP2 PUSH0 ADD PUSH0 SWAP1 SLOAD SWAP1 PUSH2 0x100 EXP SWAP1 DIV PUSH20 0xFFFFFFFFFFFFFFFFFFFFFFFFFFFFFFFFFFFFFFFF AND PUSH20 0xFFFFFFFFFFFFFFFFFFFFFFFFFFFFFFFFFFFFFFFF AND CALLER PUSH20 0xFFFFFFFFFFFFFFFFFFFFFFFFFFFFFFFFFFFFFFFF AND SUB PUSH2 0x14CD JUMPI DUP2 PUSH1 0x2 ADD SLOAD DUP2 EQ PUSH2 0x14AD JUMPI PUSH1 0x40 MLOAD PUSH32 0x8C379A000000000000000000000000000000000000000000000000000000000 DUP2 MSTORE PUSH1 0x4 ADD PUSH2 0x14A4 SWAP1 PUSH2 0x282E JUMP JUMPDEST PUSH1 0x40 MLOAD DUP1 SWAP2 SUB SWAP1 REVERT JUMPDEST DUP4 DUP3 PUSH1 0x4 ADD SWAP1 DUP2 PUSH2 0x14BE SWAP2 SWAP1 PUSH2 0x29E9 JUMP JUMPDEST POP DUP5 DUP3 PUSH1 0x6 ADD DUP2 SWAP1 SSTORE POP PUSH2 0x152F JUMP JUMPDEST DUP2 PUSH1 0x3 ADD SLOAD DUP2 EQ PUSH2 0x1513 JUMPI PUSH1 0x40 MLOAD PUSH32 0x8C379A000000000000000000000000000000000000000000000000000000000 DUP2 MSTORE PUSH1 0x4 ADD PUSH2 0x150A SWAP1 PUSH2 0x282E JUMP JUMPDEST PUSH1 0x40 MLOAD DUP1 SWAP2 SUB SWAP1 REVERT JUMPDEST DUP4 DUP3 PUSH1 0x5 ADD SWAP1 DUP2 PUSH2 0x1524 SWAP2 SWAP1 PUSH2 0x29E9 JUMP JUMPDEST POP DUP5 DUP3 PUSH1 0x7 ADD DUP2 SWAP1 SSTORE POP JUMPDEST DUP6 PUSH32 0x493474653EA5446B10D9BD9AED1854DE71A1AF7E2EEA8FC3065EF63FBEFDA9E2 CALLER PUSH1 0x40 MLOAD PUSH2 0x155F SWAP2 SWAP1 PUSH2 0x2AB8 JUMP JUMPDEST PUSH1 0x40 MLOAD DUP1 SWAP2 SUB SWAP1 LOG2 PUSH0 DUP1 SHL DUP3 PUSH1 0x6 ADD SLOAD EQ ISZERO DUP1 ISZERO PUSH2 0x1583 JUMPI POP PUSH0 DUP1 SHL DUP3 PUSH1 0x7 ADD SLOAD EQ ISZERO JUMPDEST ISZERO PUSH2 0x164B JUMPI DUP2 PUSH1 0x5 ADD PUSH1 0x40 MLOAD PUSH1 0x20 ADD PUSH2 0x159C SWAP2 SWAP1 PUSH2 0x2B51 JUMP JUMPDEST PUSH1 0x40 MLOAD PUSH1 0x20 DUP2 DUP4 SUB SUB DUP2 MSTORE SWAP1 PUSH1 0x40 MSTORE DUP1 MLOAD SWAP1 PUSH1 0x20 ADD KECCAK256 DUP3 PUSH1 0x4 ADD PUSH1 0x40 MLOAD PUSH1 0x20 ADD PUSH2 0x15C6 SWAP2 SWAP1 PUSH2 0x2B51 JUMP JUMPDEST PUSH1 0x40 MLOAD PUSH1 0x20 DUP2 DUP4 SUB SUB DUP2 MSTORE SWAP1 PUSH1 0x40 MSTORE DUP1 MLOAD SWAP1 PUSH1 0x20 ADD KECCAK256 SUB PUSH2 0x15F0 JUMPI PUSH2 0x15EB DUP7 CALLER PUSH2 0x199C JUMP JUMPDEST PUSH2 0x164A JUMP JUMPDEST PUSH1 0x2 DUP3 PUSH1 0x8 ADD PUSH0 PUSH2 0x100 EXP DUP2 SLOAD DUP2 PUSH1 0xFF MUL NOT AND SWAP1 DUP4 PUSH1 0x3 DUP2 GT ISZERO PUSH2 0x1617 JUMPI PUSH2 0x1616 PUSH2 0x1D9D JUMP JUMPDEST JUMPDEST MUL OR SWAP1 SSTORE POP DUP6 PUSH32 0x116F6B179359DB1A58A963FC783EE184E7844ABA306A3C2CE02DE3D7391D17C3 PUSH1 0x40 MLOAD PUSH1 0x40 MLOAD DUP1 SWAP2 SUB SWAP1 LOG2 JUMPDEST JUMPDEST POP POP POP POP POP POP JUMP JUMPDEST PUSH0 DUP1 PUSH0 DUP5 DUP2 MSTORE PUSH1 0x20 ADD SWAP1 DUP2 MSTORE PUSH1 0x20 ADD PUSH0 KECCAK256 SWAP1 POP PUSH1 0x3 DUP2 PUSH1 0x8 ADD PUSH0 PUSH2 0x100 EXP DUP2 SLOAD DUP2 PUSH1 0xFF MUL NOT AND SWAP1 DUP4 PUSH1 0x3 DUP2 GT ISZERO PUSH2 0x168D JUMPI PUSH2 0x168C PUSH2 0x1D9D JUMP JUMPDEST JUMPDEST MUL OR SWAP1 SSTORE POP PUSH0 DUP2 PUSH0 ADD PUSH0 SWAP1 SLOAD SWAP1 PUSH2 0x100 EXP SWAP1 DIV PUSH20 0xFFFFFFFFFFFFFFFFFFFFFFFFFFFFFFFFFFFFFFFF AND PUSH20 0xFFFFFFFFFFFFFFFFFFFFFFFFFFFFFFFFFFFFFFFF AND DUP4 PUSH20 0xFFFFFFFFFFFFFFFFFFFFFFFFFFFFFFFFFFFFFFFF AND EQ PUSH2 0x1710 JUMPI DUP2 PUSH0 ADD PUSH0 SWAP1 SLOAD SWAP1 PUSH2 0x100 EXP SWAP1 DIV PUSH20 0xFFFFFFFFFFFFFFFFFFFFFFFFFFFFFFFFFFFFFFFF AND PUSH2 0x1735 JUMP JUMPDEST DUP2 PUSH1 0x1 ADD PUSH0 SWAP1 SLOAD SWAP1 PUSH2 0x100 EXP SWAP1 DIV PUSH20 0xFFFFFFFFFFFFFFFFFFFFFFFFFFFFFFFFFFFFFFFF AND JUMPDEST SWAP1 POP PUSH32 0xFFFFFFFFFFFFFFFFFFFFFFFFFFFFFFFFFFFFFFFFFFFFFFFFFFFFFFFFFFFFFFCE PUSH1 0x1 PUSH0 DUP4 PUSH20 0xFFFFFFFFFFFFFFFFFFFFFFFFFFFFFFFFFFFFFFFF AND PUSH20 0xFFFFFFFFFFFFFFFFFFFFFFFFFFFFFFFFFFFFFFFF AND DUP2 MSTORE PUSH1 0x20 ADD SWAP1 DUP2 MSTORE PUSH1 0x20 ADD PUSH0 KECCAK256 PUSH0 ADD PUSH0 DUP3 DUP3 SLOAD PUSH2 0x17A5 SWAP2 SWAP1 PUSH2 0x2B67 JUMP JUMPDEST SWAP3 POP POP DUP2 SWAP1 SSTORE POP PUSH0 JUMPDEST DUP3 PUSH1 0xA ADD DUP1 SLOAD SWAP1 POP DUP2 LT ISZERO PUSH2 0x18E5 JUMPI DUP3 PUSH1 0xA ADD DUP2 DUP2 SLOAD DUP2 LT PUSH2 0x17D3 JUMPI PUSH2 0x17D2 PUSH2 0x2487 JUMP JUMPDEST JUMPDEST SWAP1 PUSH0 MSTORE PUSH1 0x20 PUSH0 KECCAK256 ADD PUSH0 SWAP1 SLOAD SWAP1 PUSH2 0x100 EXP SWAP1 DIV PUSH20 0xFFFFFFFFFFFFFFFFFFFFFFFFFFFFFFFFFFFFFFFF AND PUSH20 0xFFFFFFFFFFFFFFFFFFFFFFFFFFFFFFFFFFFFFFFF AND PUSH2 0x8FC PUSH7 0xB1A2BC2EC50000 SWAP1 DUP2 ISZERO MUL SWAP1 PUSH1 0x40 MLOAD PUSH0 PUSH1 0x40 MLOAD DUP1 DUP4 SUB DUP2 DUP6 DUP9 DUP9 CALL SWAP4 POP POP POP POP ISZERO DUP1 ISZERO PUSH2 0x1844 JUMPI RETURNDATASIZE PUSH0 DUP1 RETURNDATACOPY RETURNDATASIZE PUSH0 REVERT JUMPDEST POP PUSH1 0x5 PUSH1 0x1 PUSH0 DUP6 PUSH1 0xA ADD DUP5 DUP2 SLOAD DUP2 LT PUSH2 0x1860 JUMPI PUSH2 0x185F PUSH2 0x2487 JUMP JUMPDEST JUMPDEST SWAP1 PUSH0 MSTORE PUSH1 0x20 PUSH0 KECCAK256 ADD PUSH0 SWAP1 SLOAD SWAP1 PUSH2 0x100 EXP SWAP1 DIV PUSH20 0xFFFFFFFFFFFFFFFFFFFFFFFFFFFFFFFFFFFFFFFF AND PUSH20 0xFFFFFFFFFFFFFFFFFFFFFFFFFFFFFFFFFFFFFFFF AND PUSH20 0xFFFFFFFFFFFFFFFFFFFFFFFFFFFFFFFFFFFFFFFF AND DUP2 MSTORE PUSH1 0x20 ADD SWAP1 DUP2 MSTORE PUSH1 0x20 ADD PUSH0 KECCAK256 PUSH0 ADD PUSH0 DUP3 DUP3 SLOAD PUSH2 0x18D1 SWAP2 SWAP1 PUSH2 0x2B67 JUMP JUMPDEST SWAP3 POP POP DUP2 SWAP1 SSTORE POP DUP1 DUP1 PUSH1 0x1 ADD SWAP2 POP POP PUSH2 0x17AE JUMP JUMPDEST POP DUP3 PUSH20 0xFFFFFFFFFFFFFFFFFFFFFFFFFFFFFFFFFFFFFFFF AND PUSH2 0x8FC DUP4 PUSH1 0xA ADD DUP1 SLOAD SWAP1 POP PUSH7 0xB1A2BC2EC50000 PUSH2 0x191A SWAP2 SWAP1 PUSH2 0x2BA8 JUMP JUMPDEST PUSH1 0x2 DUP6 PUSH1 0x9 ADD SLOAD PUSH2 0x192B SWAP2 SWAP1 PUSH2 0x2BA8 JUMP JUMPDEST PUSH2 0x1935 SWAP2 SWAP1 PUSH2 0x2BE9 JUMP JUMPDEST SWAP1 DUP2 ISZERO MUL SWAP1 PUSH1 0x40 MLOAD PUSH0 PUSH1 0x40 MLOAD DUP1 DUP4 SUB DUP2 DUP6 DUP9 DUP9 CALL SWAP4 POP POP POP POP ISZERO DUP1 ISZERO PUSH2 0x195D JUMPI RETURNDATASIZE PUSH0 DUP1 RETURNDATACOPY RETURNDATASIZE PUSH0 REVERT JUMPDEST POP DUP4 PUSH32 0x1C560E9F349CD346794F9D534FB852628D58CC7A726D0ADB57820FAE0A50CD47 DUP5 PUSH1 0x40 MLOAD PUSH2 0x198E SWAP2 SWAP1 PUSH2 0x2AB8 JUMP JUMPDEST PUSH1 0x40 MLOAD DUP1 SWAP2 SUB SWAP1 LOG2 POP POP POP POP JUMP JUMPDEST PUSH0 DUP1 PUSH0 DUP5 DUP2 MSTORE PUSH1 0x20 ADD SWAP1 DUP2 MSTORE PUSH1 0x20 ADD PUSH0 KECCAK256 SWAP1 POP PUSH1 0x3 DUP2 PUSH1 0x8 ADD PUSH0 PUSH2 0x100 EXP DUP2 SLOAD DUP2 PUSH1 0xFF MUL NOT AND SWAP1 DUP4 PUSH1 0x3 DUP2 GT ISZERO PUSH2 0x19D6 JUMPI PUSH2 0x19D5 PUSH2 0x1D9D JUMP JUMPDEST JUMPDEST MUL OR SWAP1 SSTORE POP PUSH1 0xF PUSH1 0x1 PUSH0 DUP5 PUSH20 0xFFFFFFFFFFFFFFFFFFFFFFFFFFFFFFFFFFFFFFFF AND PUSH20 0xFFFFFFFFFFFFFFFFFFFFFFFFFFFFFFFFFFFFFFFF AND DUP2 MSTORE PUSH1 0x20 ADD SWAP1 DUP2 MSTORE PUSH1 0x20 ADD PUSH0 KECCAK256 PUSH0 ADD PUSH0 DUP3 DUP3 SLOAD PUSH2 0x1A2A SWAP2 SWAP1 PUSH2 0x2B67 JUMP JUMPDEST SWAP3 POP POP DUP2 SWAP1 SSTORE POP PUSH1 0xA PUSH1 0x1 PUSH0 DUP4 PUSH0 ADD PUSH0 SWAP1 SLOAD SWAP1 PUSH2 0x100 EXP SWAP1 DIV PUSH20 0xFFFFFFFFFFFFFFFFFFFFFFFFFFFFFFFFFFFFFFFF AND PUSH20 0xFFFFFFFFFFFFFFFFFFFFFFFFFFFFFFFFFFFFFFFF AND DUP6 PUSH20 0xFFFFFFFFFFFFFFFFFFFFFFFFFFFFFFFFFFFFFFFF AND EQ PUSH2 0x1AB3 JUMPI DUP4 PUSH0 ADD PUSH0 SWAP1 SLOAD SWAP1 PUSH2 0x100 EXP SWAP1 DIV PUSH20 0xFFFFFFFFFFFFFFFFFFFFFFFFFFFFFFFFFFFFFFFF AND PUSH2 0x1AD8 JUMP JUMPDEST DUP4 PUSH1 0x1 ADD PUSH0 SWAP1 SLOAD SWAP1 PUSH2 0x100 EXP SWAP1 DIV PUSH20 0xFFFFFFFFFFFFFFFFFFFFFFFFFFFFFFFFFFFFFFFF AND JUMPDEST PUSH20 0xFFFFFFFFFFFFFFFFFFFFFFFFFFFFFFFFFFFFFFFF AND PUSH20 0xFFFFFFFFFFFFFFFFFFFFFFFFFFFFFFFFFFFFFFFF AND DUP2 MSTORE PUSH1 0x20 ADD SWAP1 DUP2 MSTORE PUSH1 0x20 ADD PUSH0 KECCAK256 PUSH0 ADD PUSH0 DUP3 DUP3 SLOAD PUSH2 0x1B21 SWAP2 SWAP1 PUSH2 0x2B67 JUMP JUMPDEST SWAP3 POP POP DUP2 SWAP1 SSTORE POP DUP2 PUSH20 0xFFFFFFFFFFFFFFFFFFFFFFFFFFFFFFFFFFFFFFFF AND PUSH2 0x8FC PUSH1 0x2 DUP4 PUSH1 0x9 ADD SLOAD PUSH2 0x1B53 SWAP2 SWAP1 PUSH2 0x2BA8 JUMP JUMPDEST SWAP1 DUP2 ISZERO MUL SWAP1 PUSH1 0x40 MLOAD PUSH0 PUSH1 0x40 MLOAD DUP1 DUP4 SUB DUP2 DUP6 DUP9 DUP9 CALL SWAP4 POP POP POP POP ISZERO DUP1 ISZERO PUSH2 0x1B7B JUMPI RETURNDATASIZE PUSH0 DUP1 RETURNDATACOPY RETURNDATASIZE PUSH0 REVERT JUMPDEST POP DUP3 PUSH32 0x1C560E9F349CD346794F9D534FB852628D58CC7A726D0ADB57820FAE0A50CD47 DUP4 PUSH1 0x40 MLOAD PUSH2 0x1BAC SWAP2 SWAP1 PUSH2 0x2AB8 JUMP JUMPDEST PUSH1 0x40 MLOAD DUP1 SWAP2 SUB SWAP1 LOG2 POP POP POP JUMP JUMPDEST PUSH0 DUP2 SWAP1 POP SWAP2 SWAP1 POP JUMP JUMPDEST PUSH2 0x1BCB DUP2 PUSH2 0x1BB9 JUMP JUMPDEST DUP3 MSTORE POP POP JUMP JUMPDEST PUSH0 PUSH1 0x20 DUP3 ADD SWAP1 POP PUSH2 0x1BE4 PUSH0 DUP4 ADD DUP5 PUSH2 0x1BC2 JUMP JUMPDEST SWAP3 SWAP2 POP POP JUMP JUMPDEST PUSH0 DUP2 SWAP1 POP SWAP2 SWAP1 POP JUMP JUMPDEST PUSH2 0x1BFC DUP2 PUSH2 0x1BEA JUMP JUMPDEST DUP3 MSTORE POP POP JUMP JUMPDEST PUSH0 PUSH1 0x20 DUP3 ADD SWAP1 POP PUSH2 0x1C15 PUSH0 DUP4 ADD DUP5 PUSH2 0x1BF3 JUMP JUMPDEST SWAP3 SWAP2 POP POP JUMP JUMPDEST PUSH0 PUSH1 0x40 MLOAD SWAP1 POP SWAP1 JUMP JUMPDEST PUSH0 DUP1 REVERT JUMPDEST PUSH0 DUP1 REVERT JUMPDEST PUSH0 PUSH20 0xFFFFFFFFFFFFFFFFFFFFFFFFFFFFFFFFFFFFFFFF DUP3 AND SWAP1 POP SWAP2 SWAP1 POP JUMP JUMPDEST PUSH0 PUSH2 0x1C55 DUP3 PUSH2 0x1C2C JUMP JUMPDEST SWAP1 POP SWAP2 SWAP1 POP JUMP JUMPDEST PUSH2 0x1C65 DUP2 PUSH2 0x1C4B JUMP JUMPDEST DUP2 EQ PUSH2 0x1C6F JUMPI PUSH0 DUP1 REVERT JUMPDEST POP JUMP JUMPDEST PUSH0 DUP2 CALLDATALOAD SWAP1 POP PUSH2 0x1C80 DUP2 PUSH2 0x1C5C JUMP JUMPDEST SWAP3 SWAP2 POP POP JUMP JUMPDEST PUSH0 PUSH1 0x20 DUP3 DUP5 SUB SLT ISZERO PUSH2 0x1C9B JUMPI PUSH2 0x1C9A PUSH2 0x1C24 JUMP JUMPDEST JUMPDEST PUSH0 PUSH2 0x1CA8 DUP5 DUP3 DUP6 ADD PUSH2 0x1C72 JUMP JUMPDEST SWAP2 POP POP SWAP3 SWAP2 POP POP JUMP JUMPDEST PUSH2 0x1CBA DUP2 PUSH2 0x1BB9 JUMP JUMPDEST DUP2 EQ PUSH2 0x1CC4 JUMPI PUSH0 DUP1 REVERT JUMPDEST POP JUMP JUMPDEST PUSH0 DUP2 CALLDATALOAD SWAP1 POP PUSH2 0x1CD5 DUP2 PUSH2 0x1CB1 JUMP JUMPDEST SWAP3 SWAP2 POP POP JUMP JUMPDEST PUSH0 PUSH1 0x20 DUP3 DUP5 SUB SLT ISZERO PUSH2 0x1CF0 JUMPI PUSH2 0x1CEF PUSH2 0x1C24 JUMP JUMPDEST JUMPDEST PUSH0 PUSH2 0x1CFD DUP5 DUP3 DUP6 ADD PUSH2 0x1CC7 JUMP JUMPDEST SWAP2 POP POP SWAP3 SWAP2 POP POP JUMP JUMPDEST PUSH2 0x1D0F DUP2 PUSH2 0x1C4B JUMP JUMPDEST DUP3 MSTORE POP POP JUMP JUMPDEST PUSH0 DUP2 SWAP1 POP SWAP2 SWAP1 POP JUMP JUMPDEST PUSH2 0x1D27 DUP2 PUSH2 0x1D15 JUMP JUMPDEST DUP3 MSTORE POP POP JUMP JUMPDEST PUSH0 DUP2 MLOAD SWAP1 POP SWAP2 SWAP1 POP JUMP JUMPDEST PUSH0 DUP3 DUP3 MSTORE PUSH1 0x20 DUP3 ADD SWAP1 POP SWAP3 SWAP2 POP POP JUMP JUMPDEST DUP3 DUP2 DUP4 MCOPY PUSH0 DUP4 DUP4 ADD MSTORE POP POP POP JUMP JUMPDEST PUSH0 PUSH1 0x1F NOT PUSH1 0x1F DUP4 ADD AND SWAP1 POP SWAP2 SWAP1 POP JUMP JUMPDEST PUSH0 PUSH2 0x1D6F DUP3 PUSH2 0x1D2D JUMP JUMPDEST PUSH2 0x1D79 DUP2 DUP6 PUSH2 0x1D37 JUMP JUMPDEST SWAP4 POP PUSH2 0x1D89 DUP2 DUP6 PUSH1 0x20 DUP7 ADD PUSH2 0x1D47 JUMP JUMPDEST PUSH2 0x1D92 DUP2 PUSH2 0x1D55 JUMP JUMPDEST DUP5 ADD SWAP2 POP POP SWAP3 SWAP2 POP POP JUMP JUMPDEST PUSH32 0x4E487B7100000000000000000000000000000000000000000000000000000000 PUSH0 MSTORE PUSH1 0x21 PUSH1 0x4 MSTORE PUSH1 0x24 PUSH0 REVERT JUMPDEST PUSH1 0x4 DUP2 LT PUSH2 0x1DDB JUMPI PUSH2 0x1DDA PUSH2 0x1D9D JUMP JUMPDEST JUMPDEST POP JUMP JUMPDEST PUSH0 DUP2 SWAP1 POP PUSH2 0x1DEB DUP3 PUSH2 0x1DCA JUMP JUMPDEST SWAP2 SWAP1 POP JUMP JUMPDEST PUSH0 PUSH2 0x1DFA DUP3 PUSH2 0x1DDE JUMP JUMPDEST SWAP1 POP SWAP2 SWAP1 POP JUMP JUMPDEST PUSH2 0x1E0A DUP2 PUSH2 0x1DF0 JUMP JUMPDEST DUP3 MSTORE POP POP JUMP JUMPDEST PUSH0 PUSH2 0x160 DUP3 ADD SWAP1 POP PUSH2 0x1E24 PUSH0 DUP4 ADD DUP15 PUSH2 0x1D06 JUMP JUMPDEST PUSH2 0x1E31 PUSH1 0x20 DUP4 ADD DUP14 PUSH2 0x1D06 JUMP JUMPDEST PUSH2 0x1E3E PUSH1 0x40 DUP4 ADD DUP13 PUSH2 0x1D1E JUMP JUMPDEST PUSH2 0x1E4B PUSH1 0x60 DUP4 ADD DUP12 PUSH2 0x1D1E JUMP JUMPDEST DUP2 DUP2 SUB PUSH1 0x80 DUP4 ADD MSTORE PUSH2 0x1E5D DUP2 DUP11 PUSH2 0x1D65 JUMP JUMPDEST SWAP1 POP DUP2 DUP2 SUB PUSH1 0xA0 DUP4 ADD MSTORE PUSH2 0x1E71 DUP2 DUP10 PUSH2 0x1D65 JUMP JUMPDEST SWAP1 POP PUSH2 0x1E80 PUSH1 0xC0 DUP4 ADD DUP9 PUSH2 0x1D1E JUMP JUMPDEST PUSH2 0x1E8D PUSH1 0xE0 DUP4 ADD DUP8 PUSH2 0x1D1E JUMP JUMPDEST PUSH2 0x1E9B PUSH2 0x100 DUP4 ADD DUP7 PUSH2 0x1E01 JUMP JUMPDEST PUSH2 0x1EA9 PUSH2 0x120 DUP4 ADD DUP6 PUSH2 0x1BC2 JUMP JUMPDEST PUSH2 0x1EB7 PUSH2 0x140 DUP4 ADD DUP5 PUSH2 0x1BC2 JUMP JUMPDEST SWAP13 SWAP12 POP POP POP POP POP POP POP POP POP POP POP POP JUMP JUMPDEST PUSH0 DUP1 PUSH1 0x40 DUP4 DUP6 SUB SLT ISZERO PUSH2 0x1EDD JUMPI PUSH2 0x1EDC PUSH2 0x1C24 JUMP JUMPDEST JUMPDEST PUSH0 PUSH2 0x1EEA DUP6 DUP3 DUP7 ADD PUSH2 0x1CC7 JUMP JUMPDEST SWAP3 POP POP PUSH1 0x20 PUSH2 0x1EFB DUP6 DUP3 DUP7 ADD PUSH2 0x1CC7 JUMP JUMPDEST SWAP2 POP POP SWAP3 POP SWAP3 SWAP1 POP JUMP JUMPDEST PUSH2 0x1F0E DUP2 PUSH2 0x1D15 JUMP JUMPDEST DUP2 EQ PUSH2 0x1F18 JUMPI PUSH0 DUP1 REVERT JUMPDEST POP JUMP JUMPDEST PUSH0 DUP2 CALLDATALOAD SWAP1 POP PUSH2 0x1F29 DUP2 PUSH2 0x1F05 JUMP JUMPDEST SWAP3 SWAP2 POP POP JUMP JUMPDEST PUSH0 DUP1 PUSH1 0x40 DUP4 DUP6 SUB SLT ISZERO PUSH2 0x1F45 JUMPI PUSH2 0x1F44 PUSH2 0x1C24 JUMP JUMPDEST JUMPDEST PUSH0 PUSH2 0x1F52 DUP6 DUP3 DUP7 ADD PUSH2 0x1CC7 JUMP JUMPDEST SWAP3 POP POP PUSH1 0x20 PUSH2 0x1F63 DUP6 DUP3 DUP7 ADD PUSH2 0x1F1B JUMP JUMPDEST SWAP2 POP POP SWAP3 POP SWAP3 SWAP1 POP JUMP JUMPDEST PUSH0 DUP2 ISZERO ISZERO SWAP1 POP SWAP2 SWAP1 POP JUMP JUMPDEST PUSH2 0x1F81 DUP2 PUSH2 0x1F6D JUMP JUMPDEST DUP3 MSTORE POP POP JUMP JUMPDEST PUSH0 PUSH1 0x60 DUP3 ADD SWAP1 POP PUSH2 0x1F9A PUSH0 DUP4 ADD DUP7 PUSH2 0x1BF3 JUMP JUMPDEST PUSH2 0x1FA7 PUSH1 0x20 DUP4 ADD DUP6 PUSH2 0x1BC2 JUMP JUMPDEST PUSH2 0x1FB4 PUSH1 0x40 DUP4 ADD DUP5 PUSH2 0x1F78 JUMP JUMPDEST SWAP5 SWAP4 POP POP POP POP JUMP JUMPDEST PUSH0 DUP1 REVERT JUMPDEST PUSH0 DUP1 REVERT JUMPDEST PUSH32 0x4E487B7100000000000000000000000000000000000000000000000000000000 PUSH0 MSTORE PUSH1 0x41 PUSH1 0x4 MSTORE PUSH1 0x24 PUSH0 REVERT JUMPDEST PUSH2 0x1FFA DUP3 PUSH2 0x1D55 JUMP JUMPDEST DUP2 ADD DUP2 DUP2 LT PUSH8 0xFFFFFFFFFFFFFFFF DUP3 GT OR ISZERO PUSH2 0x2019 JUMPI PUSH2 0x2018 PUSH2 0x1FC4 JUMP JUMPDEST JUMPDEST DUP1 PUSH1 0x40 MSTORE POP POP POP JUMP JUMPDEST PUSH0 PUSH2 0x202B PUSH2 0x1C1B JUMP JUMPDEST SWAP1 POP PUSH2 0x2037 DUP3 DUP3 PUSH2 0x1FF1 JUMP JUMPDEST SWAP2 SWAP1 POP JUMP JUMPDEST PUSH0 PUSH8 0xFFFFFFFFFFFFFFFF DUP3 GT ISZERO PUSH2 0x2056 JUMPI PUSH2 0x2055 PUSH2 0x1FC4 JUMP JUMPDEST JUMPDEST PUSH2 0x205F DUP3 PUSH2 0x1D55 JUMP JUMPDEST SWAP1 POP PUSH1 0x20 DUP2 ADD SWAP1 POP SWAP2 SWAP1 POP JUMP JUMPDEST DUP3 DUP2 DUP4 CALLDATACOPY PUSH0 DUP4 DUP4 ADD MSTORE POP POP POP JUMP JUMPDEST PUSH0 PUSH2 0x208C PUSH2 0x2087 DUP5 PUSH2 0x203C JUMP JUMPDEST PUSH2 0x2022 JUMP JUMPDEST SWAP1 POP DUP3 DUP2 MSTORE PUSH1 0x20 DUP2 ADD DUP5 DUP5 DUP5 ADD GT ISZERO PUSH2 0x20A8 JUMPI PUSH2 0x20A7 PUSH2 0x1FC0 JUMP JUMPDEST JUMPDEST PUSH2 0x20B3 DUP5 DUP3 DUP6 PUSH2 0x206C JUMP JUMPDEST POP SWAP4 SWAP3 POP POP POP JUMP JUMPDEST PUSH0 DUP3 PUSH1 0x1F DUP4 ADD SLT PUSH2 0x20CF JUMPI PUSH2 0x20CE PUSH2 0x1FBC JUMP JUMPDEST JUMPDEST DUP2 CALLDATALOAD PUSH2 0x20DF DUP5 DUP3 PUSH1 0x20 DUP7 ADD PUSH2 0x207A JUMP JUMPDEST SWAP2 POP POP SWAP3 SWAP2 POP POP JUMP JUMPDEST PUSH0 DUP1 PUSH0 PUSH1 0x60 DUP5 DUP7 SUB SLT ISZERO PUSH2 0x20FF JUMPI PUSH2 0x20FE PUSH2 0x1C24 JUMP JUMPDEST JUMPDEST PUSH0 PUSH2 0x210C DUP7 DUP3 DUP8 ADD PUSH2 0x1CC7 JUMP JUMPDEST SWAP4 POP POP PUSH1 0x20 PUSH2 0x211D DUP7 DUP3 DUP8 ADD PUSH2 0x1F1B JUMP JUMPDEST SWAP3 POP POP PUSH1 0x40 DUP5 ADD CALLDATALOAD PUSH8 0xFFFFFFFFFFFFFFFF DUP2 GT ISZERO PUSH2 0x213E JUMPI PUSH2 0x213D PUSH2 0x1C28 JUMP JUMPDEST JUMPDEST PUSH2 0x214A DUP7 DUP3 DUP8 ADD PUSH2 0x20BB JUMP JUMPDEST SWAP2 POP POP SWAP3 POP SWAP3 POP SWAP3 JUMP JUMPDEST PUSH32 0x596F75206172652062616E6E6564000000000000000000000000000000000000 PUSH0 DUP3 ADD MSTORE POP JUMP JUMPDEST PUSH0 PUSH2 0x2188 PUSH1 0xE DUP4 PUSH2 0x1D37 JUMP JUMPDEST SWAP2 POP PUSH2 0x2193 DUP3 PUSH2 0x2154 JUMP JUMPDEST PUSH1 0x20 DUP3 ADD SWAP1 POP SWAP2 SWAP1 POP JUMP JUMPDEST PUSH0 PUSH1 0x20 DUP3 ADD SWAP1 POP DUP2 DUP2 SUB PUSH0 DUP4 ADD MSTORE PUSH2 0x21B5 DUP2 PUSH2 0x217C JUMP JUMPDEST SWAP1 POP SWAP2 SWAP1 POP JUMP JUMPDEST PUSH32 0x496E636F7272656374206A757279207374616B65000000000000000000000000 PUSH0 DUP3 ADD MSTORE POP JUMP JUMPDEST PUSH0 PUSH2 0x21F0 PUSH1 0x14 DUP4 PUSH2 0x1D37 JUMP JUMPDEST SWAP2 POP PUSH2 0x21FB DUP3 PUSH2 0x21BC JUMP JUMPDEST PUSH1 0x20 DUP3 ADD SWAP1 POP SWAP2 SWAP1 POP JUMP JUMPDEST PUSH0 PUSH1 0x20 DUP3 ADD SWAP1 POP DUP2 DUP2 SUB PUSH0 DUP4 ADD MSTORE PUSH2 0x221D DUP2 PUSH2 0x21E4 JUMP JUMPDEST SWAP1 POP SWAP2 SWAP1 POP JUMP JUMPDEST PUSH32 0x4E6F206163746976652064697370757465000000000000000000000000000000 PUSH0 DUP3 ADD MSTORE POP JUMP JUMPDEST PUSH0 PUSH2 0x2258 PUSH1 0x11 DUP4 PUSH2 0x1D37 JUMP JUMPDEST SWAP2 POP PUSH2 0x2263 DUP3 PUSH2 0x2224 JUMP JUMPDEST PUSH1 0x20 DUP3 ADD SWAP1 POP SWAP2 SWAP1 POP JUMP JUMPDEST PUSH0 PUSH1 0x20 DUP3 ADD SWAP1 POP DUP2 DUP2 SUB PUSH0 DUP4 ADD MSTORE PUSH2 0x2285 DUP2 PUSH2 0x224C JUMP JUMPDEST SWAP1 POP SWAP2 SWAP1 POP JUMP JUMPDEST PUSH32 0x4E487B7100000000000000000000000000000000000000000000000000000000 PUSH0 MSTORE PUSH1 0x22 PUSH1 0x4 MSTORE PUSH1 0x24 PUSH0 REVERT JUMPDEST PUSH0 PUSH1 0x2 DUP3 DIV SWAP1 POP PUSH1 0x1 DUP3 AND DUP1 PUSH2 0x22D0 JUMPI PUSH1 0x7F DUP3 AND SWAP2 POP JUMPDEST PUSH1 0x20 DUP3 LT DUP2 SUB PUSH2 0x22E3 JUMPI PUSH2 0x22E2 PUSH2 0x228C JUMP JUMPDEST JUMPDEST POP SWAP2 SWAP1 POP JUMP JUMPDEST PUSH32 0x4F70706F6E656E742069732062616E6E65640000000000000000000000000000 PUSH0 DUP3 ADD MSTORE POP JUMP JUMPDEST PUSH0 PUSH2 0x231D PUSH1 0x12 DUP4 PUSH2 0x1D37 JUMP JUMPDEST SWAP2 POP PUSH2 0x2328 DUP3 PUSH2 0x22E9 JUMP JUMPDEST PUSH1 0x20 DUP3 ADD SWAP1 POP SWAP2 SWAP1 POP JUMP JUMPDEST PUSH0 PUSH1 0x20 DUP3 ADD SWAP1 POP DUP2 DUP2 SUB PUSH0 DUP4 ADD MSTORE PUSH2 0x234A DUP2 PUSH2 0x2311 JUMP JUMPDEST SWAP1 POP SWAP2 SWAP1 POP JUMP JUMPDEST PUSH32 0x496E636F7272656374207374616B6520616D6F756E7400000000000000000000 PUSH0 DUP3 ADD MSTORE POP JUMP JUMPDEST PUSH0 PUSH2 0x2385 PUSH1 0x16 DUP4 PUSH2 0x1D37 JUMP JUMPDEST SWAP2 POP PUSH2 0x2390 DUP3 PUSH2 0x2351 JUMP JUMPDEST PUSH1 0x20 DUP3 ADD SWAP1 POP SWAP2 SWAP1 POP JUMP JUMPDEST PUSH0 PUSH1 0x20 DUP3 ADD SWAP1 POP DUP2 DUP2 SUB PUSH0 DUP4 ADD MSTORE PUSH2 0x23B2 DUP2 PUSH2 0x2379 JUMP JUMPDEST SWAP1 POP SWAP2 SWAP1 POP JUMP JUMPDEST PUSH32 0x4E487B7100000000000000000000000000000000000000000000000000000000 PUSH0 MSTORE PUSH1 0x11 PUSH1 0x4 MSTORE PUSH1 0x24 PUSH0 REVERT JUMPDEST PUSH0 PUSH2 0x23F0 DUP3 PUSH2 0x1BB9 JUMP JUMPDEST SWAP2 POP PUSH32 0xFFFFFFFFFFFFFFFFFFFFFFFFFFFFFFFFFFFFFFFFFFFFFFFFFFFFFFFFFFFFFFFF DUP3 SUB PUSH2 0x2422 JUMPI PUSH2 0x2421 PUSH2 0x23B9 JUMP JUMPDEST JUMPDEST PUSH1 0x1 DUP3 ADD SWAP1 POP SWAP2 SWAP1 POP JUMP JUMPDEST PUSH0 PUSH2 0x2437 DUP3 PUSH2 0x1BB9 JUMP JUMPDEST SWAP2 POP PUSH2 0x2442 DUP4 PUSH2 0x1BB9 JUMP JUMPDEST SWAP3 POP DUP3 DUP3 ADD SWAP1 POP DUP1 DUP3 GT ISZERO PUSH2 0x245A JUMPI PUSH2 0x2459 PUSH2 0x23B9 JUMP JUMPDEST JUMPDEST SWAP3 SWAP2 POP POP JUMP JUMPDEST PUSH0 PUSH1 0x40 DUP3 ADD SWAP1 POP PUSH2 0x2473 PUSH0 DUP4 ADD DUP6 PUSH2 0x1D06 JUMP JUMPDEST PUSH2 0x2480 PUSH1 0x20 DUP4 ADD DUP5 PUSH2 0x1D06 JUMP JUMPDEST SWAP4 SWAP3 POP POP POP JUMP JUMPDEST PUSH32 0x4E487B7100000000000000000000000000000000000000000000000000000000 PUSH0 MSTORE PUSH1 0x32 PUSH1 0x4 MSTORE PUSH1 0x24 PUSH0 REVERT JUMPDEST PUSH32 0x4E6F742061206A75726F72000000000000000000000000000000000000000000 PUSH0 DUP3 ADD MSTORE POP JUMP JUMPDEST PUSH0 PUSH2 0x24E8 PUSH1 0xB DUP4 PUSH2 0x1D37 JUMP JUMPDEST SWAP2 POP PUSH2 0x24F3 DUP3 PUSH2 0x24B4 JUMP JUMPDEST PUSH1 0x20 DUP3 ADD SWAP1 POP SWAP2 SWAP1 POP JUMP JUMPDEST PUSH0 PUSH1 0x20 DUP3 ADD SWAP1 POP DUP2 DUP2 SUB PUSH0 DUP4 ADD MSTORE PUSH2 0x2515 DUP2 PUSH2 0x24DC JUMP JUMPDEST SWAP1 POP SWAP2 SWAP1 POP JUMP JUMPDEST PUSH0 PUSH1 0x40 DUP3 ADD SWAP1 POP PUSH2 0x252F PUSH0 DUP4 ADD DUP6 PUSH2 0x1D06 JUMP JUMPDEST PUSH2 0x253C PUSH1 0x20 DUP4 ADD DUP5 PUSH2 0x1BC2 JUMP JUMPDEST SWAP4 SWAP3 POP POP POP JUMP JUMPDEST PUSH32 0x4E6F742062616E2D776F72746879000000000000000000000000000000000000 PUSH0 DUP3 ADD MSTORE POP JUMP JUMPDEST PUSH0 PUSH2 0x2577 PUSH1 0xE DUP4 PUSH2 0x1D37 JUMP JUMPDEST SWAP2 POP PUSH2 0x2582 DUP3 PUSH2 0x2543 JUMP JUMPDEST PUSH1 0x20 DUP3 ADD SWAP1 POP SWAP2 SWAP1 POP JUMP JUMPDEST PUSH0 PUSH1 0x20 DUP3 ADD SWAP1 POP DUP2 DUP2 SUB PUSH0 DUP4 ADD MSTORE PUSH2 0x25A4 DUP2 PUSH2 0x256B JUMP JUMPDEST SWAP1 POP SWAP2 SWAP1 POP JUMP JUMPDEST PUSH32 0x4E6F74206120706C617965720000000000000000000000000000000000000000 PUSH0 DUP3 ADD MSTORE POP JUMP JUMPDEST PUSH0 PUSH2 0x25DF PUSH1 0xC DUP4 PUSH2 0x1D37 JUMP JUMPDEST SWAP2 POP PUSH2 0x25EA DUP3 PUSH2 0x25AB JUMP JUMPDEST PUSH1 0x20 DUP3 ADD SWAP1 POP SWAP2 SWAP1 POP JUMP JUMPDEST PUSH0 PUSH1 0x20 DUP3 ADD SWAP1 POP DUP2 DUP2 SUB PUSH0 DUP4 ADD MSTORE PUSH2 0x260C DUP2 PUSH2 0x25D3 JUMP JUMPDEST SWAP1 POP SWAP2 SWAP1 POP JUMP JUMPDEST PUSH32 0x4E6F7420696E20636F6D6D697420706861736500000000000000000000000000 PUSH0 DUP3 ADD MSTORE POP JUMP JUMPDEST PUSH0 PUSH2 0x2647 PUSH1 0x13 DUP4 PUSH2 0x1D37 JUMP JUMPDEST SWAP2 POP PUSH2 0x2652 DUP3 PUSH2 0x2613 JUMP JUMPDEST PUSH1 0x20 DUP3 ADD SWAP1 POP SWAP2 SWAP1 POP JUMP JUMPDEST PUSH0 PUSH1 0x20 DUP3 ADD SWAP1 POP DUP2 DUP2 SUB PUSH0 DUP4 ADD MSTORE PUSH2 0x2674 DUP2 PUSH2 0x263B JUMP JUMPDEST SWAP1 POP SWAP2 SWAP1 POP JUMP JUMPDEST PUSH32 0x4E6F7420696E2072657665616C20706861736500000000000000000000000000 PUSH0 DUP3 ADD MSTORE POP JUMP JUMPDEST PUSH0 PUSH2 0x26AF PUSH1 0x13 DUP4 PUSH2 0x1D37 JUMP JUMPDEST SWAP2 POP PUSH2 0x26BA DUP3 PUSH2 0x267B JUMP JUMPDEST PUSH1 0x20 DUP3 ADD SWAP1 POP SWAP2 SWAP1 POP JUMP JUMPDEST PUSH0 PUSH1 0x20 DUP3 ADD SWAP1 POP DUP2 DUP2 SUB PUSH0 DUP4 ADD MSTORE PUSH2 0x26DC DUP2 PUSH2 0x26A3 JUMP JUMPDEST SWAP1 POP SWAP2 SWAP1 POP JUMP JUMPDEST PUSH32 0x52657665616C20706572696F6420657870697265640000000000000000000000 PUSH0 DUP3 ADD MSTORE POP JUMP JUMPDEST PUSH0 PUSH2 0x2717 PUSH1 0x15 DUP4 PUSH2 0x1D37 JUMP JUMPDEST SWAP2 POP PUSH2 0x2722 DUP3 PUSH2 0x26E3 JUMP JUMPDEST PUSH1 0x20 DUP3 ADD SWAP1 POP SWAP2 SWAP1 POP JUMP JUMPDEST PUSH0 PUSH1 0x20 DUP3 ADD SWAP1 POP DUP2 DUP2 SUB PUSH0 DUP4 ADD MSTORE PUSH2 0x2744 DUP2 PUSH2 0x270B JUMP JUMPDEST SWAP1 POP SWAP2 SWAP1 POP JUMP JUMPDEST PUSH0 DUP2 SWAP1 POP SWAP3 SWAP2 POP POP JUMP JUMPDEST PUSH32 0x495F7265706F72745F7472757468000000000000000000000000000000000000 PUSH0 DUP3 ADD MSTORE POP JUMP JUMPDEST PUSH0 PUSH2 0x2789 PUSH1 0xE DUP4 PUSH2 0x274B JUMP JUMPDEST SWAP2 POP PUSH2 0x2794 DUP3 PUSH2 0x2755 JUMP JUMPDEST PUSH1 0xE DUP3 ADD SWAP1 POP SWAP2 SWAP1 POP JUMP JUMPDEST PUSH0 DUP2 SWAP1 POP SWAP2 SWAP1 POP JUMP JUMPDEST PUSH2 0x27B9 PUSH2 0x27B4 DUP3 PUSH2 0x1D15 JUMP JUMPDEST PUSH2 0x279F JUMP JUMPDEST DUP3 MSTORE POP POP JUMP JUMPDEST PUSH0 PUSH2 0x27C9 DUP3 PUSH2 0x277D JUMP JUMPDEST SWAP2 POP PUSH2 0x27D5 DUP3 DUP5 PUSH2 0x27A8 JUMP JUMPDEST PUSH1 0x20 DUP3 ADD SWAP2 POP DUP2 SWAP1 POP SWAP3 SWAP2 POP POP JUMP JUMPDEST PUSH32 0x496E76616C69642072657665616C000000000000000000000000000000000000 PUSH0 DUP3 ADD MSTORE POP JUMP JUMPDEST PUSH0 PUSH2 0x2818 PUSH1 0xE DUP4 PUSH2 0x1D37 JUMP JUMPDEST SWAP2 POP PUSH2 0x2823 DUP3 PUSH2 0x27E4 JUMP JUMPDEST PUSH1 0x20 DUP3 ADD SWAP1 POP SWAP2 SWAP1 POP JUMP JUMPDEST PUSH0 PUSH1 0x20 DUP3 ADD SWAP1 POP DUP2 DUP2 SUB PUSH0 DUP4 ADD MSTORE PUSH2 0x2845 DUP2 PUSH2 0x280C JUMP JUMPDEST SWAP1 POP SWAP2 SWAP1 POP JUMP JUMPDEST PUSH0 DUP2 SWAP1 POP DUP2 PUSH0 MSTORE PUSH1 0x20 PUSH0 KECCAK256 SWAP1 POP SWAP2 SWAP1 POP JUMP JUMPDEST PUSH0 PUSH1 0x20 PUSH1 0x1F DUP4 ADD DIV SWAP1 POP SWAP2 SWAP1 POP JUMP JUMPDEST PUSH0 DUP3 DUP3 SHL SWAP1 POP SWAP3 SWAP2 POP POP JUMP JUMPDEST PUSH0 PUSH1 0x8 DUP4 MUL PUSH2 0x28A8 PUSH32 0xFFFFFFFFFFFFFFFFFFFFFFFFFFFFFFFFFFFFFFFFFFFFFFFFFFFFFFFFFFFFFFFF DUP3 PUSH2 0x286D JUMP JUMPDEST PUSH2 0x28B2 DUP7 DUP4 PUSH2 0x286D JUMP JUMPDEST SWAP6 POP DUP1 NOT DUP5 AND SWAP4 POP DUP1 DUP7 AND DUP5 OR SWAP3 POP POP POP SWAP4 SWAP3 POP POP POP JUMP JUMPDEST PUSH0 DUP2 SWAP1 POP SWAP2 SWAP1 POP JUMP JUMPDEST PUSH0 PUSH2 0x28ED PUSH2 0x28E8 PUSH2 0x28E3 DUP5 PUSH2 0x1BB9 JUMP JUMPDEST PUSH2 0x28CA JUMP JUMPDEST PUSH2 0x1BB9 JUMP JUMPDEST SWAP1 POP SWAP2 SWAP1 POP JUMP JUMPDEST PUSH0 DUP2 SWAP1 POP SWAP2 SWAP1 POP JUMP JUMPDEST PUSH2 0x2906 DUP4 PUSH2 0x28D3 JUMP JUMPDEST PUSH2 0x291A PUSH2 0x2912 DUP3 PUSH2 0x28F4 JUMP JUMPDEST DUP5 DUP5 SLOAD PUSH2 0x2879 JUMP JUMPDEST DUP3 SSTORE POP POP POP POP JUMP JUMPDEST PUSH0 SWAP1 JUMP JUMPDEST PUSH2 0x292E PUSH2 0x2922 JUMP JUMPDEST PUSH2 0x2939 DUP2 DUP5 DUP5 PUSH2 0x28FD JUMP JUMPDEST POP POP POP JUMP JUMPDEST JUMPDEST DUP2 DUP2 LT ISZERO PUSH2 0x295C JUMPI PUSH2 0x2951 PUSH0 DUP3 PUSH2 0x2926 JUMP JUMPDEST PUSH1 0x1 DUP2 ADD SWAP1 POP PUSH2 0x293F JUMP JUMPDEST POP POP JUMP JUMPDEST PUSH1 0x1F DUP3 GT ISZERO PUSH2 0x29A1 JUMPI PUSH2 0x2972 DUP2 PUSH2 0x284C JUMP JUMPDEST PUSH2 0x297B DUP5 PUSH2 0x285E JUMP JUMPDEST DUP2 ADD PUSH1 0x20 DUP6 LT ISZERO PUSH2 0x298A JUMPI DUP2 SWAP1 POP JUMPDEST PUSH2 0x299E PUSH2 0x2996 DUP6 PUSH2 0x285E JUMP JUMPDEST DUP4 ADD DUP3 PUSH2 0x293E JUMP JUMPDEST POP POP JUMPDEST POP POP POP JUMP JUMPDEST PUSH0 DUP3 DUP3 SHR SWAP1 POP SWAP3 SWAP2 POP POP JUMP JUMPDEST PUSH0 PUSH2 0x29C1 PUSH0 NOT DUP5 PUSH1 0x8 MUL PUSH2 0x29A6 JUMP JUMPDEST NOT DUP1 DUP4 AND SWAP2 POP POP SWAP3 SWAP2 POP POP JUMP JUMPDEST PUSH0 PUSH2 0x29D9 DUP4 DUP4 PUSH2 0x29B2 JUMP JUMPDEST SWAP2 POP DUP3 PUSH1 0x2 MUL DUP3 OR SWAP1 POP SWAP3 SWAP2 POP POP JUMP JUMPDEST PUSH2 0x29F2 DUP3 PUSH2 0x1D2D JUMP JUMPDEST PUSH8 0xFFFFFFFFFFFFFFFF DUP2 GT ISZERO PUSH2 0x2A0B JUMPI PUSH2 0x2A0A PUSH2 0x1FC4 JUMP JUMPDEST JUMPDEST PUSH2 0x2A15 DUP3 SLOAD PUSH2 0x22B9 JUMP JUMPDEST PUSH2 0x2A20 DUP3 DUP3 DUP6 PUSH2 0x2960 JUMP JUMPDEST PUSH0 PUSH1 0x20 SWAP1 POP PUSH1 0x1F DUP4 GT PUSH1 0x1 DUP2 EQ PUSH2 0x2A51 JUMPI PUSH0 DUP5 ISZERO PUSH2 0x2A3F JUMPI DUP3 DUP8 ADD MLOAD SWAP1 POP JUMPDEST PUSH2 0x2A49 DUP6 DUP3 PUSH2 0x29CE JUMP JUMPDEST DUP7 SSTORE POP PUSH2 0x2AB0 JUMP JUMPDEST PUSH1 0x1F NOT DUP5 AND PUSH2 0x2A5F DUP7 PUSH2 0x284C JUMP JUMPDEST PUSH0 JUMPDEST DUP3 DUP2 LT ISZERO PUSH2 0x2A86 JUMPI DUP5 DUP10 ADD MLOAD DUP3 SSTORE PUSH1 0x1 DUP3 ADD SWAP2 POP PUSH1 0x20 DUP6 ADD SWAP5 POP PUSH1 0x20 DUP2 ADD SWAP1 POP PUSH2 0x2A61 JUMP JUMPDEST DUP7 DUP4 LT ISZERO PUSH2 0x2AA3 JUMPI DUP5 DUP10 ADD MLOAD PUSH2 0x2A9F PUSH1 0x1F DUP10 AND DUP3 PUSH2 0x29B2 JUMP JUMPDEST DUP4 SSTORE POP JUMPDEST PUSH1 0x1 PUSH1 0x2 DUP9 MUL ADD DUP9 SSTORE POP POP POP JUMPDEST POP POP POP POP POP POP JUMP JUMPDEST PUSH0 PUSH1 0x20 DUP3 ADD SWAP1 POP PUSH2 0x2ACB PUSH0 DUP4 ADD DUP5 PUSH2 0x1D06 JUMP JUMPDEST SWAP3 SWAP2 POP POP JUMP JUMPDEST PUSH0 DUP2 SLOAD PUSH2 0x2ADD DUP2 PUSH2 0x22B9 JUMP JUMPDEST PUSH2 0x2AE7 DUP2 DUP7 PUSH2 0x274B JUMP JUMPDEST SWAP5 POP PUSH1 0x1 DUP3 AND PUSH0 DUP2 EQ PUSH2 0x2B01 JUMPI PUSH1 0x1 DUP2 EQ PUSH2 0x2B16 JUMPI PUSH2 0x2B48 JUMP JUMPDEST PUSH1 0xFF NOT DUP4 AND DUP7 MSTORE DUP2 ISZERO ISZERO DUP3 MUL DUP7 ADD SWAP4 POP PUSH2 0x2B48 JUMP JUMPDEST PUSH2 0x2B1F DUP6 PUSH2 0x284C JUMP JUMPDEST PUSH0 JUMPDEST DUP4 DUP2 LT ISZERO PUSH2 0x2B40 JUMPI DUP2 SLOAD DUP2 DUP10 ADD MSTORE PUSH1 0x1 DUP3 ADD SWAP2 POP PUSH1 0x20 DUP2 ADD SWAP1 POP PUSH2 0x2B21 JUMP JUMPDEST DUP4 DUP9 ADD SWAP6 POP POP POP JUMPDEST POP POP POP SWAP3 SWAP2 POP POP JUMP JUMPDEST PUSH0 PUSH2 0x2B5C DUP3 DUP5 PUSH2 0x2AD1 JUMP JUMPDEST SWAP2 POP DUP2 SWAP1 POP SWAP3 SWAP2 POP POP JUMP JUMPDEST PUSH0 PUSH2 0x2B71 DUP3 PUSH2 0x1BEA JUMP JUMPDEST SWAP2 POP PUSH2 0x2B7C DUP4 PUSH2 0x1BEA JUMP JUMPDEST SWAP3 POP DUP3 DUP3 ADD SWAP1 POP DUP3 DUP2 SLT ISZERO PUSH0 DUP4 SLT AND DUP4 DUP3 SLT PUSH0 DUP5 SLT ISZERO AND OR ISZERO PUSH2 0x2BA2 JUMPI PUSH2 0x2BA1 PUSH2 0x23B9 JUMP JUMPDEST JUMPDEST SWAP3 SWAP2 POP POP JUMP JUMPDEST PUSH0 PUSH2 0x2BB2 DUP3 PUSH2 0x1BB9 JUMP JUMPDEST SWAP2 POP PUSH2 0x2BBD DUP4 PUSH2 0x1BB9 JUMP JUMPDEST SWAP3 POP DUP3 DUP3 MUL PUSH2 0x2BCB DUP2 PUSH2 0x1BB9 JUMP JUMPDEST SWAP2 POP DUP3 DUP3 DIV DUP5 EQ DUP4 ISZERO OR PUSH2 0x2BE2 JUMPI PUSH2 0x2BE1 PUSH2 0x23B9 JUMP JUMPDEST JUMPDEST POP SWAP3 SWAP2 POP POP JUMP JUMPDEST PUSH0 PUSH2 0x2BF3 DUP3 PUSH2 0x1BB9 JUMP JUMPDEST SWAP2 POP PUSH2 0x2BFE DUP4 PUSH2 0x1BB9 JUMP JUMPDEST SWAP3 POP DUP3 DUP3 SUB SWAP1 POP DUP2 DUP2 GT ISZERO PUSH2 0x2C16 JUMPI PUSH2 0x2C15 PUSH2 0x23B9 JUMP JUMPDEST JUMPDEST SWAP3 SWAP2 POP POP JUMP INVALID LOG2 PUSH5 0x6970667358 0x22 SLT KECCAK256 AND CODECOPY 0xD4 PUSH1 0x8B DUP8 LOG3 DUP15 0xD7 0xB1 PUSH26 0x6A1DB1FF52858285D2561B2EB494E4645B14BFCD2F64736F6C63 NUMBER STOP ADDMOD BYTE STOP CALLER "
		},
		"gasEstimates": {
			"creation": {
				"codeDepositCost": "2269200",
				"executionCost": "2425",
				"totalCost": "2271625"
			},
			"external": {
				"JURY_REWARD()": "348",
				"JURY_STAKE()": "370",
				"REP_JURY_VOTE()": "371",
				"REP_LIED()": "392",
				"REP_NO_REVEAL()": "414",
				"REP_TRUTHFUL()": "393",
				"REP_WIN()": "391",
				"REVEAL_PERIOD()": "347",
				"banCheater(address)": "27073",
				"commitResult(uint256,bytes32)": "60312",
				"createMatch(address)": "infinite",
				"getStakeAmount(address)": "5176",
				"joinJury(uint256)": "53555",
				"matchCounter()": "2449",
				"matches(uint256)": "infinite",
				"players(address)": "7366",
				"revealResult(uint256,bytes32,string)": "infinite",
				"voteAsJuror(uint256,uint256)": "infinite"
			},
			"internal": {
				"_resolveDispute(uint256,address)": "infinite",
				"_resolveMatch(uint256,address)": "infinite"
			}
		},
		"methodIdentifiers": {
			"JURY_REWARD()": "6be6258b",
			"JURY_STAKE()": "27a69176",
			"REP_JURY_VOTE()": "02edf4b4",
			"REP_LIED()": "8b227ff4",
			"REP_NO_REVEAL()": "a4785d14",
			"REP_TRUTHFUL()": "0ac2c4c3",
			"REP_WIN()": "e0aff415",
			"REVEAL_PERIOD()": "c3529f31",
			"banCheater(address)": "72352776",
			"commitResult(uint256,bytes32)": "c7825a0e",
			"createMatch(address)": "583262ab",
			"getStakeAmount(address)": "0c2eb403",
			"joinJury(uint256)": "21036b8a",
			"matchCounter()": "01fd1951",
			"matches(uint256)": "4768d4ef",
			"players(address)": "e2eb41ff",
			"revealResult(uint256,bytes32,string)": "fccac4ac",
			"voteAsJuror(uint256,uint256)": "625535d1"
		}
	},
	"abi": [
		{
			"anonymous": false,
			"inputs": [
				{
					"indexed": true,
					"internalType": "uint256",
					"name": "matchId",
					"type": "uint256"
				}
			],
			"name": "DisputeInitiated",
			"type": "event"
		},
		{
			"anonymous": false,
			"inputs": [
				{
					"indexed": true,
					"internalType": "uint256",
					"name": "matchId",
					"type": "uint256"
				},
				{
					"indexed": false,
					"internalType": "address",
					"name": "juror",
					"type": "address"
				},
				{
					"indexed": false,
					"internalType": "uint256",
					"name": "vote",
					"type": "uint256"
				}
			],
			"name": "JuryVoted",
			"type": "event"
		},
		{
			"anonymous": false,
			"inputs": [
				{
					"indexed": true,
					"internalType": "uint256",
					"name": "matchId",
					"type": "uint256"
				},
				{
					"indexed": false,
					"internalType": "address",
					"name": "player1",
					"type": "address"
				},
				{
					"indexed": false,
					"internalType": "address",
					"name": "player2",
					"type": "address"
				}
			],
			"name": "MatchCreated",
			"type": "event"
		},
		{
			"anonymous": false,
			"inputs": [
				{
					"indexed": true,
					"internalType": "uint256",
					"name": "matchId",
					"type": "uint256"
				},
				{
					"indexed": false,
					"internalType": "address",
					"name": "winner",
					"type": "address"
				}
			],
			"name": "MatchResolved",
			"type": "event"
		},
		{
			"anonymous": false,
			"inputs": [
				{
					"indexed": true,
					"internalType": "uint256",
					"name": "matchId",
					"type": "uint256"
				},
				{
					"indexed": false,
					"internalType": "address",
					"name": "player",
					"type": "address"
				}
			],
			"name": "ResultRevealed",
			"type": "event"
		},
		{
			"inputs": [],
			"name": "JURY_REWARD",
			"outputs": [
				{
					"internalType": "uint256",
					"name": "",
					"type": "uint256"
				}
			],
			"stateMutability": "view",
			"type": "function"
		},
		{
			"inputs": [],
			"name": "JURY_STAKE",
			"outputs": [
				{
					"internalType": "uint256",
					"name": "",
					"type": "uint256"
				}
			],
			"stateMutability": "view",
			"type": "function"
		},
		{
			"inputs": [],
			"name": "REP_JURY_VOTE",
			"outputs": [
				{
					"internalType": "int256",
					"name": "",
					"type": "int256"
				}
			],
			"stateMutability": "view",
			"type": "function"
		},
		{
			"inputs": [],
			"name": "REP_LIED",
			"outputs": [
				{
					"internalType": "int256",
					"name": "",
					"type": "int256"
				}
			],
			"stateMutability": "view",
			"type": "function"
		},
		{
			"inputs": [],
			"name": "REP_NO_REVEAL",
			"outputs": [
				{
					"internalType": "int256",
					"name": "",
					"type": "int256"
				}
			],
			"stateMutability": "view",
			"type": "function"
		},
		{
			"inputs": [],
			"name": "REP_TRUTHFUL",
			"outputs": [
				{
					"internalType": "int256",
					"name": "",
					"type": "int256"
				}
			],
			"stateMutability": "view",
			"type": "function"
		},
		{
			"inputs": [],
			"name": "REP_WIN",
			"outputs": [
				{
					"internalType": "int256",
					"name": "",
					"type": "int256"
				}
			],
			"stateMutability": "view",
			"type": "function"
		},
		{
			"inputs": [],
			"name": "REVEAL_PERIOD",
			"outputs": [
				{
					"internalType": "uint256",
					"name": "",
					"type": "uint256"
				}
			],
			"stateMutability": "view",
			"type": "function"
		},
		{
			"inputs": [
				{
					"internalType": "address",
					"name": "player",
					"type": "address"
				}
			],
			"name": "banCheater",
			"outputs": [],
			"stateMutability": "nonpayable",
			"type": "function"
		},
		{
			"inputs": [
				{
					"internalType": "uint256",
					"name": "matchId",
					"type": "uint256"
				},
				{
					"internalType": "bytes32",
					"name": "hashedCommitment",
					"type": "bytes32"
				}
			],
			"name": "commitResult",
			"outputs": [],
			"stateMutability": "nonpayable",
			"type": "function"
		},
		{
			"inputs": [
				{
					"internalType": "address",
					"name": "opponent",
					"type": "address"
				}
			],
			"name": "createMatch",
			"outputs": [],
			"stateMutability": "payable",
			"type": "function"
		},
		{
			"inputs": [
				{
					"internalType": "address",
					"name": "player",
					"type": "address"
				}
			],
			"name": "getStakeAmount",
			"outputs": [
				{
					"internalType": "uint256",
					"name": "",
					"type": "uint256"
				}
			],
			"stateMutability": "view",
			"type": "function"
		},
		{
			"inputs": [
				{
					"internalType": "uint256",
					"name": "matchId",
					"type": "uint256"
				}
			],
			"name": "joinJury",
			"outputs": [],
			"stateMutability": "payable",
			"type": "function"
		},
		{
			"inputs": [],
			"name": "matchCounter",
			"outputs": [
				{
					"internalType": "uint256",
					"name": "",
					"type": "uint256"
				}
			],
			"stateMutability": "view",
			"type": "function"
		},
		{
			"inputs": [
				{
					"internalType": "uint256",
					"name": "",
					"type": "uint256"
				}
			],
			"name": "matches",
			"outputs": [
				{
					"internalType": "address",
					"name": "player1",
					"type": "address"
				},
				{
					"internalType": "address",
					"name": "player2",
					"type": "address"
				},
				{
					"internalType": "bytes32",
					"name": "player1Commit",
					"type": "bytes32"
				},
				{
					"internalType": "bytes32",
					"name": "player2Commit",
					"type": "bytes32"
				},
				{
					"internalType": "string",
					"name": "player1Result",
					"type": "string"
				},
				{
					"internalType": "string",
					"name": "player2Result",
					"type": "string"
				},
				{
					"internalType": "bytes32",
					"name": "player1Salt",
					"type": "bytes32"
				},
				{
					"internalType": "bytes32",
					"name": "player2Salt",
					"type": "bytes32"
				},
				{
					"internalType": "enum MatchContract.MatchStatus",
					"name": "status",
					"type": "uint8"
				},
				{
					"internalType": "uint256",
					"name": "stakeAmount",
					"type": "uint256"
				},
				{
					"internalType": "uint256",
					"name": "revealDeadline",
					"type": "uint256"
				}
			],
			"stateMutability": "view",
			"type": "function"
		},
		{
			"inputs": [
				{
					"internalType": "address",
					"name": "",
					"type": "address"
				}
			],
			"name": "players",
			"outputs": [
				{
					"internalType": "int256",
					"name": "reputation",
					"type": "int256"
				},
				{
					"internalType": "uint256",
					"name": "totalMatches",
					"type": "uint256"
				},
				{
					"internalType": "bool",
					"name": "isBanned",
					"type": "bool"
				}
			],
			"stateMutability": "view",
			"type": "function"
		},
		{
			"inputs": [
				{
					"internalType": "uint256",
					"name": "matchId",
					"type": "uint256"
				},
				{
					"internalType": "bytes32",
					"name": "salt",
					"type": "bytes32"
				},
				{
					"internalType": "string",
					"name": "result",
					"type": "string"
				}
			],
			"name": "revealResult",
			"outputs": [],
			"stateMutability": "nonpayable",
			"type": "function"
		},
		{
			"inputs": [
				{
					"internalType": "uint256",
					"name": "matchId",
					"type": "uint256"
				},
				{
					"internalType": "uint256",
					"name": "vote",
					"type": "uint256"
				}
			],
			"name": "voteAsJuror",
			"outputs": [],
			"stateMutability": "nonpayable",
			"type": "function"
		}
	]
}